:104800000200000000000000FFFFFF00FFFFFF00AC
:104810000026040000000000AA2804000000000098
:10482000AA28040000000000AA28040000000000DC
:10483000AA28040000000000AA28040000000000CC
:10484000AA28040000000000AA28040000000000BC
:10485000AA28040000000000AA28040000000000AC
:10486000AA28040000000000AA280400000000009C
:104870005E28040000000000AA28040000000000D8
:10488000AA28040000000000AA280400000000007C
:104890002829040000000000BC28040000000000DB
:1048A000AA28040000000000AA280400000000005C
:1048B000AA28040000000000AA280400000000004C
:1048C000AA28040000000000AA280400000000003C
:1048D000AA28040000000000AA280400000000002C
:1048E000AA28040000000000AA280400000000001C
:1048F0009629040000000000B42904000000000014
:10490000AA28040000000000AA28040000000000FB
:10491000AA28040000000000AA28040000000000EB
:10492000AA28040000000000AA28040000000000DB
:10493000AA28040000000000AA28040000000000CB
:10494000AA28040000000000AA28040000000000BB
:10495000AA28040000000000AA28040000000000AB
:10496000AA28040000000000AA280400000000009B
:10497000AA28040000000000AA280400000000008B
:10498000AA28040000000000AA280400000000007B
:10499000AA280400000000008C2904000000000088
:1049A000AA28040000000000AA280400000000005B
:1049B000AA28040000000000AA280400000000004B
:1049C000AA28040000000000AA280400000000003B
:1049D000AA28040000000000AA280400000000002B
:1049E000AA28040000000000AA280400000000001B
:1049F000AA28040000000000AA280400000000000B
:104A0000AA28040000000000AA28040000000000FA
:104A1000AA28040000000000AA28040000000000EA
:104A2000AA28040000000000F8270400000000008D
:104A3000FFFFFF00FFFFFF00FFFFFF00FFFFFF0082
:104A4000FFFFFF00FFFFFF00FFFFFF00FFFFFF0072
:104A5000FFFFFF00FFFFFF00FFFFFF00FFFFFF0062
:104A6000FFFFFF00FFFFFF00FFFFFF00FFFFFF0052
:104A7000FFFFFF00FFFFFF00FFFFFF00FFFFFF0042
:104A8000FFFFFF00FFFFFF00FFFFFF00FFFFFF0032
:104A9000FFFFFF00FFFFFF00FFFFFF00FFFFFF0022
:104AA000FFFFFF00FFFFFF00FFFFFF00FFFFFF0012
:104AB000FFFFFF00FFFFFF00FFFFFF00FFFFFF0002
:104AC000FFFFFF00FFFFFF00FFFFFF00FFFFFF00F2
:104AD000FFFFFF00FFFFFF00FFFFFF00FFFFFF00E2
:104AE000FFFFFF00FFFFFF00FFFFFF00FFFFFF00D2
:104AF000FFFFFF00FFFFFF00FFFFFF00FFFFFF00C2
:104B0000FFFFFF00FFFFFF00FFFFFF00FFFFFF00B1
:104B1000FFFFFF00FFFFFF00FFFFFF00FFFFFF00A1
:104B2000FFFFFF00FFFFFF00FFFFFF00FFFFFF0091
:104B3000FFFFFF00FFFFFF00FFFFFF00FFFFFF0081
:104B4000FFFFFF00FFFFFF00FFFFFF00FFFFFF0071
:104B5000FFFFFF00FFFFFF00FFFFFF00FFFFFF0061
:104B6000FFFFFF00FFFFFF00FFFFFF00FFFFFF0051
:104B7000FFFFFF00FFFFFF00FFFFFF00FFFFFF0041
:104B8000FFFFFF00FFFFFF00FFFFFF00FFFFFF0031
:104B9000FFFFFF00FFFFFF00FFFFFF00FFFFFF0021
:104BA000FFFFFF00FFFFFF00FFFFFF00FFFFFF0011
:104BB000FFFFFF00FFFFFF00FFFFFF00FFFFFF0001
:104BC000FFFFFF00FFFFFF00FFFFFF00FFFFFF00F1
:104BD000FFFFFF00FFFFFF00FFFFFF00FFFFFF00E1
:104BE000FFFFFF00FFFFFF00FFFFFF00FFFFFF00D1
:104BF000FFFFFF00FFFFFF00FFFFFF00FFFFFF00C1
:104C00002F9F22000EAF24000E018800000000003C
:104C1000000020000000E00002003200000120003F
:104C20002002880014000700050207000000E000D1
:104C300003003A0000E12F001100200002003700BD
:104C40000000200001002000810F700001003200F0
:104C500014000700000020000000E0000200320005
:104C60000000020000000000287F02000000000099
:104C70000040DA000000FE004440A90000E72700E1
:104C80000000E000030032001020200090018800A6
:104C90004440A800000006008A1F78008B1F78009F
:104CA00000000600A1028800800478000000EB00EC
:104CB0001F003700E284440054A0B4009905BA00F4
:104CC000E284440054A0B4009906BA00E28444008F
:104CD00054A0B4000006EB00476FDE00FD07B200F1
:104CE000AE018800636CE10003003A00EAFF0700B0
:104CF0000000EB000E003700606CE10008003A0095
:104D0000004DEB000A05E800020039003420EC00F9
:104D10000AF0A0008B05E900F9FF3E00040037000F
:104D20006168E100010032000086EB000B00070023
:104D300019C7BA001905BA000E04E00003003A00D2
:104D40000A00E000DBFF3A0000000600FE07B200A8
:104D5000AE0288008A047800F5FF37000CD0A3006B
:104D6000E20F4D001C00390089027800354DBA0071
:104D70000A05E800020039003420EC000AF0A00027
:104D80008B05E9000F003200254DBA000A05E80046
:104D9000020039003420EC000AF0A0008B05E90085
:104DA000080032000C00E0000600320015CDBA0009
:104DB0000A05E800020039003420EC000AF0A000E7
:104DC0008B05E9008984E80054A0B4000B00E000E2
:104DD000E2FF3A00000006009902BA00055D780083
:104DE0008B05E900F7FF3200C82ADE00055D780078
:104DF0008B05E900F3FF32000C00E000F1FF320008
:104E000019DDBA00EEFF370098E904000100000048
:104E10004EF50400010000004AF504000100000006
:104E200024F5040001000000780E040002000000D8
:104E3000740E040002000000A6DB04000100000064
:104E40009ADB0400010000008EE204000100000073
:104E50007ADF040001000000CCE50400010000003E
:104E600020E30400010000001EE304000100000034
:104E700032020400020000002E02040002000000C2
:104E800096100400020000009210040002000000CE
:104E9000E8720400010000006672040001000000D6
:104EA000005F0400010000009CAB04000100000052
:104EB0004C350400010000003C37040001000000F4
:104EC0001839040001000000E83A04000100000065
:104ED000DC630400010000005263040001000000D4
:104EE000C8620400010000004266040001000000E6
:104EF0006E68040001000000A667040001000000C5
:104F00009064040001000000AA6B0400010000008E
:104F1000206B040001000000966A040001000000FC
:104F2000F466040001000000DC71040001000000D0
:104F30007E730400010000008A7304000100000079
:104F40009673040001000000A27304000100000039
:104F50001E02040001000000100204000100000015
:104F60000C03040001000000FE0204000100000028
:104F7000FA03040001000000EC030400010000003B
:104F800032610400010000002E65040001000000F1
:104F9000726D040001000000E86C040001000000D4
:104FA0005E6C040001000000826904000100000042
:104FB0002A6F040001000000626E0400010000007E
:104FC0000C6A040001000000FE70040001000000F3
:104FD0004A70040001000000B46F040001000000EA
:104FE0005E180400020000001A1A0400020000000B
:104FF00000A0FE00849FBE00861F78009080A9005C
:105000000A87AB00290032007E48E200250032000A
:105010000644800015448000E24380000200E00066
:105020001E0032008680420000102000808F500059
:105030001A003E003107A8000100240083398000D7
:1050400003806000FDFF3A000600E000120032001D
:1050500085814200830141000001EB000100240032
:105060000540410030E7B7001380FB001342900079
:105070004822DD00040270009439880084398000E1
:1050800004806000FDFF3A000201E8008381E8002F
:10509000820F5300F2FF3E003107A9007C28EF0089
:1050A0007E68EF000A87A9000887A9004F037800EF
:1050B0004F02BE000080FE00004006003600F800EF
:1050C000809FBE00829FBE00849FBE00869FBE0060
:1050D0003200F8003400F80010002000A001880021
:1050E0001020200090018800D348E2001000320018
:1050F000D2C8BF008040E80081417800228D2000A6
:1051000003497800118D2000914078000104E100EE
:10511000070039009AC102000100000010C0B3006E
:10512000C9E8B7006EAD020001000000CB68EF00D7
:1051300084E0A9003400F9003200F9004F03BE00FA
:105140004F02BE004F01BE004F00BE003600F90006
:1051500000400600801F78008680A90087A0A90073
:105160008AA0A9008820A900000780004027EF003E
:105170004F00780000400600809FBE00829FBE0066
:10518000849FBE00869FBE00881F780000202000FC
:10519000E193210011006000020032009580A90017
:1051A000250037008580A900D4C98000E0C98000AF
:1051B000F5C98000C82ADE00E1C26200022020009A
:1051C0000398210007FE2F00838343000043EB0078
:1051D0000F003700B080FB0021118800830F5000C2
:1051E00001003A0007007800800F520007003A00E3
:1051F000E0C98800E0932100900078000180A100C0
:105200000190A000010878000B003700864278006A
:105210001811800088006100EEFF3200E0C98800AC
:10522000E0932100E1826200C82ADD00900078004E
:105230000180A100058870004F0478004F03BE0074
:105240004F02BE004F01BE004F00BE0000400600EE
:10525000809FBE00829FBE00849FBE002262AB0082
:105260001100320010C0B300EEE8B7000E003700A6
:105270003111800001587800820F500001003A007F
:1052800005007800808F510011003A00B0C98800F5
:10529000E0932100900078000110A1000100A0001F
:1052A0000108780014003700C3C98000B0C980002D
:1052B000F1C980008100D100E1C0600002962100A8
:1052C00005FE2F00828242000042EB000100370001
:1052D000844078002202AB00E5FF3A00B0C98800A4
:1052E000E0932100E180600081804000100178009F
:1052F0000210A10001087100F0FF2700A00888003B
:105300001FE1A8008560A9004F02BE004F01BE004A
:105310004F00BE00004006002222AB000100320018
:105320002222A9008C20A90000400600801F7800DE
:105330003200F8003400F80010002000A0018800BE
:105340001020200090018800F0FF2700A0088800AE
:105350001FE1A9008760A9003400F9003200F900BC
:105360004F007800004006003600F800809FBE0025
:10537000829FBE00849FBE00869FBE00304F80008B
:105380000000E0000100320000000100F0A4210054
:105390001048E80011C0B3000000E900014878009F
:1053A0008780A9004F03BE004F02BE004F01BE0020
:1053B0004F00BE003600F90000400600889FBE0086
:1053C0008004780080D280000000E00004003A00F1
:1053D0000E0007000084EB000000E000080035002C
:1053E00088D280000900E000050032000900440076
:1053F000060007000000E00001003D000084EB0013
:10540000080078004F04BE0000000600800078000D
:105410000100E00003003A0020A5210080D28800AE
:10542000000005000080EB00229F2200828F5000C8
:1054300002003E0081D288000000EB000000060060
:105440000000050003F0A200889FBE008A9FBE00F6
:105450008C1F7800080107000F0133006450E10041
:105460004F0032006420E1005200320003826C00E1
:1054700007003B000905D0000306D000820F54004E
:105480000C065D000200390002003200890178003C
:10549000030678008582550004003D000003FD00EE
:1054A0008103FD008502EA008B854200840F7200B3
:1054B00002003B0060001000E08018006011B8009E
:1054C0000005EB007A28E1000A00390006007800A8
:1054D000C75DDD00F707B200878075002D0037003B
:1054E000828171000A017800610560008180D1002D
:1054F0000080D3008502E900F9FF3B00060440006C
:105500008784480002003B0060041400E0841C0013
:105510000988A300070032008A817100828171002E
:10552000610164008904D1000884D3008B05E80080
:10553000170037000978A30013003A000B00E000C1
:10554000130034008B05E9000804440089844C00F2
:105550000A4474000978A3000D003A000B00E00033
:10556000070034008B05E9000804440089844C00DE
:1055700001003A000B0020000978A300F7FF320079
:105580000001EB0002003700828171000A017800FF
:105590007E0007000CF0A70001F0A000C700370054
:1055A0006420E10002003A00838F6C00C7003300E2
:1055B0000801BE000200BE00C0003700889FBE0088
:1055C0008A9FBE008C1F7800AB000700B20033003A
:1055D00003866C006450E1002E0032006420E1007C
:1055E000330032006150E1002F0032006120E10001
:1055F0003100320085855500EB07B000090020001E
:1056000008042000050037000804440089844C0089
:105610000A0031000603430087834B00000153005A
:1056200081815B00F8FF33000203BE000800A00088
:105630000804440089844C00F6FF3900C639DD00B7
:105640008301730001003200130020008904D1009F
:105650000884D3000998A300050032000800A700C1
:105660000300A0008904D1000884D3008B05E80062
:105670008904D1000884D3000001EB000281D2002C
:105680004200070001F0A1000CF0A70001F0A0000B
:105690008A0037006420E1008C0032000801BE005F
:1056A0000200BE00F7FF37006120E10087003200F2
:1056B0006000B800F3FF37000000200001F8270069
:1056C000F0FF3700839F68000100E00002003D000A
:1056D00060001000E08018000300E00002003D00C0
:1056E00060011100E0811900BE0007004F00E000DA
:1056F00002003B0060001000E0801800000006007F
:105700000001BE00470007000470A70003F0A100DD
:105710006509B100160032000D0035006828E1006F
:1057200006003500F0FF2F00F1FF27000300E00026
:1057300013003B00010028000000050000004000AD
:10574000818048008502E900FCFF3A00080037002C
:10575000F88F420002003C008000EB0000000500D2
:105760008100D1000080D3008502E800FCFF3A00F0
:105770000300E00002003B0060001000E080180021
:10578000000006006011B800A90037008100200069
:10579000618055000B003D000B00200061FE2F00D2
:1057A0000100E1001D00340082817100610164008C
:1057B0008904D1000884D3000000E800FAFF3A0011
:1057C00071002000610064000300700002006000AE
:1057D0000900320061044400E0844C000988A500FF
:1057E000050032008B05E8006808E10002003A007D
:1057F0008904D1000884D300F20F20000258E10090
:1058000005003D00C75DDD00F907B2008980750025
:1058100008007800000006000BF827008B007800D5
:1058200000000500C70ADE00F107B200F50FB20064
:1058300008003200E1CF4200020032000170A000F7
:1058400024000500810F70000100320004080500EB
:1058500044000500810F700002003A0014000500AA
:105860008502E9000000400081C04800FCFF3B00C9
:105870000170A000240005000004BE00E9FF07003D
:105880000003BE000405BE000200BE00E5FF0700E5
:10589000844F7500000006000200BE006450E10065
:1058A000050036006420E100020036000968A3000C
:1058B00001003A000800BE000160A0004F06780019
:1058C0004F05BE004F04BE0000000600F0FF2F0091
:1058D000F1FF2700F9FF3700811F78000100E00089
:1058E00002003D0060001000E08018000300E000AE
:1058F00002003D0060011100E0811900490007002D
:105900004F00E00002003B0060001000E080180043
:1059100000000600889FBE008A9FBE008C1F780092
:10592000D5FF0700DCFF330003866C006450E10004
:10593000240032006420E100270032006150E100C1
:10594000220032006120E100210032008B854200FC
:10595000EB07B1000134B800003AB8000804420077
:1059600089844A00013AB8000030B80088804000BD
:1059700009014A0004003300000040008180480013
:10598000020149008B05E900C909DD0083017000AF
:105990000100320013002000C814DE004814DD00AE
:1059A0004709DE001200B200C808DE00088470005B
:1059B00076FF070001F0A1000CF0A70001F0A000A5
:1059C000BEFF37006120E100C0FF32000801BE00C9
:1059D0000200BE00F7FF37006150E100FCFF3A0013
:1059E000BAFF37006022B800060220000000D00095
:1059F0008180D2000482D2008582D2000000A00003
:105A00000202520083825A00030031000202420067
:105A100083824A000000A1000603E900F3FF3A0078
:105A200000000600EFFF07000400BE0000000600B3
:105A3000889FBE008A9FBE00008270000402710031
:105A400004827100260032000004BE000200BE0085
:105A50006011B8006B092000950220000182CF0080
:105A60000A0039000541B1000082CF00070039006B
:105A70000541B1000982CF00040039000541B100A1
:105A80000882CF00010039000541B10005425200F3
:105A9000120032000A003B00828171006101640043
:105AA0008100D1000080D3008984D3000884D30012
:105AB0008B05E8000442E800F7FF3A0007003700D2
:105AC0000804440089844C0000004800818048009C
:105AD0008B05E9000442E900F9FF3A002BFF0700BB
:105AE0004F05BE004F04BE0000000600889FBE00A8
:105AF0008A9FBE008C9FBE0081A12100C2D0800081
:105B00000200E0000B003A0064814000C2D088002F
:105B100012D18800A100980001D188002141900095
:105B20000204A000A2409800614190000204A0007D
:105B3000E2409800670440004244DE004244DD0039
:105B400004D1800021A52100299F220081845400D6
:105B50002D002000110009008D04D8008006780077
:105B60000886E8000C0646008001EB0002003700C2
:105B7000130020000B027800A44090000108A3004D
:105B8000020032000A003700120A7800140178007F
:105B9000A24090000108A300FBFF320088004200F1
:105BA000810F5100020039000800E00042003D0072
:105BB000940578000B00A100848F5500EDFF3E0096
:105BC000E18F5100EAFF3A008D0F540002003600C9
:105BD000890F5400140039006141B8006148B900D0
:105BE000B4FF2F00050020000000520081805A0001
:105BF000800F5100818F5900020035006405440078
:105C00000A00370020A521005A9F220000055500F8
:105C100008054500110009000985D8000980B90070
:105C200000057800010037000C0578000A007800B4
:105C3000E2FD0700E10F400005003A006405440062
:105C40000A007800DDFD0700E10F40002B00320064
:105C500011D180008008780011D18000E4814000DB
:105C600021419000830F5000020032000204A00086
:105C7000010037000204A100A2409800640555000D
:105C80000A0540000A0878001AD1880081A1210085
:105C9000010D780012D18000A24090000104A00004
:105CA00021419800A04090000104A10021409800EB
:105CB0008001EB00AFFF370001D18800810F510058
:105CC000070036001101BE0022D1880033D18800C0
:105CD000940878000041EB0001D18000A2409800B8
:105CE00003D18000030A7800A44090000104A000C2
:105CF0002142980064004200010037000000EB00E0
:105D00004F06BE004F05BE004F04BE000000060057
:105D10000000E000080032006400500001D1800063
:105D2000810F50000100310000D18800A040900098
:105D30000104A1002140980000000600889FBE00D9
:105D40008A9FBE000004BE000900E00007003A0080
:105D50000000EB000800E000360032000800780088
:105D6000EBFF07000000EB00320037000800E00006
:105D700003003A00090078005CFF07002D0037009F
:105D8000640054009005780068F897000008A300AC
:105D90000200320008007800DDFF070009007800EB
:105DA00052FF0700800478000000EB000900E000CB
:105DB00020003200888F54001B00320069BD97001C
:105DC0000905550042D5DE0088855500C2DDDE009C
:105DD0000A0178008B0F5500010036000B01780096
:105DE0004211DD00880078000900780014000700E7
:105DF000888F54000E0031004255DD000A854400B2
:105E0000880F55000A0036000804550042C4DE0021
:105E10004244DD000884440020D1800031D180005C
:105E2000008CBE0002003700080078000100370037
:105E3000090078004F05BE004F04BE0000000600B8
:105E40008001780002003700B15978000201E900B2
:105E50000200E000FCFF3A00000006008032210052
:105E600000000600A658020000000000E40F5000E9
:105E7000FCFF320080002000000006007BE8B70035
:105E8000000006007BC8BF00000006007AE8B700EB
:105E900010002000C0438800000006007828EF00B2
:105EA00010002000000006007AC8BF0000000600B5
:105EB000C043800000000600B043880000000600D8
:105EC000A043880000000600904388000000060000
:105ED0008043880000000600B043800000000600F8
:105EE000A0438000000006009043800000000600F0
:105EF0008043800000000600889FBE008A9FBE008D
:105F00008C1F7800800578008104780002057800F5
:105F100003067800A658020000000000E40F5000BD
:105F2000FCFF32000C06E8008C8F54000C00390096
:105F30000F0037000B0478000800BE00BE550200B9
:105F4000000000000804E8008A0F5400FAFF39003E
:105F50008904E8008C8F54000200390004003700E7
:105F60000A05E8008A8F5500F2FF3900F8FF370074
:105F7000100020004F0678004F05BE004F04BE0001
:105F8000000006007043880010002000000006009A
:105F900070438000000006005043800000000600AF
:105FA0006043800000000600504388006143880081
:105FB00010002000000006006A28B40001007800EC
:105FC0006C28B4001000200000000600E68747009F
:105FD000889FBE008A9FBE008C9FBE008E1F7800E7
:105FE00080057800010678008204780003057800B7
:105FF00028D920000B8754008C0655000D00EA00BC
:1060000080BF9F000E00EA00F0B79F00004E8000A6
:1060100041D9200054D9200002D9200013D92000F2
:10602000880F50004800320005003E00820F5000EB
:1060300009003200830F5000F9FF3A0032003700A8
:10604000810F50008600320070003900840F50002C
:10605000F3FF3A0036003700010120007043800052
:106060000100600060428800898F550007003200FF
:106070008A0F560022003A00898F5500030036002F
:10608000C9428800AB42880007003700CB42880035
:10609000A94288008A0F560003003600BA428800E1
:1060A0009C42880002003700BC4288009A42880067
:1060B0004C08E2000F003200898F550004003A00BE
:1060C00010002000804288004E28EF0003003700B7
:1060D0005028EF00100020007042880080428000AD
:1060E0005828B5005428B400704280005628B500E6
:1060F0005228B40010D92000004E8800C3FF37009A
:10610000084E8800C1FF370093428000A242800001
:10611000B1428000C04280006457020000000000CD
:10612000800078000000EB000100E0007B003200FE
:10613000594388006A43880000D92000004E880037
:1061400010002000750037004E4388000E00E0006C
:1061500004003D007FB09700404388005EA8EF0038
:106160000200370010002000F04288003D43880004
:106170000D00E00004003D000FB897003043880098
:106180005CA8EF000200370010002000E042880009
:106190005A28EF004043800031438000810F5000B7
:1061A0000D003D0012002000D242880041438800CB
:1061B00030438800CC428800BB428800F042800017
:1061C0005C08F8005E08F900E0428800824288001E
:1061D0004E28EF0005003700CB428800BC42880003
:1061E0005028EF00100020007042880040438000DB
:1061F00080004000014388003143800081804000DE
:106200001143880000805000204388006808ED009A
:10621000404388000F003300214380000100E0006C
:1062200005003500E04280005628B400004380009D
:106230008080500021438800F04280005828B4003C
:10624000104380006428B40040D92000004E88002C
:106250000300370050D92000004E88006BFF370044
:106260004C08E2001C0032005A08E2000D00320027
:10627000C342800084428000B542800070428000AA
:1062800005014000848051000080520083014200DB
:1062900064570200000000000000E00019003A000E
:1062A0001B003700B342800074428000C54280006A
:1062B000804280000501400084805100008052002F
:1062C0008301420064570200000000000000E0006B
:1062D0000C003A00100037005A08E20005003200B6
:1062E000C1428000B0428000BE55020000000000A4
:1062F00004003700B1428000C0428000BE55020059
:106300000000000030D92000004E88003FFF370019
:106310000000EB00010037000000EB004F077800A1
:106320004F06BE004F05BE004F04BE006F00B10017
:1063300000000600F2874700889FBE008A9FBE00CB
:106340008C9FBE008E1F78000007780081057800C2
:10635000B2B79F00A3B79F0070438000E7066000BC
:1063600070006000D0B79F00820F570030003A00E5
:1063700003007800808F5500030036008BBF9F001C
:106380008005780002003700AFB0970081BF9F0002
:106390000FB997000206E8008C8F5500B700310056
:1063A0000B0478001A0020008004EB000E00E900C6
:1063B000F0B79F008A004700E1B79F008904E8001A
:1063C0008D8F540002003A000A00A2008004EB0006
:1063D0000A00E0000F0032008B0078000E00780009
:1063E000BE550200000000005FB197000200E0000F
:1063F000080032008B0078007FB09700BE55020085
:10640000000000008B0078006FB09700BE550200BE
:10641000000000000804E80088057800880F560096
:10642000E6FF3E000E007800F0B79F00A1003700A5
:10643000AFB09700818F550030003A003FB1970010
:10644000820F5700040036000E007800F0B79F005E
:106450000207780002003700BFB09700F1B79F0035
:106460007FB197000206E8008C0F570086003100CC
:106470000E0478001A0020008004EB000B00E900F5
:1064800080BF9F008A804500E1B79F008904E80033
:106490008D8F540002003A000A00A2008004EB0035
:1064A0000A00E0000F0032008B0078000E00780038
:1064B000BE550200000000005FB197000200E0003E
:1064C000080032008FB897000E007800BE55020019
:1064D00000000000EFB097000E007800BE550200EB
:1064E000000000000804E800080778008C0F540042
:1064F000E6FF39008BBF9F006E0037003FB097006A
:106500008E0450001100200081BF9F0003003B005B
:106510008904EA000081EB0082BF9F00AFB09700C2
:106520000B80500012002000E2B79F0003003B00E8
:106530000000EA008080EB00E1B79F00808F5400EC
:106540000B003D000E0678008FB897006FB19700E2
:1065500082BF9F00E1B79F00890078008004780027
:10656000010078001100200091B79F00040037005F
:106570000B0678008E0578000001EB0092B79F00B3
:1065800089804400C1B79F000900E0004000350049
:1065900000004000F0B79F00090450001E002000DA
:1065A0000005EB000E00E000220032001FB1970052
:1065B0000200E000100032008B0078000C00780030
:1065C000BE550200000000005FB097000000E00030
:1065D000180032000C00E9008B007800BE55020064
:1065E000000000000C00E8008B007800BE5502009F
:1065F000000000000F0037008C0078000B007800CE
:10660000BE55020000000000DFB097000100E0006E
:10661000080032008C00E9000B007800BE55020033
:10662000000000008C00E8000B007800BE5502005E
:10663000000000000800E000040035006FB1970082
:10664000020646004FB09700000454000A05E80017
:106650008D0F550002003A000E00A2000005EB006D
:106660008904E9000F0033008FB897008185450049
:106670007FB1970002044400CAFF37000E00780083
:10668000F0B79F000B0037008BBF9F000900370059
:10669000AFB0970081BF9F003FB19700F2B79F0056
:1066A000040037002FB0970080BF9F00BFB0970055
:1066B000F1B79F007FB19700524388000FB8970051
:1066C00060438800100020004F0778004F06BE008E
:1066D0004F05BE004F04BE002F01B10000000600B0
:1066E000889FBE000204BE00724380006701610003
:1066F00004003A000801BE00E62F0200000000007E
:10670000030037000801BE00AA5802000000000084
:10671000E10F500002003A005843880069438800A6
:106720004F04BE00000006000001BE00614380006F
:10673000504380007033020000000000000006009B
:106740000001BE0061438000504380000001410011
:10675000818141007033020000000000000006004B
:10676000889FBE008004780001047800A6580200CB
:1067700000000000800078000000EB00E48F500073
:1067800028003200504280000000E0000300320088
:10679000E10F50001F003A00050037004828EF00C5
:1067A000898444003942880010002000504288004B
:1067B000404280004608E30013003400E30040003C
:1067C000818140000081E800020141008000E80072
:1067D0008180400000004000E88179006801790074
:1067E000E880780068007800703302000000000044
:1067F0000000E0000A0032004888EC0040428800B7
:106800004608E300EDFF3C004A28EF00100020009E
:10681000040037004A28EF000000EB0001003700B9
:106820000000EB004F04BE0000000600204288007C
:10683000100020000000060020428000000006003A
:1068400043E8B70001417800208420000248780026
:10685000100020000000060043C8BF000000060032
:1068600042C8BF0000000600F041800000000600A2
:106870000042800000000600F041880001428800CC
:106880001000200000000600889FBE008A9FBE0006
:106890008C1F780081057800820478000005E900EB
:1068A00003054500BC8720001C467800C1438000DA
:1068B000E18F5000040032008A0F500011003600B2
:1068C000000478001C0037008A0F500019003E00B9
:1068D00000047800394078007A48E300050032006F
:1068E0007BE8B7008B00780008007800BE550200F6
:1068F000000000000804E800880F5500F5FF310093
:106900000D00370000047800B9407800B0872000FF
:10691000014878008B00780008007800BE5502001E
:10692000000000000804E800880F5500F6FF310061
:1069300001003700000478008C407800B087200008
:1069400001487800080078004F0678004F05BE0027
:106950004F04BE0000000600889FBE008A9FBE0054
:106960008C1F78000006780081057800820478008A
:106970000C8541008A0F56000A0031000C04780093
:106980008B0078000800780020560200000000000C
:10699000805C78000804E8008A0F5400F8FF390092
:1069A000010037000C0578000C0055004F067800F8
:1069B0004F05BE004F04BE0000000600889FBE00C9
:1069C0008A1F78002A42800010B0200020428800F0
:1069D000F80E2000F91320008801780009017800E2
:1069E0008000EB0001007800645702000000000006
:1069F0000000E000F8FF32006A28EF006C28EF008A
:106A00002A428800100020004F0578004F04BE0085
:106A100000000600E8874700889FBE008A9FBE00EE
:106A20008C9FBE008E1F780080067800810578005C
:106A30000206780083047800040578006150B800ED
:106A4000C000DD0000002000020024001300200030
:106A50000002510081825900F4B79F0085BF9F005A
:106A600038DA20005EDA200050502B000050B800C9
:106A70008102E800E5B79F00F04D8000880F5000CC
:106A80003A00320008003E0011DA2000810F500069
:106A900023003200D3003E008100E900810F500046
:106AA00020013A000A0037008E0F5000F500320036
:106AB000E200390061DA2000810F50000B01320042
:106AC0008100E800810F500016013A00F9003700FC
:106AD0000A00E0000F0032006FB09700A04188006C
:106AE0000FB99700724188008A4188003828EF006A
:106AF00010002000B041880070438000E700600073
:106B0000E141880070006000D04188003228EF0029
:106B10000300370040DA2000F04D8800D6FF370030
:106B2000A04180003208E3000D003C003808EC0072
:106B3000C04188003C08E30002003A003608AA0081
:106B40003828EF003608E20002003200F84D8800D5
:106B50000600370020DA2000F04D8800C6FF37001D
:106B600040DA2000F04D8800C3FF370081418000EB
:106B7000818055009041800000004600BE55020013
:106B8000000000009141800081805500804180001C
:106B900000004600BE550200000000008141800058
:106BA000818044009041800000004600BE550200F4
:106BB00000000000914180008180440080418000FD
:106BC00000004600BE550200000000008141800028
:106BD000818044009041800000805600BE55020034
:106BE00000000000914180008180440080418000CD
:106BF00000805600BE550200000000009141800058
:106C0000818055008041800000805600BE55020002
:106C1000000000008141800081805500904180008B
:106C200000805600BE550200000000003A08E20055
:106C30006C003200814180008180EA008B8040003E
:106C40009041800000004600BE5502000000000098
:106C500081418000E18010008B80400090418000E5
:106C600000004600BE550200000000009141800077
:106C7000818055003008EC000C004000BE55020039
:106C80000000000091418000818055003008ED0037
:106C90000C004000BE550200000000008141800051
:106CA0008100E9008980400090418000000046009A
:106CB000BE55020000000000814180008100E80014
:106CC000898040009041800000004600BE550200CF
:106CD0000000000091418000818044003008EC00F9
:106CE0000C004000BE5502000000000091418000F1
:106CF000818044003008ED000C004000BE550200C9
:106D000000000000814180008100E900898040008E
:106D10009041800000805600BE5502000000000037
:106D2000814180008100E80089804000904180001E
:106D300000805600BE550200000000009141800016
:106D40008180440080418000008056000000E800FF
:106D5000BE55020000000000914180008180440087
:106D600080418000008056000000E900BE5502000E
:106D7000000000009141800081805500804180002A
:106D8000008056000000E800BE5502000000000030
:106D90009141800081805500804180000080560034
:106DA0000000E900BE5502000000000081418000A3
:106DB000E18010008B8040009041800000805600F0
:106DC000BE55020000000000814180008180EA0081
:106DD0008B8040009041800000805600BE5502002C
:106DE00000000000704180000000E0000A00340054
:106DF000814180008100E9008141880065004000F8
:106E000094418000810052008180400001004000D8
:106E10007041880005003700630040009141800008
:106E20008180400001004000704188003228EC0061
:106E300010DA2000F04D88000FFF37008D0F56004C
:106E40000D0032008A805500810178000C01780025
:106E50000D00780070330200000000008000780010
:106E60000000EB000100E0002F00320050DA2000AB
:106E7000F04D88000300370070DA2000F04D8800E4
:106E8000FDFE370089004500810178000C01780083
:106E90000D007800703302000000000080007800D0
:106EA0000000EB000100E0001F00320070DA20005B
:106EB000F04D88008B8F54000C0032000A80560081
:106EC00089017800000178008B007800703302009F
:106ED00000000000800078000000EB000100E000EE
:106EE0001100320060DA2000F04D88000C004500EF
:106EF00089017800000178008B007800703302006F
:106F000000000000800078000000EB000100E000BD
:106F10000500320000DA2000F04D8800100020004B
:106F2000010037000000EB004F0778004F06BE005D
:106F30004F05BE004F04BE008F00B10000000600E8
:106F40002442800005B02000850F5200040032006A
:106F50008582E800850F52000C003A0008003700D7
:106F60000002EB000A3502000000000000F0A7005C
:106F70000000EA000000EA004F00DE0005003700D4
:106F8000645702000000000002003700645702004E
:106F900000000000000006006041880000000600BC
:106FA00060418000000006000002EB000A3502008C
:106FB0000000000000F0A7000000EA000000EA0066
:106FC0004F00DE00000006000A350200000000004D
:106FD00000F0A7000000EA000000EA004F00DE0019
:106FE00000000600020278000001BE000A3502001F
:106FF0000000000000F0A7000000EA000000EA0026
:107000004F00DE0000000600FA874700889FBE00A0
:107010008A9FBE008C9FBE008E1F780080B79F00A5
:10702000D1B79F00F2AF9F00C3B79F00040578005F
:1070300060418000F10F2000810F500008003A00ED
:1070400002007800000145008FB097000A805000D0
:10705000DFB0970064570200000000001C003700FA
:10706000010F2000810F50000D003A004FB1970032
:107070005FB29700840151008301D1007FA897007F
:10708000000145008FB097000A80500084814100C4
:107090008400780064570200000000000C003700F4
:1070A000FFA99700030145004FB297005FB097001A
:1070B000800052008100D100808040008FB1970095
:1070C0000A8051008401780064570200000000002B
:1070D0000A00E000B400320050502B000050B8000D
:1070E0000102E800B4B79F006150B800C000DD00A5
:1070F00000002000020024001300200000005100C6
:1071000081805900810678000006EB000400E00051
:10711000870035007FAF97000FB09700F0B79F0052
:107120008A0578009CB79F00F10E2000A1B79F0050
:1071300012002000E2B79F00DFB19700828141007A
:10714000E3AF9F004FB297000402E900D4AF9F0065
:1071500001003700090678000D00E0000600340049
:107160000A05E900E58646000A00560000004000D6
:107170008086460003003700E38646000C00460088
:10718000808646008C04E8008A8F5500610032003A
:10719000604180006F0060002A0032005FA8970005
:1071A0000900400080BF9F00AFB09700810F5000E2
:1071B0000E0039006FB19700CFB1970083004100F6
:1071C0002FB297008401E900838F500011003E0028
:1071D0007FA89700008145000FB297000B00520076
:1071E00064570200000000000A0037007FA89700E3
:1071F00000814500EFB197004FB2970084804100B5
:107200008FB197000B8051008FB99700645702002F
:10721000000000004FB29700048445000FB89700AB
:10722000880F500007003100880178000E017800B7
:10723000880078007FB097006457020000000000CB
:10724000A8B79F00000F20002C08B6002C003200C9
:10725000EFA897008980500081BF9F001FB1970061
:10726000828F50000D003E008200E8005FB2970060
:107270006FB0970080015200838F500011003E00D4
:107280007FAA9700048145000FB297000B005200BF
:1072900064570200000000000A0037007FA8970032
:1072A000008145008FB097000B8050005FB29700BF
:1072B000EFB09700810152008FB897006457020029
:1072C000000000005FB197000B0451008FB99700D8
:1072D000888F51000D003600880178000E0178007B
:1072E000880078007FB0970064570200000000001B
:1072F00098B79F00E9B79F008A057800050037001E
:10730000E9B79F008A05780002003700E9B79F00BF
:107310008A0578007FB197000201E900F2B79F006B
:107320000E07E800BFB19700898F510089FF3D002B
:107330005FB297008A0052000C005200810F50008B
:107340000A003600000F20002C08B60007003200AB
:107350007FA89700000146008FB197000C80510074
:107360008101780064570200000000004FB29700CE
:107370008400450004004600810F50000A003100DF
:10738000604180006F006000070032007FA8970016
:10739000000146008FB197000C80510081017800F8
:1073A0006457020000000000100020004F07780022
:1073B0004F06BE004F05BE004F04BE00AF01B10036
:1073C0000000060005B0200026428000850F530013
:1073D00007003A000A3502000000000000F0A70094
:1073E0000000EA000000EA004F00DE000100370064
:1073F00005FF07000000060003B0200024428000C3
:10740000830F520009003A00020278000001BE001A
:107410000A3502000000000000F0A7000000EA00AA
:107420000000EA004F00DE0003003700020278008F
:107430000001BE00F4FE0700000006000000060088
:107440000000EB0000000600504188001E3A0200D8
:1074500000000000100020000000060050418000E5
:107460000000060052418000C2019000CA19DE00EF
:10747000E3816100140020008321DD00C3C0990076
:10748000C20190000388A3001B003200A2019000FB
:107490000080FB00520190000281FB0002005000BE
:1074A0006C02B900680042000080410090814100F8
:1074B000C3A0980030019000B2A09800B0019000E5
:1074C0002001900002815100F2A09800400190003C
:1074D000D2A0980050009000E0A098000000E000CA
:1074E0000200340080A89800140037000000EA0071
:1074F00080A8980011003700A20190000080FB00D6
:10750000520190000281FB00020050000080E80060
:107510004200DD0000804100104290000482FB0028
:10752000100190004811DD000201420082814100FB
:10753000C3A098001080FB00B0A0980000000600D7
:107540001000FA00889FBE00004178008104780096
:1075500050418000C0009000CA08DE00E380600057
:10756000130020008118DD00C1C49900C000900004
:107570000188A3001A003200D000900001415100A0
:107580006C11B900684141000281FB008001EB00F1
:1075900070825700C1002000241502000200000084
:1075A0003FB89700B0A49800AFB897000100500012
:1075B000F0A498004FB89700D0A498005FB8970047
:1075C000E0A498000000E0000200340080AC9800C5
:1075D000110037000000EA0080AC98000E00370070
:1075E0000281FB00D00090008180FB00010151006E
:1075F0000281E8004211DD008001EB007482570037
:10760000410020002415020002000000CFE897008E
:107610000180FB00B0A4980049C191000281FB00E9
:1076200039A090000091B90092A49800C390DE00A8
:10763000670161000201EA004F11DE000281400093
:1076400050418000F00190000391B9008200780061
:10765000400090000088A300030032000FB997009B
:107660009FB99700060037007FB09700C801DE0081
:107670005FEA97000482FB004800DD000001420041
:107680006484440008027800504180002415020000
:1076900002000000C8A498004F04BE000080FA0059
:1076A00000000600E6874700889FBE008A9FBE0054
:1076B0008C9FBE008E1F780001047800504180002E
:1076C00070009000F0B79F000B428000E8A090008F
:1076D00008A890007FB19700000041004240A90037
:1076E00030003400818545000006EB000047EB00C8
:1076F000FD41800058A190000B0078008BBF9F00D7
:10770000A14380008B8F50001E0031007008E30001
:107710001C003600B8A090000100E0001900340001
:10772000828646000005EB008044EB000904E0007F
:1077300004003A0048A090003047780040A4980028
:1077400019C0B3000D0045007608E30007003100C2
:107750007208E300050036008EC0640003003200AA
:107760008FB89700BE550200000000000A05E8002F
:1077700038A090008A0F50000200340089C44400F1
:10778000EAFF37000C06E80008A890007FB19700D8
:10779000000041008C0F5000020034008B05E8000F
:1077A000D3FF370038A090003E08B400F8A0900046
:1077B00001005000014280003C3402000000000043
:1077C000100020004F0778004F06BE004F05BE0096
:1077D0004F04BE006F00B10000000600889FBE008D
:1077E0008A9FBE008C9FBE00004478000953210090
:1077F0000985E800E485440066864400E886440084
:1078000040418000E30F50006100320004003E0060
:10781000E10F50002B00320032003E00060037001E
:10782000E50F50005E00320052003900E60F5000B4
:107830006E003A00620037001000200020418800EE
:107840005041800000418800EA4F540003003A0094
:107850006000200040418800E9FF3700D000900020
:10786000814F5400040031002000200010418800A6
:107870001000200061003700E0009000814F5400AC
:107880000400360020002000104188001000200075
:107890005A003700400090004A00DE00630060009C
:1078A000E10F500004003400200020001041880047
:1078B000100020005100370010418000E20F5000FE
:1078C0004D0032000000EB00800C7800000D7800C5
:1078D000800D7800000E7800800E780020002000D7
:1078E00040418800A658020000000000E40F50004C
:1078F000FCFF3200004180001000780011302000B1
:10790000810F50000D003200E4804000810F5000D4
:1079100011003200E5805000810F500012003A0043
:107920008146210008407800CEFE0700300020008C
:107930004041880030418800B1FF37008146210076
:1079400008407800FEFE070030002000404188001B
:1079500030418800AAFF37004000200040418800E5
:1079600030418800A6FF37002828EF0010002000D3
:107970002200370008407800203A02000000000092
:107980002041880050002000404188009CFF3700C3
:10799000814621000840780042FF0700204188000E
:1079A00020418000E10F500002003A002828EF003B
:1079B000120037002608F8002808F9000F003700E9
:1079C00000418000700090004008B4008000780002
:1079D000F04180003C340200000000001000200054
:1079E000204188002828EF00040037002828EF00F5
:1079F0000000EB0001003700100020004F06BE0021
:107A00004F05BE004F04BE0000000600889FBE0068
:107A10008204780003047800BC49E20003003200CD
:107A20003C34020000000000BC69EF00F040800020
:107A300069407800EA4F500002003200EF4F5000DA
:107A400005003600EE3B0200000000000000E000F0
:107A500003003A000B0037000004E0000800320089
:107A60001E08EC00F04088000800E000EFFF320044
:107A7000880F5000EDFF3A00100020000100370091
:107A8000100020001E28EF0013C0B300C29B20008E
:107A9000034978004F04BE00000006000000EB0020
:107AA00000000600889FBE008A9FBE00A1009000D3
:107AB0002141900041429000051020009182620017
:107AC00003003200E88440000004EB0002003700AD
:107AD000688440008004EB008001EB000283FB001F
:107AE0001300370082CF50001100390084CF5000BE
:107AF0000F003E000500E000070032008180FB001F
:107B0000868050006C0DB9008A804400A10390006B
:107B100087814100060037008183FB008683530084
:107B2000C23BDD00870344009783FB00878141004F
:107B3000B0407800EFCF5000EAFF3E00030078002D
:107B40004F05BE004F04BE00000006001800FA00FA
:107B5000889FBE008A9FBE008C9FBE0000047800F4
:107B60000106780074825700810020006011B8007F
:107B70000C0078002415020002000000EFEC9700D2
:107B80008FF597000005EB008986FB002300370086
:107B9000894F5100210039008B4F51001F003E00DA
:107BA0006FB097000088A3000E0032000281FB0036
:107BB0000D0151006C11B900680141008001EB001A
:107BC00004FE2F000F024200C10020000C007800CC
:107BD00024150200020000002FB0970000054500A8
:107BE0000E0037000281FB000D0151000281E80008
:107BF0004211DD008001EB00C4FD2F000F024200A6
:107C0000410020000C007800241502000200000052
:107C1000CFD897000180FB0000054500384178006F
:107C2000EF4F5100DAFF3E000A0078004F06BE0019
:107C30004F05BE004F04BE000080FA0000000600A1
:107C40000000EB0000000600110178001330200056
:107C5000830F51001200320004003C008301E90050
:107C6000830F510014003A000A003700433020000F
:107C7000830F5100040032008301E800830F51009C
:107C80000D003A00090037004E3D020000000000E0
:107C90000A003700523D02000000000007003700D4
:107CA000A63D02000000000004003700203E020054
:107CB00000000000010037000000EB00000006009B
:107CC000E8874700889FBE008A9FBE008C9FBE0049
:107CD0008E1F780080057800010578008404780004
:107CE00005047800060678000300E9000000D100D2
:107CF0000A004000F0B79F000200D10080BF9F0043
:107D00008B06E900828646000A07E9000307470060
:107D10008A00E800E1B79F00E0408000E20F5000D9
:107D20007D00320005003E000000E0000800320047
:107D3000E10F5000F9FF3A0055003700E30F500003
:107D40009C003200E40F5000F4FF3A00A500370019
:107D5000AB4088009A4088000800E00003003A0029
:107D600010C0B30006E8B700010037000668EF0056
:107D70008D408800F0132000808F560001003600EF
:107D8000804088007E408800F00E2000800F570061
:107D900001003600704088000428EF000228EF0040
:107DA00014002000D4408800BB438800AA43880008
:107DB0001008F8007208F9007640800086438800B9
:107DC00050418000F002900065408800C440880067
:107DD000B94088000828EF006380200093417800B4
:107DE000090178008000EB000B003700EA4F5000DB
:107DF00001003A000402E8008100E8000304E0000A
:107E000005003A00810F540003003A00C440880086
:107E10004140880005003700324078000004E0004F
:107E2000F2FF3A00C44088004140880000C72000AB
:107E30000000660001C12000810F500004003200E4
:107E40000103B000810F500009003A000300370021
:107E50006FB19700124088000B003700C0408000CF
:107E600000A8B90000035300164088000600370040
:107E7000C040800000A8B9000000D100FFB097000A
:107E8000008050001040880010002000E040880072
:107E900051418000090078006BFF070050408800C6
:107EA00071C020008100660012C02000828F500047
:107EB0000400320063014100828F500008003A0044
:107EC00004003700A24080000201E8002240880040
:107ED000090037001008B500204088000600370070
:107EE000A14080000FB99700810041000000D1003F
:107EF0000080500020408800114080002040800019
:107F00003C34020000000000B94088000828EF005F
:107F100020002000E04088000648E20008003A0007
:107F200040408000880F500005003A0040002000CB
:107F3000E040880010002000D040880076FF370025
:107F4000B140800011407800EA4F500008003A002C
:107F50008104E800B94088000828EC0060408000F7
:107F60000228B40010002000E04088006AFF3700BB
:107F70000004E00005003A0040002000E0408800D6
:107F800010002000D040880063FF3700EE4F500003
:107F900006003E008100E800B14088000828EC009F
:107FA00020002000E04088005BFF37003000200008
:107FB000E0408800B040800010407800EE3B0200B6
:107FC00000000000D04088000000E0000E003200F9
:107FD0001628EC000828EC0020002000E040880073
:107FE0004DFF37007628EF007428EF00F0132000D3
:107FF00090438800F00E2000804388001C28EF008A
:10800000D0408000010037000000EB004F077800EF
:108010004F06BE004F05BE004F04BE008F00B100EA
:10802000000006004F02B000889FBE008A9FBE007D
:108030008C9FBE008E1F7800D0AF9F00C1AF9F0005
:108040005200900080B79F004207900022059000E8
:10805000B205900064054500E0854D00C3F0DE00E8
:10806000670067000000EA004F00DE00008040006B
:10807000F0AF9F00130078001C0020000000E0001B
:108080001000320033029000FFA89700048AB90064
:108090008002EB000405450085854D00A30090009B
:1080A000430ADE008002EB000405450085854D0093
:1080B000E78060000166DD009301900083B79F00B8
:1080C000000778000FB197000200E0006F00320057
:1080D000BAB79F00CBB79F008006EB000044EB00CF
:1080E0008D0478008E02E900E5AF9F000E80E90064
:1080F000B0AF9F008132210081804200A1AF9F007C
:10810000FFA997006119B80082AF9F0093AF9F004D
:10811000E10F56000C003200920180000A00780046
:1081200000F0A4008B80D2009101880010447800F8
:108130009201880061024500E0824D00F4B79F0083
:1081400085BF9F00040037003FB09700CFB0970075
:10815000F0B79F0081BF9F00EFA897000100E000EB
:108160002A0035000C4078003FA99700AFA897007F
:1081700006C8B30017C0B3009AB79F00ABB79F0003
:108180007FB297008FBA970009057800E14F500041
:108190000C003A00930180000404780008F0A40069
:1081A0008584D200990188001844780093018800E2
:1081B00061024200E0824A00E148640082017800E6
:1081C00008003700884160008381FB008301EA00DA
:1081D000CF19DE008348780082017800864F500076
:1081E00002003200004040000100370007407800E4
:1081F0000201E9008100E9000300E000E3FF3D0027
:108200008A0478001FB59700AFB597000040800042
:10821000E10F50001D003200CFAA97008580460074
:108220008E017800823221005FA89700A6560200D6
:10823000000000008904E800890678000FA8970074
:108240009FA897000005450081854D008FB09700DD
:10825000898F50000D0036007FA99700D2B79F008C
:108260008001EB00E3B79F003FB29700CFB29700C9
:108270005FB09700EFB097000002420081824A0091
:10828000B4B79F00C5B79F00A1FF37004F07780024
:108290004F06BE004F05BE004F04BE004F02B100A6
:1082A00000000600FA874700889FBE008A9FBE0034
:1082B0008C9FBE008E1F780090B79F0081B79F00F3
:1082C00052009000C0B79F00420790008E007800D7
:1082D00022069000B2069000000120000000E90094
:1082E000FEFF3A00040220000500200004064600BC
:1082F00085864E00618060008180D1008100400051
:10830000A1B79F00130078008002EB00B5B79F0073
:108310000000E00011003200A30090003302900042
:108320002FB197000492B9008002EB0004064600CA
:1083300085864E0061826000B4B79F000102D100C3
:108340008002EB000406460085864E0093019000F3
:10835000C3B79F00BFB29700008742004FB097009D
:108360000000E00055003200FCB79F008DBF9F0069
:108370008005EB008B0478000E05E90083322100B4
:1083800083014700F3AF9F000B047800AFB2970062
:10839000612AB800D4AF9F00E5AF9F009201800032
:1083A0000C00780000F0A4008D80D20091018800BC
:1083B00010407800920188008A0078000A00E000EE
:1083C0001E0035008081FB007FA997003FB0970019
:1083D0007FB297008FBA97000403BE000008A30085
:1083E00004003200C41ADE0061034300E0834B0046
:1083F00009003700930180000602780004F0A40011
:108400008782D20095018800944278009301880009
:108410008581FB00EFC26200056178008100E90000
:10842000E10F5000020032000000E80001003700B8
:10843000080078000100E000E8FF3D0000408000F7
:10844000E10F50001D0032000FB097008080450002
:108450008E017800823221001FB09700A6560200DC
:10846000000000008904E800890578005FA99700F2
:10847000EFA997000206460083864E00CFB1970011
:10848000838F54000D0031002FB29700D4B79F00A6
:108490008002EB00E5B79F007FB097008FB8970090
:1084A0005FB19700EFB19700020040008380480061
:1084B000F0B79F0081BF9F00B8FF37004F077800DB
:1084C0004F06BE004F05BE004F04BE00AF01B10015
:1084D00000000600EC874700889FBE008A9FBE0010
:1084E0008C9FBE008E1F780080BF9F00F1B79F0059
:1084F000D20690004206900022049000B204900040
:10850000001020000000E900FEFF3A0000202000DB
:10851000010020000004440081844C001300780016
:108520008000EB000000E0000C00320033029000FD
:1085300004E2B9008002EB000404440085844C008E
:10854000230290008002EB000404440085844C0068
:108550008000560093069000000678000D00E000B1
:108560002C0032008002EB00050578008C05E90044
:108570008E3221000E014600E2B79F006109B8006B
:10858000C2B79F00D3B79F000B0078000B00E0003C
:108590000D003500EFB097009401800008017800CD
:1085A00002F0A4008981D200930188001241780072
:1085B0009401880061044400E0844C0082607800EB
:1085C0000000E900F4FF3B0000408000E10F500094
:1085D00010003200FFB19700838042008C017800C8
:1085E0000E0178000FB89700A656020000000000A8
:1085F0000A05E8008A0278008D0F55000500310059
:108600004FB09700DFB097000004440081844C0015
:10861000DDFF37004F0778004F06BE004F05BE0054
:108620004F04BE00CF00B100000006002F04B000D0
:10863000889FBE008A9FBE008C9FBE008E1F780060
:10864000B0B79F00A1B79F0002077800030578002C
:108650005E009000E0B79F00CE00900081BF9F00B9
:10866000810578005E50900028002000090020005D
:108670000004E0000F003A00C25B020000000000AE
:108680004800200009002000E10F500009003200DE
:10869000C4FD2F000F024200410020006011B8000D
:1086A0000E0078002415020002000000480020009F
:1086B00009002000678065000000EA004F00DE002E
:1086C000C3DDDE008B054000DBB79F001A00780099
:1086D0001C0020000000E0000E003200AA00900004
:1086E0003A0190000B0278000221B800430ADE0034
:1086F00002014200E08149000804410089844900E8
:10870000E78060000166DD001A059000EAB79F006F
:1087100080BF9F008FB897004308DE000000E8008C
:10872000F0B79F0067806000030032007FB29700BF
:108730000402E800F4B79F006FB097000000E0006B
:108740004A0032008006EB000045EB008D05780002
:108750008FB897008100E900C1B79F000FBA97005A
:108760000482E90094B79F0080322100008040001D
:1087700080B79F0024FB2F000F024200FFB097003C
:108780000801BE000E00780024150200020000005F
:10879000DFB0970008844000E0844C00E10F5600F1
:1087A000040032002F75970035FB2F008F824200A6
:1087B0000200370025FB2F008F8242004FB2970046
:1087C0000400E0001A0035000C4078001FB197004B
:1087D0008FB0970004C8B30016C0B300E14F50003B
:1087E00004003A0035457800E148650082017800D0
:1087F000080037008A4160008381FB008301EA00A2
:10880000CF19DE008348780082017800844F500041
:1088100002003200004040000100370006407800AE
:108820000201E9008100E9000300E000EBFF3D00E8
:1088300000408000E10F50000C0032002FB0970084
:10884000808046008FB99700823221003FB09700A8
:10885000A6560200000000008B05E8008B06780099
:10886000EFB097008B8F5000C2FF3E004F0778009B
:108870004F06BE004F05BE004F04BE002F04B100DE
:10888000000006006F0DB000889FBE008A9FBE00EA
:108890008C9FBE008E1F7800A0B79F0091B79F00ED
:1088A00002077800030578005E009000E0B79F00A3
:1088B000CE00900081BF9F00810578005E5090003F
:1088C00028002000090020000004E0000D003A000C
:1088D000C25B020000000000080220000900200026
:1088E000E10F50000700320004FC2F000F0242008D
:1088F000010220006011B8000E007800241502006B
:1089000002000000618065008B85D1000B004000F3
:108910009A0078000001EB00D2B79F000100E00050
:108920000F0032002A019000E1016100D3B79F00DF
:108930003A0290000402B8000201D1000401410093
:10894000E0814A0008044100898449001A0590002A
:10895000EAB79F005FB197008100410081BF9F008F
:108960008FB997008300D1008100E800F1B79F0024
:108970000308A300020032008100E800F1B79F0065
:10898000EFB097000100E0003F0032008006EB00EE
:108990008D0578006101B800B2B79F00C3B79F0092
:1089A0008FB997000306E900803221000080410062
:1089B00080B79F000D057800E4F12F000F02420000
:1089C000FFB097000801BE000E00780024150200D9
:1089D000020000003FB19700CFB1970008044100AA
:1089E00089844900EF5A96008C0078000C00E00062
:1089F000160035008582FB000FB197005FB097002D
:108A0000E4F12F000F0242000008A300030032002F
:108A1000C429DE000402E800030037009441780016
:108A20008382FB00EFC16100036178008100E900EF
:108A3000E10F5000020032000000E80001003700A2
:108A40000A0078000100E000EFFF3D0000408000D8
:108A5000E10F50000C0032009FB197008380460068
:108A60008FB99700823221002FB09700A6560200DE
:108A7000000000008B05E8008B0678006FB09700BF
:108A80008B0F5000CCFF3E004F0778004F06BE0012
:108A90004F05BE004F04BE006F0DB1000000060080
:108AA000EF34B000889FBE008A9FBE008C9FBE003E
:108AB0008E1F7800D0B79F00C1B79F0002077800D3
:108AC000030578005E00900080BF9F004E06900076
:108AD0005E50900028002000090020000004E00003
:108AE0000F003A00C25B02000000000028002000D6
:108AF00009002000E10F50000900320064DE2F0061
:108B00000F024200012020006011B8000E00780022
:108B100024150200020000000820200009002000A7
:108B20009A0578000B00E0000F0032004E00900024
:108B30006102B9003A0090008000EB0000A9B90082
:108B40000020B800810041002A019000000041008F
:108B5000E080480008044000898448001A0590001D
:108B60008ABF9F00010037008C0578008FB89700FE
:108B70000100E0002C0032008006EB000D057800BB
:108B80006160B800E0B79F00F1B79F000B06E900F5
:108B90008132210081804500B1B79F0064CA2F0057
:108BA0000F0242008B0078000801BE000E00780022
:108BB00024150200020000006FB09700FFB097007C
:108BC00008044000898448000C0078000C00E00094
:108BD000060035003FB1970061CA2F008F8040002A
:108BE000316178000000E900FDFF3B00004080009B
:108BF000E10F50000C0032004FB09700808046001B
:108C00008B017800823221005FB09700A6560200E7
:108C1000000000000A05E8008A0678008FB8970077
:108C2000810F5500DDFF39004F0778004F06BE0069
:108C30004F05BE004F04BE00EF1FB1000F15B1007D
:108C4000000006000000E00001003D008016B000BA
:108C5000E2102000820F50000E003400E010B1003E
:108C60000100E00005003A000000400061D72F003D
:108C7000610078000000EA0034003700A105200000
:108C8000008050000000400061D72F006100780094
:108C90002E003700420B2000820F50000F003400DE
:108CA000400BB1000100E00007003A00A1052000E0
:108CB000008050000000400061D72F006100780064
:108CC0000000EA00210037000000400061D72F00BB
:108CD000610078000000EA001C003700A2052000B7
:108CE000820F50000E003400A005B1000100E0002A
:108CF00004003A000000400061D72F0061007800B6
:108D000012003700A1052000008050000000400044
:108D100061D72F00610078000000EA000B003700E7
:108D20000100E00006003A00A1052000008050008C
:108D30000000400061D72F00610078000300370079
:108D40000000400061D72F0061007800000006009D
:108D5000EE874700889FBE008A9FBE008C9FBE00A2
:108D60008E1F780000057800E1B79F00C2B79F0012
:108D7000D3B79F005A50900028002000090020001F
:108D80000004E00009003A00080220000900200069
:108D9000E48F510005003200082020000900200067
:108DA000E88F5100010032006044B800000020004C
:108DB00001002000F0B79F0081BF9F00000021004C
:108DC0009A0F100007003A006140B8002A01900095
:108DD000BA0190000002410081824900F4B79F006F
:108DE00085BF9F008005EB00CFB297000500E00033
:108DF0007A003A0080003700EDE79F00FDE79F0012
:108E00001A0078008E0F500004003200110021007B
:108E1000810F50007A003A001A003700920180005A
:108E20007FB097008FB8970000F0A4008180D20037
:108E30009101880090417800E3E79F00920188004B
:108E40007FB297008FBA970061004200E0804A002D
:108E5000940180000001780002F0A4008181D2001A
:108E60009301880012417800F2E79F009401880086
:108E700061014000E0814800F2B79F0083BF9F007E
:108E8000100037007A825700110020000801BE0050
:108E90000A0078002415020002000000610444006A
:108EA000E0844C0079825700110020000801BE00C8
:108EB0000A0078002415020002000000610444004A
:108EC000E0844C008B85E8006FE097000004E00030
:108ED000030032000080FB00000646003700370028
:108EE0007FE097008080FB0001064600DFB197001D
:108EF000E48F51001C003A008100E8008180D1001D
:108F0000818545009A0078008E8F50000400320061
:108F100014002100848F500028003A000B00370015
:108F20000080FB000000D1000080FB008000EB000F
:108F30007FB197008FB997000001410081814900FE
:108F4000F2B79F0083BF9F001C0037000080FB002A
:108F50000000D1000080FB008000EB00080440000E
:108F60008984480015003700818545009A00780003
:108F70008E8F50000400320013002100838F5000B8
:108F80000E003A00090037000080FB008000EB0073
:108F90007FB297008FBA97000002420081824A0098
:108FA000F4B79F0085BF9F00040037000080FB00DE
:108FB0008000EB000804400089844800EFB297006D
:108FC000850F56008CFF39004FB097000000E90074
:108FD000C0B79F0003003A00070037000E002100D1
:108FE0008046EB000006EB00EFB097000100E000C8
:108FF00081FF3A00F4FF37006158B80001003700E4
:109000006000B8004F0778004F06BE004F05BE0055
:109010004F04BE00EF00B10000000600889FBE00B4
:109020008A9FBE008C9FBE008E1F78000006EB005A
:109030000300E0004F0032008C0578000B0678003A
:10904000960180000002780004F0A4008182D20022
:109050009501880014427800960188006100400064
:10906000E0804800980180000003780006F0A4002A
:109070008183D20097018800964278009801880089
:1090800061004000E08048000C86E8000404E00035
:10909000140032000483FB00868545008B8F51004D
:1090A000060039000442E9008483FB000203E80063
:1090B0000703430002027800040037000342420025
:1090C0000B425200F7FF3A0028003700055A78009B
:1090D000860F5200FDFF3A008703E80007014100B8
:1090E000220037000582FB00848545000406460007
:1090F0008B8F51000200310083C242008BC25200AC
:109100000504E000190032008546E9000D87FB00E8
:109110000205E8000E054500020378000002BE00CB
:10912000970180000404780008F0A4008584D20030
:1091300099018800185B780097018800610242005D
:10914000E0824A008A0F5300F5FF3A000E07E8005C
:109150000E0141000D82FB008002EB006102420023
:10916000E0824A0004004000858048008B8F510057
:10917000B3FF3E000C0078004F0778004F06BE009A
:109180004F05BE004F04BE0000000600889FBE00D1
:109190008A9FBE008C1F78008005EB000300E00072
:1091A000610032000B0578008A0578000A06780015
:1091B000960180000002780004F0A4008182D200B1
:1091C0009501880094437800960188006100400072
:1091D000E0804800980180000002780004F0A400BC
:1091E0008182D2009501880014437800980188009C
:1091F00061004000E08048008B85E8000704E00043
:109200001B0032000782FB00040545008A8F5100D5
:10921000060039008684FB00C44CDE008202E800B0
:109220000C0278006F4363000400370083C34300DF
:109230008AC35300F7FF3A00390037000408A3003F
:109240000300320009717A0005047800020037003B
:1092500006717A00050478000402E8008502E8003F
:1092600084CF5300F5FF3E00080178002C00370042
:109270000682FB00040545000402E8000482D100D8
:10928000848545008A8F510002003100034343006A
:109290000A4353000604E000210032008202E80085
:1092A0000C0278000408A3000E0032009701800031
:1092B0000004780008F0A4008184D200990188009D
:1092C00018447800970188000884FB004444DE00BD
:1092D00008717A008503780061004000E080480052
:1092E0000A003700970180000004780008F0A4000D
:1092F0008184D20099018800184478009701880081
:109300006F44640008717A00850378000402E80065
:109310008502E800844F5300E2FF3E000701780019
:109320008A8F5100A2FF3E000B0078004F067800A4
:109330004F05BE004F04BE0000000600E487470052
:10934000889FBE008A9FBE008C9FBE008E1F780043
:109350000204BE0081057800840678000006EB0058
:109360000D00E000390032000C0578000A06780094
:109370000007780070825700210020000801BE001D
:109380000E00780024150200020000006204440070
:10939000E0844C000C86E8000FF097000004E00029
:1093A000110032008080FB00010545008A8F5600C5
:1093B0002D0031000D4040000A40500080F79F0012
:1093C00029003A001F00370002587800810F500032
:1093D000FDFF3A008301E800838545000040EB0073
:1093E00080F79F00170037009FF097000180FB0077
:1093F00000054500000646008A8F56000300310034
:109400008DC040008AC0500091F79F009FF09700E8
:109410008180FB000B0278000801BE000E0078007E
:1094200024150200020000001FF097008080FB005E
:10943000818545000080FB008000EB0008044000AF
:10944000898448008D0F5500CAFF39000C00780050
:109450004F0778004F06BE004F05BE004F04BE0008
:109460004F00B100000006001FF197000040E90026
:109470008081FB008B00E800838040000B007800B7
:10948000D1FF37002F15B000889FBE008A9FBE0015
:109490008C9FBE008E1F7800D0B79F00C1B79F0081
:1094A00082067800030678005D009000E0B79F0018
:1094B000CD009000B1B79F001D0078000100210091
:1094C000810F5000070032008100E80008002000F2
:1094D000090020006055B800810F500027003A00B5
:1094E000140037002D049000BD0490005D509000E2
:1094F0000004E0000B003A00C25B02000000000024
:109500006055B800E10F50001C003A000020200018
:10951000010020000004440081844C006055B80024
:109520001600370062044400E0844C006055B80027
:10953000120037005D509000080020000900200054
:109540002A0020000B0020000004E0000B003A007D
:10955000C25B02000000000008002000090020009B
:109560000A2020000B002000E10F50000300320011
:1095700008002000090020006055B8001C00E00031
:109580001E0032001D00780001002100810F5000F4
:10959000040032008100E800810F500011003A0001
:1095A000090037003C01900083002000BFB0970005
:1095B0000D007800E6FD07008000EB000004440089
:1095C00081844C00070037003C019000830020009C
:1095D000BFB097000D007800DDFD07000A054000D0
:1095E000E0854D009C009000E1B79F001C007800D2
:1095F000F0B79F002C00900003003700BFB0970029
:10960000F1B79F000000EB00EFB097000100E00011
:109610003B0032000007EB000E067800FFB0970019
:109620008100E90081BF9F000000E90021EA2F00CE
:109630008F80400080804000A1B79F007FB09700DE
:10964000813221000100400090B79F001D0078008A
:1096500001002100810F5000040032008100E80069
:10966000810F500012003A0009003700BFB1970087
:1096700022EA2F000F0141000800BE0067FE07002C
:109680008000EB000004440081844C000800370097
:109690003FB2970021EA2F008F8040000A01BE00F0
:1096A0000D00780025FF07000A054000E0854D0009
:1096B0000FB897000000E000050035002FB19700BB
:1096C0009FB09700D26078000000E900FDFF3B00EA
:1096D0004FB0970080004700FFB197008232210011
:1096E0005FB09700A6560200000000000C06E800DC
:1096F0000C077800EFB097008C8F5000D3FF3E002E
:109700004F0778004F06BE004F05BE004F04BE0055
:109710002F15B10000000600E8874700889FBE00B3
:109720008A9FBE008C9FBE008E1F780000077800C5
:109730000204BE0001057800840678000D00780060
:10974000762D020000000000F0B79F000006EB003D
:109750000D00E000620032008C0578000B067800F6
:109760008EBF9F0074825700210020000801BE00B8
:109770000E0078002415020002000000620444007C
:10978000E0844C000C86E8004FE897000004E000FD
:109790001E0032008080FB00818545008B8F5600C3
:1097A00008003900CFE997005FEA9700EF426200B6
:1097B0000482FB004422DE008A00E8000000EB0087
:1097C000050037000D4040000B405000C0EF9F00E7
:1097D000F4FF3A00400037000008A3000300320005
:1097E00004757800010178000200370005757800E3
:1097F000010178000000E8008100E80080CF5100FE
:10980000F5FF3E000205780033003700DFE89700DF
:109810000180FB00808545000000E8000080D10049
:10982000000646008B8F5600030031008DC04000BB
:109830008BC05000D1EF9F005FE89700E1406000CF
:109840000080FB000000D10080C040008180FB0050
:109850007FB297000801BE000FB8970024150200E0
:1098600002000000DFE997000380FB000000D10048
:109870000080FB008000EB00080440008984480061
:109880000304E000140032008A00E800FFB29700F1
:109890000000EB000041EB000008A30005003200CF
:1098A0000282FB004422DE00047578000102780089
:1098B00004003700354178006F426100047578007C
:1098C000010278000000E8008100E80080CF51002C
:1098D000F1FF3E00040578008B8F5600A0FF3E008C
:1098E0007FB09700882E0200000000000C00780076
:1098F0004F0778004F06BE004F05BE004F04BE0064
:109900008F00B100000006002F15B000889FBE0038
:109910008A9FBE008C9FBE008E1F7800D0B79F002C
:10992000C1B79F0082067800030678005D009000B2
:10993000E0B79F00CD009000B1B79F001D007800F8
:1099400001002100810F5000070032008100E80073
:1099500008002000090020006055B800810F500069
:1099600027003A00140037002D049000BD04900039
:109970005D5090000004E0000B003A00C25B020062
:10998000000000006055B800E10F50001C003A00D4
:1099900002022000030020000204440083844C00E3
:1099A0006055B8001600370062044400E0844C00A3
:1099B0006055B800120037005D509000080020008C
:1099C000090020002A0020000B0020000004E00015
:1099D0000B003A00C25B02000000000008002000FB
:1099E000090020000A0220000B002000E10F5000B7
:1099F0000300320008002000090020006055B80074
:109A00001C00E0001E0032001D0078000100210053
:109A1000810F5000040032008100E800810F5000E7
:109A200011003A00090037003C019000430020007B
:109A3000BFB097000D007800C5FC07008000EB0068
:109A40000004440081844C00070037003C01900072
:109A500043002000BFB097000D007800BCFC070059
:109A60000A054000E0854D009C019000E3B79F008F
:109A70001C007800F0B79F002C0090000300370016
:109A8000BFB09700F1B79F000000EB00FFB1970057
:109A9000DFB097000181410001142000810F5100C7
:109AA000030036005FB1970082805000F1B79F003D
:109AB000EFB197000300E0003B0032000007EB002D
:109AC0000E067800FFB097008100E90081BF9F007B
:109AD0000000E90022EA2F000F01410000014100CF
:109AE000A2B79F00FFB19700803221008081410022
:109AF00093B79F001D00780001002100810F5000E6
:109B0000040032008100E800810F500012003A008A
:109B100009003700BFB1970022EA2F000F01410072
:109B20000800BE0099FD07008000EB00000444001F
:109B300081844C00080037003FB2970021EA2F00D3
:109B40008F8040000A01BE000D007800F2FE070081
:109B50000A054000E0854D000FB897000000E000C6
:109B6000050035002FB197009FB09700D2607800B4
:109B70000000E900FDFF3B004FB197008200470065
:109B8000FFB19700823221005FB09700A656020015
:109B9000000000000C06E8000C077800EFB1970009
:109BA0008C8F5100D3FF3E004F0778004F06BE0058
:109BB0004F05BE004F04BE002F15B1000000060087
:109BC000EC874700889FBE008A9FBE008C9FBE0026
:109BD0008E1F780080BF9F00010778008204780004
:109BE00003057800840578000506780006047800EF
:109BF000A658020000000000E40F5000FCFF3200F5
:109C0000BD8720009D467800C8509000E9B79F00AE
:109C1000FAB79F00CBB79F00DCB79F001800780011
:109C2000E50F50005100320005003E000000E0004A
:109C300018003200E10F500052003A0030003700A7
:109C400002002F0002004000E10F50004D003E00D6
:109C5000E4CF500003003200E8CF500049003A0042
:109C600006003700F8815700080178008E00780060
:109C70000FB8970024FF070042003700F881570013
:109C8000080178008E0078000FB89700FDFD0700EE
:109C90003C003700E4CF50000B003200E8CF50000A
:109CA00010003200E1CF500036003A00F881570032
:109CB000080178008E0078000FB89700FE7002004F
:109CC000000000002F003700F881570008017800DD
:109CD0008E0078000FB89700606E02000000000050
:109CE00028003700F8815700080178008E007800BE
:109CF0000FB897000C6C0200000000002100370034
:109D0000E4CF50000B003200E8CF500010003200CA
:109D1000E1CF50001B003A00F8815700080178009D
:109D20008E0078000FB89700A269020000000000C2
:109D300014003700F8815700080178008E00780081
:109D40000FB8970048670200000000000D003700C0
:109D5000F8815700080178008E0078000FB897004E
:109D6000126502000000000006003700F88157006D
:109D7000080178008E0078000FB89700AE640200EA
:109D8000000000008D407800B08720000148780076
:109D9000100020004F0778004F06BE004F05BE00A0
:109DA0004F04BE00CF00B10000000600020378009F
:109DB0008002EB000502780085017800050178003B
:109DC0007FFF070000000600F098880001998800D6
:109DD00060322100034878002299880000000600C4
:109DE00000A02000704388001010B00020428800BE
:109DF0004368EF0042E8EF006A28EF006C28EF00AC
:109E00007828EF008041EB000001EB008200780031
:109E100002007800ECFF07000028EF007628EF0032
:109E20007428EF00F013200090438800F00E20000B
:109E300080438800700040006041880000000600F8
:109E4000E7FF0700000006001099880000000600E8
:109E50001099800000000600209980000000060094
:109E6000603221001040780000000600F098800069
:109E7000000006000099800000000600889FBE00D8
:109E80008A9FBE008C9FBE00000678000104780007
:109E90008204780003057800DB022000110009002D
:109EA0000B04D8008000FD008005780032D8220025
:109EB00002C1B9004399DE00CFC0DE00810051002D
:109EC0000108A30002003200D10220008B8550005F
:109ED000CFE6DE00110020000B00780059FB0700E0
:109EE000CF80DE004809DD00C801DE00830171007B
:109EF0004801DD000C98B90002EAB90000004200F8
:109F00000C11B800830C40008000EB000B007800BF
:109F10004CFB0700CF80DE004809DD00C801DE00F1
:109F2000830171004801DD000C98B90002EAB90014
:109F3000000042000C11B80003004000000D780042
:109F400022FD2F000801410081052000810F5100F2
:109F500004003600E2F12F0008014100810F51009A
:109F600003003E0099007800800C7800010D780015
:109F700051FA2F0088804000200B2000808F500075
:109F800001003E00990CEA00580BB100200B2000A4
:109F9000800F540001003E001A0DEA004F06BE007B
:109FA0004F05BE004F04BE00000006001000200058
:109FB00000408800000006000028EF0000000600B6
:109FC0000040800000000600CF02B000889FBE0065
:109FD0008A9FBE008C9FBE008E1F780080BF9F00AE
:109FE000F1B79F008206780003067800C4AF9F0097
:109FF000D5A79F00E6D79F0050502B000021B80046
:10A0000083007800C1A79F000028B8008101780074
:10A01000A3AF9F006121B800C011DD000200200045
:10A02000000024001100200002015000838158002C
:10A0300003027800E4A79F006129B800C011DD0089
:10A0400002002000020050008380580001017800C7
:10A0500092B79F00CDB79F00DCB79F000FB8970065
:10A06000B0B79F00FFB09700F1AF9F008505780063
:10A07000EBB79F004FAC97008001EB00E3AF9F0070
:10A0800014002000D4AF9F00030578008A047800F4
:10A09000064078000087FB008400670091AF9F00B6
:10A0A0006201670082AF9F008E0178000302B20058
:10A0B000F3A79F0002003700AFB497000FB49700DA
:10A0C0004FAA97000400E0001E0032004FA0970046
:10A0D000890F500015003900EFA097000100E00043
:10A0E000090034000801E90082B79F000280540093
:10A0F00080004000EFA19700658041000080400093
:10A10000E0A79F00060037006FA29700E30042001F
:10A110000980440000804000E0A79F0088B79F00AE
:10A120008900E800A1B79F000B0037000901E80093
:10A13000A2B79F00880F510005003E0088B79F001E
:10A1400005003700A9B79F0088B79F0002003700BD
:10A15000AFB0970081B79F001FB197000200E000E9
:10A1600009003400EFB197008301E900E3B79F00D5
:10A170008300550081804000650041000080400060
:10A1800090B79F00050037001FB29700E300420020
:10A190000A0045000080400090B79F000A05E800D3
:10A1A0000FB09700880F500003003A00EFB09700FF
:10A1B000818F5500850032001FA997000200E00042
:10A1C0000E003200FFB197000880510003027800B2
:10A1D00089015200808F5100010036008001780013
:10A1E0000D8144007FB097008B0050006FAA97004C
:10A1F0000D00420064570200000000000FA8970005
:10A200000000E0000D003200FFB097006FA997003A
:10A21000828150000D814500098250008D0044006C
:10A220000D804400810F50000100310001007800D2
:10A230008400780064570200000000000E28A3008C
:10A240000C0032000D814500DFA997000C8241000F
:10A250008D0044004FB09700810F50000100310085
:10A2600001007800DFB19700840078006457020095
:10A27000000000000E38A3000B0032008C81450066
:10A280000C004400DFB09700808F500001003100C7
:10A29000800078005FA997000D0041004FB1970042
:10A2A00064570200000000000E48A3000D003200B9
:10A2B0008C8145000FBA97006FA8970000015200EB
:10A2C0000C0044008C804400808F5000010031005D
:10A2D000800078000FBA970009005200645702000E
