:10300000001A040000000000BC1B040000000000C7
:10301000D41B040000000000F21B040000000000AC
:10302000C61B040000000000DE1B040000000000BE
:10303000E81B040000000000FC1B0400000000006E
:10304000701E040000000000701E0400000000005C
:10305000701E040000000000701E0400000000004C
:10306000161B040000000000701E04000000000099
:10307000701E040000000000701E0400000000002C
:103080003E1C040000000000701E04000000000050
:10309000701E040000000000701E0400000000000C
:1030A000701E040000000000701E040000000000FC
:1030B000061C040000000000701E04000000000058
:1030C000681C040000000000701E040000000000E6
:1030D000701E040000000000381E04000000000004
:1030E000221C040000000000701E0400000000000C
:1030F000701E040000000000701E040000000000AC
:10310000701E040000000000541E040000000000B7
:10311000701E040000000000701E0400000000008B
:10312000701E040000000000701E0400000000007B
:10313000701E040000000000941B0400000000004A
:10314000701E040000000000701E0400000000005B
:10315000701E040000000000701E0400000000004B
:10316000701E040000000000701E0400000000003B
:10317000701E040000000000701E0400000000002B
:10318000701E040000000000701E0400000000001B
:10319000701E040000000000701E0400000000000B
:1031A000701E040000000000701E040000000000FB
:1031B000701E040000000000701E040000000000EB
:1031C000701E040000000000701E040000000000DB
:1031D000701E040000000000701E040000000000CB
:1031E000701E040000000000701E040000000000BB
:1031F000701E040000000000FFFFFF00FFFFFF0043
:10320000FFFFFF00FFFFFF00FFFFFF00FFFFFF00CA
:10321000FFFFFF00FFFFFF00FFFFFF00FFFFFF00BA
:10322000FFFFFF00FFFFFF00FFFFFF00FFFFFF00AA
:10323000FFFFFF00FFFFFF00FFFFFF00FFFFFF009A
:10324000FFFFFF00FFFFFF00FFFFFF00FFFFFF008A
:10325000FFFFFF00FFFFFF00FFFFFF00FFFFFF007A
:10326000FFFFFF00FFFFFF00FFFFFF00FFFFFF006A
:10327000FFFFFF00FFFFFF00FFFFFF00FFFFFF005A
:10328000FFFFFF00FFFFFF00FFFFFF00FFFFFF004A
:10329000FFFFFF00FFFFFF00FFFFFF00FFFFFF003A
:1032A000FFFFFF00FFFFFF00FFFFFF00FFFFFF002A
:1032B000FFFFFF00FFFFFF00FFFFFF00FFFFFF001A
:1032C000FFFFFF00FFFFFF00FFFFFF00FFFFFF000A
:1032D000FFFFFF00FFFFFF00FFFFFF00FFFFFF00FA
:1032E000FFFFFF00FFFFFF00FFFFFF00FFFFFF00EA
:1032F000FFFFFF00FFFFFF00FFFFFF00FFFFFF00DA
:10330000FFFFFF00FFFFFF00FFFFFF00FFFFFF00C9
:10331000FFFFFF00FFFFFF00FFFFFF00FFFFFF00B9
:10332000FFFFFF00FFFFFF00FFFFFF00FFFFFF00A9
:10333000FFFFFF00FFFFFF00FFFFFF00FFFFFF0099
:10334000FFFFFF00FFFFFF00FFFFFF00FFFFFF0089
:10335000FFFFFF00FFFFFF00FFFFFF00FFFFFF0079
:10336000FFFFFF00FFFFFF00FFFFFF00FFFFFF0069
:10337000FFFFFF00FFFFFF00FFFFFF00FFFFFF0059
:10338000FFFFFF00FFFFFF00FFFFFF00FFFFFF0049
:10339000FFFFFF00FFFFFF00FFFFFF00FFFFFF0039
:1033A000FFFFFF00FFFFFF00FFFFFF00FFFFFF0029
:1033B000FFFFFF00FFFFFF00FFFFFF00FFFFFF0019
:1033C000FFFFFF00FFFFFF00FFFFFF00FFFFFF0009
:1033D000FFFFFF00FFFFFF00FFFFFF00FFFFFF00F9
:1033E000FFFFFF00FFFFFF00FFFFFF00FFFFFF00E9
:1033F000FFFFFF00FFFFFF00FFFFFF00FFFFFF00D9
:103400004F5322000EFF24000E0188000000000030
:10341000000020000000E000020032000001200057
:103420002002880014000700050307000000E000E8
:1034300003003A00E0E82C00010020000200370001
:103440000000200001002000810F70000100320008
:103450000F000700000020000000E0000200320022
:10346000000002000000000034AF02000000000075
:103470000040DA000000FE0020EC20000000E00028
:1034800002003200002020009001880000000600A9
:10349000A1028800800478000000EB001F003700C4
:1034A000E284440054A0B4009905BA00E2844400C8
:1034B00054A0B4009906BA00E284440054A0B400B9
:1034C0000006EB00476FDE00FD07B200AE0188008A
:1034D000636CE10003003A000AD801000000EB0031
:1034E0000E003700606CE10008003A00004DEB0070
:1034F0000A05E800020039003420EC000AF0A000C0
:103500008B05E900F9FF3E00040037006168E10027
:10351000010032000086EB000B00070019C7BA005B
:103520000E04E0001905BA0003003A000A00E000AA
:10353000DBFF3A0000000600FE07B200AE02880082
:103540008A047800F5FF37000CD0A300E20F4D008D
:103550001C00390089027800354DBA000A05E800E0
:10356000020039003420EC000AF0A0008B05E900CD
:103570000F003200254DBA000A05E80002003900AC
:103580003420EC000AF0A0008B05E90008003200AE
:103590000C00E0000600320015CDBA000A05E80074
:1035A000020039003420EC000AF0A0008B05E9008D
:1035B0008984E80054A0B4000B00E000E2FF3A0068
:1035C000000006009902BA00055D78008B05E9004D
:1035D000F7FF3200C82ADE00055D78008B05E900A0
:1035E000F3FF32000C00E000F1FF320019DDBA00F9
:1035F000EEFF3700AEEC0400000000000AD7040024
:103600000000000076E8040000000000DCED04008B
:10361000000000008228040000000000423904007D
:103620000000000000000400000000003600F80068
:10363000809FBE00829FBE00849FBE00869FBE000A
:10364000889FBE008A9FBE008C9FBE008E1F7800A0
:103650003200F8003400F80010002000A0018800BB
:10366000002020009001880000000000EE948000FF
:1036700009A021000E00E0000100320009C0210075
:103680002A3D22000D1020008986460018002000E7
:10369000DC948000CB9480000C00640004003200B5
:1036A0000900780002E102000000000000B59F0060
:1036B0000B006400050032000010200009004000EB
:1036C00002E1020000000000000D7800F0844400D8
:1036D0000A85E8008D8F540002003200080444007F
:1036E000EDFF37000E00A200EE94880010C0B3007A
:1036F00096F2B7000088A9003400F9003200F90002
:103700004F0778004F06BE004F05BE004F04BE00B5
:103710004F03BE004F02BE004F01BE004F00BE006F
:103720003600F900004006000AA4AB000A0032008F
:103730000BA4AB00010032000BA4A9000B84AB006A
:10374000010032000B84A9000B64AB0001003200C1
:103750000B64A9000AA4A9000A24AB0001003200EE
:103760000A24A9000AC4AB00010032000AC4A9005F
:103770000468A900004006003600F800C028A9002F
:103780000000EB0080F00200000000003600F800AE
:1037900076F0020000000000C048A90010002000E0
:1037A00080F00200000000003600F800C068A900A8
:1037B0002000200080F00200000000003600F80029
:1037C000C088A9003000200080F002000000000046
:1037D0003600F800C0A8A9004000200080F00200D8
:1037E000000000003600F800C608A90070002000A4
:1037F00080F00200000000003600F800C488A90034
:10380000A000200080F00200000000003600F80058
:10381000809FBE00829FBE00849FBE00869FBE0028
:10382000C8ED02000000000001C8A9004F03BE005F
:103830004F02BE004F01BE004F00BE003600F9002F
:10384000004006003600F800809FBE00829FBE0048
:10385000849FBE00869FBE00CAED020000000000EB
:103860000308A9004F03BE004F02BE004F01BE0077
:103870004F00BE003600F900004006003600F80098
:10388000809FBE00829FBE00849FBE00869FBE00B8
:10389000009880000000E0000100320000000100FC
:1038A000905222001048E80011C0B3000000E90067
:1038B000014878000108A9004F03BE004F02BE0076
:1038C0004F01BE004F00BE003600F9000040060068
:1038D0003600F800809FBE00829FBE00849FBE001D
:1038E000869FBE000228A90008E2AB001C003A0037
:1038F000109180008000EB00EB0F5000E08F58002B
:103900000A0036002072EC006000200096E70200FA
:10391000000000004F03BE004F02BE004F01BE007A
:103920004F00BE003600F90000400600000601000E
:1039300033003700240037007F00370015003700C0
:103940002B003700420037005900370028003700AD
:1039500045003700EBFF37006B0037005E00370093
:1039600008E2A9002232EF002091800020009000A0
:103970000008EB002432EF004F03BE004F02BE00F0
:103980004F01BE004F00BE003600F90000400600A7
:10399000E6FF37000802E200940035002BD2BF009A
:1039A0008040E900B2222100014978000004E000D3
:1039B000A4003A00600020002832B4002652ED0036
:1039C00026F2B7000A0032000622A80020002000DC
:1039D000109188004F03BE004F02BE004F01BE0091
:1039E0004F00BE003600F90000400600CFFF370050
:1039F0002000200096E7020000000000C5FF37000D
:103A00001E32AB00C3FF3A00E09080002091880096
:103A100010417800612221008248780090019000D6
:103A20004391880066004000E0908800E14E22004B
:103A3000810F5000760032001E12A9001A12E30016
:103A4000700032000602A80020002000E0FF3700CE
:103A50000802E200570035000662A800800020003E
:103A600010918800DBFF370001108000709180000A
:103A700001587800709188002B52ED002BF2B700AE
:103A80004700320006A2A9006000200010918800C3
:103A90000682A8004F03BE004F02BE004F01BE00C9
:103AA0004F00BE003600F900004006009FFF3700BF
:103AB00080002000109188000662A8004F03BE001D
:103AC0004F02BE004F01BE004F00BE003600F9009D
:103AD0000040060095FF37000802E2002B00350089
:103AE0000622A800609180004800DE0066006000A9
:103AF000100FB3006091880010C0B3002AF2B70025
:103B000020002000B2FF37000802E2001F0035004D
:103B1000619180000100D100F00FB2001010880008
:103B2000B00020000108A300A9FF3A0030002000E7
:103B300010918800A7FF37002AD2BF00E14F500044
:103B40002800320040918000900078006191880048
:103B50002001900072918800A0409000B3222100C3
:103B60008149780060918000F10F2000810F5000A2
:103B70002D003E00101088000008A300EBFF32006B
:103B8000500020001091880092FF37002072EC0056
:103B90004000200096E70200000000005DFF3700B3
:103BA00006A2A80080E70200000000000682A8002C
:103BB000B8FF37002072EC004000200096E70200BA
:103BC0000000000009E2A9004F03BE004F02BE0042
:103BD0004F01BE004F00BE003600F9000040060055
:103BE00052FF37002A72EF00DEFF37002072EC0030
:103BF00009E2A9005000200096E702000000000042
:103C000044FF37001E32A8000602A8008EFF3700CE
:103C100066805000E09088001E12A9001A12E3008E
:103C200088FF3A00F7FF37004800DE0066006000BA
:103C3000000FB30010108800A00020001091880031
:103C400064FF370070918000B080FB001110880085
:103C5000709188004F03BE004F02BE004F01BE00AE
:103C60004F00BE003600F900004006002FFF37006D
:103C70003600F800809FBE00829FBE00849FBE0079
:103C8000869FBE0066F00200000000000288A900C6
:103C90004F03BE004F02BE004F01BE004F00BE00EA
:103CA0003600F900004006003600F800809FBE0094
:103CB000829FBE00849FBE00869FBE0074C5020026
:103CC0000000000003A8A9004F03BE004F02BE0081
:103CD0004F01BE004F00BE003600F9000040060054
:103CE0000040DA000000FE000A00FA001100200087
:103CF000B1BF9F00C0BF9F006A805700640E0700DD
:103D00004FB897000080FA00000006000A00FA0091
:103D1000E20F500034003E0080298100E10F500086
:103D200003003200E20F500011003A000C0037008F
:103D3000032220000300E00001003A000040DA0006
:103D40002002E200020035002822EF0021E2A80054
:103D50002342AB000D003A002342A8000B003700BD
:103D6000032320000300E00001003A000040DA00D5
:103D70003002E200020035003822EF0031E2A800F4
:103D80003342AB0001003A003342A80082017800C0
:103D90000B0037003102FB00E10F500004003A0035
:103DA0002322AB00FEFF3A002411880003003700F5
:103DB0003322AB00FEFF3A00A41188008301E90022
:103DC0000300E000F3FF3A00E10F500003003A0067
:103DD0002302AB00FEFF32000B0037003302AB00C2
:103DE000FEFF32000800370033002000B3BF9F0001
:103DF000C0BF9F00D1BF9F00E2BF9F006A805700F5
:103E0000250E07006FB99700020078000080FA00C5
:103E1000000006000A00FA0051002000B1BF9F0018
:103E2000C0BF9F006A8057001D0E07005FB8970053
:103E30000080FA0000000600889FBE008004780021
:103E4000902981000000E00004003A000E00070005
:103E50000084EB000000E000080035009829810094
:103E60000900E000050032000900440006000700D8
:103E70000000E00001003D000084EB000800780035
:103E80004F04BE0000000600800078000100E00042
:103E900003003A000000200090298900000005007E
:103EA0000080EB0002002000828F500002003E00E4
:103EB000912989000000EB0000000600889FBE00E9
:103EC0008A9FBE008C9FBE00CF8BDE004F9BDE0022
:103ED0000204B8000306B8008904460060854E005D
:103EE0000606B8000A054600E0854E000606B80042
:103EF0008B054600020EB800890446000A854E0074
:103F0000E0854D00030EB8000A0546008B854E0083
:103F1000060EB8008B054600023EB8000A054600B2
:103F20008B854E00033EB8008B054600023EB8006C
:103F30008B0546000B00E00002003A000AF0A300E7
:103F4000150039000AF0A60020003700E185450081
:103F50000B00E0001D003A0005F0A6000800370045
:103F60000480440085004D0001F0A60023003700C6
:103F70004F06BE004F05BE004F04BE000000060005
:103F80000480440085004D004F06BE004F05BE0072
:103F90004F04BE000000060005F0A700F8FF370040
:103FA0000480440085004D00E0854D000B00E000DA
:103FB00006003A0001F0A700040037004F06BE00DB
:103FC0004F05BE004F04BE00000006000BF0A70026
:103FD0000A003700F0FF2F00F1FF27004F06BE0058
:103FE0004F05BE004F04BE00000006004F06BE0095
:103FF0004F05BE004F04BE00000006000000200078
:10400000010028004F06BE004F05BE004F04BE0051
:10401000000006000202B800020BB900068242004E
:10402000E0824B000383B8000388B9008600420099
:1040300000804B00008042008000FD000000060070
:104040000000050003F0A200889FBE008A9FBE000A
:104050008C1F78002A010700310133006450E10011
:104060004F0032006420E1005200320003826C00F5
:1040700007003B000905D0000306D000820F540062
:104080000C065D0002003900020032008901780050
:10409000030678008582550004003D000003FD0002
:1040A0008103FD008502EA008B854200840F7200C7
:1040B00002003B0060001000E08018006011B800B2
:1040C0000005EB007A28E1000A00390006007800BC
:1040D000C75DDD00F707B200878075002D0037004F
:1040E000828171000A017800610560008180D10041
:1040F0000080D3008502E900F9FF3B000604400080
:104100008784480002003B0060041400E0841C0027
:104110000988A300070032008A8171008281710042
:10412000610164008904D1000884D3008B05E80094
:10413000170037000978A30013003A000B00E000D5
:10414000130034008B05E9000804440089844C0006
:104150000A4474000978A3000D003A000B00E00047
:10416000070034008B05E9000804440089844C00F2
:1041700001003A000B0020000978A300F7FF32008D
:104180000001EB0002003700828171000A01780013
:10419000A00007000CF0A70001F0A000E900370024
:1041A0006420E10002003A00838F6C00E9003300D4
:1041B0000801BE000200BE00E2003700889FBE007A
:1041C0008A9FBE008C1F7800CD000700D40033000A
:1041D00003866C006450E1002E0032006420E10090
:1041E000330032006150E1002F0032006120E10015
:1041F0003100320085855500EB07B0000900200032
:1042000008042000050037000804440089844C009D
:104210000A0031000603430087834B00000153006E
:1042200081815B00F8FF33000203BE000800A0009C
:104230000804440089844C00F6FF3900C639DD00CB
:104240008301730001003200130020008904D100B3
:104250000884D3000998A300050032000800A700D5
:104260000300A0008904D1000884D3008B05E80076
:104270008904D1000884D3000001EB000281D20040
:104280006400070001F0A1000CF0A70001F0A000FD
:10429000AC0037006420E100AE0032000801BE002F
:1042A0000200BE00F7FF37006120E100A9003200E4
:1042B0006000B800F3FF37000000200001F827007D
:1042C000F0FF3700839F68000100E00002003D001E
:1042D00060001000E08018000300E00002003D00D4
:1042E00060011100E0811900C30107004F00E000E8
:1042F00002003B0060001000E08018000000060093
:104300001400200065023700F4FF2F00630237001D
:104310000001BE00650007000470A70003F0A100C3
:104320006509B100160032000D0035006828E10073
:1043300006003500F0FF2F00F1FF27000300E0002A
:1043400013003B00010028000000050000004000B1
:10435000818048008502E900FCFF3A000800370030
:10436000F88F420002003C008000EB0000000500D6
:104370008100D1000080D3008502E800FCFF3A00F4
:104380000300E00002003B0060001000E080180025
:10439000000006000001BE00440007000470A700F2
:1043A00003F0A10003F8A30013003A006509B1006F
:1043B00010003200090035006928E10002003500D4
:1043C0000100280000000500000040008180480036
:1043D0008502E900FCFF3A0000000600F88F420069
:1043E000050035008100D1000080D3008502E8007F
:1043F000FCFF3A00000006008000EB000000050012
:104400004F89DE00820178003F023700040020005F
:104410002202370081002000618055000B003D0022
:104420000B00200061FE2F000100E1001D003400A0
:1044300082817100610164008904D1000884D30085
:104440000000E800FAFF3A007100200061006400FB
:1044500003007000020060000900320061044400A3
:10446000E0844C000988A500050032008B05E800B7
:104470006808E10002003A008904D1000884D300F2
:10448000F20F20000258E10005003D00C75DDD008D
:10449000F907B20089807500080078000000060066
:1044A0000BF827008B00780000000500C70ADE002B
:1044B000F107B200F50FB20008003200E1CF420070
:1044C000020032000170A00024000500810F70007E
:1044D000010032000408050044000500810F70004F
:1044E00002003A00140005008502E90000004000C7
:1044F00081C04800FCFF3B000170A00024000500C3
:104500000004BE00E9FF07000003BE000405BE0072
:104510000200BE00E5FF0700844F750000000600A2
:104520000200BE006450E100050036006420E10096
:10453000020036000968A30001003A000800BE002E
:104540000160A0004F0678004F05BE004F04BE007A
:1045500000000600F0FF2F00F1FF2700F9FF3700F1
:10456000811F78000100E00002003D0060001000A3
:10457000E08018000300E00002003D00600111002F
:10458000E08119002C0107004F00E00002003B0011
:1045900060001000E080180000000600889FBE0048
:1045A0008A9FBE008C1F7800D5FF0700DCFF330018
:1045B00003866C006450E100240032006420E100B6
:1045C000270032006150E100220032006120E1004A
:1045D000210032008B854200EB07B1000134B800A6
:1045E000003AB8000804420089844A00013AB80041
:1045F0000030B8008880400009014A000400330000
:104600000000400081804800020149008B05E9005C
:10461000C909DD0083017000010032001300200091
:10462000C814DE004814DD004709DE001200B200A5
:10463000C808DE000884700076FF070001F0A100C2
:104640000CF0A70001F0A000BEFF37006120E100E0
:10465000C0FF32000801BE000200BE00F7FF3700B5
:104660006150E100FCFF3A00BAFF37000C00FA008D
:10467000889FBE008A9FBE008C9FBE00A0FF0700DF
:104680000206BE00840578000200BE000200200081
:104690005B01070005003A008B02B3001200200006
:1046A0005701070001003A00F8856D000C01BE00BB
:1046B000C60007000800BE009B0032000B08A300E4
:1046C0009E003A000DF0A7000BE0A00009F0A70043
:1046D0000BF0A00009F0A1000801BE00BB0007001C
:1046E0000BF0A6009500320001003C000BD0A000AA
:1046F0008ACF7500B20033006000B8006250E1005C
:1047000099003900A1003E000B28A300A2003A0046
:104710000BF8A300060032000B58A300A7003200DC
:104720000801BE00A90007000800BE009400320086
:104730000800BE00C30007000004BE0005057800A5
:104740000BF0A7000B30A6000BF0A1005B07980050
:10475000324F200053F32300E9FE070005003D001F
:104760000800BE0012002000A60107000004BE00E1
:104770000A05E9004A0798006150B90020FF0700C8
:10478000008FBE000C01BE0084FF0700E0FE0700A2
:10479000300798000100E00002003D0060001000BA
:1047A000E0801800F2FF2700820F5000E08F5800D1
:1047B00064003E000C00BE00D5FE070020079800F4
:1047C000F2072000820F5000E08F580005003C00E7
:1047D00012F82F00F3FF2F00820F5000838F580034
:1047E00009003D000A00E0000300320001003C0027
:1047F0000201EA00020578006000B8002007980076
:104800003A079800190037003E0090006100B90097
:10481000FBFE0700809FBE000C00BE004109DD00CA
:104820004811DE007208B100F50007000005BE0067
:104830001E01BE0059FF07004F01BE0001FE070028
:10484000809FBE000C00BE000A01BE00FDFD0700F7
:104850001E01BE0051FF07004F01BE00FAFD070018
:104860008221270013F323004CFF07000005BE0040
:104870002E0090006100B900E1FE070001F0A200E7
:104880000C01BE00F0FD07000006BE000800BE00DF
:104890007E0107000C01BE0040FF07000A01BE00B8
:1048A000E9FD0700809FBE004A0007002E0590002A
:1048B0000AF0A7000A05EA00050037000800BE005C
:1048C0000801BE0035FF07000004BE000C00BE005A
:1048D0000801BE000A00A70030FF07000006BE0066
:1048E0000A05D100F5FF3A005E01900002E0A60043
:1048F000030037000001BE00360007002FFE07004E
:104900000004BE004F00BE005B0007000801BE00AF
:1049100022FF07003E0190003A010700DE059000EB
:104920000BF0A70001F0A2004F06BE004F05BE002D
:104930004F04BE000080FA000000060025000700BA
:10494000F9FF3700270007006000B8000BD0A70070
:104950000BC0A0000BE0A7000BC0A2000BC0A7007B
:1049600001F82700F0FF37000DF8A3000200320025
:104970001E000700190007000BF8A300EAFF320031
:104980000B30A70001F0A200E7FF37000DF8A300ED
:10499000F9FF3A00F7FF37000801BE000B000700DF
:1049A000E6FF320001003C000DF0A2006000B800FC
:1049B0000DF0A70009000700DBFF37000B00070020
:1049C000F1FF2700F0FF2F00D7FF3700010007009D
:1049D0004BFE370001F823000000050001F8270016
:1049E0000000050020022000010037001002200016
:1049F00010988800000006006022B800060220001F
:104A00000000D0008180D2000482D2008582D200D2
:104A10000000A0000202520083825A00030031000D
:104A20000202420083824A000000A1000603E9005E
:104A3000F3FF3A0000000600EFFF07000400BE008D
:104A4000000006000003BE0098FE07006220E1009F
:104A5000020032000600BE0005000500E507B100B7
:104A6000F107B20004F023008480700007F0A70073
:104A700001F0A00024000500889FBE008A9FBE00B0
:104A80008C9FBE000004BE0088FE07000800BE0028
:104A90006420E10048003E005500320072212700EA
:104AA000132B240018FE070047003C000800BE003E
:104AB000C2EC2800E32C2C0011FE07004700350053
:104AC0000800BE0001F0A10002002000033823000E
:104AD0000BFE0700430035000800BE00B2A32A0009
:104AE00083FB2300ADFE07000200200003F023003B
:104AF00001F0A70003F0A00053FD070004FE07002B
:104B00000005BE003EFE070001F0A2000006BE0048
:104B10000200280013F32300A0FE07000801BE00D6
:104B200049FD0700809FBE000C00BE00320828002F
:104B3000E3952B0099FE07004F01BE0042FD0700E0
:104B40000006BE000001BE0094FE0700809FBE006C
:104B50004241250083B8230090FE07000200200098
:104B600003E8230038FD07000C01BE008BFE0700A0
:104B70000006BE004F00BE00F2F92B00C3D4230094
:104B800086FE07000200200003F023002EFD070030
:104B90000C01BE002BFD07000001BE000C00BE0092
:104BA00086FD07000200200003F0230026FD070019
:104BB00061014500930007004F06BE004F05BE008F
:104BC0004F04BE000000060001F82700000020008E
:104BD0002202200012988800F7FF37006000B8001A
:104BE000FBFF370001F8230000002000F2FF370030
:104BF00009F8A300F0FF32006000B800EEFF3700B4
:104C0000889FBE008A9FBE000003BE0027FE0700EB
:104C10008505780082815200020020006220E100B8
:104C200004003A00F307B100040035007718E100F2
:104C3000040035000600BE00140037006000B80014
:104C40000F003700F50F2000FAFF2F008502D1007A
:104C50000A85D3008301E900FCFF3B0081846200E8
:104C600000046500890F7400F2FF32008582EA00BB
:104C70000A85EA008184620000046500E5FD070002
:104C800007F0A70001F0A0000081EB000200E000A7
:104C90004F05BE004F04BE0000000600889FBE0006
:104CA0008A9FBE00841F780015FE07004F00780021
:104CB00011003300F0FF2F00838F6C0006003B00D3
:104CC000040565000A00A7000800370009F0A600E7
:104CD0001000200008003700820F5400838F5C0012
:104CE000030039001000200001003E0000002000F9
:104CF00009F0A7000000EA004F05BE004F04BE0007
:104D00000000E00000000600881F7800030478001F
:104D10000300E00007003D0060001000E080180084
:104D200060011900E081190002003B0001F02D0034
:104D3000030037000400070008F0A70001F0A000FE
:104D40004F04780000000600889FBE008A9FBE00C6
:104D5000008270000402710004827100260032009B
:104D60000004BE000200BE006011B8006B09200004
:104D7000950220000182CF000A0039000541B100F0
:104D80000082CF00070039000541B1000982CF0041
:104D9000040039000541B1000882CF00010039004C
:104DA0000541B10005425200120032000A003B00EA
:104DB00082817100610164008100D1000080D30014
:104DC0008984D3000884D3008B05E8000442E800FE
:104DD000F7FF3A00070037000804440089844C00BC
:104DE00000004800818048008B05E9000442E9008A
:104DF000F9FF3A0087FD07004F05BE004F04BE00D3
:104E0000000006000003BE00A8FD07006220E100CC
:104E1000020032000600BE000000060085024100CC
:104E2000E30F20000328E10005003C00A3FE2F0053
:104E30000328E10007003D000500200001003700C5
:104E4000F50F200020022000109888006000B800B4
:104E500008003700130020008381520005003D0048
:104E60008100D1000080D3008301E800FCFF3A00FC
:104E700005002000C72ADD00F107B2008580700020
:104E800007F0A70001F0A00000000600889FBE0008
:104E90008A9FBE008C9FBE00EAFE07008504780052
:104EA0000005BE006420E10049003E006220E100F0
:104EB00003003200090035000BF8A3004400320063
:104EC0000BF8A300080032001002200010988800A0
:104ED000F0FF2F00F1FF27003D00370001F82F0001
:104EE000000020003A0037003D00070055FC070095
:104EF0000006BE000A00BE00324F200053F323001C
:104F000001FD0700060034000C00BE00340007005D
:104F10004CFC07000006BE000A00BE00020037007D
:104F20008904E9000C00BE002D0007009BFD07006E
:104F30002B00070044FC07000001BE000C00BE006F
:104F40009EFC07000005BE000001BE0093FD0700A7
:104F50000006BE00A2F32300430D2C003AFC07001C
:104F6000809FBE000C00BE00D2E32700D3F02B00D0
:104F70008AFD07004F01BE0090FC07000006BE003E
:104F80000A01BE0085FD07000A01BE002EFC0700D5
:104F90000006BE006148B90019FD07000005BE000B
:104FA00032082800E3952B007CFD07000C01BE00B1
:104FB00025FC07000006BE000A00BE000200280013
:104FC00013F3230075FD07000C01BE001EFC070053
:104FD0004F06BE004F05BE004F04BE000000060095
:104FE00003F023000200050009003700304278007A
:104FF000B1417800834F52000400320010002000BD
:10500000060031000080EB00000006000201E9000C
:105010000200E000F5FF3A000000EB00000006008F
:105020008001780002003700B15978000201E900E0
:105030000200E000FCFF3A000000060061292200A7
:10504000FA040700800078000080EB000100E00017
:105050000400350061292200A000200002000700A2
:105060004F80DE0000000600889FBE008A1F780087
:105070000004BE00C900900069009000808F5000BD
:105080000600390009007800BF050700800078009D
:105090000080EB000100E0001700350008457800B3
:1050A0004900900008587800C00498001900780062
:1050B00000B8A30004003A0000A8A30008003200D2
:1050C000EA4F540006003A00090078009C040700EB
:1050D000800078000080EB000100E00006003A004C
:1050E00000C020001900600002003200490090005A
:1050F000E00498000A80FB004F0578004F04BE00D2
:1051000000000600889FBE000004780001007800BF
:1051100082047800880178000901780011002000DD
:105120000A050700890F5000010032000004EB005F
:10513000080078004F04BE00000006000000FA00DE
:10514000E88157004FB9970061292200208822008A
:10515000020007000080FA00000006006200FA006A
:10516000889FBE008A1F78000005780081047800BF
:10517000020478008300780080F92F000F004000BF
:10518000EB0707009A979F00A9979F000000EB008C
:10519000B09F9F001885FB008A04FB000A05EA0007
:1051A0004F55DE0050022000808F54000D00320069
:1051B000E10F55000B003A000A01780088007800E2
:1051C0002F9097009F91970003000100A0979F00E8
:1051D0000000E0008E0032003F9897000000E800D9
:1051E000B09F9F000A04440050022000808F5400AA
:1051F000040032000900E000E6FF3A003F98970003
:10520000840037000000EB00909F9F00809F9F006C
:10521000F0979F00E0979F00D0979F00C0979F0056
:1052200007003700814B22000100500000004000C1
:10523000C14A2200808040005F98970011007000F2
:10524000D09F9F00880478000904780038457800D2
:105250008A00FB00804B22002F0507000000E000C1
:10526000F0FF3A00A1C2B300814F55000E003A0092
:10527000CF8897000180E900C08F9F001000780060
:10528000C09F9F000000E00005003D000000EA0014
:10529000C09F9F005F9897000020A000D09F9F00B4
:1052A0000904E8000F003700C09F9F000000EB00DA
:1052B00005003700F2FF2700820F50000200320085
:1052C000EA00B900008040000904780088047800F2
:1052D000B900FB000103B100E98F5000F5FF360073
:1052E000C09F9F00E0C2B300984F10000200320040
:1052F0000080EB0019003700A0C2B300D84F1000A7
:1053000007003A00CF8897000180E900C08F9F0016
:1053100010007800A09F9F000804E80010003700EC
:105320000000EB00A09F9F00880078000500370078
:10533000F3FF2700830F500002003200EA00B9009B
:105340000000410001047800880078003101FB0072
:105350000203B100E90F5100F5FF3600A09F9F0046
:10536000984478008900FB00404A2200EA040700C4
:105370000000E000020032000804E80001003700ED
:105380008044EB00C97F9F0080C6B30080CF5400EB
:1053900004003A0098CF14000A003A00664050001A
:1053A00006003700C0C6B30080CF540005003A00A5
:1053B00098CF140003003A0065404000C07F9F0072
:1053C0000804E8001801FB00E3FB2F008F81410077
:1053D00081F92F008F804000A0F92F000F004000BE
:1053E000100007000000E00009003A00E1FB2F0078
:1053F0008F804000A0F92F000F00400090060700AA
:105400000000E000020035000804E80061FF3700FA
:105410000080EB004F0578004F04BE000080FA00CA
:1054200000000600889FBE008A1F780000047800F4
:10543000824478000305780070C6B30080CF540022
:1054400021003C0000C0E90080CF5400E6003D0090
:105450007240500080CF5400530132000D003C00D8
:105460006C40500080CF540066013C0000C0E90051
:1054700080CF5400DC003D0050C2B30080CF540008
:105480005D0132007C40400080CF54005D013A0055
:10549000D500370010C6B30080CF5400D2003200D0
:1054A00004003C006940500080CF540055013A0090
:1054B0007300370030C6B30080CF540018003200AC
:1054C0000040E8000900370000C7B30080CF540057
:1054D0002701320008003C0000C0E90080CF5400E2
:1054E000F000320066003C006540500080CF540060
:1054F00044013A001000370050C7B30080CF540079
:105500005F0032006340400080CF54005C003200F6
:105510006540500080CF54003A013A002201370024
:105520001181E900820878007800900000054500AC
:10553000124D78003901370028609000C2C6B300D0
:10554000824F500008003A001101780064005100B9
:105550008008780090009000100078004F89DE00ED
:10556000820178001600370012C7B300824F500046
:1055700003003A001102780068005200050037006D
:10558000A2C6B300824F500008003A009102780092
:105590006880520080087800900090002001900000
:1055A000B001900010007800050037001180E9007C
:1055B0008008780010007800CF80DE006109B90013
:1055C000009CBE000294BE002862900085C6B30015
:1055D000854F52000D00320025C6B300854F5200A2
:1055E00004003A000000FB00CF80DE006109B90032
:1055F0000800370045C7B300854F52000300320052
:10560000E6C24200854F520004003A00CF80DE001F
:105610006109B900009CBE000294BE001802780027
:105620009802900028039000B80390007800900042
:10563000E00F5200E08F5A00E00F5B00E08F5B004C
:1056400003003D0080004500D2C2B3000A003700CD
:10565000881090000118A30003003200800045006C
:10566000B2C2B300040037000108A30059003200A1
:105670008000450002C2B300824878005300370022
:1056800028609000C2C6B300824F500009003A0063
:10569000110378006400530080087800100278003D
:1056A000900290006033B8000400BE000601BE0006
:1056B0001600370012C7B300824F500003003A00B3
:1056C000910278006880520005003700A2C6B3003E
:1056D000824F500008003A00110378006800530020
:1056E000800878009000900020019000B0019000A8
:1056F00010007800050037001180E900800878006C
:10570000100078008000EB006011B800009CBE0023
:105710000294BE002862900085C6B300854F5200F7
:105720000D00320025C6B300854F520004003A0038
:105730000080FB008000EB006011B800080037001B
:1057400045C7B300854F520003003200E6C2420055
:10575000854F520004003A008000EB006011B80051
:10576000009CBE000294BE00081090000038A30008
:10577000180032001800780098009000280190006E
:10578000B8019000E00F5000E08F5800E00F590082
:10579000E08F59000F00320080C7B30080CF540063
:1057A0000300320080C5B30080CF540009003A00E6
:1057B000780090008000450002C3B3008248780062
:1057C0000000E80080004500894878000000E800FB
:1057D0007004980078009000000545006A04980065
:1057E000894078006D00370028619000C0C4B30084
:1057F000804F510008003A00910378006880530000
:10580000800878009000900020019000B001900086
:105810001000780006003700110178006400510084
:10582000800878009000900010007800470807007A
:10583000009CBE000294BE00B8009000780090006A
:105840000100E00003003D0080004500D2C2B3002B
:105850000A003700881090000118A30003003200EE
:1058600080004500B2C2B300040037000108A30065
:10587000050032008000450002C2B3008248780073
:105880000000E800700498007800900000054500D2
:105890006A0498008900FB00080078006500070092
:1058A0006000370028619000C3C6B3001180E90092
:1058B000834F5100220032000A003C00E4C1510035
:1058C000834F51002500320083C1E800834F51000F
:1058D00013003200E8C15100834F51001E003A000E
:1058E0000A00370043C7B300834F51001B0032004A
:1058F000E6C14100834F510018003200E9C1510058
:10590000834F510014003A000500370080087800EA
:1059100010007800485C900008487800410037008B
:105920008008780010007800680A9000CFA2DE009E
:10593000612BB9000498BE000690BE003900370004
:10594000800878001000780068099000CF91DE0090
:105950000288BE00330037001180E900800878001B
:1059600010007800680C9000080878002D003700BF
:105970001180E9008008780010007800CF80DE00F8
:105980006109B900009CBE000294BE00780090003E
:10599000000545006A04980081C7B300080078003C
:1059A000EA0307001F0037001180E9008008780033
:1059B000100578006A049800D80C90000900E000F7
:1059C00004003D000A0078005F03070080047800AF
:1059D00007003700090178008000EB000A0078001A
:1059E000430307000000E000010032008A04500079
:1059F000190C98000B003700780090000005450056
:105A00000500370078009000000545000904E0001B
:105A100001003A0059C2B300094D78000000E800C7
:105A2000700498000000EB004F0578004F04BE00A2
:105A3000000006002F04B000889FBE008A9FBE00B1
:105A40008C9FBE008E1F78000007780081F79F00B2
:105A50001E0478009E0490002E059000BE05900064
:105A60005E0890000000E00002003D0060002000A1
:105A7000500F98008E00780020FB2F000F00400090
:105A800088030700E20F50000A003A0030002000AF
:105A9000100F9800B1C9B3000FF09700814040008B
:105AA000E0352200E1CF50000D003E00A03522007D
:105AB0000B0037000000E0000F0034003000200031
:105AC000100F9800B1C9B3000FF197008140410059
:105AD00060362200E1CF500001003E002036220057
:105AE000EE009000B0487800B06878001040780070
:105AF00090409800F70037000000E00005003A00F1
:105B000022FB2F000F014100001978008001EB00FB
:105B1000EB0037006022B8006033B8000800BE0018
:105B20000A01BE00E00607000000E00001003D00A1
:105B30000BF0A200705927009F9897000088B900C9
:105B4000026A280013002000DEF9070064065000F6
:105B50009C9F9F0015003B0063061600C0FF2F00AE
:105B6000000666008C01EA00939F9F00AD3622007C
:105B70000800BE000A01BE00090037000C08A3009F
:105B8000050032001D0278009D0290002D03900058
:105B9000BD039000BC0707000C86D100E8864600D4
:105BA0000C00E000F5FF3C001A0037000C00E0009C
:105BB0001A003200C0FF2F00000666009C9F9F0065
:105BC000AD3622006000B8000200200003FF230071
:105BD000090037000C08A300050032001D02780000
:105BE0009D0290002D039000BD039000A6070700C2
:105BF0000C86D100E88646000C00E000F5FF3C0072
:105C00000002BE000203BE000800BE000A01BE0082
:105C1000AF0607000004BE000205BE00DE089000CB
:105C200060C6B3000FF29700804F520004003200AC
:105C30006000200062C4B300824F520002003A00AC
:105C40009F9A97006A80420081004000F1B79F0050
:105C500001037800F30F53000200340037012000E5
:105C6000F7B79F0000C3B300C0779F0056FB2F001B
:105C70000F0343000E007800A0B79F0006077800CE
:105C80003D0037000800BE000A01BE004E070700B5
:105C90000006BE007FB1970068015100F2B79F0077
:105CA0004240A9000C003400730707000002BE0048
:105CB0000203BE000800BE000A01BE00E80707009C
:105CC0006022B80046782D00771924006E0707007F
:105CD0000004BE000205BE00E80047008E00200060
:105CE0000802BE000A03BE00B4B79F00C5B79F00FC
:105CF000D6B79F00E7B79F000C01BE0001047800F3
:105D00000C003700A400200005002000C0FD2F007B
:105D10000F004000610207006FA89700FFA89700DE
:105D20000FB197009FB1970005C3B3000564410010
:105D30000001BE00E00F5100E08F59000300340065
:105D40000E07E900E10F4700EEFF3A0088007800F7
:105D50003FB49700CFB497005FB59700EFB59700B9
:105D60000200370000C3B300806078000E07E9002E
:105D7000FCFF3B00688740007FB397000600E0000F
:105D8000070034006022B8006033B8000800BE008D
:105D90000A01BE00490607000000E000B9FF3C0010
:105DA0000E0378002FB7970051FB2F008F80400023
:105DB000010353009F9B970067804300909F9F00C3
:105DC000020037000603E9000000E9000101780045
:105DD0008200780003C3B300B1CF1100F9FF320095
:105DE000909F9F00DE09900061C6B3000FF29700FC
:105DF000814F52000300320061C4B300814F520052
:105E000002003A000000E8000A00370010002000FD
:105E100051C6B3008FF2970081CF520005003200C7
:105E20000540780050C4B2000080FB000000E9008B
:105E30004F00DE0083014000868F510001003400D6
:105E4000860178000300E0001D00350000C3B300A8
:105E5000868F510006003D0003024100694040006A
:105E600041C3B30094CF100001003C0069405000D2
:105E70008300E900810041000100370084017800BF
:105E80000302E90001037800A142780080CF5200AC
:105E9000FAFF320091C3B300814F500001003A0075
:105EA000054BE8000400E00005003D000201E900A8
:105EB0008301E8001F9B97000603E800969F9F0060
:105EC0008FF397008700FB001F9A97000E00780061
:105ED000060007004F0778004F06BE004F05BE00C2
:105EE0004F04BE002F04B10000000600F0874700F9
:105EF000889FBE008A9FBE008C9FBE008E1F7800C8
:105F000000047800814478000205BE000406780091
:105F10000B00E00002003C001B002000AA522200FF
:105F200060C6B30080CF54000E00320060C4B300DE
:105F300080CF54000B00320070C6B30080CF5400F5
:105F40000300320070C4B30080CF540085003A00D3
:105F5000E40F46008300350058089000800F56007B
:105F600080003D000C06E80060C6B30080CF5400FE
:105F70001000320060C4B30080CF54000D00320026
:105F8000081090000038A30004003A005808900060
:105F9000808F550001003D005B0C98005808900070
:105FA0000C005000500C980002003B000000EB0079
:105FB000500C980098089000680090000C00E000D9
:105FC00028003C000100400002C3B30002487800F2
:105FD0008100E800110C9800580890000000E000D3
:105FE00003003C00081090000038A30006003200B7
:105FF0006800900001004000E2C2B300024878004F
:106000008100E800110C9800580890008C00EA000C
:10601000810F500001003D000006EA008C00EA00FC
:10602000210C9800000646005C0C98008B0F56006F
:10603000010034000B0678003C0C9800E80090004A
:1060400018089000008040000C0178008A00780059
:10605000F3FB0700580890000C0650004C0C980009
:10606000940037008C8F550019003D00010040005E
:106070000B0178008A007800E9FB070018089000FF
:1060800000804500100C98008B0556002B0C9800E2
:10609000D80890000100E00003003C008810900048
:1060A0000138A30007003200E800900000804000A3
:1060B000E1C2B30001487800380890000000E80011
:1060C000300C980058089000400C98007900370078
:1060D000010040000C0178008A007800D0FB070026
:1060E0001808900000004600100C98008C855500A0
:1060F000D80890000100E00003003C0088109000E8
:106100000138A30006003200E800900080804000C3
:10611000E2C2B300824878000000E800100C98004A
:1061200058089000808F55000100340080057800E9
:10613000E800900018089000008040008C004500A6
:106140000B017800B6FB0700180890000B00400018
:10615000100C9800580890008B0550002B0C9800EC
:106160005400370018089000E8009000808040003C
:106170009A4878000000E800100C9800D8089000B9
:106180000100E00003003C00881090000138A300EB
:1061900006003200E800900080804000E2C2B300B8
:1061A000824878000000E800100C98005808900021
:1061B0000000E000100034008B05E900808F5500DE
:1061C0000100340080057800E80090001808900075
:1061D000008040008A00E8000B01780090FB070077
:1061E000180890000B004000100C98005808900010
:1061F0008B0550002B0C9800E800900018089000C8
:1062000000804000095878000007E8000C00E0001A
:1062100004003500B1C2B300014878008E04780054
:1062200004003700D1C2B300014878008E04780022
:106230000C06EA007D8557008006EB000900370058
:10624000A20020008C007800728057003100070007
:106250007FB097008FB89700016D78000006780036
:106260008D06E8000C00E000F5FF3C000D00E000AA
:1062700009003A008E04780000C3B300805C780007
:10628000050037008D06E900FC8057000D804000B6
:1062900001C3B30090DC40000D00E000F9FF3C00BA
:1062A000E8009000180890000080400080845400AE
:1062B000390C98000810900074006000F00F500036
:1062C0000E003A009808900078009000008040008E
:1062D000A808900001004000B808900001004000AC
:1062E000C808900001004000F8089000810F50009D
:1062F00002003D0000805000000C98004F0778001D
:106300004F06BE004F05BE004F04BE000F01B10096
:1063100000000600800278000103780011000900E7
:106320000203D80080017800830A78008299B900BE
:1063300082005300910298000500780000000600DA
:10634000889FBE008A1F7800000478000800E000E3
:106350000D003A00482E2200700544008004EB0036
:10636000580078000000E00004003200F4FF07004D
:106370000000E00001003D008084EB008A0F540023
:10638000F7FF3A00250037000000220018006000E7
:106390008004EB0021003200A80490000F003700B9
:1063A00009015100384090000000FB00890078008E
:1063B00056F607000000E00007003C0028009000AF
:1063C0004004980060049800500C98001890A000B9
:1063D0008084EB0011003700808444004801900065
:1063E000828F5400EEFF390028009000400498008E
:1063F0009800780002C020000281600001003A008D
:106400003800900001E8A300020032006004980008
:1064100001003700500C98008004EB000900780060
:106420004F0578004F04BE0000000600889FBE00A4
:106430008A9FBE0080047800010478002C00370099
:10644000C800900068009000808F50000400390060
:1064500008007800CC0007000000E000370035009D
:10646000004020001800600009003200A100200058
:1064700009007800BA000700800578000B00E000F2
:1064800003003200618514000A85450004003700CE
:1064900009007800AC000700000578008005EB00DB
:1064A00048009000E8009000808050008A8F5000E3
:1064B00002003100010578008005EB000A01780038
:1064C00089007800D6FA0700480090000A004000D2
:1064D000400498000B00E00004003200080078003F
:1064E00097FF07000000E00014003A008A8444008F
:1064F0001904E000D2FF3A0000802000180060007C
:1065000006003200080078008DFF07008000780048
:106510000080EB000100E00009003A0001C020000B
:10652000988060000000EB000500320048009000F9
:10653000600498000000EB00010037000080EB00D1
:106540004F05BE004F04BE0000000600889FBE003D
:106550008A9FBE008C9FBE008E1F780000067800C8
:106560000104780002007800830478008881B90073
:10657000020778000E00E000420032000800E00050
:10658000410032008E057800C9009000690090003B
:10659000808F500004003900090078007A0007005D
:1065A0000000E000290035000040200019006000D4
:1065B0000A0032000B017800A10020000C007800D6
:1065C0004B000700800678000D00E0000600320056
:1065D000610516000A854600040037000B057800A7
:1065E0008006EB00010037000B05780049009000A1
:1065F000E9009000808050008A8F50000200310036
:10660000010578008006EB000A0178008C00780014
:1066100083FA07008A855500490090000A0040006F
:10662000C00498000D00E00004003200090078006A
:1066300043FF07000000E00004003A000B00E00008
:10664000020032000A064600CFFF3700008020001B
:1066500019006000020032000900780038FF0700CE
:1066600000C02000190060000200320049009000C4
:10667000E00498008B055700110009008885D800B8
:10668000010037000000EB004F0778004F06BE0006
:106690004F05BE004F04BE0000000600881F7800B2
:1066A0008A9FBE008C9FBE00000478000205BE00D9
:1066B0000406BE000401BE000A00BE0001F7070088
:1066C000008CBE000C01BE006705070000055500E8
:1066D00081855D002A0498003B049800080078003A
:1066E0004F06BE004F05BE004F04780000000600B4
:1066F00003003700B0CF1000050032000201E900AE
:10670000800178000200E000FAFF3A000000050076
:106710000300780000000600020037000304E000D8
:10672000060032000001780002007800B0417800D5
:1067300081CF5100F9FF3A00010037000001EB0062
:106740000200780000000600800078000101780057
:106750003104E000FDFF3A00000051000000060097
:106760000001EB0000027800B041780081CF5100B9
:1067700001003A00040178000304E000F9FF3A0048
:106780000200780000000600889FBE008A1F780083
:1067900000047800C8009000680190000000EB0041
:1067A000828F50003C003900180078002200290038
:1067B00002016000E20F51000700320001202400B6
:1067C0000000E00001003D0001202000008C70006E
:1067D0000080EB003000370002002600020060005D
:1067E000820F500009003A0038009000808F50005E
:1067F0000600390008007800D1FE0700800078000C
:106800000080EB000100E00023003A00180578004A
:1068100000C020000000650018003A00A8049000A5
:106820006002200008004000808F540013003A00EE
:106830000020200062030700200498000000E00010
:1068400005003A0029049800490498008904E800EA
:1068500039049800080037000A60A0000A0C78008C
:1068600040049800012020008080400031049800FE
:10687000400C9800500C980031020700280090004E
:106880005004980038009000600498000000260032
:10689000180C70000000EB004F0578004F04BE009C
:1068A00000000600889FBE0000047800E6844000D7
:1068B0001900D0004500DE00F27F2000820F50005A
:1068C00010003A00000CEB00990478006F8164001E
:1068D000200020001B003A00210190000200E0008F
:1068E00018003A00110190000200E00015003A0083
:1068F000100020001100E0001200320020002000F3
:10690000100037000000E00004003A0001007800A9
:106910007A0207000000E00008003C00F2002800B6
:106920001901610001FE2300810C710021C02F00BC
:10693000010C40000080EB0002003700000CEB006F
:106940000000EB004F04BE0000000600FC8747007B
:10695000889FBE008A9FBE008C9FBE008E1F78005D
:106960000006780080C5B30080CF50000A003200D6
:106970007740400080CF50000A003200694040005C
:1069800080CF50000B0032003047220080BF9F00B4
:10699000AE0020000A0037002246220082BF9F007E
:1069A000060037003347220083BF9F008E0020007F
:1069B000030037003447220084BF9F000E012000EF
:1069C0001C0278009C0290002C039000BC039000F5
:1069D0000605BE000404BE0040C6B30080CF5000D0
:1069E000030032006540400080CF50000B003A00A9
:1069F000E00F5200E08F5A00E00F5B00E08F5B0079
:106A000006003D006000B8006011B80004045000AA
:106A1000858458000605590087855900E80F5700FE
:106A20000400320040002000F00F57003C003A0004
:106A30000100370030002000E00F5400E08F5C00C0
:106A4000E00F5D00E08F5D0004003A00DC0890007C
:106A50008D0120000100E000070032008E00E900F7
:106A6000888060008FBA9700818042009140780052
:106A7000F1EF9F007D012000800078008100E90097
:106A8000050033008B05D1000A85D3008984D3002B
:106A90000884D300F9FF3700089EBE000A96BE00A6
:106AA000130037008D06E9008E00E9008480600045
:106AB0000FB99700810041001141780083FD2F003C
:106AC0008D81410082F77900800178008301E9001F
:106AD000050033008783D1000683D3008582D3006D
:106AE0000482D300F9FF3700049EBE000696BE0064
:106AF0001C0278009C0290002C039000BC039000C4
:106B0000E00F5200E08F5A00E00F5B00E08F5B0067
:106B1000930034000D00E000E2FF3C0090003700DD
:106B20002C60900081C6B300814F50000B003200F2
:106B300006003C000004E00008003200E6C05000FF
:106B4000814F500052003A0004003700C1C6B30024
:106B5000814F50004E003A00230037000800E0004B
:106B600004003A005C0890008D0120000000E00065
:106B700007003200110009000E84D8000FBA9700F8
:106B80000100420010407800F0EF9F007D012000DE
:106B9000110009000E84D8000B0037001100090015
:106BA0000E04D8008D06E9008E81B900020454005D
:106BB0008FB89700088440009841780082FD2F002C
:106BC0000D01410083777900000478000800E0009F
:106BD000020032000D00E000F0FF3C00CFC4DE00F8
:106BE000614DB90027003700E00F5400E08F5C00D2
:106BF00004003A005C0890008D0120000000E000D5
:106C0000080032006171B9000800BE008AF7070071
:106C10000FBA97008000420091407800F1EF9F008A
:106C20007D0120006171B9000800BE0072F7070005
:106C30000C0037006171B9000800BE00A1F5070023
:106C40008D06E90080F1B900020454008FBA970064
:106C5000088442009841780082FD2F000D01410018
:106C6000837779000004BE00E00F5000E08F5800E9
:106C7000020032000D00E000EEFF3C004FCDDE00D0
:106C80008A057800089EBE000A96BE0034003700D0
:106C9000E00F5400E08F5C00E00F5D00E08F5D00CE
:106CA00004003A005C0890008D0120000000E00024
:106CB0000A0032006172B900612BB9000800BE0001
:106CC0000A01BE00900407000FBA9700800042003E
:106CD00091407800F1EF9F007D0120006172B900C2
:106CE000612BB9000800BE000A01BE007F04070046
:106CF0000E0037006172B900612BB9000800BE00B8
:106D00000A01BE00840407008D06E90080F2B90084
:106D1000040454008FBA9700088442009842780017
:106D200084FD2F000D02420085777A00009EBE0090
:106D30000296BE001C0478009C0490002C05900074
:106D4000BC059000E00F5400E08F5C00E00F5D0098
:106D5000E08F5D00020034000D00E000E5FF3C0024
:106D6000E80F570010003A000C1090000038A30004
:106D70000D003200F78F560006003E0080FD2F0008
:106D80000D004000EF40780000C3B30080CF5000FA
:106D90000500320002C3B30071FD2F008D8040005A
:106DA0008D06E90082F7780078811600120E9800AF
:106DB0006C00900083FD2F008F8141008D80410089
:106DC00097F807001C089000DC089000810F500025
:106DD00006003D0000805000000E98000C1090004E
:106DE0000040A100001698000F0037000100E000ED
:106DF0000D003D008C109000F4806000F08F50007A
:106E000009003A007C099000FC00900081005100CC
:106E10000C09900082805000008050004240A90080
:106E200001003400000E98004F0778004F06BE00A6
:106E30004F05BE004F04BE00CF01B10000000600A8
:106E40000400FA00889FBE008A9FBE008C1F780055
:106E50000004780001067800F80D9000780090009A
:106E6000808555000808900080855500180890001E
:106E700080855500280890008085550038089000CE
:106E8000808555004808900080855500000222004A
:106E900090BF9F0000032300A0BF9F000810900038
:106EA0000028A30015003A000B00E0001300340096
:106EB0000B0578008A047800E20F550001003600C7
:106EC00029002000C801900009017800EE805700D9
:106ED0005800900003000100500498000000E000FA
:106EE0008C0032006808900009004000600C980097
:106EF000090555004240A900EEFF3C0078019000D2
:106F00000200E0000C003400C80190008C00780002
:106F10005800900003000100500498008080EB00AE
:106F20000000E0007C003200E8089000780090004B
:106F300000804000600C9800880C90000900E00080
:106F40001100340009057800E28F5400010036007A
:106F50002A002000C80190000A017800EC80570048
:106F60005800900003000100500498000000E00069
:106F700068003200680890000A004000600C980029
:106F80008A845400EDFF3700180990000200E000E9
:106F90000C003400C8019000E800900058009000F8
:106FA00003000100500498008080EB000000E00026
:106FB00059003200E8089000180890000080400056
:106FC000600C9800A80C90000900E000110034004B
:106FD00009057800E28F5400010036002A002000E5
:106FE000C80190000A017800EC805700580090001A
:106FF00003000100500498000000E000450032004A
:10700000680890000A004000600C98008A845400D0
:10701000EDFF3700380990000200E0000E00340058
:10702000E80090001808900080804000C80190009F
:107030005800900003000100500498008080EB008D
:107040000000E00034003200E808900038089000AA
:1070500000804000600C9800C80C90000900E0001F
:107060001100340009057800E28F54000100360059
:107070002A002000C80190000A017800EC80570027
:107080005800900003000100500498000000E00048
:1070900020003200680890000A004000600C980050
:1070A0008A845400EDFF3700081090008000EB0048
:1070B0000028A300180032000B00E0001600340086
:1070C0008B04780009057800E28F54000100360037
:1070D0002A002000C80190000A017800EE805700C5
:1070E0005800900003000100500498000000E000E8
:1070F00008003200680890000A004000600C980008
:107100008A8454004240A900EEFF3C008000EB005E
:10711000010037008080EB00010078004F06780006
:107120004F05BE004F04BE000080FA0000000600BC
:107130000108780000000600209423006200370058
:10714000881F7800C85222001804E00003003A00AB
:10715000F9FF070020C0B300004C78004F0478000E
:1071600000000600889FBE00000478000800780038
:1071700073FC070080047800000420001800600001
:107180000200320028009000A80007000000EB0079
:1071900020049800384090000004E000050035000D
:1071A0000000FB00D0F207000000E0000100320008
:1071B0008084EB00181090000000E000080032000E
:1071C00014F307000000E000010032008084EB00AF
:1071D00018109000950007000000EB0010149800B4
:1071E0000008200018006000150032000001EB00CC
:1071F0006000B8000202D000632E220003024200A9
:10720000940F140005003A000000400081804800FF
:10721000008041000008EB000600370061004000DC
:10722000E08048000201E800E80F5000E08F5800BD
:10723000F0FF3A00080078007C0007000E003700DD
:10724000000C780000C0EB00304498006002200081
:107250000800400020049800400498005004980062
:10726000400C980060049800500C9800700498003E
:1072700076004400000C9800090078004F04BE001E
:1072800000000600881F78000004EB006140B80091
:10729000E2FF2F00F3FF2F0073020700422F2200AE
:1072A00080004100110078000000E0000100320081
:1072B000ACFF07000804E800E80F5400F3FF3A00B1
:1072C0004F04780000000600010020000100E000EB
:1072D00009003200010080000100E00006003200D9
:1072E0008100E900010088008100D00002008000D8
:1072F000828040008008780000000600E600400020
:107300001101780005002800850261006F0161000D
:1073100082087800020032001200200011003700BD
:10732000A0019000120020000300E0000D003A00D0
:10733000900190000300E0000A003A001000E00015
:1073400008003A00360037006403400096087800D1
:1073500080017800530B78009009780004087800C9
:1073600070015100110278000400E000F6FF3200C5
:107370001300370064024000140378004F33DE002E
:10738000838141008308730080017800D303780073
:10739000CF3BDE001403780006034300068A730027
:1073A0001302780004024200100378004F33DE001D
:1073B0008609720090017800038841000201E9000B
:1073C00091017800EF8F5100EAFF3600100037007E
:1073D00080017800530378004F33DD001002D100A4
:1073E000040873006402400094037800CF3BDD0082
:1073F0001303D10086897300110378004F33DD0039
:107400009401D100030A73009108D1000201E80041
:1074100091017800FF8F5100EDFF3E00EF88610081
:107420009188720002007800000006000000E00071
:107430002F003200C0017800E38F51002C0036008D
:107440000308A3002A003A00312981000100E0006E
:1074500002003200810F500004003100110098003A
:107460003029890016003700820078001101900051
:107470000200E00002003200800F5100FAFF3900E4
:107480001102780084824000850F500018003900F6
:10749000808F520003003A00830842000100780008
:1074A000070037000200E0000300320083014000C3
:1074B000830F51000E0039001200980090009800D0
:1074C000900090000100E00009003200100140002F
:1074D000828F500006003A00425222000009EB0061
:1074E00010017800110841009100900011009800EF
:1074F00000000600889FBE0000047800212981005A
:107500000100E00002003200010078000D003700A9
:10751000312981006052220004003700910F54008D
:10752000250036000180E800910090000100E00095
:10753000FAFF3A0010003700920F54001E00360088
:107540000280E800100178000200E000FAFF3A0033
:1075500011017800312981006052220004003700B7
:10756000910F5400140036000180E8009100900053
:10757000828F5000FAFF3A0079298100888F5400E9
:107580000100310088047800090078003600070007
:107590000000E00004003A00888F5400050032002B
:1075A0008904D100F5FF3700091878009FFF070014
:1075B000D2FF37000000EB004F04BE0000000600C1
:1075C000881F7800630440000800A1008000EB00E1
:1075D000800F540021003600E30F540001003E00EC
:1075E0004800200008007800C2FF07008000EB0080
:1075F0000000E0001900320090007800910178004E
:1076000064815100880F5100030031001101900086
:10761000020878000700370008814000020878005F
:1076200091019000130198001001780011091400D5
:1076300088087800100178000000EB000200E000EC
:1076400004003200920190000300E00001003200CB
:107650000280E800202989008180E800010078008C
:107660004F04780000000600800078000000EB0066
:107670000100E0000500340001007800EEF1070091
:10768000E10F400001003A000000EB00000006009E
:1076900000C0DA000000060000C0DA0000000600AA
:1076A00000C0DA00000006008F1FD100F6020700BC
:1076B0008F87E9000000E00000000600809FEB00DB
:1076C000F10207008F87E9000000E00000000600DB
:1076D0002800FA00889FBE008A9FBE008C9FBE00D3
:1076E00003866B00800007006400E1004400320064
:1076F0006408E1004A0032006100E1004600320007
:107700006108E10049003200EC0647006000B80063
:107710003D02BE003D03BE00F48657006011B80074
:107720003D04BE003D05BE007D0320000B00370078
:107730000000A0008D06E9001300320004024200A0
:1077400085824A0006034B0087834B0000004000FF
:1077500081804800020149008381490008025200EB
:1077600089825A000A035B008B835B00F0FF3B00B9
:107770000802420089824A000A034B008B834B00B7
:107780008D06E900EDFF3A00848272008682720065
:10779000F707B20087827200010032001500200056
:1077A0001E0490003E0B900006035400E63FB0001C
:1077B0000368A300070032000000A7000500A00036
:1077C0008301D1000281D3008180D3000080D300E7
:1077D0000603E8008301D1000281D3008180D30039
:1077E0000080D3000002EB000482D20012000700E8
:1077F00003F0A1000CF0A70003F0A0004E0037003A
:10780000640247006408E100480032003400BE0012
:107810003401BE00F6FF37006108E100430032008A
:107820006011B8006000B800F1FF370003FF2700C7
:1078300002002000FBFF3700180020005700200046
:10784000080453000D003D000600200097FC2F00A7
:107850000740E1001E003400848272006102600073
:107860008301D1000281D3008180D3000080D30046
:107870000804E800F8FF3A004700200061046000B7
:1078800005047400040464000D003200610040002F
:10789000E080480060014900E081490003B8A5008C
:1078A000070032000603E8006538E10004003A00F2
:1078B0008301D1000281D3008180D3000080D300F6
:1078C000F87F20000830E10003003500080378004D
:1078D0006000B8006011B8004433DD00F300B2006E
:1078E0008301730000000600680447000294BE0094
:1078F0000094BE00FC0447008694BE008494BE0041
:1079000009007800AA02070008007800A802070012
:1079100099007800814F70000B003B000800BE000A
:10792000820207004F00B10003003700F3FF270079
:10793000F2FF2F006110B9004F06BE004F05BE00D8
:107940004F04BE000080FA000000060081037800AA
:10795000D6F207000001BE006000B8000478A30062
:1079600013003A006220E10015003E000D003900CE
:107970008301D1000281D3008180D3008301D10033
:107980000281D3008180D3008301D1000281D30022
:107990008180D3000538B000C42ADD00F300B200B6
:1079A0008381720007F0A70003F0A000000006002A
:1079B000F3FF2700F2FF2F006110B900FBFF370033
:1079C00003FF2700F7FF37001400FA00889FBE006E
:1079D0008A9FBE008C9FBE000004BE000205BE0050
:1079E000680047000A90BE000890BE0070020700C1
:1079F0000070A7000BF0A100304320009E02900011
:107A000080825200B0FE2F000028E10011003D00EE
:107A1000B0FC2F000028E100150034001E09900082
:107A20008E0890007E0090000501B0000201D10098
:107A30008180D3000080D3008502E800FBFF3A007C
:107A40000B00E000BCFF3B0060001000E08018006D
:107A5000B9FF3700F0FF2F00F1FF27000B00E00017
:107A6000B5FF3B000100280000002000B2FF3700F6
:107A70006000B800B0FF37004F89DE008201780057
:107A800072023700000000002800FA00889FBE0044
:107A90008A9FBE008C9FBE0003866B0092FF07008A
:107AA0000028A30064003A000128A30068003A00FF
:107AB0000008A30062003A000108A30066003A0033
:107AC0001E009000BE08900081064000ED3FB1000E
:107AD000F4805700EE019000111AB8008E09900052
:107AE000311BB8009E099000311CB800511DB80030
:107AF000F485570046000700FE0190003A00070099
:107B00008B85E8003E0007008E09900040000700CA
:107B1000EE019000340007008B85E8003800070074
:107B20008E099000400007009E0990001B18B800C5
:107B3000890440000A854800FE01900034000700D7
:107B40008B85E80038000700EE0190003000070048
:107B50008E0990001B18B800890440000A8548006F
:107B60000A98A30008003A000402420085824A00F5
:107B700006034B0087834B0008044C0089844C00AB
:107B80000A054D008D06E9008482720085027300AB
:107B90004C3ADD0085027200010032001500200021
:107BA000443ADE001400B2004538DE00CB45DD006B
:107BB0000B007000C540DE00CB4DDD008B807000F7
:107BC0004549DE00CB55DD000B017100C551DE00DB
:107BD0000D03780018FF070003F0A1000CF0A700C8
:107BE00003F0A00054FF37001B18B80085024000C6
:107BF00006834800E0834B0060044C000700370018
:107C00001B18B8000603400087834800FAFF3700BE
:107C10001B18B8008703400008844800E0844C002B
:107C200060054D00000006001B18B8000804400065
:107C300089844800FAFF37000108A3003BFF3A009F
:107C40005800BE00000000005801BE00E2FF3700EF
:107C50000008A30035FF3A0009047800F8FF370058
:107C600007F0A2000A013700020AB900001BB900A0
:107C70000200B800810042008100430000000600BD
:107C8000889FBE008A9FBE0030044200B0844A0034
:107C900030054B0090854B006000B1000898BE0095
:107CA0000A90BE000440E10005C8E10006D0E100F2
:107CB00007D8E10002003100680040001008E80029
:107CC0004F05BE004F04BE0000000600889FBE00A6
:107CD0008A9FBE0010047800900490002005900058
:107CE000B00590000418540005985C0006185D006B
:107CF00007985D00110020000440E10005C8E10084
:107D000006D0E10007D8E100010039008000EB0057
:107D1000108810004F05BE004F04BE000000060092
:107D20001200FA00889FBE008A9FBE008C9FBE0092
:107D3000E0B79F00F1B79F0082BF9F0093BF9F00F5
:107D40000605BE000404BE000000EB00D0B79F0093
:107D5000C0B79F00B0B79F00A0B79F0090B79F002B
:107D6000000678005FB19700CFB097008201410014
:107D70003FB097000200E00004003D00370007001C
:107D80007E805700BEFF0700030037003300070066
:107D90007E805700CDFF0700DFB697000D00E000A2
:107DA0000C0035006FB29700FFB297000FBB970031
:107DB0009FBB970010002000010020006011B80058
:107DC00000027200818272000203730083837300D9
:107DD0001B0007000C06E80001042000810F56007C
:107DE000E0FF3A000D00E00004003D000802BE0084
:107DF0000A03BE007E805700A1FF07005FA897001E
:107E00000000E00005003A001FB29700AFB29700F3
:107E10003FB39700CFB39700090007006FB09700FA
:107E2000FFB097000FB997009FB997004F06BE00AB
:107E30004F05BE004F04BE000080FA00000006009F
:107E40000100070000000600A4B79F00B5B79F001F
:107E5000C6B79F00D7B79F00000006004F09DE009D
:107E600082817100B3B79F004F01DE008180400026
:107E700082807000A1B79F008FB097004F09DE008D
:107E8000000040000200700090B79F007FA897009C
:107E90004F01DE00818040008280700081B79F002A
:107EA0000D0007004F3ADE000000400004007000A3
:107EB000F0AF9F00080007000402420085824A00DC
:107EC00006034B0087834B00DFFF07000802BE005C
:107ED0000A03BE00000006002FB29700BFB2970051
:107EE0004FB39700DFB3970000000600881F7800AB
:107EF00018002000881F780089FF07008F87E9009D
:107F00004F04780000000600801FEB0084FF07008C
:107F10008F87E90000000600889FBE008A9FBE0090
:107F2000E00F5000E08F5800E00F5900E08F59003B
:107F30000C003D006044B8006055B80000005400DB
:107F400081805C0002015D0083815D0018002000DB
:107F50001500070008003D00180007000004EB00B2
:107F6000050037000004EB000F00070002003D0091
:107F70001200070018002000DCFF07000800E000E6
:107F8000060032006022B8006033B80000005200E2
:107F900081805A0002015B0083815B004F05BE00B7
:107FA0004F04BE0000000600E00F5200E08F5A00B0
:107FB000E00F5B00E08F5B00000006006044B8004B
:107FC0006055B8000402540085825C0006035D0021
:107FD00087835D0000000600889FBE008A9FBE0068
:107FE0008C1F7800E00F5000E08F5800E00F590020
:107FF000E08F59000D003D006044B8006055B800A6
:108000000000540081805C0002015D0083815D00FE
:108010001C0020000820E10009A8E1000AB0E100EE
:108020000BB8E1000D003D00080037000006EB0032
:10803000E00F5200E08F5A00E00F5B00E08F5B0022
:1080400006003D006044B8006055B80004025400CA
:1080500085825C0006035D0087835D00AAFF070040
:108060000C00E000060032006022B8006033B80067
:108070000000520081805A0002015B0083815B0096
:108080004F0678004F05BE004F04BE0000000600FA
:108090002800FA00889FBE008A9FBE008C9FBE0009
:1080A00007067800878669000C003B00030478000F
:1080B0008704780008F0A10009F0A100840F5000A7
:1080C000858F5800860F5900890F5C00030033002C
:1080D0000CF0A20001003A000CF0A10002FE070023
:1080E0006400E1005F003200780147006408E100AD
:1080F000610032006C014700748557003200BE00F9
:108100001201BE003A04BE001A05BE001E03900014
:10811000BE0A90008503530006003D000004FD00E8
:108120008104FD000205FD008305FD008703EA00D0
:10813000050378000DF8A300040032006004140069
:10814000E0841C0060051D00E0851D006022B80071
:108150007D0320000D38E1008006EB000B003900A4
:108160004433DD00F300B2008301730039003700AF
:10817000848272000D027800E10664008B85D100D4
:108180000A85D3008984D3000884D3008703E900DB
:10819000F7FF3B0008004000898048000A014900C1
:1081A0008B81490004003B0060001000E080180053
:1081B00060011900E08119000358A3000900320092
:1081C0008D82720084827200610260008301D1009E
:1081D0000281D3008180D3000080D3000603E80031
:1081E0001B0037000348A30017003A000600E00018
:1081F000170034000603E9000D00A300000048004A
:108200008180480002014900838149000348A3009E
:108210000F003A000600E000090034000603E90000
:10822000000040008180480002014900838149002C
:1082300001003A000003EB000348A300F5FF320001
:108240006022B800020037008482720061826600FA
:1082500079FD070003F0A1000CF0A70003F0A000D7
:10826000B5FD3700640147006408E10002003A00F0
:108270000DF8A300ADFD3A0032007800B20078009E
:108280001201BE00ACFD3700889FBE008A9FBE0071
:108290008C9FBE000404BE000605BE00809FBE0089
:1082A000829FBE0030000700040678000800BE0070
:1082B0000A01BE002C000700840678004F03BE00B0
:1082C0004F02BE008D4F76007FB097001300330041
:1082D000F0FF2F008B8F6B0006003B000D06660041
:1082E0000C00A7000A00370007F0A60010002000CD
:1082F0000A003700880F5200898F5A008A0F5B00EE
:108300008B8F5B00030039001000200001003E004D
:108310000000200007F0A7000000EA004F06BE00A2
:108320004F05BE004F04BE0000000600E48240007E
:108330001078A30007003200640240001178A30007
:108340003400BE001401BE00050032000330A70057
:108350000000060035007800B50078001501BE0069
:108360000330A0000000060005FF27000582610021
:10837000070032000428E10001003200240005005B
:108380000600070001003A0044000500040805004B
:1083900002000700F9FF3A00140005006F82610037
:1083A00081027000850271008502720000000600E3
:1083B0005002BE00E40050005003BE004439DE000D
:1083C000F700B200F37F20000301610009003200D2
:1083D0000218E10016003A00850172008301730063
:1083E000838173000008200015003A00400020003F
:1083F00013003700850172008301730083817300CD
:1084000005003A0004A8BE0006A8BE001000200027
:108410000B0037000201E9000402420085824A0095
:1084200006034B0087834B000748A300F9FF320087
:108430000740A00004A8BE0006A8BE00200020003F
:10844000800098009200980000000600881F7800C5
:10845000030478000300E00007003D006000100006
:10846000E080180060011900E081190002003B0063
:1084700001F02D00030037000400070008F0A700FA
:1084800003F0A0004F04780000000600889FBE00A3
:108490000082700004027100048271002400320026
:1084A00036432000C50020008383CF000A00390036
:1084B0000541B1008283CF00070039000541B100BA
:1084C0008183CF00040039000541B1008083CF00D3
:1084D000010039000541B10085C353006022B80096
:1084E000120032000A003B008482720061026000C8
:1084F0008301D1000281D3008180D3000080D300AA
:108500000603E8008743E800F7FF3A00070037005A
:108510000000400081804800020149008381490039
:108520000603E9008743E900F9FF3A00C2FC0700AF
:108530004F04BE00000006005452000041430000FA
:10854000544900004F4E0000202D0000204700003D
:10855000656E000065720000616C00003A2000004A
:108560006D6F0000766900006E67000020740000E7
:108570006F3A0000205400005241000043540000B4
:10858000494F00004E5F0000484100004E4400008B
:108590004C4500005F460000415500004C5400006F
:1085A0000D000000545200004143000054490000F7
:1085B0004F4E0000202D000020470000656E000097
:1085C00065720000616C00003A2000004E4F000010
:1085D000206F00007065000072610000746F000081
:1085E000723A000020540000524100004354000041
:1085F000494F00004E5F0000484100004E4400001B
:108600004C4500005F460000415500004C540000FE
:108610000D00000054520000414300005449000086
:108620004F4E0000202D000020460000616C00002D
:108630007365000020720000657400007572000010
:108640006E200000667200006F6D00002041000087
:10865000504900005F430000616E00004D6F000054
:10866000746F000072500000776D00000D00000074
:108670005452000041430000544900004F4E000096
:10868000202D0000205400005241000043540000FF
:10869000494F00004E5F0000515500004945000061
:1086A00053430000454E0000543A0000206D000086
:1086B0006F760000696E000067200000746F000094
:1086C0003A20000054520000414300005449000089
:1086D0004F4E00005F4F0000504500005241000027
:1086E000544F0000520D00000054000052410000A1
:1086F00043540000494F00004E2000002D20000090
:108700005452000041430000544900004F4E000005
:108710005F510000554900004553000043450000EB
:108720004E5400003A2000006D6F00007669000092
:108730006E670000207400006F3A000020540000B3
:108740005241000043540000494F00004E5F0000BA
:108750004E4F00005F4F00005045000052410000A6
:10876000544F0000520D0000005400005241000020
:1087700043540000494F00004E2000002D2000000F
:108780005452000041430000544900004F4E000085
:108790005F42000045470000494E00005F4E000068
:1087A0004F5F00004F500000455200004154000050
:1087B0004F5200003A2000006D6F00007669000003
:1087C0006E670000207400006F3A00002054000023
:1087D0005241000043540000494F00004E5F00002A
:1087E0004E4F00005F4F0000504500005241000016
:1087F000544F0000520D0000005400005241000090
:1088000043540000494F00004E2000002D2000007E
:108810005452000041430000544900004F4E0000F4
:108820005F4E00004F5F00004F50000045520000B7
:10883000415400004F5200003A2000006D6F0000CC
:10884000766900006E670000207400006F3A000037
:10885000205400005241000043540000494F0000E2
:108860004E5F00004F500000455200004154000090
:108870004F5200000D000000545200004143000020
:10888000544900004F4E0000202D000020540000ED
:108890005241000043540000494F00004E5F000069
:1088A0004F50000045520000415400004F5200005C
:1088B0003A2000006D6F0000766900006E670000CE
:1088C000207400006F3A0000205400005241000064
:1088D00043540000494F00004E5F00005354000015
:1088E0004F50000050450000440D000000540000AF
:1088F0005241000043540000494F00004E20000048
:108900002D20000054520000414300005449000053
:108910004F4E00005F530000544F000050500000C5
:10892000454400003A2000006D6F000076690000A9
:108930006E670000207400006F3A000020540000B1
:108940005241000043540000494F00004E5F0000B8
:1089500042450000474900004E5F00004D4F0000B7
:10896000564500004D4500004E5400000D0000002B
:108970005452000041430000544900004F4E000093
:10898000202D0000205400005241000043540000FC
:10899000494F00004E5F00004D4F00005649000057
:1089A0004E4700003A200000526500007665000046
:1089B00072730000696E0000672000006D6F000098
:1089C000746F00007220000064690000726500008E
:1089D00063740000696F00006E0D00000054000019
:1089E0005241000043540000494F00004E20000057
:1089F0002D20000054520000414300005449000063
:108A00004F4E00005F42000045470000494E000005
:108A10005F4D00004F560000454D0000454E0000E0
:108A2000543A0000206D00006F760000696E00006F
:108A300067200000746F00003A20000054520000CC
:108A400041430000544900004F4E00005F530000B6
:108A5000544F000050500000454400000D0000003D
:108A60005452000041430000544900004F4E0000A2
:108A7000202D00002054000052410000435400000B
:108A8000494F00004E5F000042450000474900008A
:108A90004E5F00004D4F0000564500004D45000060
:108AA0004E5400003A2000006D6F0000766900000F
:108AB0006E670000207400006F3A0000204600003E
:108AC000617500006C7400000D000000545200003D
:108AD00041430000544900004F4E0000202D00008B
