:10100000FDEF09F0FFFFFFFF4682A6EF24F0FFFF90
:10101000FFFFFFFFFFFFFFFF4680D8CFD3F0E8CFF1
:10102000D4F0E0CFD5F0FACFD6F0FBCFD7F0E9CFB0
:10103000D8F0EACFD9F0E1CFDAF0E2CFDBF0D9CFC8
:10104000DCF0DACFDDF0F3CFDEF0F4CFDFF0F6CF77
:10105000E0F0F7CFE1F0F8CFE2F0F5CFE3F046C0F3
:10106000E4F047C0E5F048C0E6F049C0E7F0F2B070
:10107000F2A65BD0000E81B8010E276E2750010149
:10108000C919D8B451D028C00CF129C00DF12AC01B
:101090000EF12BC00FF127C0C9F12704D8A428D026
:1010A0000001A205D8A424D0010186518711D8B42B
:1010B0001ED08DA60ED0844B852B8851845D89511E
:1010C0008559D8A015D08D96000E856F000E846FBF
:1010D0000FD0824B832B8651825D87518359D8A0D4
:1010E00007D08D86000E836F000E826F01D08D8633
:1010F0002704D8A419D0020E3C18D8B48BB003D062
:10110000BEEC28F011D03C04D8B404D0030E3C1837
:10111000D8A403D024EC26F007D03C50D8A404D0A7
:10112000FC0E000165178B90F2909EB09DA00AD036
:10113000010E0001AA6F9851D8B403D0010E01012D
:10114000D06F9E90A4BAA3AA02D064EC2DF0A4B8EC
:10115000A3A802D0D2EC2EF0F0B0F0A60ED0000E74
:101160000F013B6F3985D8908130070B426EF096A6
:10117000F090F098F092F09AF094F0B2F0A80ED0BF
:10118000000E0F013B6F3985D8908130070B426EFE
:10119000F096F090F098F092F09AF094F0B4F0AAF3
:1011A0000ED0000E0F013B6F3985D8908130070BB0
:1011B000426EF096F090F098F092F09AF094BAB4F3
:1011C000B9A427D00F013995BA94D8908130070B74
:1011D000266E42502618D8A411D0010E0001BA6F15
:1011E00026C043F0010EBF6F070E4318D8A411D0DC
:1011F0004150D8B40ED0000EC06F0BD0DCEC32F0F2
:101200000009D8B406D0F086F090F088F092F08A09
:10121000F094F2B4F2AA08D03C0ED76EAE0ED66EA1
:10122000010E0001C26FF2949EBC9DAC04D0010E71
:101230000001C16F9E9CBAB0B9A022D001018A4BB7
:101240008B2B8C518A5D8D518B59D8A018D0000EF4
:10125000316E000E306E8C928C941E0E196E030E41
:101260001A6E320E1B6E000E1C6E000E1D6E000EEE
:101270001E6EF1EC27F0000E3C6EB9906B94BA90A4
:10128000BABCB9AC81D0010E2826000E29222A2230
:101290002B223B50D8B477D0010E01017C27000EE1
:1012A0007D237E237F237F517E1106E1E80E7C5D46
:1012B000030E7D59D8A067D0000E7C6F000E7D6FA5
:1012C000000E7E6F000E7F6F010E2C26000E2D2269
:1012D0002E222F22FF0E2C140001CF6FFF0E2D1493
:1012E000D06FFF0E2E14D16F000E2F14D26FCF517E
:1012F000D011D111D211D8A403D0010ED0EC32F00C
:10130000FF0E2C140001CF6FFF0E2D14D06F000EB6
:101310002E14D16F000E2F14D26FCF51D011D111D6
:10132000D211D8A403D0010ED4EC32F02C50000915
:10133000D8A403D0010ED8EC32F02CC019F02DC087
:101340001AF02EC01BF02FC01CF0A00E1D6E8C0ECC
:101350001E6E000E1F6E000E206E6EEC2CF01950EB
:101360001A101B101C10D8A403D0010ECCEC32F0C4
:101370000101C82BC851D8B406D0010EE0EC32F000
:10138000000E0101C86FBA9CBAB2B9A20AD03D5092
:10139000D8B402D0010E01D0000E0001A36FB992A3
:1013A000BA92E7C049F0E6C048F0E5C047F0E4C0B3
:1013B00046F0E3C0F5FFE2C0F8FFE1C0F7FFE0C090
:1013C000F6FFDFC0F4FFDEC0F3FFDDC0DAFFDCC0F4
:1013D000D9FFDBC0E2FFDAC0E1FFD9C0EAFFD8C025
:1013E000E9FFD7C0FBFFD6C0FAFFD5C0E0FFD4C0ED
:1013F000E8FFD3C0D8FF4690100098EF22F0FFFF1F
:1014000000000100000000000000010000000000DA
:10141000002FFF0F19313131313105050F193131ED
:1014200031313105050F194D4D4D4D0108010802AF
:101430000801002FFF0F193E3E3E3E3E05050F19E5
:101440003E3E3E3E3E05050F198D8D8D8D010601F8
:1014500000010401002FFF0F195D50505050050589
:101460000F195D5050505005050F198D8D8D8D0150
:10147000040104010001006F2F0F12403B3B3B3B76
:101480006F2F0F12301B1B1B1BA0600F198D8D8D32
:101490008D010A0201030501009F2F0F125B5252BA
:1014A00052529F2F0F124530303030A0600F198DEF
:1014B0008D8D8D0107010302030100AF2F0F127004
:1014C00064646464AF2F0F126045454545A0600F0A
:1014D000198D8D8D8D0104050701000100006FEF4E
:1014E00013F0C3CF8DF0C4CF8EF08DC0C8F58EC081
:1014F000C9F5000E0501C9BFFF0ECA6FCB6FC851F9
:101500000101605D0501C951010161590501CA511F
:10151000010162596351800A0501CC6FCB51800AE9
:10152000CC59D8A027D00101A44BA52BA5BF27D00B
:10153000A55104E1140EA45DD8A021D01EEC1DF02D
:101540000009D8A409D00001C951D8A405D0010EC2
:10155000CD6F618109EC23F0010E0101FF6F010ED7
:10156000F2EC30F0000E0201FE6F030EFD6F73EC23
:1015700023F01200000E0101A56F000EA46F8DC0B4
:10158000C8F58EC0C9F5000E0501C9BFFF0ECA6FB0
:10159000CB6F01015C510501C85D01015D51050181
:1015A000C95901015E510501CA59CB51800ACC6F5E
:1015B00001015F51800A0501CC59D8A012D0010E5B
:1015C0000101FF6F020EF2EC30F0000E0201FE6F1F
:1015D000030EFD6F73EC23F0000162891EEC1DF019
:1015E0001200550E00016019D8A48DEF13F08E5132
:1015F000786F8DC079F08DEF13F0C3CF8BF0C4CF2F
:101600008CF08BC0C8F58CC0C9F5000E0501C9BFB0
:10161000FF0ECA6FCB6FC85101014C5D0501C95166
:1016200001014D590501CA5101014E594F51800A1E
:101630000501CC6FCB51800ACC59D8A027D001012D
:10164000A24BA32BA3BF27D0A35104E1140EA25D8C
:10165000D8A021D01EEC1DF00009D8A409D00001AB
:10166000C951D8A405D0010ECC6F618309EC23F0D9
:10167000010E0101FF6F030EF2EC30F0000E0201CB
:10168000FE6F030EFD6F73EC23F01200000E0101DC
:10169000A36F000EA26F8BC0C8F58CC0C9F5000EF9
:1016A0000501C9BFFF0ECA6FCB6F0101485105018B
:1016B000C85D010149510501C95901014A5105019E
:1016C000CA59CB51800ACC6F01014B51800A0501E8
:1016D000CC59D8A012D0010E0101FF6F040EF2EC1C
:1016E00030F0000E0201FE6F030EFD6F73EC23F06D
:1016F000000162891EEC1DF01200550E00016019F8
:10170000D8A48DEF13F08C51766F8BC077F08DEFEE
:1017100013F0C3CFAEF1C4CFAFF10101AFBF06D01C
:10172000460EAE5D020EAF59D8B00CD0A04BA12B27
:10173000A1BF0CD0A15105E1140EA05DD8B01200DC
:1017400005D01200000EA16F000EA06F550E000113
:101750006019D8A48DEF13F0AEC175F08DEF13F0C2
:10176000C3CFACF1C4CFADF10101ADBF2CD0390E68
:10177000AC5D0C0EAD59D8A026D09E4B9F2B9FBFC1
:1017800027D09F5104E1140E9E5DD8A021D01EECFD
:101790001DF00009D8A409D00001C951D8A405D072
:1017A000010ECA6F618709EC23F0010E0101FF6F82
:1017B000060EF2EC30F0000E0201FE6F030EFD6F1C
:1017C00073EC23F01200000E01019F6F000E9E6F5C
:1017D000550E00016019D8A48DEF13F00101AD5131
:1017E0000001726FACC173F08DEF13F0C3CF87F0BF
:1017F000C4CF88F00001896B8A6B2A0E0501C86F7F
:10180000040EC96FD89001019C35D96E9D35DA6EF2
:10181000D890D936DA360501C851D926C951DA220D
:1018200087C0DEFF88C0DEFF89C0DEFF8AC0DEFF22
:101830002A0E0301F46F040EF56F320EF66F000EE0
:10184000F76F000EF86F000EF96F6CEC25F0F4C323
:1018500028F1F5C329F1F6C32AF1F7C32BF13B5068
:10186000D8B43ED23B04D8A41DD1000E0501C86FE8
:10187000050EC96FD89001019A35D96E9B35DA6E85
:10188000D890D936DA360501C851D926C951DA229D
:1018900087C0DEFF88C0DEFF89C0DEFF8AC0DEFFB2
:1018A000000E0301F46F050EF56F320EF66F000E99
:1018B000F76F000EF86F000EF96F6CEC25F0F4C3B3
:1018C00024F1F5C325F1F6C326F1F7C327F1000192
:1018D00087510101745D00018851010175590001B2
:1018E0008951010176597751800A0501C86F0001BD
:1018F0008A51800A0501C859D8B080D000018751AB
:101900000101785D00018851010179590001895177
:1019100001017A597B51800A0501C86F00018A5183
:10192000800A0501C859D8B021D00101C22B010E8F
:10193000C2651FD01EEC1DF00009D8A409D000011B
:10194000C951D8A405D0010EC76F618BA7EC21F057
:10195000010E0101FF6F080EF2EC30F0000E0201E3
:10196000FE6F030EFD6F73EC23F01200000E0101F9
:10197000C26F01012451745D255175592651765964
:101980007751800A0501C86F01012751800A0501BE
:10199000C859D8B076D0000187510101785D0001A7
:1019A0008851010179590001895101017A597B510E
:1019B000800A0501C86F00018A51800A0501C859D3
:1019C000D8A05FD01EEC1DF00009D8A409D00001FA
:1019D000C951D8A405D0010EC86F6189A7EC21F0C8
:1019E000010E0101FF6F070EF2EC30F0000E020154
:1019F000FE6F030EFD6F73EC23F012000001A05187
:101A00003A5CD8A03ED001017051245D7151255936
:101A1000725126592751800A0501C86F010173517F
:101A2000800A0501C859D8B029D001012451645D4C
:101A300025516559265166596751800A0501C86FBD
:101A400001012751800A0501C859D8B017D00101FA
:101A5000C12B1F0EC16515D000016289010E010165
:101A6000FF6F090EF2EC30F0000E0201FE6F030E64
:101A7000FD6F73EC23F01EEC1DF01200000E01014F
:101A8000C16F01019A4B9B2B9B5104E1320E9A5D71
:101A9000D8A02BD1000E9B6F000E9A6F000EA76F7F
:101AA000010E22D1020E3B18D8A41FD1000E050151
:101AB000C86F060EC96FD89001019835D96E993557
:101AC000DA6ED890D936DA360501C851D926C9510F
:101AD000DA2287C0DEFF88C0DEFF89C0DEFF8AC051
:101AE000DEFF000E0301F46F060EF56F320EF66F87
:101AF000000EF76F000EF86F000EF96F6CEC25F01A
:101B0000F4C320F1F5C321F1F6C322F1F7C323F1A9
:101B1000010168510001875D010169510001885987
:101B200001016A51000189598A51800A0501C86F73
:101B300001016B51800A0501C859D8B080D001015C
:101B40006C510001875D01016D510001885901014F
:101B50006E51000189598A51800A0501C86F01013F
:101B60006F51800A0501C859D8B021D00101C02B9E
:101B7000010EC0651FD01EEC1DF00009D8A409D0CD
:101B80000001C951D8A405D0010EC76F618BA7EC25
:101B900021F0010E0101FF6F080EF2EC30F0000E93
:101BA0000201FE6F030EFD6F73EC23F01200000EB6
:101BB0000101C06F01016851205D695121596A51CD
:101BC00022592351800A0501C86F01016B51800A17
:101BD0000501C859D8B076D001016C510001875D6C
:101BE00001016D510001885901016E5100018959AF
:101BF0008A51800A0501C86F01016F51800A0501F1
:101C0000C859D8A05FD01EEC1DF00009D8A409D097
:101C10000001C951D8A405D0010EC86F6189A7EC95
:101C200021F0010E0101FF6F070EF2EC30F0000E03
:101C30000201FE6F030EFD6F73EC23F01200000132
:101C40009E51385CD8A03ED001017051205D715189
:101C50002159725122592351800A0501C86F01018F
:101C60007351800A0501C859D8B029D0010120510B
:101C7000645D21516559225166596751800A0501F9
:101C8000C86F01012351800A0501C859D8B017D087
:101C90000101BF2B1F0EBF6515D000016289010E27
:101CA0000101FF6F090EF2EC30F0000E0201FE6F31
:101CB000030EFD6F73EC23F01EEC1DF01200000EFE
:101CC0000101BF6F0101984B992B995104E1320E2C
:101CD000985DD8A00AD0000E996F000E986F05D0BD
:101CE000000E0101A76F000EA66F01019C4B9D2BFA
:101CF0009D5104E1320E9C5DD8A004D0000E9D6F72
:101D0000000E9C6F550E00016019D8A48DEF13F0E2
:101D100029C170F028C171F08DEF13F0C3CF83F0AB
:101D2000C4CF84F00001856B866B000E0501C86F7F
:101D3000080EC96FD89001019435D96E9535DA6EC9
:101D4000D890D936DA360501C851D926C951DA22D8
:101D500083C0DEFF84C0DEFF85C0DEFF86C0DEFFFD
:101D6000000E0301F46F080EF56F320EF66F000ED1
:101D7000F76F000EF86F000EF96F6CEC25F0F4C3EE
:101D800018F1F5C319F1F6C31AF1F7C31BF10001FD
:101D90009C51D8B424D1A551D8B403D0000EA56F5E
:101DA000678B30EC31F00009D8A402D08C8A8C9C6F
:101DB000000E0501C86F070EC96FD8900101963556
:101DC000D96E9735DA6ED890D936DA360501C85112
:101DD000D926C951DA2283C0DEFF84C0DEFF85C068
:101DE000DEFF86C0DEFF000E0301F46F070EF56F05
:101DF000320EF66F000EF76F000EF86F000EF96FDF
:101E00006CEC25F0F4C31CF1F5C31DF1F6C31EF113
:101E1000F7C31FF1000183510101545D000184519A
:101E20000101555900018551010156595751800A48
:101E30000501C86F00018651800A0501C859D8B054
:101E400080D0000183510101585D000184510101DE
:101E500059590001855101015A595B51800A050108
:101E6000C86F00018651800A0501C859D8B021D039
:101E70000101BE2B010EBE651FD01EEC1DF0000936
:101E8000D8A409D00001C951D8A405D0010EC56F4E
:101E9000618FA7EC21F0010E0101FF6F0B0EF2EC38
:101EA00030F0000E0201FE6F030EFD6F73EC23F0A5
:101EB0001200000E0101BE6F01011C51545D1D5145
:101EC00055591E5156595751800A0501C86F0101D5
:101ED0001F51800A0501C859D8B073D00001835141
:101EE0000101585D000184510101595900018551DA
:101EF00001015A595B51800A0501C86F00018651E2
:101F0000800A0501C859D8A05CD01EEC1DF000095C
:101F1000D8A409D00001C951D8A405D0010EC66FBC
:101F2000618DA7EC21F0010E0101FF6F0A0EF2ECAA
:101F300030F0000E0201FE6F030EFD6F73EC23F014
:101F40001200010150510001835D01015151000156
:101F5000845901015251000185598651800A0501B9
:101F6000C86F01015351800A0501C859D8B029D062
:101F700000019B51365CD8A024D0010150511C5D5A
:101F800051511D5952511E591F51800A0501C86FE8
:101F900001015351800A0501C859D8B012D000017F
:101FA0006289010E0101FF6F0C0EF2EC30F0000EA1
:101FB0000201FE6F030EFD6F73EC23F01EEC1DF0AB
:101FC00012000101964B972B975104E1320E965D5A
:101FD000D8A006D0000E976F000E966F01D08C9A95
:101FE0000101944B952B955104E1320E945DD8A0DC
:101FF00004D0000E956F000E946F550E000160190D
:10200000D8A48BD319C16CF018C16DF086D3C3CF9F
:102010007FF0C4CF80F00001816B826B000E050160
:10202000C86F090EC96FD89001019035D96E9135EE
:10203000DA6ED890D936DA360501C851D926C95199
:10204000DA227FC0DEFF80C0DEFF81C0DEFF82C0FB
:10205000DEFF000E0301F46F090EF56F320EF66F0E
:10206000000EF76F000EF86F000EF96F6CEC25F0A4
:10207000F4C310F1F5C311F1F6C312F1F7C313F174
:102080007BC0C8F57CC0C9F50501C81FC91FC84B76
:10209000C92B2850C8250401FC6F29500501C9210E
:1020A0000401FD6F8BB003D03C04D8A4F9D230EC0E
:1020B00031F00009D8A402D08C828C941E0E050148
:1020C000C86F030EC96FD89001019235D96E933550
:1020D000DA6ED890D936DA360501C851D926C951F9
:1020E000DA227FC0DEFF80C0DEFF81C0DEFF82C05B
:1020F000DEFF1E0E0301F46F030EF56F320EF66F56
:10210000000EF76F000EF86F000EF96F6CEC25F003
:10211000F4C314F1F5C315F1F6C316F1F7C317F1C3
:1021200000017F510101345D0001805101013559E9
:1021300000018151010136593751800A0501C86FEC
:1021400000018251800A0501C859D8B0B1D1E80E0A
:102150000401FC5D030EFD59D8B097D07BC0C8F5D3
:102160007CC0C9F57DC0CAF57EC0CBF50501C81F8E
:10217000C91FCA1FCB1FC82B000EC923CA23CB23DC
:102180002850C825CC6F2950C921CD6F2A50CA21AB
:10219000CE6F2B50CB21CF6FCF51CE1176E1E80E11
:1021A000CC5D030ECD59D8B070D0000182BF6DD088
:1021B0008251811106E1410E7F5D060E8059D8A043
:1021C00064D0C00E7F250301EA6FF90E0001802163
:1021D0000301EB6FFF0E000181210301EC6FFF0E85
:1021E000000182210301ED6F000EE96F640EE86FBC
:1021F000FCC4E6F3FDC4E7F3D4EC2BF00301E6C323
:10220000EEF3E7C3EFF3F06BF16B7BEC2EF0030121
:10221000EA5102019F270301EB510201A0230301B0
:10222000EC510201A1230301ED510201A22301019E
:10223000405102019F5D010141510201A05901017C
:1022400042510201A159010143510201A259D8A0F2
:1022500053D01EEC1DF00009D8A409D00001C951CB
:10226000D8A405D0010EC36F6283A7EC21F0010E44
:102270000101FF6F0E0EF2EC30F0000E0201FE6F56
:10228000030EFD6F73EC23F01200E90E0401FC5DF8
:10229000030EFD59D8A030D07BC0C8F57CC0C9F56D
:1022A0007DC0CAF57EC0CBF50501C81FC91FCA1F76
:1022B000CB1FC82B000EC923CA23CB232850C82507
:1022C000CC6F2950C921CD6F2A50CA21CE6F2B5017
:1022D000CB21CF6FCF51CE1106E1E90ECC5D030EBD
:1022E000CD59D8A009D0000E02019F6F000EA06F3B
:1022F000000EA16F000EA26F00017F510101445D2D
:1023000000018051010145590001815101014659E7
:102310004751800A0501C86F00018251800A0501FA
:10232000C859D8B04FD0D10E0401FC5D070EFD593D
:10233000D8A048D07BC0C8F57CC0C9F57DC0CAF51F
:102340007EC0CBF50501C81FC91FCA1FCB1FC82BF4
:10235000000EC923CA23CB232850C825CC6F29508F
:10236000C921CD6F2A50CA21CE6F2B50CB21CF6F00
:10237000CF51CE1106E1D10ECC5D070ECD59D8A0BC
:1023800021D00101BD2B030EBD651FD01EEC1DF039
:102390000009D8A409D00001C951D8A405D0010E64
:1023A000C36F6283A7EC21F0010E0101FF6F0E0ED7
:1023B000F2EC30F0000E0201FE6F030EFD6F73ECC5
:1023C00023F01200000E0101BD6F01011451345DB4
:1023D00015513559165136593751800A0501C86FC4
:1023E00001011751800A0501C859D8B010D1000168
:1023F0007F510101445D00018051010145590001F7
:102400008151010146594751800A0501C86F0001F9
:102410008251800A0501C859D8A0F9D0890E04015B
:10242000FC5D130EFD59D8A0F2D07BC0C8F57CC06E
:10243000C9F57DC0CAF57EC0CBF50501C81FC91F0F
:10244000CA1FCB1FC82B000EC923CA23CB23285079
:10245000C825CC6F2950C921CD6F2A50CA21CE6F13
:102460002B50CB21CF6FCF51CE1106E1890ECC5D21
:10247000130ECD59D8A0CBD01EEC1DF00009D8A466
:1024800009D00001C951D8A405D0010EC46F6281E2
:10249000A7EC21F0010E0101FF6F0D0EF2EC30F000
:1024A000000E0201FE6F030EFD6F73EC23F01200AD
:1024B0000101305100017F5D01013151000180595E
:1024C00001013251000181598251800A0501C86F12
:1024D00001013351800A0501C859D8B098D0D10EF6
:1024E0000401FC5D070EFD59D8A091D07BC0C8F552
:1024F0007CC0C9F57DC0CAF57EC0CBF50501C81FFB
:10250000C91FCA1FCB1FC82B000EC923CA23CB2348
:102510002850C825CC6F2950C921CD6F2A50CA2117
:10252000CE6F2B50CB21CF6FCF51CE1106E1D10E04
:10253000CC5D070ECD59D8A06AD001012C51000105
:102540007F5D01012D510001805901012E510001D3
:1025500081598251800A0501C86F01012F51800AFB
:102560000501C859D8B018D00101BC2B1D0EBC659F
:1025700016D0000162836289010E0101FF6F0F0E08
:10258000F2EC30F0000E0201FE6F030EFD6F73ECF3
:1025900023F01EEC1DF01200000E0101BC6F0101C2
:1025A0003051145D31511559325116591751800A65
:1025B0000501C86F01013351800A0501C859D8B01F
:1025C00023D000017F5101012C5D000180510101E8
:1025D0002D590001815101012E592F51800A050109
:1025E000C86F00018251800A0501C859D8B00CD0CB
:1025F0000001CE2B0F0ECE650AD067838C828C84AF
:10260000010EBEEC2FF003D0000E0001CE6F0101D1
:10261000924B932B935104E1320E925DD8A004D0DB
:10262000000E936F000E926F890E0401FC5D130E75
:10263000FD59D8A03DD07BC0C8F57CC0C9F57DC090
:10264000CAF57EC0CBF50501C81FC91FCA1FCB1F25
:10265000C82B000EC923CA23CB232850C825CC6F12
:102660002950C921CD6F2A50CA21CE6F2B50CB21C2
:10267000CF6FCF51CE1106E1890ECC5D130ECD592F
:10268000D8A016D0900E282400017B6FE80E2920D8
:102690007C6FFF0E2A207D6FFF0E2B207E6F08D0EF
:1026A00028C07BF029C07CF02AC07DF02BC07EF0D2
:1026B0000101904B912B915104E1320E905DD8A015
:1026C00004D0000E916F000E906F550E000160193E
:1026D000D8A423D011C16EF010C16FF01ED0C2304B
:1026E000E8321F0B000AD8B492D4030AD8B489EF99
:1026F0000BF0060AD8B471EF0AF0030AD8B4B0EFB1
:102700000BF0010AD8B4FDEF0AF00F0AD8B4F6EFC7
:102710000BF0190AD8B48EEF0EF0C2901200978E0B
:10272000978492869782978698869280C40E02013B
:102730009B6F090E9C6F000E9D6F000E9E6F000E2A
:10274000976F100E986F000E996F000E9A6F880E9B
:10275000936F130E946F000E956F000E966F000E20
:102760000101246F000E256F000E266F000E276FEB
:10277000000E206F000E216F000E226F000E236FDF
:10278000000E286F000E296F000E2A6F000E2B6FAF
:10279000000E1C6F000E1D6F000E1E6F000E1F6FCF
:1027A000000E186F000E196F000E1A6F000E1B6FCF
:1027B000000E146F000E156F000E166F000E176FCF
:1027C000000E106F000E116F000E126F000E136FCF
:1027D000000EAB6F000EAA6F000EA96F000EA86F5F
:1027E000000EA76F000EA66F000E0001CD6F000E49
:1027F000CC6F000ECB6F000ECA6F000EC96F000EBB
:10280000C86F000E0101EF6F000E0001C76F000ED0
:10281000C66F000E0101EE6F000E0001C56F000EC5
:10282000C46F000E0101ED6F000E0001C36F000EBA
:102830000101B16F000EB06F000E00018E6F000E2F
:102840008D6F000E8C6F000E8B6F000E0101AF6F4D
:10285000000EAE6F000EAD6F000EAC6F000E0001EB
:10286000876F000E886F000E896F000E8A6F000E52
:10287000836F000E846F000E856F000E866F000E52
:102880007F6F000E806F000E816F000E826F000E52
:102890000301E76F000EE66FE75123E1320EE65DBC
:1028A000D8B01FD0000E0101FE6F050EFF6FD8904B
:1028B0000301E635D96EE735DA6ED890D936DA36C7
:1028C0000101FE51D926FF51DA22FF0EDE6E070EFE
:1028D000DE6E000EDE6E000EDD6E0301E64BE72BB2
:1028E000DBD7000EE96F000EE86FE95123E1320EED
:1028F000E85DD8B01FD0000E0101FE6F060EFF6F1D
:10290000D8900301E835D96EE935DA6ED890D9361A
:10291000DA360101FE51D926FF51DA22FF0EDE6EB2
:10292000070EDE6E000EDE6E000EDD6E0301E84B5C
:10293000E92BDBD7000EEB6F000EEA6FEB5123E1C2
:10294000320EEA5DD8B01FD02A0E0101FE6F040ED0
:10295000FF6FD8900301EA35D96EEB35DA6ED89067
:10296000D936DA360101FE51D926FF51DA22FF0E9F
:10297000DE6E070EDE6E000EDE6E000EDD6E0301F3
:10298000EA4BEB2BDBD7000EED6F000EEC6FED5139
:1029900023E1320EEC5DD8B01FD0000E0101FE6FB6
:1029A000080EFF6FD8900301EC35D96EED35DA6E65
:1029B000D890D936DA360101FE51D926FF51DA22F4
:1029C000000EDE6E080EDE6E000EDE6E000EDD6E98
:1029D0000301EC4BED2BDBD7000EEF6F000EEE6F1B
:1029E000EF5123E1320EEE5DD8B01FD0000E010191
:1029F000FE6F070EFF6FD8900301EE35D96EEF35ED
:102A0000DA6ED890D936DA360101FE51D926FF5157
:102A1000DA22000EDE6E080EDE6E000EDE6E000E96
:102A2000DD6E0301EE4BEF2BDBD7000EF16F000ED6
:102A3000F06FF1511FE1320EF05DD8B01BD01E0EC9
:102A40000101FE6F030EFF6FD8900301F035D96EC0
:102A5000F135DA6ED890D936DA360101FE51D92631
:102A6000FF51DA22DE6ADE6ADE6ADD6A0301F04BBC
:102A7000F12BDFD7000EF36F000EF26FF3511FE161
:102A8000320EF25DD8B01BD0000E0101FE6F090EB0
:102A9000FF6FD8900301F235D96EF335DA6ED89016
:102AA000D936DA360101FE51D926FF51DA22DE6A23
:102AB000DE6ADE6ADD6A0301F24BF32BDFD7000E1C
:102AC0000101A56F000EA46F000EA36F000EA26F90
:102AD000000EA16F000EA06F000E9F6F000E9E6F84
:102AE000000E9B6F000E9A6F000E996F000E986F8C
:102AF000000E9D6F000E9C6F000E976F000E966F7C
:102B0000000E956F000E946F000E936F000E926F83
:102B1000000E916F000E906F000E0001C26F000E4C
:102B2000C16FE00E0F01256F010E246F030E236F9E
:102B3000B58EB59CB59AB580B592B594B596B58865
:102B4000060EA96EB50E2E6F940E2F6F000EC26E7C
:102B5000CF0EC116C196C190C192C194A50EC06E90
:102B6000000EC46E000EC36E9D8C9F9CF294080EE6
:102B7000D56EF28AD58EF1941200F6EC32F0020A8C
:102B8000D8A4FFD0EB0E0101786F090E796F000E0B
:102B90007A6F000E7B6FD20E746F090E756F000E88
:102BA000766F000E776F200E706F080E716F000E3B
:102BB000726F000E736FCD0E0201D76F080ED86FC3
:102BC000000ED96F000EDA6F280ED36F080ED46F87
:102BD000000ED56F000ED66F000E01016C6F060E51
:102BE0006D6F000E6E6F000E6F6F2D0E686F060E0C
:102BF000696F000E6A6F000E6B6FDF0E646F070E59
:102C0000656F000E666F000E676F330E0201CF6FA7
:102C1000070ED06F000ED16F000ED26FD70ECB6FA4
:102C2000070ECC6F000ECD6F000ECE6F000E0101AF
:102C3000606F080E616F000E626F000E636FA60E6C
:102C40005C6F0E0E5D6F000E5E6F000E5F6F230EE9
:102C5000586F0A0E596F000E5A6F000E5B6FEB0E25
:102C6000546F090E556F000E566F000E576FA90E68
:102C70000201C76F090EC86F000EC96F000ECA6F40
:102C8000200E0101506F060E516F000E526F000EA4
:102C9000536F720E0201C36F080EC46F000EC56F32
:102CA000000EC66F000E01014C6F080E4D6F000E36
:102CB0004E6F000E4F6FA60E486F0E0E496F000E3E
:102CC0004A6F000E4B6F2B0E0201BF6F0B0EC06FD1
:102CD000000EC16F000EC26F2B0EBB6F0B0EBC6FD0
:102CE000000EBD6F000EBE6FA00E01013C6F860E80
:102CF0003D6F010E3E6F000E3F6F800E386F380E35
:102D0000396F010E3A6F000E3B6F1A0E0201B76F5A
:102D10000B0EB86F000EB96F000EBA6F1A0EB36FBC
:102D20000B0EB46F000EB56F000EB66F020EAF6FD4
:102D30000B0EB06F000EB16F000EB26F1E0EAB6FB8
:102D4000090EAC6F000EAD6F000EAE6F1E0EA76FBA
:102D5000090EA86F000EA96F000EAA6F1F0E0101C9
:102D60002C6F080E2D6F000E2E6F000E2F6F470E6A
:102D70000201A36F090EA46F000EA56F000EA66FCF
:102D80001200F6EC32F0E806D8A41200E60E0101BB
:102D9000786F0A0E796F000E7A6F000E7B6F230E2C
:102DA000746F090E756F000E766F000E776F0A0E46
:102DB000706F080E716F000E726F000E736F470E0A
:102DC0000201D76F090ED86F000ED96F000EDA6FAF
:102DD000280ED36F080ED46F000ED56F000ED66F7D
:102DE0001A0E01016C6F050E6D6F000E6E6F000EF6
:102DF0006F6FDD0E686F060E696F000E6A6F000E52
:102E00006B6FF60E646F070E656F000E666F000E37
:102E1000676FB80E0201CF6F060ED06F000ED16F34
:102E2000000ED26FD70ECB6F070ECC6F000ECD6F9A
:102E3000000ECE6FE10E0101606F020E616F000E99
:102E4000626F000E636FA00E5C6F0F0E5D6F000E61
:102E50005E6F000E5F6F190E586F0C0E596F000EEB
:102E60005A6F000E5B6FD10E546F0A0E556F000E35
:102E7000566F000E576F330E0201C76F0B0EC86FEF
:102E8000000EC96F000ECA6F0A0E0101506F080EC6
:102E9000516F000E526F000E536F720E0201C36F1E
:102EA000080EC46F000EC56F000EC66F140E010130
:102EB0004C6F020E4D6F000E4E6F000E4F6FA00E46
:102EC000486F0F0E496F000E4A6F000E4B6FB60E23
:102ED0000201BF6F0A0EC06F000EC16F000EC26FFD
:102EE000A30EBB6F090EBC6F000EBD6F000EBE6F50
:102EF000900E01013C6F5F0E3D6F010E3E6F000EA4
:102F00003F6FA00E386F860E396F010E3A6F000EBC
:102F10003B6F2D0E0201B76F0A0EB86F000EB96F2E
:102F2000000EBA6F1C0EB36F090EB46F000EB56FB2
:102F3000000EB66F020EAF6F0C0EB06F000EB16FC9
:102F4000000EB26F400EAB6F080EAC6F000EAD6F8F
:102F5000000EAE6F000EA76F080EA86F000EA96FCF
:102F6000000EAA6F2A0E01012C6F070E2D6F000EA6
:102F70002E6F000E2F6F470E0201A36F090EA46F74
:102F8000000EA56F000EA66F1200000E0401F66F72
:102F9000000EF76F000EF86F000EFC6F000EFD6F55
:102FA000000EFE6F000EFF6F000EF26F000EF36F4B
:102FB000000EF46F000EF56F000EF96F000EFA6F41
:102FC000000EFB6F100E0101FE6F000EA4EC31F03D
:102FD0000401F66F110E0101FE6F000EA4EC31F03A
:102FE0000401F76F300E0101FE6F000EA4EC31F00A
:102FF0000401F86F300E0101FE6F030EA4EC31F0F6
:103000000301F46FF4510401FC27000EFD23FE239D
:10301000FF23FCC4F5F3FDC4F6F3FEC4F7F303018C
:10302000F46BF4C3FCF4F5C3FDF4F6C3FEF4F7C38C
:10303000FFF4310E0101FE6F030EA4EC31F0030129
:10304000F46FF4510401FC27000EFD23FE23FF233F
:10305000FCC4F5F3FDC4F6F3FEC4F7F30301F46B0F
:10306000F4C3FCF4F5C3FDF4F6C3FEF4F7C3FFF4B8
:10307000320E0101FE6F030EA4EC31F00301F46F78
:10308000F4510401FC27000EFD23FE23FF23FCC4A2
:10309000F5F3FDC4F6F3FEC4F7F30301F46BF4C3D8
:1030A000FCF4F5C3FDF4F6C3FEF4F7C3FFF4040E1D
:1030B000E66F020E67EC2BF0E6C3F2F4E7C3F3F41D
:1030C000E8C3F4F4E9C3F5F4150E0101FE6F020E36
:1030D000A4EC31F00401F96F100E0101FE6F000E37
:1030E000A4EC31F00401FA27650E0101FE6F020E17
:1030F000A4EC31F00401FB6FF629D8B404D0000130
:103100009251D8B408D0100E0301E66F000EE76F9D
:10311000000E75EC2FF00401F729D8B404D000019B
:103120009251D8B408D0110E0301E66F000EE76F7C
:10313000000E75EC2FF00401F829D8B404D000017A
:103140009251D8B408D0300E0301E66F000EE76F3D
:10315000000E75EC2FF00401FD2906E1FE2904E1C3
:10316000FF29FC11D8B404D000019251D8B420D06A
:10317000300E0301E66F000EE76F030E75EC2FF0C3
:10318000310E0301E66F000EE76F030E75EC2FF0B2
:10319000320E0301E66F000EE76F030E75EC2FF0A1
:1031A000330E0301E66F000EE76F030E75EC2FF090
:1031B0000401F22907E1F32905E1F42903E1F529E6
:1031C000D8B404D000019251D8B40ED0040E03013B
:1031D000EA6F000EEB6F000EEC6F000EED6F000E4D
:1031E000EE6F020E43EC29F00401F929D8B404D0A3
:1031F00000019251D8B408D0150E0301E66F000EFD
:10320000E76F020E75EC2FF00401FA29D8B404D050
:1032100000019251D8B408D0200E0301E66F000ED1
:10322000E76F020E75EC2FF00401FB29D8B404D02F
:1032300000019251D8B41200650E0301E66F000E32
:10324000E76F020E75EC2FF012000201FD6F020114
:10325000FD519EEC20F00001E9510201FD19D8B4A6
:103260001200FDC2E9F0F9D08C9E000EBEEC2FF0EA
:1032700028C07BF029C07CF02AC07DF02BC07EF0F6
:10328000000E02019F6F000EA06F000EA16F000ED6
:10329000A26F1200BFC244F1C0C245F1C1C246F1E3
:1032A000C2C247F1B7C234F1B8C235F1B9C236F182
:1032B000BAC237F1ABC230F1ACC231F1ADC232F1BA
:1032C000AEC233F13CC140F13DC141F13EC142F1DA
:1032D0003FC143F18C8E010E3C6E28C07BF029C0AB
:1032E0007CF02AC07DF02BC07EF01E0E0301E66F3D
:1032F000030EE76F320EE86F000EE96F000EEA6F03
:10330000000EEB6FC5EC26F0000E02019F6F000E61
:10331000A06F000EA16F000EA26F1200000E9F6F33
:10332000000EA06F000EA16F000EA26F8C9E28C031
:103330007BF029C07CF02AC07DF02BC07EF0020E0D
:103340003C18D8A48B90020E3C6E1200000E9F6FAA
:10335000000EA06F000EA16F000EA26F8C9E28C001
:103360007BF029C07CF02AC07DF02BC07EF0020EDD
:103370003C18D8A48B90020E3C6E1200000E9F6F7A
:10338000000EA06F000EA16F000EA26F8C9E28C0D1
:103390007BF029C07CF02AC07DF02BC07EF0020EAD
:1033A0003C18D8A48B90020E3C6E1200000E9F6F4A
:1033B000000EA06F000EA16F000EA26F8C9E000E7B
:1033C000BEEC2FF028C07BF029C07CF02AC07DF035
:1033D0002BC07EF01200000E02019F6F000EA06F46
:1033E000000EA16F000EA26F8C9E000EBEEC2FF09F
:1033F00028C07BF029C07CF02AC07DF02BC07EF075
:103400001200000E02019F6F000EA06F000EA16F50
:10341000000EA26F8C9E000EBEEC2FF028C07BF039
:1034200029C07CF02AC07DF02BC07EF01200000E77
:1034300002019F6F000EA06F000EA16F000EA26F21
:103440008C9E000EBEEC2FF028C07BF029C07CF0D3
:103450002AC07DF02BC07EF012000201FD51000A4F
:10346000D8B4A4D7010AD8B4FFD6030AD8B4B3D7C6
:10347000010AD8B40FD7070AD8B450D7010AD8B474
:103480007DD7030AD8B462D7010AD8B4BAD7CFD748
:1034900004C1E6F305C1E7F30301E61FE71FE64BAE
:1034A000E72B2850E625EE6F2950E721EF6FEF510B
:1034B00004E1FB0EEE5DD8A039D00001BA51D8B4BA
:1034C00035D004C1E6F305C1E7F306C1E8F307C14F
:1034D000E9F30301E61FE71FE81FE91FE62B000ED3
:1034E000E723E823E9232850E625EA6F2950E7215E
:1034F000EB6F2A50E821EC6F2B50E921ED6FED5175
:10350000EC11EB1104E1FB0EEA5DD8A00FD0C8EC82
:1035100032F00009D8B40AD0F086F090F088F0922A
:10352000F08AF094000E0001BA6F0CD00001BA517D
:10353000D8A408D028C004F129C005F12AC006F19A
:103540002BC007F100C1E6F301C1E7F30301E61F59
:10355000E71FE64BE72B2850E625F06F2950E721BF
:10356000F16FB00EF05D040EF159D8A035D0010115
:10357000C451D8A431D000C1E6F301C1E7F302C1C0
:10358000E8F303C1E9F30301E61FE71FE81FE91FA2
:10359000E62B000EE723E823E9232850E625EA6F0F
:1035A0002950E721EB6F2A50E821EC6F2B50E921DD
:1035B000ED6FED51EC1106E1B00EEA5D040EEB5932
:1035C000D8A00AD0010E0101C46FF086F090F088F7
:1035D000F092F08AF0943ED0DC0E0301F05D050E0F
:1035E000F159D8A02CD04150D8A429D000C1E6F37D
:1035F00001C1E7F302C1E8F303C1E9F3E61FE71FE6
:10360000E81FE91FE62B000EE723E823E9232850F3
:10361000E625EA6F2950E721EB6F2A50E821EC6F8D
:103620002B50E921ED6FED51EC1106E1DC0EEA5D66
:10363000050EEB59D8A003D0010E416E0BD04150BE
:10364000D8B408D028C000F129C001F12AC002F185
:103650002BC003F1C8EC32F0020AD8A410D0D890E5
:103660008130070B070AD8B40AD0010E0101C36FDD
:10367000F096F090F098F092F09AF0941200010118
:10368000C351D8B41200000EC36FF086F090F088DA
:10369000F092F08AF0941200000E0001AC6F000E60
:1036A0000301F36F000EF26FF35111E11A0EF25D98
:1036B000D8B00DD03C0EF225D96E020EF321DA6E91
:1036C000DF500001AC270301F24BF32BEDD70001D3
:1036D000AC5102015619D8B403D0010E0001AB6FF2
:1036E0000001AE51D8A408D0AB51D8A405D0550ED6
:1036F00002013C19D8B496D0FF0ECF6E000ECE6EEC
:10370000000E3E6E000E0001B16F000EB06F000E95
:10371000AB6F000EAE6F120062C0F1F37F0E0301BB
:10372000F11702013E51800B0301F1110001626F9C
:1037300040C2F1F3180E0301F11700016451180B98
:103740000301F119D8B416D002014051180B7AECDC
:103750001FF000016451070B9EEC20F064C0F1F3F0
:10376000E70E0301F11702014051180B0301F1119B
:103770000001646FC8EC32F0020AD8B406D002012E
:103780004051070B020AD8A411D002014051070B87
:1037900025EC19F064C0F1F3F80E0301F1170201F2
:1037A0004051070B0301F1110001646F000167A391
:1037B0000BD0020143AF08D08C928C940001E969D0
:1037C0006451070B25EC19F066C0F1F3670E030195
:1037D000F11702014251980B0301F1110001666FCC
:1037E00067C0F1F33F0E0301F11702014351800B53
:1037F0000301F1110001676F67AF02D0000E676F20
:1038000063C0F1F3E90E0301F11702013F51160BFA
:103810000301F1110001636F63A902D0E70E631782
:103820009D8805D00001B351550AD8B475D7010160
:10383000CC2B0B0ECC19D8A41200000E0301F56F8F
:10384000000EF46FF55115E11B0EF45DD8B011D0E8
:103850003C0EF425D96E020EF521DA6E000EF42529
:10386000E16E030EF521E26EDFCFE7FFF44BF52B9F
:10387000E9D7020EB9EC2AF0000E0101CC6F12005C
:103880008B928B948D9C8D948F908D988B96340E0B
:103890000101FE6FF10EE82EFED7FE2FFCD700D0FF
:1038A0009492969C949496949890969892929696C8
:1038B00094909496949A94989888969A89928D96D2
:1038C0008B908B9A8B988D9AF0EC32F0000E000161
:1038D000A16F000E3B6E000EA06F000E3A6E000E40
:1038E0009F6F000E396E000E9E6F000E386E000E38
:1038F0009D6F000E376E000E9C6F000E9B6F000ECA
:103900009A6F000E356E000E01018B6F000E8A6FEC
:10391000000E896F000E886F000E876F000E866F95
:10392000000E0001996F000EBB6E000E0F014E6F6E
:10393000000E496F000EBC6E000E4F6F000E4A6FF6
:103940008B86340E0101FE6FF10EE82EFED7FE2F9E
:10395000FCD700D08D8C8D848D883F0EBB16CF0E8A
:10396000BB16BB50F00B0C09BB6E3F0E9C169C980F
:103970009C969C949C929C800F012D912D932D954B
:10398000BE80BE82BE94BE96BE98BE9ABE9C3F0EBE
:103990004E17CF0E4E174E51F00B0C094E6F3F0EC7
:1039A0001B171B991B971B951B931B812D972D99FB
:1039B0002D9B51815183519551975199519B519D07
:1039C0003F0E4917CF0E49174951F00B0C09496FAB
:1039D0003F0E1A171A991A971A951A931A813F0EC1
:1039E0002D174C814C834C954C974C994C9B4C9D7E
:1039F0009E92780ECA6E9D82CA84FA0ECB6E9F820A
:103A0000BA927B503F0B40097B6E7B50CF0B100965
:103A10007B6E7B967B92B9827B80D292BA907A0E33
:103A20006B6E9C0E6C6EB9906B94D290F18EF1908F
:103A30009388000E606E060EA96E1200000E04013F
:103A4000F76F000EF86F000EF96F000EFA6F000EA0
:103A5000F26F000EF36F000EF46F000EF56F000EA4
:103A6000FB6F000EF66F0001B951D8A4C1D0010E52
:103A7000B96F040E0301E66F020E67EC2BF0E6C38C
:103A8000F2F4E7C3F3F4E8C3F4F4E9C3F5F4150E74
:103A90000101FE6F020EA4EC31F00401FB6FFB2B61
:103AA0002CC0F7F42DC0F8F42EC0F9F42FC0FAF4AE
:103AB000CCEC31F00009D8A433D0F2C4F5F3F3C450
:103AC000F6F3F4C4F7F3F5C4F8F30301F51FF61F9A
:103AD000F71FF81FF52B000EF623F723F823040138
:103AE000F7510301F525F96F0401F8510301F6219F
:103AF000FA6F0401F9510301F721FB6F0401FA5138
:103B00000301F821FC6FFC51FB1112E1B00EF95DCD
:103B1000040EFA59D8B00CD0020E0401FB6508D08F
:103B2000010E0401F66F010E0001C96F09EC23F0CC
:103B3000F2C4F5F3F3C4F6F3F4C4F7F3F5C4F8F301
:103B40000301F51FF61FF71FF81FF52B000EF623D4
:103B5000F723F8230401F7510301F525F96F040158
:103B6000F8510301F621FA6F0401F9510301F7211D
:103B7000FB6F0401FA510301F821FC6FFC51FB11AA
:103B80000AE1B10EF95D040EFA59D8B004D0020E64
:103B90000401FB6511D0040E0301EA6FF7C4EBF3D7
:103BA000F8C4ECF3F9C4EDF3FAC4EEF3020E43ECFF
:103BB00029F0010E0401FB6FF651D8B409D0000EB4
:103BC0000001616F000E626F6289000E0401FB6FDD
:103BD000150E0301E66FFBC4E7F3020E75EC2FF040
:103BE000300E0301E66F010EE76F000E75EC2FF04B
:103BF0000401F6511200000E0301EE6F000EEF6F8C
:103C0000000EF06F000EF16F000EE96F000EE86F0E
:103C1000000EE66F000EE76FC284C296C298C29A89
:103C2000C28C010E0001A66FC280D1908D0E0F01D3
:103C30004A6FD00E0101FE6FC90EE82EFED7FE2F8F
:103C4000FCD700D0C2822ED0010E0301EE27000E59
:103C5000EF23F023F1230001C151D8B411D0300E6D
:103C6000C35C080EC458D8A007D0C3280F0EC45890
:103C7000D8B002D00301E72BC282000E0001C16F51
:103C8000000E0301EB6F000EEA6FEBBF06D0EB51A5
:103C900009E1020EEA5DD8B005D000F00301EA4B5D
:103CA000EB2BF3D70301F1BFCFD7F151F011EF1197
:103CB00004E1140EEE5DD8A0C7D7000EEE6F000E23
:103CC000EF6F000EF06F000EF16F000E0F014A6FE4
:103CD000680E0101FE6FE40EE82EFED7FE2FFCD722
:103CE00000F0C2823AD0010E0301EE27000EEF234E
:103CF000F023F1230001C151D8B41DD0700EC35C74
:103D0000060EC458D8B00ED00301E84BE92BE9BF2A
:103D10000ED0E95104E1030EE85DD8A008D0010EF1
:103D2000E66F05D0000E0301E96F000EE86FC28256
:103D3000000E0001C16F000E0301ED6F000EEC6F6D
:103D4000EDBF06D0ED5109E1020EEC5DD8B005D013
:103D500000F00301EC4BED2BF3D70301F1BFC3D708
:103D6000F151F01106E1100EEE5D270EEF59D8A0CB
:103D7000BAD7C292C290000E0001A66F010EA76FC3
:103D8000D1800400030E0301E76104D0010E01019C
:103D9000DF6F12000301E651D8A41200010E0001EA
:103DA000A56F1200000E0301EA6F000EEB6F000E0C
:103DB000EC6F000EED6F000E2C6E000E2D6E000EDF
:103DC0002E6E000E2F6E000E0101B96F000EB86F3F
:103DD000000EB76F000EB66F000EBA6FBA9CD29C81
:103DE000B98C0F0130950A0E306F000E326F7D0EC8
:103DF000316F000E01017C6F000E7D6F000E7E6F33
:103E0000000E7F6F0F013085300E0101FE6F030E33
:103E1000A4EC31F00301E66FE651EA27000EEB2334
:103E2000EC23ED23EAC3E7F3EBC3E8F3ECC3E9F3D8
:103E3000E66BE6C3EAF3E7C3EBF3E8C3ECF3E9C3ED
:103E4000EDF3310E0101FE6F030EA4EC31F003011E
:103E5000E66FE651EA27000EEB23EC23ED23EAC3DD
:103E6000E7F3EBC3E8F3ECC3E9F3E66BE6C3EAF38D
:103E7000E7C3EBF3E8C3ECF3E9C3EDF3320E010162
:103E8000FE6F030EA4EC31F00301E66FE651EA2762
:103E9000000EEB23EC23ED23EAC3E7F3EBC3E8F3D7
:103EA000ECC3E9F3E66BE6C3EAF3E7C3EBF3E8C37D
:103EB000ECF3E9C3EDF3330E0101FE6F030EA4EC46
:103EC00031F00301E66FE651EA27000EEB23EC2305
:103ED000ED23EAC32CF0EBC32DF0ECC32EF0EDC3C1
:103EE0002FF02FC068F02EC069F02DC06AF02CC0F2
:103EF0006BF012000101FE6FF6EC32F0020AD8B44A
:103F00003DD084D0DB0E0301E66F020EE76F550E45
:103F1000E86F140EE96F000EEB6F220EEA6F50ECA3
:103F20002FF0F6C18CF1F7C18DF11200DB0E030109
:103F3000E66F020EE76F110EE86F140EE96F000EC8
:103F4000EB6F220EEA6F50EC2FF0F2C18CF1F3C14F
:103F50008DF11200DB0E0301E66F020EE76F330EE8
:103F6000E86F140EE96F000EEB6F220EEA6F50EC53
:103F70002FF0F4C18CF1F5C18DF112000101FE5159
:103F8000000AD8B4E7D7080AD8B4D0D7180AD8B4EA
:103F9000B9D7E0D7DB0E0301E66F020EE76FBB0E69
:103FA000E86F140EE96F000EEB6F220EEA6F50EC13
:103FB0002FF0FCC18CF1FDC18DF11200DB0E03016D
:103FC000E66F020EE76F770EE86F140EE96F000ED2
:103FD000EB6F220EEA6F50EC2FF0F8C18CF1F9C1B3
:103FE0008DF11200DB0E0301E66F020EE76F990EF2
:103FF000E86F140EE96F000EEB6F220EEA6F50ECC3
:104000002FF0FAC18CF1FBC18DF112000101FE51BC
:10401000000AD8B4E7D7080AD8B4D0D7180AD8B459
:10402000B9D7E0D730EC31F00009D8B408D096EC1D
:1040300031F00009D8A403D008EC2CF01200C8EC31
:1040400032F00009D8B41ED0070E4318D8A41AD0F5
:1040500096EC31F00009D8A415D00001C051D8A4C5
:104060004AD04150D8B447D0F096F090F098F092F2
:10407000F09AF094000E0101FF6F000EFE6F12EC3B
:1040800027F039D0C8EC32F00009D8A404D0070ECC
:104090004318D8A430D00001BE51D8B402D06781F3
:1040A0002AD0E4EC31F00009D8A418D096EC31F015
:1040B0000009D8A413D0000166AD02D0669D07D0D8
:1040C000C8EC32F04318D8A402D00001668D00017C
:1040D0006451F80B4310646F8D820DD0020E4318AB
:1040E000D8A409D0C8EC32F0020AD8A404D0E70E54
:1040F00000016317638730EC31F00009D8A405D0C4
:1041000000016451070B25EC19F00001BD51D8A442
:1041100002D0010E01D0000EBD6FBC51D8A402D058
:10412000010E01D0000EBC6FBB51D8A402D0010E0D
:1041300001D0000EBB6F000E436E12000101FE6F36
:1041400067D0E8C29EF0DFC2A0F0F1C29BF0F5C2DA
:1041500088F1896BF6C286F1876B1200E9C29EF086
:10416000E0C2A0F0F2C29BF0F7C288F1896BF8C2FE
:1041700086F1876B1200EAC29EF0E1C2A0F0F3C2A2
:104180009BF0F9C288F1896BFAC286F1876B120045
:10419000EBC29EF0E2C2A0F0F4C29BF0000E896F69
:1041A000000E886F000E876F000E866F1200ECC243
:1041B0009EF0E3C2A0F0000E00019B6FFBC288F1ED
:1041C0000101896BFCC286F1876B1200000E0001B1
:1041D0009E6F000EA06F000E9B6F000E0101896F95
:1041E000000E886F000E876F000E866F1200000EA3
:1041F00000019E6F000EA06F000E9B6F000E01016C
:10420000896F000E886F000E876F000E866F120098
:104210000101FE51000AD8B4D9D7010AD8B491D708
:10422000030AD8B41200010AD8B498D7070AD8B440
:10423000A2D7010AD8B4BBD7030AD8B4A9D7010AB8
:10424000D8B41200D4D7000E0001616F000E626F67
:10425000000E0201FE6F000EFD6F73EC23F08B90D9
:10426000FC0E00016517B9906B94100E0101FE6FF2
:10427000000EA4EC31F00301F46F110E0101FE6F8A
:10428000000EA4EC31F00301F56F650E0101FE6F25
:10429000020EA4EC31F00301F36F000E0101FF6F79
:1042A0000301F351F2EC30F00301F4A102D000015C
:1042B00061810301F4A302D0000161830301F4A72B
:1042C00002D0000161870301F4A902D000016289D4
:1042D0000301F4A51DD0C280C284C286C298C29ACE
:1042E000C29CC3CFAEF1C4CFAFF10101AFBF06D0C6
:1042F000060EAE5D040EAF59D8B005D0010E000118
:10430000CB6F618505D0000E0101A16F000EA06F7B
:104310000301F5A102D00001618D0301F5A302D0D4
:10432000000161890301F5A502D000016283030148
:10433000F5A702D00001618F0301F5A902D00001A9
:10434000618B0301F5AB12000001628312000001D2
:10435000B851D8A41200010EB86F000E0301F46F1B
:10436000000EF36F0001C851D8B40AD00301F483E2
:10437000000E0201FE6F010EFD6F73EC23F002D000
:104380000301F4930001C751D8B40AD00301F489A2
:10439000000E0201FE6F010EFD6F73EC23F002D0E0
:1043A0000301F4990001C551D8B40AD00301F48780
:1043B000000E0201FE6F010EFD6F73EC23F002D0C0
:1043C0000301F4970001C651D8B40AD00301F48167
:1043D000000E0201FE6F010EFD6F73EC23F002D0A0
:1043E0000301F4910001C351D8B40AD00301F48B46
:1043F000000E0201FE6F030EFD6F73EC23F002D07E
:104400000301F49B0001C451D8B40AD00301F48520
:10441000000E0201FE6F030EFD6F73EC23F00CD053
:104420000301F49509D0110EE66FF4C3E7F3000E13
:1044300075EC2FF00301F36F0301F351D8A41200C0
:10444000F2D70001AA51D8B409D0010E936F550ECE
:10445000606F42EC24F0000E0001AA6FA951D8B49D
:104460000FD0000E936F28C008F129C009F12AC0AF
:104470000AF12BC00BF14CEC1BF0000E0001A96FF0
:1044800008C1F6F309C1F7F30301F61FF71FF64B56
:10449000F72B2850F625FE6F2950F721FF6FFF51AB
:1044A00004E1FA0EFE5DD8A03BD008C1F6F309C1C5
:1044B000F7F30AC1F8F30BC1F9F3F61FF71FF81F62
:1044C000F91FF62B000EF723F823F9232850F625C1
:1044D000FA6F2950F721FB6F2A50F821FC6F2B50FF
:1044E000F921FD6FFD51FC11FB1104E1FA0EFA5D9B
:1044F000D8A016D000019351D8B412D00101C52B19
:10450000030EC56504D0010E0001A86F120028C07B
:1045100008F129C009F12AC00AF12BC00BF11200E1
:1045200000019351D8A41200000E0101C56F1200C2
:10453000C80EF66E640EF76E000EF86E01EEF2F025
:1045400010EE0CF00900F5CFEEFFE550E150FAE176
:10455000000EF66E660EF76E000EF86E0900F5CFCF
:10456000E8F00900F5CFE9F0FE0EF66E650EF76E85
:10457000000EF86E0900F5CF44F00900F5CF45F0C4
:1045800009EE00F0C80EEE6AE806FDE108EE00F064
:10459000C80EEE6AE806FDE107EE00F0C80EEE6A0E
:1045A000E806FDE106EE00F0C80EEE6AE806FDE161
:1045B00005EE00F0C80EEE6AE806FDE104EE00F03C
:1045C000F20EEE6AE806FDE103EE00F0E60EEE6A9A
:1045D000E806FDE102EE00F0FD0EEE6AE806FDE100
:1045E00001EE00F0F20EEE6AE806FDE100EE60F08A
:1045F0006F0EEE6AE806FDE100EE28F01C0EEE6A92
:10460000E806FDE146904692000EF86E00019FEF2D
:104610002BF00001B751D8A41200010EB76F000EA5
:104620000301F46F000EF36F0001CD51D8B40AD02E
:104630000301F481000E0201FE6F000EFD6F73ECAA
:1046400023F002D00301F4910001CC51D8B40AD078
:104650000301F483000E0201FE6F000EFD6F73EC88
:1046600023F002D00301F4930001CB51D8B40AD057
:104670000301F485000E0201FE6F000EFD6F73EC66
:1046800023F002D00301F4950001CA51D8B40AD036
:104690000301F487000E0201FE6F000EFD6F73EC44
:1046A00023F002D00301F4970001C951D8B40AD015
:1046B0000301F489000E0201FE6F000EFD6F73EC22
:1046C00023F00CD00301F49909D0100EE66FF4C367
:1046D000E7F3000E75EC2FF00301F36F0301F351C4
:1046E000D8A41200F2D730EC31F00009D8B412008F
:1046F000010E0001996F48D0010EBEEC2FF0000EA4
:104700003A6E000E386E000E3B6E000E366E000ED6
:1047100000019C6F8D9889828D968B9A8B989F0E45
:104720006417649F12008B928B948F9089828D9670
:10473000010EBEEC2FF08B9A8B988D9A000EBC6EFA
:10474000000E0F014F6F000E4A6F120041EC2AF06D
:1047500004EC30F070EC32F0010EBEEC2FF01200E1
:1047600004EC2AF0E1EC2FF070EC32F0010EBEEC1C
:104770002FF0120004EC2AF0E1EC2FF070EC32F094
:10478000010EBEEC2FF01200FDC2F1F3FEC2F2F3F7
:104790000301F251000AD8A4EDD7F151000AD8B4B0
:1047A000DFD7010AD8B4D2D7030AD8B4BCD7010ADC
:1047B000D8B4A2D7DFD7000E0301EF6FEDAF0AD058
:1047C000ED1FEC1FEB1FEA6D000EEB23EC23ED2336
:1047D000010EEF6FE9AF0AD0E91FE81FE71FE66D92
:1047E000000EE723E823E923010EEF1B000EF06F14
:1047F000000EF16F000EF26F000EF36FEA51EB1135
:10480000EC11ED11D8B42AD0010EEE6F06D0D8907D
:10481000EA37EB37EC37ED37EE2BEDAFF8D7D89022
:10482000F037F137F237F337EA51E65DEB51E759EC
:10483000EC51E859ED51E959D8A009D0EA51E65FA9
:10484000EB51E75BEC51E85BED51E95BF081D8900F
:10485000ED33EC33EB33EA33EE2FE1D7EF51D8B43D
:1048600008D0F31FF21FF11FF06D000EF123F223A9
:10487000F323F0C3E6F3F1C3E7F3F2C3E8F3F3C3C2
:10488000E9F31200000E3F6E000E0001B26F000E41
:10489000406E000EAD6F550EB319D8B427EC2FF053
:1048A000000E0301E96F000EE86FE95121E11CD011
:1048B000600EE825D96E000EE921DA6E570EE82564
:1048C000E16E020EE921E26EDFCFE7FF600EE82520
:1048D000D96E000EE921DA6EDF500001AD27030129
:1048E000E84BE92BE95104E11A0EE85DD8A0E0D7C6
:1048F000ADC07AF0ADC071F29D880101CB2B0B0EDB
:10490000CB19D8A41200000E0301E76F000EE66F6A
:10491000E75115E11B0EE65DD8B011D0570EE62524
:10492000D96E020EE721DA6E000EE625E16E030E67
:10493000E721E26EDFCFE7FFE64BE72BE9D7010E79
:10494000B9EC2AF0000E0101CB6F1200FACF07F08C
:10495000FBCF08F0E9CF09F0EACF0AF0E1CF0BF086
:10496000E2CF0CF0D9CF0DF0DACF0EF0F3CF0FF08D
:10497000F4CF10F0F6CF11F0F7CF12F0F8CF13F01C
:10498000F5CF14F046C015F047C016F048C017F038
:1049900049C018F09EBA9DAA02D0C2EC2DF09EB874
:1049A0009DA802D0FDEC2EF09EB29DA20DD000017C
:1049B000A651D8A408D03AC0BCFF38C04FFF36C0BB
:1049C0004AFF010EA16F9E9218C049F017C048F02F
:1049D00016C047F015C046F014C0F5FF13C0F8FF2D
:1049E00012C0F7FF11C0F6FF10C0F4FF0FC0F3FFB5
:1049F0000EC0DAFF0DC0D9FF0CC0E2FF0BC0E1FF13
:104A00000AC0EAFF09C0E9FF08C0FBFF07C0FAFFC0
:104A10004692110041D0C28404D0C284C29602D012
:104A2000C294C286C28803D0C284C286C298C29A87
:104A3000C29C17D0B0C1FEF1B1C1FFF10101FF511D
:104A4000000AD8A4F1D7FE51000AD8B4EDD7010A64
:104A5000D8B4E6D7030AD8B4E0D7010AD8B4DBD774
:104A6000E3D7B04BB12B030EB015B06FB16B30D0A4
:104A7000C294C2960DD0C284C296C298C29AC28C09
:104A800027D0C294C296C298C29A04D0C284C28669
:104A9000C298C28AC29C1CD0C230E8321F0B000AE6
:104AA000D8B4F4D7030AD8B4E3D7060AD8B4E0D709
:104AB000030AD8B4DDD7010AD8B4DAD70F0AD8B4BC
:104AC000DAD7030AD8B4B6D71A0AD8B4DAD7DED7F9
:104AD000C2A0C280C2821200000E0401F26F000E5A
:104AE000F36F000EF46F000EF56F000EF76F000EFF
:104AF000F66F000EF76F000EF66F19D0D890040114
:104B0000F635D96EF735DA6ED890D936DA36030134
:104B1000F451D926F551DA22DE500401F227DE5095
:104B2000F323DE50F423DD50F523F64BF72BF6513B
:104B30000301FA6F0401F7510301FB6FFC6BFD6B7E
:104B4000F651FA5DF751FB59F851FC59FD51800AB5
:104B5000FE6FF951800AFE59D8A0D0D7F2C4E6F30F
:104B6000F3C4E7F3F4C4E8F3F5C4E9F3F6C3EAF3F6
:104B7000F7C3EBF3F8C3ECF3F9C3EDF3DBEC23F08D
:104B8000E6C3F4F3E7C3F5F3E8C3F6F3E9C3F7F3D9
:104B9000120010EC32F008EC31F0C5EC17F03BECF1
:104BA0002CF004EC2DF08FEC32F035EC2DF067ECAE
:104BB00031F08FEC13F0BDEC15F020EC2EF040EC52
:104BC0001CF0000E7AEC1FF070EC32F08C96000EA8
:104BD0000501C96F000EC86FC9510FE11B0EC85DFA
:104BE000D8B00BD0600EC825D96E000EC921DA6E80
:104BF000000EDF6EC84BC92BEFD7550E0001606F5A
:104C0000550EB36F010E07EC32F0F0EC31F0D2EC40
:104C10001EF0BFEC31F023EC21F0000E0101FF6F1C
:104C2000070EFE6F12EC27F030EC31F00009D8B41B
:104C300003D0ACEC30F004D021EC32F05FEC27F084
:104C4000000E0001BF6F1200030E3C18D8B402D052
:104C5000B9906B9430503110D8A405D08B80000EE1
:104C6000316E010E20D030043110D8A409D00001DB
:104C7000A351D8B405D08B80000E316E020E13D034
:104C8000020E30183110D8A405D08B90000E316E72
:104C9000030E09D0030E30183110D8A405D08B9024
:104CA000000E316E000E306E4450196E1A6A30508C
:104CB000191809E131501A18D8B48BB004D0000E7D
:104CC000316E000E0DD04450196E1A6A305019180A
:104CD00008E131501A18D8A404D0000E316E010E2C
:104CE000306E30C044F000016593658112005FECC6
:104CF00030F00201FF6FFFA539D0FFA30DD0F4EC17
:104D00002AF0E1EC2FF070EC32F0A0EC32F0A4ECE1
:104D100032F08C968C981200FFA119D094EC32F0EE
:104D2000080AD8A405D0A0EC32F09CEC32F004D0F4
:104D300098EC32F0A4EC32F07EEC2AF02EEC2BF062
:104D40006AEC32F08C868C980001668512007EEC4D
:104D50002AF02EEC2BF070EC32F0A0EC32F0A4EC48
:104D600032F08C868C8800016695120004EC2AF0E3
:104D7000E1EC2FF070EC32F0A0EC32F0A4EC32F069
:104D80008C968C98000166951200000E0101936FBD
:104D9000000E926F000E0001CE6F000E02019F6F99
:104DA000000EA06F000EA16F000EA26F000E010199
:104DB000FF6F000EFE6F000EFF6F000EFE6F1AD029
:104DC0001E0E0301EC6F030EED6FD8900101FE354E
:104DD000D96EFF35DA6ED890D936DA360301EC5148
:104DE000D926ED51DA22DE6ADE6ADE6ADD6A010169
:104DF000FE4BFF2BFE510301EC6F0101FF5103013C
:104E0000ED6FEE6BEF6BE851EC5DE951ED59EA5156
:104E1000EE59EF51800AF06FEB51800AF059D8B08B
:104E20001200CED72BD0F80E000164171200F80E36
:104E30000001641764811200F80E00016417648396
:104E40001200F80E00016417030E64131200F80E2E
:104E50000001641764851200F80E00016417050E46
:104E600064131200F80E00016417060E641312009A
:104E7000F80E00016417070E64131200FEC1FDF264
:104E8000FFC1FEF20201FE51000AD8A4F1D7FD5184
:104E9000000AD8B4C8D7010AD8B4C9D7030AD8B40D
:104EA000CBD7010AD8B4CDD7070AD8B4D0D7010AD6
:104EB000D8B4D2D7030AD8B4D5D7010AD9D73CD0B1
:104EC000040021EC22F0070E4318D8A416D00001EC
:104ED000C051D8A412D04150D8B40FD0F096F09061
:104EE000F098F092F09AF094000E0101FF6F000E1E
:104EF000FE6F12EC27F0000E436E56EC32F0020A01
:104F0000D8A40DD0200E0301E66F000EE76F020E4D
:104F100075EC2FF0B0EC32F0010E0001B66F56ECDC
:104F200032F0040AD8A405D0B0EC32F0010E000132
:104F3000B66F000E0001BF6FD8EC31F00009D8B495
:104F4000120056EC32F00009D8A412000001B6514C
:104F5000D8A41200B5D730EC31F00009D8B42BD06A
:104F6000010E0001996F48EC32F00009D8A40AD074
:104F700041EC32F00009D8A405D04FEC32F0000922
:104F8000D8B407D0000E0201FE6F010EFD6F73EC66
:104F900023F0A8EC32F00009D8A405D0ACEC32F034
:104FA0000009D8B40BD0000E0201FE6F030EFD6F96
:104FB00073EC23F003D0000E0001996F00019951AA
:104FC000D8A403D04EEC2EF0120000019951D8B4B1
:104FD0001200000E0201FE6F000EFD6F73EC23F055
:104FE0001200000E0101936F000E926F000E00017F
:104FF000CE6F000E02019F6F000EA06F000EA16F1A
:10500000000EA26F000E256E000E246E000E256E9F
:10501000000E246E16D01E0E1F6E030E206ED8904A
:105020002434D96E2534DA6ED890D936DA361F504A
:10503000D9262050DA22DE6ADE6ADE6ADD6A244A78
:10504000252A24501F6E2550206E216A226A1B508B
:105050001F5C1C5020581D5021582250800A236E7E
:105060001E50800A2358D8B01200D5D75FEC30F01C
:105070000201FF6FFFA52FD0FFA30DD0F4EC2AF0A3
:10508000E1EC2FF070EC32F0A0EC32F0A4EC32F056
:105090008C968C981200FFA10FD07EEC2AF02EEC9B
:1050A0002BF06AEC32F0A0EC32F09CEC32F08C8603
:1050B0008C980001668512007EEC2AF02EEC2BF015
:1050C00070EC32F0A0EC32F0A4EC32F08C868C88DC
:1050D00000016695120004EC2AF0E1EC2FF070EC70
:1050E00032F0A0EC32F0A4EC32F08C968C980001F7
:1050F000669512005FEC30F00201FF6FFFA52FD024
:10510000FFA30DD0F4EC2AF0E1EC2FF070EC32F0BC
:10511000A0EC32F0A4EC32F08C968C981200FFA137
:105120000FD07EEC2AF02EEC2BF06AEC32F098ECEB
:1051300032F09CEC32F08C868C980001668512006F
:105140007EEC2AF02EEC2BF070EC32F0A0EC32F07A
:10515000A4EC32F08C868C8800016695120004EC79
:105160002AF0E1EC2FF070EC32F0A0EC32F0A4EC7D
:1051700032F08C968C98000166951200000E316E0C
:10518000000E306E1E0E196E030E1A6E320E1B6E5E
:10519000000E1C6E000E1D6E000E1E6EF1EC27F050
:1051A000000E02019F6F000EA06F000EA16F000E97
:1051B000A26FBBC244F1BCC245F1BDC246F1BEC242
:1051C00047F1B3C234F1B4C235F1B5C236F1B6C25B
:1051D00037F1A7C230F1A8C231F1A9C232F1AAC297
:1051E00033F138C140F139C141F13AC142F13BC11B
:1051F00043F1B9906B948B80DE0E000165176583D7
:1052000012000001E805D8A40CD0010E0201FD6FC8
:10521000C8EC32F00009D8B402D004001200040037
:105220001200020E0001E819D8A429D0020E0201D2
:10523000FD6FC8EC32F00009D8B404D00001A851C9
:10524000D8B41BD004008AEC32F0B4EC32F0180A67
:10525000D8B40ED00001A851D8A40AD0C8EC32F0BE
:105260000009D8A4120030EC31F00009D8B41200C3
:105270001CEC31F0FBEC32F0FFD704001200000E02
:105280000201FD6F12000301F36FEBC3EFF3ECC3F8
:10529000EBF3EDC3ECF3EEC3EDF30301EE6BEBC305
:1052A000F0F3ECC3EBF3EDC3ECF3EEC3EDF3EE6B15
:1052B000EBC3F1F3ECC3EBF3EDC3ECF3EEC3EDF3AF
:1052C000EE6BEBC3F2F3EAC3E6F3EFC3E7F3F3519C
:1052D00075EC2FF00301EA29E66FF0C3E7F3F35111
:1052E00075EC2FF00301EA51020FE66FF1C3E7F30B
:1052F000F35175EC2FF00301EA51030FE66FF2C38F
:10530000E7F3F35175EC2FF0120030D001EC29F0E7
:1053100039EC32F021EC22F0070E4318D8A423D048
:1053200061C0F2F40F0E0401F217D8A406D062C0D7
:10533000F2F41E0EF217D8B416D00001C051D8A452
:1053400012D04150D8B40FD0F096F090F098F0926F
:10535000F09AF094000E0101FF6F000EFE6F12EC48
:1053600027F0000E436E000E0001BF6FC4EC32F058
:105370000009D8B4CBD7300E0301E66F000EE76FFB
:10538000000E75EC2FF05DEC32F01200F9EC32F00B
:105390000009D8B412002FC068F02EC069F02DC0EB
:1053A0006AF02CC06BF0E7EC32F00009D8B40BD0F7
:1053B000300E0301E66F68C0E7F3030E75EC2FF0C3
:1053C000000E7BEC32F0EAEC32F00009D8B40BD0DE
:1053D000310E0301E66F69C0E7F3030E75EC2FF0A1
:1053E000000E80EC32F0EDEC32F00009D8B412007F
:1053F000320E0301E66F6AC0E7F3030E75EC2FF07F
:10540000000E85EC32F012003B04D8A41BD03A50B9
:105410000201DE5DD8B00ED0392A39040101FE6FD9
:105420000201DC510101FE5DD8A012003A06000E17
:10543000396E1200000E3A6E000E3B6E9F0E000198
:1054400064171200020E3B18D8A412000201E751A3
:10545000385CD8A00ED0372A37040101FE6F020154
:10546000E5510101FE5DD8A012003806000E376E2E
:105470001200000E386E000E3B6E9F0E0001641786
:1054800012003B04D8A41BD03A500201DE5DD8B014
:105490000ED0392A39040101FE6F0201DD510101EC
:1054A000FE5DD8A012003A06000E396E1200000E02
:1054B0003A6E000E3B6E9F0E000164171200020E42
:1054C0003B18D8A4120038500201E75DD8B00ED0C6
:1054D000372A37040101FE6F0201E6510101FE5D2A
:1054E000D8A012003806000E376E1200000E386E7B
:1054F000000E3B6E9F0E000164171200020E3B1857
:10550000D8A403D004EC2AF01200940E0F012F6FE0
:105510003B50D8A408D0DEC23AF0010E3B6E000129
:10552000649D648B12000001A0513A5CD8B00FD08A
:105530009F2B9F050101FF6F0201DB510101FF5D00
:10554000D8A012003A2A000E00019F6F12003A50B4
:10555000A05DD8B01200392A39040101FF6F0201A1
:10556000DC510101FF5DD8A012003A06000E396E31
:1055700012000201FD6F000E0001976F000E010185
:10558000DB6F000E346E000E326E000E0201FF6FF4
:10559000000EFE6FFF5115E11C0EFE5DD8B011D05C
:1055A000000EFE25D96E030EFF21DA6E1E0EFE25BB
:1055B000E16E020EFF21E26EDFCFE7FFFE4BFF2B15
:1055C000E9D7FD05D8A404D0CEC139F2CDC13AF255
:1055D000020EFD19D8A404D016C339F217C33AF24B
:1055E000FDC23BF2A38812003B04D8A403D004EC14
:1055F0002AF01200B40E0F012F6F3B50D8A408D030
:10560000E7C238F0020E3B6E0001649B648D12000D
:1056100000019E51385CD8B00FD09D2B9D05010133
:10562000FF6F0201E4510101FF5DD8A01200382A8A
:10563000000E00019D6F120038509E5DD8B0120020
:10564000372A37040101FF6F0201E5510101FF5DB7
:10565000D8A012003806000E376E12000F013685F2
:105660003B04D8A431D000019C51D8A408D0F0C28A
:1056700036F0010E9C6F8F908D88648F12009B51C5
:10568000365CD8B00FD09A2B9A050101FF6F02014A
:10569000ED510101FF5DD8A01200362A000E000175
:1056A0009A6F120036509B5DD8B01200352A35042F
:1056B0000101FF6F0201EE510101FF5DD8A0120050
:1056C0003606000E356E1200E1EC2FF012000301D9
:1056D000F26FE6C3FEF10301F251A4EC31F00301D5
:1056E000EE6FE6290101FE6F0301F251A4EC31F0E7
:1056F0000301EF6FE651020F0101FE6F0301F2514A
:10570000A4EC31F00301F06FE651030F0101FE6FCD
:105710000301F251A4EC31F00301F16FEEC3EAF39F
:10572000EFC3EBF3F0C3ECF3F1C3EDF3EAC3E6F33D
:10573000EBC3E7F3ECC3E8F3EDC3E9F31200C9EC04
:1057400025F0F6EC32F00009D8B424D001EC29F0B1
:10575000C6EC29F027EC30F07AEC30F0ABEC27F017
:10576000A1EC2CF021EC22F0C4EC30F019EC32F07A
:10577000D3EC2CF094EC30F088EC31F00001A75120
:10578000D8A4E4D7C8EC32F00009D8B4DFD7FBECDA
:105790001DF0DCD7000E0201FE6F000EFD6F73ECF2
:1057A00023F043EC31F0FDD7000E0201FF6F000E35
:1057B000FE6F0301E851E911D8B425D0010E0201B2
:1057C000FD6F06D00301D890E837E9370201FD2BC1
:1057D0000301E9AFF7D70201D890FE37FF37030185
:1057E000E851E65DE951E759D8A006D0E851E65FF7
:1057F000E951E75B0201FE810301D890E933E83308
:105800000201FD2FE8D7FEC2E6F3FFC2E7F3120064
:1058100061C0FFF20F0E0201FF17D8A406D062C0CC
:10582000FFF21E0EFF17D8B412000101CE2BC8ECF8
:1058300032F00009D8B41CD0070E4318D8A418D0F1
:105840000001C051D8A412004150D8B41200F09603
:10585000F090F098F092F09AF094000E0101FF6F32
:10586000000EFE6F12EC27F0010E0001996F12007E
:10587000C8EC32F01200949C948E9798979A8E8878
:105880008E9A000E0001A96F9D9A9D989F8A9F880D
:10589000080E656E670EAF6E000ED46ED00EAB6E46
:1058A000640EAC6E000EB26F000E406E1B0E3F6EAB
:1058B000000E3E6E000EB16F000EB06F9D8A000E9E
:1058C00001018F6F000E8E6F9E90300ECD6E9D8009
:1058D000CD809F90550E0001B36F12001D501E1019
:1058E0001F102010D8B424D0010E216E06D0D890FD
:1058F0001D361E361F362036212A20AEF8D71D5001
:10590000195C1E501A581F501B5820501C58D8A004
:1059100008D01D50195E1E501A5A1F501B5A205095
:105920001C5AD89020321F321E321D32212EE7D74A
:1059300019C019F01AC01AF01BC01BF01CC01CF0D3
:1059400012000001BF51D8A403D09951D8B412005D
:1059500096EC31F00009D8B413D030EC31F00009E6
:10596000D8A40ED00001BF51D8B40AD06781340E3C
:105970000301F16FF10EE82EFED7F12FFCD700D016
:105980000001BF05D8B405D030EC31F00009D8A42F
:1059900006D0B2EC31F00009D8B412EC20F0000EC1
:1059A0000001BF6F120001010C5100082824FE6F96
:1059B000100EFE6512000CC1E6F30DC1E7F30EC137
:1059C000E8F30FC1E9F30301E61FE71FE81FE91F32
:1059D000E62B000EE723E823E9232850E625EA6FAB
:1059E0002950E721EB6F2A50E821EC6F2B50E92179
:1059F000ED6FED51EC11EB1104E1110EEA5DD8A051
:105A000012001CEC31F01200988498928F848F92CF
:105A1000000E0101CF6FA39AA398A59AA598080E2E
:105A20000F01206F220E1E6F000E1F6FD00E226F0F
:105A3000640E216F000E0101DB6F000E346E1E0E2E
:105A40000001976F000E336E000E0101DA6F000E39
:105A5000D96FA38A000E816F000E806F000E0001C7
:105A6000986F550E0201726F120093829384938691
:105A7000928C968E9288F18AF188F186F090F0925D
:105A8000F094F096F098F09AF09CF09EF1920F014D
:105A900039873989398B398D39953951FC0B020990
:105AA000396F960E3A6FD294B984BA94000E436E51
:105AB000010E0001C06F010EBE6F000EBD6F000E23
:105AC000BC6F000EBB6F12000F0122A302D02299FF
:105AD000228922A103D01E6A1E2A01D01E6A0F014C
:105AE0001D5193EC2DF01E18D8B403D0010E000107
:105AF000956F3350010D000EF324D96E020EF42081
:105B0000DA6E1DCFDFFF332A1E0E3318D8A403D060
:105B1000010E0101CF6F1D0E336402D0000E336EF3
:105B20000101D92B12001B6E000E0001966F000EB2
:105B30001D6E000E1C6E1DBE03D01D501CE117D043
:105B40001CC019F0010E1A6E192A02D0D8901A360C
:105B5000192EFCD71A501B140009D8B402D000012A
:105B6000962B1C4A1D2A1DBEEBD71D5004E1080EC2
:105B70001C5CD8A0E5D7000196A102D0010E12004E
:105B8000000E1200ABA202D0AB98AB88ABA003D042
:105B9000066A062A01D0066AAE50F1EC2DF006180E
:105BA000D8B403D0010E0001AE6F3E50010D3C0E83
:105BB000F324D96E020EF420DA6EAECFDFFF3E2A58
:105BC0001B0E3E18D8A403D0010E0001A96F1A0EB7
:105BD0003E6404D0010E456E000E3E6E0001B02BF7
:105BE0001200036E000E0001AF6F000E056E000E76
:105BF000046E05BE03D005501CE117D004C001F0AF
:105C0000010E026E012A02D0D8900236012EFCD776
:105C1000025003140009D8B402D00001AF2B044A8B
:105C2000052A05BEEBD7055004E1080E045CD8A098
:105C3000E5D70001AFA102D0010E1200000E120044
:105C4000030E0001916F010E906F7F0E8F6F000E9B
:105C50000101FF6F000EFE6F0BD000019051020D8D
:105C6000F3CF90F0D8908F318F6F0101FE4BFF2B57
:105C7000000191510201FD6FFE6BFD510101FE5DBE
:105C8000FF51800A0201FF6FFE51800AFF59D8A020
:105C9000E4D700018F518F258F6F12000001A105FD
:105CA000D8A4120012D036EC28F012007AEC28F0BA
:105CB000120077EC26F01200A7EC2EF012009AECFE
:105CC0002FF0120078EC31F01200C8EC32F0000A2C
:105CD000D8B4F8D7010AD8B4E6D7020AD8B4E9D7BD
:105CE000070AD8B4E3D7010AD8B4E9D7030AD8B46D
:105CF000E3D7010AE7D7000E0301F26F000EF36F3E
:105D0000000EF46F000EF56FEAA108D0EE51F227F5
:105D1000EF51F323F051F423F151F523D890EE37EE
:105D2000EF37F037F137D890ED33EC33EB33EA331C
:105D3000EA51EB11EC11ED11D8A4E6D7F2C3EAF366
:105D4000F3C3EBF3F4C3ECF3F5C3EDF312005FEC34
:105D500030F00201FF6FFFA516D0FFA305D0F4ECD1
:105D60002AF0E1EC2FF004D07EEC2AF02EEC2BF0A0
:105D700070EC32F0A0EC32F0A4EC32F08C968C98FF
:105D800000016695120004EC2AF0E1EC2FF070ECB3
:105D900032F0A0EC32F0A4EC32F08C968C9800013A
:105DA000669512001E0E0001976125D03450010D3A
:105DB0001E0EF324D96E020EF420DA6EDF5093EC3F
:105DC0002DF01E6E0F0121511E18FE0B1E18216FA3
:105DD0003450010D1E0EF324D96E020EF420DA6E3B
:105DE000DF501C6F342A1D0E346402D0000E346E56
:105DF0000001972B1200A39812001B0E3F6025D0C4
:105E0000000E456E4050010D570EF324D96E020E60
:105E1000F420DA6EDF50F1EC2DF0066EAC5006186F
:105E2000FE0B0618AC6E4050010D570EF324D96ED0
:105E3000020EF420DA6EDF50AD6E402A1A0E406476
:105E400002D0000E406E3F2A12009D981200B8EC5E
:105E500032F080B804D00201FD6BFD2B02D00201AC
:105E6000FD6BFD19D8A429EC32F096EC31F002015B
:105E7000FD6FBCEC32F00201FD19D8A4FCEC31F04E
:105E8000C0EC32F080BC04D00201FD6BFD2B02D0CF
:105E90000201FD6BFD19D8B4120031EC32F0120092
:105EA000E8C3EFF3E9C3F0F3E6C3EDF3E7C3EEF3C2
:105EB00012D0EFC3F6FFF0C3F7FF0800F5CFECF305
:105EC0000301EF4BF02BEDC3D9FFEEC3DAFFECC3B8
:105ED000DFFFED4BEE2B0301EA07D8A0EB07EA2921
:105EE000E8E1EB29D8B41200E4D70301E96FE9C374
:105EF00063FFE6C362FFE7C361FF7F9E7F9CF29E64
:105F00007F84550E7E6EAA0E7E6E7F827FB2FED794
:105F10007F94F28EE6C3FEF10301E951A4EC31F067
:105F20000301E86FE751E819D8A402D0010E12006E
:105F3000000E12005FEC30F00201FF6FFFA10FD0E6
:105F400004EC2AF0E1EC2FF06AEC32F0A0EC32F035
:105F5000A4EC32F08C868C9800016685120004EC6B
:105F60002AF0E1EC2FF070EC32F0A0EC32F0A4EC6F
:105F700032F08C868C880001669512000101FF6F5B
:105F80003C04D8A402D0030E3C6E020E3C18D8A4E8
:105F900002D0040E3C6E0101FF51D8B405D0000EB2
:105FA0008D6F020E8C6F05D002014051180B7AECF8
:105FB0001FF0B9806B84000E01018B6F000E8A6F99
:105FC00012000F01369500019C05D8A4120036502E
:105FD0000201F05DD8B00ED0352A35040101FE6F04
:105FE0000201EE510101FE5DD8A012003606000E3E
:105FF000356E1200000E366E8D98000E00019C6FFB
:10600000649F8C9A8C9C12000F01369500019C05B0
:10601000D8A4120036500201F05DD8B00ED0352A57
:1060200035040101FE6F0201EF510101FE5DD8A0B0
:1060300012003606000E356E1200000E366E8D9878
:10604000000E00019C6F649F8C9A8C9C1200F9ECEE
:1060500032F00009D8B41200E4EC32F00009D8B4F0
:1060600012000001B551D8A41200010EB56F200E28
:106070000301E66F010EE76F020E75EC2FF0000EC4
:1060800076EC32F012000101FE51FF11D8B404D0B9
:10609000FE05FF11D8A403D0010EB46F1200020E4A
:1060A000FE19FF11D8B405D0030EFE19FF11D8A4B4
:1060B00003D0020EB46F1200000EB46F1200000E77
:1060C0000201FE6F000EFD6F80B802D0FD8101D08D
:1060D000FD9196EC31F00009D8B403D00201FD85A2
:1060E00002D00201FD9580BC02D0FD8301D0FD935A
:1060F000FD51120048EC1AF05FEC30F00201FF6F26
:10610000FFA503D00001668103D00001669167916D
:10611000BE51D8B4120096EC31F00009D8A4120098
:10612000000E0001BE6F1200B4AE0AD03D50D8A4DC
:1061300007D0BA92B982B00E7D6E010E3D6E12008C
:10614000B4BE12003D50D8B41200BA92B982800E8B
:106150007D6E000E3D6E1200010E0001996F628D82
:1061600012EC20F085EC29F055EC31F0000E000126
:10617000616F000E626FDBEC30F0000E0101E06F2A
:10618000000E0001996F12000001C205D8A405D0CD
:106190000AEC25F0000E0001C26FC105D8A4120060
:1061A00030EC31F00009D8A412006FEC0AF0000EB8
:1061B0000001C16F12000001B451D8A41200010EF9
:1061C000B46F110E0301E66F000EE76F000E75EC61
:1061D0002FF0100E0301E66F000EE76F000E75EC56
:1061E0002FF012000201FF6FFFC274F00101FF5196
:1061F000D8B41200C751D8A41200010EC76F650EA3
:106200000301E66FFFC2E7F3020E75EC2FF01200F8
:10621000000E07EC32F07F9E7F9C720ED36ED08E04
:10622000F190939A939C939EF28EF28CF290F28668
:10623000000E0101E06F1200030E636E330E626EFA
:106240006BC061FF7F9E7F9CF29E7F84550E7E6EA9
:10625000AA0E7E6E7F827FB2FED77F94F28E1200EE
:10626000000E0101FF6F00016151D8A407D062C088
:10627000FEF13F0E0101FE17D8B403D0010E01015B
:10628000FF6FFF5112000001AA51D8B405D042ECB3
:1062900024F0000E0001AA6FA951D8B412004CECF2
:1062A0001BF0000E0001A96F1200000E0001746FB8
:1062B0000101C651D8A41200010EC66F650E03017C
:1062C000E66F000EE76F020E75EC2FF0120095904E
:1062D0009592959495969598959A959C959E8C8077
:1062E0008C928C948C968C988C9A8C9C8C9E1200A0
:1062F000899270EC32F0A0EC32F0A4EC32F004ECB5
:106300002AF0E1EC2FF08C968C9800016695120033
:1063100030EC31F00009D8B41200000E3C6EFC0ED7
:10632000000165178B90F296B990120084BE0AD0D6
:1063300030EC31F00009D8A405D0000167B302D0D9
:10634000010E1200000E12000201FD6FFDC263FF7C
:10635000FEC162FF7F9E7F9C7F8061CFFEF20201C3
:10636000FE511200000E0101FF6F67C0FEF13F0EEB
:10637000FE17D8B402D0010EFF6FFF511200200E9D
:106380000101FE6F020EA4EC31F00001A46FA4A184
:106390001200F3EC32F01200000E0101FE6F00015A
:1063A00062A903D0010E0101FE6F0101FE5112002E
:1063B000000E0101FE6F000163A103D0010E010177
:1063C000FE6F0101FE511200000E0101FE6F00017F
:1063D00066AF03D0010E0101FE6F0101FE511200F4
:1063E000000E0101FE6FFDEC32F0D0B61200040089
:1063F000010E0101FE6F120096EC31F00009D8B4D5
:1064000003D00001668112000001669112000101B3
:10641000FE6F0101FEB102D0D19001D0D1801200F7
:10642000000E0101B56FB5C1FEF1FF6B43EC30F01A
:10643000120030EC31F00009D8B4120039EC32F01F
:106440001200000E0001996F000E616F000E626F66
:10645000120080B803D00001668512000001669525
:10646000120080BC03D00001668312000001669315
:1064700012008C928C848C968C888C9A8C8C8C9E3E
:106480001200000161A302D0010E1200000E1200E2
:10649000000161AF02D0010E1200000E12000001D7
:1064A00061AD02D0010E1200000E12000001635116
:1064B000060B0101FE6FFE5112008C928C948C969B
:1064C0008C988C9A8C9C12005802580258025802E0
:1064D00058025802010E0001A26FF2866585120073
:1064E000000E0001A26F8D96659512000101FE6FEE
:1064F000FEC1B2F112000101FE6FFEC1B9F112003E
:106500000101FE6FFEC1B8F112000101FE6FFEC174
:10651000B7F11200E70E0001661766871200969227
:1065200096908D928D80120000016451180B12001C
:106530008B8A0001658712008B8800016589120033
:106540008B9A0001659712008B98000165991200E3
:1065500000016251020B120000016251010B120096
:10656000F80E00016317120000016651180B1200AB
:1065700000016651040B120000016651010B12006C
:1065800000016651020B120000016251800B1200E3
:1065900000016451070B1200196E19C0B2F112000C
:1065A000196E19C0B9F11200196E19C0B8F11200B4
:1065B000196E19C0B7F1120000016451070B1200E7
:1065C000196E19C0B6F112000101B2511200010199
:1065D000B95112000101B85112000101B751120066
:1065E0000001658B12000001638112000101B451AA
:1065F0001200455012008490120084801200FF01A6
:1066000002FFFFFFFFFFFFFFFFFFFFFFFFFFFFFF97
:10661000FFFFFFFFFFFFFFFFFFFFFFFFFFFFFFFF8A
:10662000FFFFFFFFFFFFFFFFFFFFFFFFFFFFFFFF7A
:10663000FFFFFFFFFFFFFFFFFFFFFFFFFFFFFFFF6A
:10664000FFFFFFFFFFFFFFFFFFFFFFFFFFFFFFFF5A
:10FBF000FFFFFFFFFFFFFFFFFFFFFFFFFFFF76C2DB
:020000040020DA
:08000000FFFFFFFFFFFFFFFF00
:020000040030CA
:0E0000001408492A008191FF0FC00FE00F4045
:00000001FF
