:10100000FDEF09F0FFFFFFFF4682AAEF24F0FFFF8C
:10101000FFFFFFFFFFFFFFFF4680D8CFD2F0E8CFF2
:10102000D3F0E0CFD4F0FACFD5F0FBCFD6F0E9CFB4
:10103000D7F0EACFD8F0E1CFD9F0E2CFDAF0D9CFCC
:10104000DBF0DACFDCF0F3CFDDF0F4CFDEF0F6CF7B
:10105000DFF0F7CFE0F0F8CFE1F0F5CFE2F046C0F7
:10106000E3F047C0E4F048C0E5F049C0E6F0F2B074
:10107000F2A65BD0000E81B8010E276E2750010149
:10108000C919D8B451D028C010F129C011F12AC013
:1010900012F12BC013F127C0C9F12704D8A428D01E
:1010A0000001A105D8A424D0010186518711D8B42C
:1010B0001ED08DA60ED0844B852B8851845D89511E
:1010C0008559D8A015D08D96000E856F000E846FBF
:1010D0000FD0824B832B8651825D87518359D8A0D4
:1010E00007D08D86000E836F000E826F01D08D8633
:1010F0002704D8A419D0020E3C18D8B48BB003D062
:1011000008EC29F011D03C04D8B404D0030E3C18EC
:10111000D8A403D029EC26F007D03C50D8A404D0A2
:10112000FC0E000165178B90F2909EB09DA00AD036
:10113000010E0001A96F9751D8B403D0010E01012F
:10114000D06F9E90A4BAA3AA02D06DEC2DF0A4B8E3
:10115000A3A802D0D9EC2EF0F0B0F0A60ED0000E6D
:101160000F013B6F3985D8908130070B426EF096A6
:10117000F090F098F092F09AF094F0B2F0A80ED0BF
:10118000000E0F013B6F3985D8908130070B426EFE
:10119000F096F090F098F092F09AF094F0B4F0AAF3
:1011A0000ED0000E0F013B6F3985D8908130070BB0
:1011B000426EF096F090F098F092F09AF094BAB4F3
:1011C000B9A427D00F013995BA94D8908130070B74
:1011D000266E42502618D8A411D0010E0001B96F16
:1011E00026C043F0010EBE6F070E4318D8A411D0DD
:1011F0004150D8B40ED0000EBF6F0BD0F6EC32F0D9
:101200000009D8B406D0F086F090F088F092F08A09
:10121000F094F2B4F2AA08D03C0ED76EAE0ED66EA1
:10122000010E0001C16FF2949EBC9DAC04D0010E72
:101230000001C06F9E9CBAB0B9A022D001018A4BB8
:101240008B2B8C518A5D8D518B59D8A018D0000EF4
:10125000316E000E306E8C928C941B0E196E030E44
:101260001A6E320E1B6E000E1C6E000E1D6E000EEE
:101270001E6E3BEC28F0000E3C6EB9906B94BA9059
:10128000BABCB9AC81D0010E2826000E29222A2230
:101290002B223B50D8B477D0010E01017C27000EE1
:1012A0007D237E237F237F517E1106E1E80E7C5D46
:1012B000030E7D59D8A067D0000E7C6F000E7D6FA5
:1012C000000E7E6F000E7F6F010E2C26000E2D2269
:1012D0002E222F22FF0E2C140001CE6FFF0E2D1494
:1012E000CF6FFF0E2E14D06F000E2F14D16FCE5182
:1012F000CF11D011D111D8A403D0010EEAEC32F0F5
:10130000FF0E2C140001CE6FFF0E2D14CF6F000EB8
:101310002E14D06F000E2F14D16FCE51CF11D011DB
:10132000D111D8A403D0010EEEEC32F02C500009FC
:10133000D8A403D0010EF2EC32F02CC019F02DC06D
:101340001AF02EC01BF02FC01CF0A00E1D6E8C0ECC
:101350001E6E000E1F6E000E206E45EC2CF0195014
:101360001A101B101C10D8A403D0010EE6EC32F0AA
:101370000101C82BC851D8B406D0010EFAEC32F0E6
:10138000000E0101C86FBA9CBAB2B9A20AD03D5092
:10139000D8B402D0010E01D0000E0001A26FB992A4
:1013A000BA92E6C049F0E5C048F0E4C047F0E3C0B7
:1013B00046F0E2C0F5FFE1C0F8FFE0C0F7FFDFC094
:1013C000F6FFDEC0F4FFDDC0F3FFDCC0DAFFDBC0F8
:1013D000D9FFDAC0E2FFD9C0E1FFD8C0EAFFD7C029
:1013E000E9FFD6C0FBFFD5C0FAFFD4C0E0FFD3C0F1
:1013F000E8FFD2C0D8FF46901000BBEF21F0FFFFFE
:1014000000000100000000000000010000000000DA
:10141000002FFF0F19313131313105050F193131ED
:1014200031313105050F194D4D4D4D0108010802AF
:101430000801002FFF0F193E3E3E3E3E05050F19E5
:101440003E3E3E3E3E05050F198D8D8D8D010601F8
:1014500000010401002FFF0F195D50505050050589
:101460000F195D5050505005050F198D8D8D8D0150
:10147000040104010001006F2F0F12403B3B3B3B76
:101480006F2F0F12301B1B1B1BA0600F198D8D8D32
:101490008D010A0201030501009F2F0F125B5252BA
:1014A00052529F2F0F124530303030A0600F198DEF
:1014B0008D8D8D0107010301000100AF2F0F127008
:1014C00064646464AF2F0F126045454545A0600F0A
:1014D000198D8D8D8D01040507010001000042EF7B
:1014E00013F0C3CF8DF0C4CF8EF08DC0EDF38EC05E
:1014F000EEF3000E0301EEBFFF0EEF6FF06FED5144
:101500000101605D0301EE51010161590301EF51D9
:10151000010162596351800A0301F16FF051800AA1
:10152000F159D8A026D00101A44BA52BA5BF26D0E8
:10153000A55104E1140EA45DD8A020D019EC1EF032
:101540000009D8A408D00001C851D8A404D0010EC5
:10155000CC6FE1EC23F0010E0201EC6F010EF8EC10
:1015600030F0000E0201F36F030EF26F12EC23F065
:101570001200000E0101A56F000EA46F8DC0EDF3E7
:101580008EC0EEF3000E0301EEBFFF0EEF6FF06FA3
:1015900001015C510301ED5D01015D510301EE5953
:1015A00001015E510301EF59F051800AF16F010111
:1015B0005F51800A0301F159D8A010D0000E02013A
:1015C000F36F030EF26F12EC23F019EC1EF0010E14
:1015D0000201EC6F020EF8EC30F01200550E000123
:1015E0006019D8A460EF13F08E51786F8DC079F038
:1015F00060EF13F0C3CF8BF0C4CF8CF08BC0EDF352
:101600008CC0EEF3000E0301EEBFFF0EEF6FF06F24
:10161000ED5101014C5D0301EE5101014D590301F2
:10162000EF5101014E594F51800A0301F16FF05102
:10163000800AF159D8A026D00101A24BA32BA3BF49
:1016400026D0A35104E1140EA25DD8A020D019EC3D
:101650001EF00009D8A408D00001C851D8A404D0B5
:10166000010ECB6FE1EC23F0010E0201EC6F030ED3
:10167000F8EC30F0000E0201F36F030EF26F12EC83
:1016800023F01200000E0101A36F000EA26F8BC0A9
:10169000EDF38CC0EEF3000E0301EEBFFF0EEF6F13
:1016A000F06F010148510301ED5D01014951030152
:1016B000EE5901014A510301EF59F051800AF16FCF
:1016C00001014B51800A0301F159D8A010D0000E3E
:1016D0000201F36F030EF26F12EC23F019EC1EF00F
:1016E000010E0201EC6F040EF8EC30F01200550E02
:1016F00000016019D8A460EF13F08C51766F8BC095
:1017000077F060EF13F0C3CFAEF1C4CFAFF10101BA
:10171000AFBF06D0460EAE5D020EAF59D8B00CD0AA
:10172000A04BA12BA1BF0CD0A15105E1140EA05DCF
:10173000D8B0120005D01200000EA16F000EA06FED
:10174000550E00016019D8A460EF13F0AEC175F01A
:1017500060EF13F0C3CFACF1C4CFADF10101ADBF69
:101760002BD0390EAC5D0C0EAD59D8A025D09E4BB8
:101770009F2B9FBF26D09F5104E1140E9E5DD8A0E1
:1017800020D019EC1EF00009D8A408D00001C851DF
:10179000D8A404D0010EC96FE1EC23F0010E0201C0
:1017A000EC6F060EF8EC30F0000E0201F36F030E42
:1017B000F26F12EC23F01200000E01019F6F000E79
:1017C0009E6F550E00016019D8A460EF13F001015F
:1017D000AD510001726FACC173F060EF13F0C3CF75
:1017E00087F0C4CF88F00001896B8A6B000E03017B
:1017F000ED6F050EEE6FD89001019C35D96E9D35C9
:10180000DA6ED890D936DA360301ED51D926EE5189
:10181000DA2287C0DEFF88C0DEFF89C0DEFF8AC013
:10182000DEFF000E0201F46F050EF56F320EF66F4B
:10183000000EF76F000EF86F000EF96F71EC25F0D7
:10184000F4C22CF1F5C22DF1F6C22EF1F7C22FF140
:101850003B50D8B436D23B04D8A419D1000E0301B2
:10186000ED6F060EEE6FD89001019A35D96E9B355B
:10187000DA6ED890D936DA360301ED51D926EE5119
:10188000DA2287C0DEFF88C0DEFF89C0DEFF8AC0A3
:10189000DEFF000E0201F46F060EF56F320EF66FDA
:1018A000000EF76F000EF86F000EF96F71EC25F067
:1018B000F4C228F1F5C229F1F6C22AF1F7C22BF1E0
:1018C000000187510101745D0001885101017559C2
:1018D00000018951010176597751800A0301ED6FAA
:1018E00000018A51800A0301ED59D8B07ED0000171
:1018F00087510101785D000188510101795900018A
:10190000895101017A597B51800A0301ED6F000171
:101910008A51800A0301ED59D8B020D00101C22BB1
:10192000010EC2651ED019EC1EF00009D8A408D023
:101930000001C851D8A404D0010EC66F35EC22F0C6
:10194000010E0201EC6F080EF8EC30F0000E0201FF
:10195000F36F030EF26F12EC23F01200000E010180
:10196000C26F01012851745D295175592A51765968
:101970007751800A0301ED6F01012B51800A0301A9
:10198000ED59D8B073D0000187510101785D000195
:101990008851010179590001895101017A597B511E
:1019A000800A0301ED6F00018A51800A0301ED599D
:1019B000D8A05CD019EC1EF00009D8A408D0000112
:1019C000C851D8A404D0010EC76F35EC22F0010E27
:1019D0000201EC6F070EF8EC30F0000E0201F36F1D
:1019E000030EF26F12EC23F0120000019F513A5CDB
:1019F000D8A03CD001017051285D71512959725114
:101A00002A592B51800A0301ED6F01017351800A9D
:101A10000301ED59D8B027D001012851645D295147
:101A200065592A5166596751800A0301ED6F01011A
:101A30002B51800A0301ED59D8B015D00101C12BFB
:101A40001F0EC16513D0010E0201EC6F090EF8ECF8
:101A500030F0000E0201F36F030EF26F12EC23F070
:101A600019EC1EF01200000E0101C16F01019A4B2A
:101A70009B2B9B5104E1320E9A5DD8A027D1000E1A
:101A80009B6F000E9A6F000EA76F010E1ED1020E03
:101A90003B18D8A41BD1000E0301ED6F070EEE6FAB
:101AA000D89001019835D96E9935DA6ED890D9362B
:101AB000DA360301ED51D926EE51DA2287C0DEFF76
:101AC00088C0DEFF89C0DEFF8AC0DEFF000E020193
:101AD000F46F070EF56F320EF66F000EF76F000E03
:101AE000F86F000EF96F71EC25F0F4C224F1F5C225
:101AF00025F1F6C226F1F7C227F101016851000174
:101B0000875D010169510001885901016A51000195
:101B100089598A51800A0301ED6F01016B51800AD6
:101B20000301ED59D8B07ED001016C510001875DF1
:101B300001016D510001885901016E51000189595F
:101B40008A51800A0301ED6F01016F51800A030180
:101B5000ED59D8B020D00101C02B010EC0651ED0B8
:101B600019EC1EF00009D8A408D00001C851D8A46F
:101B700004D0010EC66F35EC22F0010E0201EC6FAD
:101B8000080EF8EC30F0000E0201F36F030EF26F56
:101B900012EC23F01200000E0101C06F0101685128
:101BA000245D695125596A5126592751800A03013C
:101BB000ED6F01016B51800A0301ED59D8B073D06C
:101BC00001016C510001875D01016D5100018859CF
:101BD00001016E51000189598A51800A0301ED6F9C
:101BE00001016F51800A0301ED59D8A05CD019ECB6
:101BF0001EF00009D8A408D00001C851D8A404D010
:101C0000010EC76F35EC22F0010E0201EC6F070EDA
:101C1000F8EC30F0000E0201F36F030EF26F12ECDD
:101C200023F0120000019D51385CD8A03CD0010186
:101C30007051245D71512559725126592751800ADE
:101C40000301ED6F01017351800A0301ED59D8B012
:101C500027D001012451645D2551655926516659EB
:101C60006751800A0301ED6F01012751800A0301CA
:101C7000ED59D8B015D00101BF2B1F0EBF6513D091
:101C8000010E0201EC6F090EF8EC30F0000E0201BB
:101C9000F36F030EF26F12EC23F019EC1EF012003A
:101CA000000E0101BF6F0101984B992B995104E17E
:101CB000320E985DD8A00AD0000E996F000E986F72
:101CC00005D0000E0101A76F000EA66F01019C4B0D
:101CD0009D2B9D5104E1320E9C5DD8A004D0000ED6
:101CE0009D6F000E9C6F550E00016019D8A460EF27
:101CF00013F02DC170F02CC171F060EF13F0C3CF61
:101D000083F0C4CF84F00001856B866B000E030165
:101D1000ED6F090EEE6FD89001019435D96E9535AF
:101D2000DA6ED890D936DA360301ED51D926EE5164
:101D3000DA2283C0DEFF84C0DEFF85C0DEFF86C0FE
:101D4000DEFF000E0201F46F090EF56F320EF66F22
:101D5000000EF76F000EF86F000EF96F71EC25F0B2
:101D6000F4C21CF1F5C21DF1F6C21EF1F7C21FF15B
:101D700000019B51D8B420D1A451D8B403D0000E97
:101D8000A46F678B37EC31F00009D8A402D08C8A9D
:101D90008C9C000E0301ED6F080EEE6FD8900101D0
:101DA0009635D96E9735DA6ED890D936DA36030182
:101DB000ED51D926EE51DA2283C0DEFF84C0DEFF6A
:101DC00085C0DEFF86C0DEFF000E0201F46F080E44
:101DD000F56F320EF66F000EF76F000EF86F000E03
:101DE000F96F71EC25F0F4C220F1F5C221F1F6C2D1
:101DF00022F1F7C223F1000183510101545D00017A
:101E0000845101015559000185510101565957511D
:101E1000800A0301ED6F00018651800A0301ED592C
:101E2000D8B07ED0000183510101585D000184517A
:101E3000010159590001855101015A595B51800A2C
:101E40000301ED6F00018651800A0301ED59D8B0FE
:101E500020D00101BE2B010EBE651ED019EC1EF074
:101E60000009D8A408D00001C851D8A404D0010E9C
:101E7000C46F35EC22F0010E0201EC6F0B0EF8EC92
:101E800030F0000E0201F36F030EF26F12EC23F03C
:101E90001200000E0101BE6F01012051545D21515D
:101EA0005559225156595751800A0301ED6F0101CE
:101EB0002351800A0301ED59D8B070D0000183513D
:101EC0000101585D000184510101595900018551FA
:101ED00001015A595B51800A0301ED6F00018651DF
:101EE000800A0301ED59D8A059D019EC1EF0000961
:101EF000D8A408D00001C851D8A404D0010EC56FE1
:101F000035EC22F0010E0201EC6F0A0EF8EC30F015
:101F1000000E0201F36F030EF26F12EC23F01200B9
:101F2000010150510001835D0101515100018459AB
:101F300001015251000185598651800A0301ED6F5C
:101F400001015351800A0301ED59D8B027D0000197
:101F50009A51365CD8A022D001015051205D5151D8
:101F60002159525122592351800A0301ED6F010179
:101F70005351800A0301ED59D8B010D0010E02016F
:101F8000EC6F0C0EF8EC30F0000E0201F36F030E54
:101F9000F26F12EC23F019EC1EF012000101964BC7
:101FA000972B975104E1320E965DD8A006D0000E13
:101FB000976F000E966F01D08C9A0101944B952B70
:101FC000955104E1320E945DD8A004D0000E956FB7
:101FD000000E946F550E00016019D8A471D31DC175
:101FE0006CF01CC16DF06CD3C3CF7FF0C4CF80F018
:101FF0000001816B826B000E0301ED6F0A0EEE6F24
:10200000D89001019035D96E9135DA6ED890D936D5
:10201000DA360301ED51D926EE51DA227FC0DEFF18
:1020200080C0DEFF81C0DEFF82C0DEFF000E020145
:10203000F46F0A0EF56F320EF66F000EF76F000E9A
:10204000F86F000EF96F71EC25F0F4C214F1F5C2CF
:1020500015F1F6C216F1F7C217F17BC0EDF37CC0A3
:10206000EEF30301ED1FEE1FED4BEE2B2850ED2597
:10207000F56F2950EE21F66F8BB003D03C04D8A445
:10208000E2D237EC31F00009D8A402D08C828C94D3
:102090001B0E0301ED6F030EEE6FD8900101923518
:1020A000D96E9335DA6ED890D936DA360301ED5110
:1020B000D926EE51DA227FC0DEFF80C0DEFF81C06C
:1020C000DEFF82C0DEFF1B0E0201F46F030EF56F10
:1020D000320EF66F000EF76F000EF86F000EF96FFC
:1020E00071EC25F0F4C218F1F5C219F1F6C21AF13B
:1020F000F7C21BF100017F510101385D00018051E1
:10210000010139590001815101013A593B51800ABD
:102110000301ED6F00018251800A0301ED59D8B02F
:10212000A0D1E80EF55D030EF659D8B08ED07BC075
:10213000EDF37CC0EEF37DC0EFF37EC0F0F3ED1F56
:10214000EE1FEF1FF01FED2B000EEE23EF23F02309
:102150002850ED25F16F2950EE21F26F2A50EF2122
:10216000F36F2B50F021F46FF451F3116EE1E80E90
:10217000F15D030EF259D8B068D0000182BF65D07E
:102180008251811106E1410E7F5D060E8059D8A073
:102190005CD0C00E7F250201ED6FF90E0001802199
:1021A0000201EE6FFF0E000181210201EF6FFF0EB1
:1021B000000182210201F06F000EE96F640EE86FEA
:1021C000F5C3E6F2F6C3E7F204EC2FF00201E6C233
:1021D000F1F2E7C2F2F2F36BF46B56EC2EF002016F
:1021E000ED518427EE518523EF518623F05187234B
:1021F000010140510201845D0101415102018559F3
:1022000001014251020186590101435102018759DE
:10221000D8A051D019EC1EF00009D8A408D00001B4
:10222000C851D8A404D0010EC26F35EC22F0010EC3
:102230000201EC6F0E0EF8EC30F0000E0201F36FAD
:10224000030EF26F12EC23F01200E90E0301F55DAC
:10225000030EF659D8A02FD07BC0EDF37CC0EEF36F
:102260007DC0EFF37EC0F0F3ED1FEE1FEF1FF01FF8
:10227000ED2B000EEE23EF23F0232850ED25F16F18
:102280002950EE21F26F2A50EF21F36F2B50F021ED
:10229000F46FF451F31106E1E90EF15D030EF2590A
:1022A000D8A009D0000E0201846F000E856F000EC9
:1022B000866F000E876F00017F510101445D0001B0
:1022C0008051010145590001815101014659475191
:1022D000800A0301ED6F00018251800A0301ED596C
:1022E000D8B04CD0D10EF55D070EF659D8A046D027
:1022F0007BC0EDF37CC0EEF37DC0EFF37EC0F0F366
:10230000ED1FEE1FEF1FF01FED2B000EEE23EF234E
:10231000F0232850ED25F16F2950EE21F26F2A505D
:10232000EF21F36F2B50F021F46FF451F31106E11C
:10233000D10EF15D070EF259D8A020D00101BD2BBE
:10234000020EBD651ED019EC1EF00009D8A408D0FD
:102350000001C851D8A404D0010EC26F35EC22F0A0
:10236000010E0201EC6F0E0EF8EC30F0000E0201CF
:10237000F36F030EF26F12EC23F01200000E010156
:10238000BD6F01011851385D195139591A513A5927
:102390003B51800A0301ED6F01011B51800A0301CB
:1023A000ED59D8B008D100017F510101445D000111
:1023B00080510101455900018151010146594751A0
:1023C000800A0301ED6F00018251800A0301ED597B
:1023D000D8A0F1D0890EF55D130EF659D8A0EBD038
:1023E0007BC0EDF37CC0EEF37DC0EFF37EC0F0F375
:1023F000ED1FEE1FEF1FF01FED2B000EEE23EF235E
:10240000F0232850ED25F16F2950EE21F26F2A506C
:10241000EF21F36F2B50F021F46FF451F31106E12B
:10242000890EF15D130EF259D8A0C5D019EC1EF03B
:102430000009D8A408D00001C851D8A404D0010EC6
:10244000C36F35EC22F0010E0201EC6F0D0EF8ECBB
:1024500030F0000E0201F36F030EF26F12EC23F066
:1024600012000101345100017F5D0101355100016D
:10247000805901013651000181598251800A0301BE
:10248000ED6F01013751800A0301ED59D8B093D0A7
:10249000D10EF55D070EF659D8A08DD07BC0EDF3B7
:1024A0007CC0EEF37DC0EFF37EC0F0F3ED1FEE1FB6
:1024B000EF1FF01FED2B000EEE23EF23F02328502B
:1024C000ED25F16F2950EE21F26F2A50EF21F36FC5
:1024D0002B50F021F46FF451F31106E1D10EF15DB0
:1024E000070EF259D8A067D00101305100017F5D7D
:1024F000010131510001805901013251000181591E
:102500008251800A0301ED6F01013351800A0301FA
:10251000ED59D8B015D00101BC2B1D0EBC6513D0F0
:10252000010E0201EC6F0F0EF8EC30F0000E02010C
:10253000F36F030EF26F12EC23F019EC1EF0120091
:10254000000E0101BC6F01013451185D355119595C
:1025500036511A591B51800A0301ED6F01013751A1
:10256000800A0301ED59D8B023D000017F51010149
:10257000305D00018051010131590001815101019B
:1025800032593351800A0301ED6F00018251800AF4
:102590000301ED59D8B00CD00001CD2B0F0ECD6545
:1025A0000AD067838C828C84010EEFEC2FF003D06D
:1025B000000E0001CD6F0101924B932B935104E16A
:1025C000320E925DD8A004D0000E936F000E926F71
:1025D000890E0301F55D130EF659D8A03CD07BC0DF
:1025E000EDF37CC0EEF37DC0EFF37EC0F0F3ED1FA2
:1025F000EE1FEF1FF01FED2B000EEE23EF23F02355
:102600002850ED25F16F2950EE21F26F2A50EF216D
:10261000F36F2B50F021F46FF451F31106E1890EA2
:10262000F15D130EF259D8A016D0900E28240001A7
:102630007B6FE80E29207C6FFF0E2A207D6FFF0E36
:102640002B207E6F08D028C07BF029C07CF02AC0E8
:102650007DF02BC07EF00101904B912B915104E154
:10266000320E905DD8A004D0000E916F000E906FD6
:10267000550E00016019D8A423D015C16EF014C105
:102680006FF01ED0C230E8321F0B000AD8B4ACD4B1
:10269000030AD8B483EF0BF0060AD8B471EF0AF03E
:1026A000030AD8B4AAEF0BF0010AD8B4FAEF0AF083
:1026B0000F0AD8B4EFEF0BF0190AD8B47FEF0EF081
:1026C000C2901200978E97849286978297869886FA
:1026D0009280C40E0201806F090E816F000E826F1E
:1026E000000E836F000E7C6F100E7D6F000E7E6FEC
:1026F000000E7F6F880E786F130E796F000E7A6F61
:10270000000E7B6F000E0101286F000E296F000E76
:102710002A6F000E2B6F000E246F000E256F000E27
:10272000266F000E276F000E2C6F000E2D6F000E0F
:102730002E6F000E2F6F000E206F000E216F000E07
:10274000226F000E236F000E1C6F000E1D6F000E17
:102750001E6F000E1F6F000E186F000E196F000E17
:102760001A6F000E1B6F000E146F000E156F000E17
:10277000166F000E176F000EAB6F000EAA6F000EE3
:10278000A96F000EA86F000EA76F000EA66F000EB7
:102790000001CC6F000ECB6F000ECA6F000EC96F28
:1027A000000EC86F000EC76F000E0101F06F000E23
:1027B0000001C66F000EC56F000E0101EF6F000E25
:1027C0000001C46F000EC36F000E0101EE6F000E1A
:1027D0000001C26F000E0101B16F000EB06F000E5C
:1027E00000018E6F000E8D6F000E8C6F000E8B6FD0
:1027F000000E0101AF6F000EAE6F000EAD6F000E48
:10280000AC6F000E0001876F000E886F000E896F9D
:10281000000E8A6F000E836F000E846F000E856FAE
:10282000000E866F000E7F6F000E806F000E816FAE
:10283000000E826F000E0201E96F000EE86FE95191
:102840001FE1320EE85DD8B01BD0000EE66F060E19
:10285000E76FD890E835D96EE935DA6ED890D93679
:10286000DA36E651D926E751DA22FF0EDE6E070E80
:10287000DE6E000EDE6E000EDD6EE84BE92BDFD75C
:10288000000EEB6F000EEA6FEB511FE1320EEA5DB6
:10289000D8B01BD0000EE66F070EE76FD890EA3570
:1028A000D96EEB35DA6ED890D936DA36E651D926BC
:1028B000E751DA22FF0EDE6E070EDE6E000EDE6ED0
:1028C000000EDD6EEA4BEB2BDFD7000EED6F000E36
:1028D000EC6FED511FE1320EEC5DD8B01BD0000E55
:1028E000E66F050EE76FD890EC35D96EED35DA6EF0
:1028F000D890D936DA36E651D926E751DA22FF0EDA
:10290000DE6E070EDE6E000EDE6E000EDD6EEC4B30
:10291000ED2BDFD7000EEF6F000EEE6FEF511FE1D2
:10292000320EEE5DD8B01BD0000EE66F090EE76FD9
:10293000D890EE35D96EEF35DA6ED890D936DA36D2
:10294000E651D926E751DA22000EDE6E080EDE6E61
:10295000000EDE6E000EDD6EEE4BEF2BDFD7000EAD
:10296000F16F000EF06FF1511FE1320EF05DD8B043
:102970001BD0000EE66F080EE76FD890F035D96EC9
:10298000F135DA6ED890D936DA36E651D926E751E4
:10299000DA22000EDE6E080EDE6E000EDE6E000E17
:1029A000DD6EF04BF12BDFD7000EF36F000EF26FF0
:1029B000F3511BE1320EF25DD8B017D01B0EE66F5B
:1029C000030EE76FD890F235D96EF335DA6ED890F2
:1029D000D936DA36E651D926E751DA22DE6ADE6ADE
:1029E000DE6ADD6AF24BF32BE3D7000EF56F000EC3
:1029F000F46FF5511BE1320EF45DD8B017D0000E24
:102A0000E66F0A0EE76FD890F435D96EF535DA6EB9
:102A1000D890D936DA36E651D926E751DA22DE6A7D
:102A2000DE6ADE6ADD6AF44BF52BE3D7000E0101A6
:102A3000A56F000EA46F000EA36F000EA26F000E14
:102A4000A16F000EA06F000E9F6F000E9E6F000E14
:102A50009B6F000E9A6F000E996F000E986F000E1C
:102A60009D6F000E9C6F000E976F000E966F000E0C
:102A7000956F000E946F000E936F000E926F000E14
:102A8000916F000E906F000E0001C16F000EC06FBD
:102A9000E00E0F01256F010E246F030E236FB58E1C
:102AA000B59CB59AB590B592B594B596B588060E15
:102AB000A96E950E2E6F940E2F6F000EC26ECF0E64
:102AC000C116C196C190C192C194A50EC06E000EF0
:102AD000C46E000EC36E9D8C9F9CF294080ED56E42
:102AE000F28AD58EF194120010EC33F0020AD8A4C9
:102AF000FFD0EB0E0101786F090E796F000E7A6F2F
:102B0000000E7B6FD20E746F090E756F000E766F1C
:102B1000000E776F200E706F080E716F000E726FCF
:102B2000000E736FCD0E0201C06F080EC16F000E54
:102B3000C26F000EC36F280EBC6F080EBD6F000E73
:102B4000BE6F000EBF6F000E01016C6F060E6D6F41
:102B5000000E6E6F000E6F6F2D0E686F060E696FA0
:102B6000000E6A6F000E6B6FDF0E646F070E656FED
:102B7000000E666F000E676F330E0201B86F070E0E
:102B8000B96F000EBA6F000EBB6FD70EB46F070E91
:102B9000B56F000EB66F000EB76F000E0101606FCB
:102BA000080E616F000E626F000E636FA60E5C6F01
:102BB0000E0E5D6F000E5E6F000E5F6F230E586F7E
:102BC0000A0E596F000E5A6F000E5B6FEB0E546FBA
:102BD000090E556F000E566F000E576FA90E0201B9
:102BE000B06F090EB16F000EB26F000EB36F200E02
:102BF0000101506F060E516F000E526F000E536FA1
:102C0000720E0201AC6F080EAD6F000EAE6F000EBB
:102C1000AF6F000E01014C6F080E4D6F000E4E6F2E
:102C2000000E4F6FA60E486F0E0E496F000E4A6FD2
:102C3000000E4B6F2B0E0201A46F0B0EA56F000E42
:102C4000A66F000EA76F2B0EA06F0B0EA16F000ECC
:102C5000A26F000EA36FA00E01013C6F860E3D6FA8
:102C6000010E3E6F000E3F6F800E0201A86F380EFE
:102C7000A96F010EAA6F000EAB6F1A0E9C6F0B0EA0
:102C80009D6F000E9E6F000E9F6F1A0E986F0B0EB9
:102C9000996F000E9A6F000E9B6F020E946F0B0ED1
:102CA000956F000E966F000E976F1E0E906F090EB7
:102CB000916F000E926F000E936F1E0E8C6F090EB7
:102CC0008D6F000E8E6F000E8F6F1F0E0101306F23
:102CD000080E316F000E326F000E336F470E020187
:102CE000886F090E896F000E8A6F000E8B6F1200BD
:102CF00010EC33F0E806D8A41200E60E0101786F5C
:102D00000A0E796F000E7A6F000E7B6F230E746FC0
:102D1000090E756F000E766F000E776F0A0E706FDA
:102D2000080E716F000E726F000E736F470E020176
:102D3000C06F090EC16F000EC26F000EC36F280E68
:102D4000BC6F080EBD6F000EBE6F000EBF6F1A0E77
:102D500001016C6F050E6D6F000E6E6F000E6F6FD0
:102D6000DD0E686F060E696F000E6A6F000E6B6FE6
:102D7000F60E646F070E656F000E666F000E676FCC
:102D8000B80E0201B86F060EB96F000EBA6F000ED2
:102D9000BB6FD70EB46F070EB56F000EB66F000E87
:102DA000B76FC70E0101606F010E616F000E626F99
:102DB000000E636FA00E5C6F0F0E5D6F000E5E6FF6
:102DC000000E5F6F190E586F0C0E596F000E5A6F80
:102DD000000E5B6FD10E546F0A0E556F000E566FCA
:102DE000000E576F330E0201B06F0B0EB16F000E65
:102DF000B26F000EB36F0A0E0101506F080E516FD3
:102E0000000E526F000E536F720E0201AC6F080E6F
:102E1000AD6F000EAE6F000EAF6F140E01014C6F60
:102E2000020E4D6F000E4E6F000E4F6FA00E486FDA
:102E30000F0E496F000E4A6F000E4B6FC80E020155
:102E4000A46F090EA56F000EA66F000EA76FA30E4C
:102E5000A06F090EA16F000EA26F000EA36F700E7F
:102E600001013C6F110E3D6F010E3E6F000E3F6F72
:102E7000700E0201A86F110EA96F010EAA6F000E4D
:102E8000AB6F400E9C6F090E9D6F000E9E6F000E83
:102E90009F6F1C0E986F090E996F000E9A6F000EAF
:102EA0009B6F020E946F0C0E956F000E966F000EC6
:102EB000976F200E906F080E916F000E926F000EAC
:102EC000936F000E8C6F080E8D6F000E8E6F000ECC
:102ED0008F6F2A0E0101306F070E316F000E326FB7
:102EE000000E336F470E0201886F090E896F000EC6
:102EF0008A6F000E8B6F12000201F36F0201F35113
:102F0000BBEC20F00001E9510201F319D8B4120022
:102F1000F3C2E9F073D18C9E000EEFEC2FF028C0C5
:102F20007BF029C07CF02AC07DF02BC07EF0000E23
:102F30000201846F000E856F000E866F000E876F92
:102F40001B0EE66F030EE76F320EE86F000EE96F9F
:102F5000000EEA6F000EEB6FF6EC27F01200000E89
:102F60000001E86FA4C244F1A5C245F1A6C246F132
:102F7000A7C247F19CC238F19DC239F19EC23AF115
:102F80009FC23BF190C234F191C235F192C236F149
:102F900093C237F13CC140F13DC141F13EC142F124
:102FA0003FC143F18C8E010E3C6E28C07BF029C0DE
:102FB0007CF02AC07DF02BC07EF01B0E0201E66F74
:102FC000030EE76F320EE86F000EE96F000EEA6F36
:102FD000000EEB6FF6EC27F0000E0201846F000E7E
:102FE000856F000E866F000E876F1200000E846FD3
:102FF000000E856F000E866F000E876F8C9E28C0B6
:103000007BF029C07CF02AC07DF02BC07EF01B0E27
:10301000E66F030EE76F320EE86F000EE96F000EE9
:10302000EA6F000EEB6FF6EC27F0020E3C18D8A406
:103030008B90020E3C6E1200000E0201846F000E97
:10304000856F000E866F000E876F8C9E28C07BF008
:1030500029C07CF02AC07DF02BC07EF01B0EE66FED
:10306000030EE76F320EE86F000EE96F000EEA6F95
:10307000000EEB6FF6EC27F0020E3C18D8A48B90F4
:10308000020E3C6E1200000E0201846F000E856F6E
:10309000000E866F000E876F8C9E28C07BF029C0C3
:1030A0007CF02AC07DF02BC07EF01B0EE66F030E75
:1030B000E76F320EE86F000EE96F000EEA6F000E48
:1030C000EB6FF6EC27F0020E3C18D8A48B90020EA2
:1030D0003C6E1200000E0201846F000E856F000E20
:1030E000866F000E876F8C9E000EEFEC2FF028C0CD
:1030F0007BF029C07CF02AC07DF02BC07EF01B0E37
:103100000201E66F030EE76F320EE86F000EE96F03
:10311000000EEA6F000EEB6FF6EC27F01200000EC7
:103120000201846F000E856F000E866F000E876FA0
:103130008C9E000EEFEC2FF028C07BF029C07CF0B5
:103140002AC07DF02BC07EF01B0E0201E66F030E3D
:10315000E76F320EE86F000EE96F000EEA6F000EA7
:10316000EB6FF6EC27F01200000E0201846F000EE8
:10317000856F000E866F000E876F8C9E000EEFEC41
:103180002FF028C07BF029C07CF02AC07DF02BC036
:103190007EF01B0E0201E66F030EE76F320EE86F42
:1031A000000EE96F000EEA6F000EEB6FF6EC27F0F1
:1031B0001200000E0201846F000E856F000E866FF4
:1031C000000E876F8C9E000EEFEC2FF028C07BF076
:1031D00029C07CF02AC07DF02BC07EF01B0E0201BE
:1031E000E66F030EE76F320EE86F000EE96F000E18
:1031F000EA6F000EEB6FF6EC27F012000201F351BC
:10320000000AD8B467D7010AD8B485D6030AD8B45F
:1032100086D7010AD8B4A3D6070AD8B4E7D6010ADC
:10322000D8B431D7030AD8B407D7010AD8B49CD789
:10323000C0D7000E0301E76F000EE86F000EE96FC4
:10324000000EED6F000EEE6F000EEF6F000EF06FD0
:10325000000EE36F000EE46F000EE56F000EE66FE8
:10326000000EEA6F000EEB6F000EEC6F100E010106
:10327000FF6F000ECEEC31F00301E76F110E01017C
:10328000FF6F000ECEEC31F00301E86F300E01014C
:10329000FF6F000ECEEC31F00301E96F300E01013B
:1032A000FF6F030ECEEC31F00201F66FF651030111
:1032B000ED27000EEE23EF23F023EDC3F7F2EEC36C
:1032C000F8F2EFC3F9F20201F66BF6C2EDF3F7C2C2
:1032D000EEF3F8C2EFF3F9C2F0F3310E0101FF6F24
:1032E000030ECEEC31F00201F66FF6510301ED272B
:1032F000000EEE23EF23F023EDC3F7F2EEC3F8F256
:10330000EFC3F9F20201F66BF6C2EDF3F7C2EEF38A
:10331000F8C2EFF3F9C2F0F3320E0101FF6F030EB2
:10332000CEEC31F00201F66FF6510301ED27000EED
:10333000EE23EF23F023EDC3F7F2EEC3F8F2EFC371
:10334000F9F20201F66BF6C2EDF3F7C2EEF3F8C242
:10335000EFF3F9C2F0F3040EE86F020E03EC2BF06A
:10336000E8C2E3F3E9C2E4F3EAC2E5F3EBC2E6F351
:10337000150E0101FF6F020ECEEC31F00301EA6F72
:10338000100E0101FF6F000ECEEC31F00301EB27B0
:10339000650E0101FF6F020ECEEC31F00301EC6F00
:1033A000E729D8B404D000019251D8B408D0100E47
:1033B0000201E86F000EE96F000EA6EC2FF003018A
:1033C000E829D8B404D000019251D8B408D0110E25
:1033D0000201E86F000EE96F000EA6EC2FF003016A
:1033E000E929D8B404D000019251D8B408D0300EE5
:1033F0000201E86F000EE96F000EA6EC2FF003014A
:10340000EE2906E1EF2904E1F029ED11D8B404D04A
:1034100000019251D8B420D0300E0201E86F000EA6
:10342000E96F030EA6EC2FF0310E0201E86F000EDB
:10343000E96F030EA6EC2FF0320E0201E86F000ECA
:10344000E96F030EA6EC2FF0330E0201E86F000EB9
:10345000E96F030EA6EC2FF00301E32907E1E4294D
:1034600005E1E52903E1E629D8B404D00001925131
:10347000D8B40ED0040E0201EC6F000EED6F000EFA
:10348000EE6F000EEF6F000EF06F020E8DEC29F064
:103490000301EA29D8B404D000019251D8B408D06D
:1034A000150E0201E86F000EE96F020EA6EC2FF078
:1034B0000301EB29D8B404D000019251D8B408D04C
:1034C000200E0201E86F000EE96F020EA6EC2FF04D
:1034D0000301EC29D8B404D000019251D8B41200F1
:1034E000650E0201E86F000EE96F020EA6EC2FF0E8
:1034F000120008C1E6F209C1E7F20201E61FE71F68
:10350000E64BE72B2850E625EE6F2950E721EF6FB9
:10351000EF5104E1FB0EEE5DD8A039D00001B951A6
:10352000D8B435D008C1E6F209C1E7F20AC1E8F221
:103530000BC1E9F20201E61FE71FE81FE91FE62BB6
:10354000000EE723E823E9232850E625EA6F2950F7
:10355000E721EB6F2A50E821EC6F2B50E921ED6F4A
:10356000ED51EC11EB1104E1FB0EEA5DD8A00FD098
:10357000E2EC32F00009D8B40AD0F086F090F0887E
:10358000F092F08AF094000E0001B96F0CD00001A7
:10359000B951D8A408D028C008F129C009F12AC01F
:1035A0000AF12BC00BF104C1E6F205C1E7F20201FA
:1035B000E61FE71FE64BE72B2850E625F06F295062
:1035C000E721F16FB00EF05D040EF159D8A035D0AF
:1035D0000101C451D8A431D004C1E6F205C1E7F21B
:1035E00006C1E8F207C1E9F20201E61FE71FE81F82
:1035F000E91FE62B000EE723E823E9232850E62500
:10360000EA6F2950E721EB6F2A50E821EC6F2B502D
:10361000E921ED6FED51EC1106E1B00EEA5D040E0B
:10362000EB59D8A00AD0010E0101C46FF086F090CA
:10363000F088F092F08AF0943ED0DC0E0201F05D4A
:10364000050EF159D8A02CD04150D8A429D004C1DE
:10365000E6F205C1E7F206C1E8F207C1E9F2E61FAA
:10366000E71FE81FE91FE62B000EE723E823E92305
:103670002850E625EA6F2950E721EB6F2A50E82110
:10368000EC6F2B50E921ED6FED51EC1106E1DC0EF2
:10369000EA5D050EEB59D8A003D0010E416E0BD0A8
:1036A0004150D8B408D028C004F129C005F12AC07F
:1036B00006F12BC007F1E2EC32F0020AD8A410D0D8
:1036C000D8908130070B070AD8B40AD0010E010147
:1036D000C36FF096F090F098F092F09AF094120088
:1036E0000101C351D8B41200000EC36FF086F090F0
:1036F000F088F092F08AF0941200000E0001AB6F97
:10370000000E0201F66F000EF56FF65111E11A0E70
:10371000F55DD8B00DD03C0EF525D96E020EF62120
:10372000DA6EDF500001AB270201F54BF62BEDD727
:103730000001AB5102015619D8B403D0010E0001AB
:10374000AA6F0001AD51D8A408D0AA51D8A405D0C1
:10375000550E02013C19D8B489D0FF0ECF6E000E71
:10376000CE6E000E3E6E000E0001B06F000EAF6F09
:10377000000EAA6F000EAD6F120062C0F4F27F0E51
:103780000201F4173E51800BF4110001626F40C238
:10379000F4F2180E0201F41700016451180B020133
:1037A000F419D8B413D04051180B97EC1FF0000156
:1037B0006451070BBBEC20F064C0F4F2E70E020189
:1037C000F4174051180BF4110001646FE2EC32F071
:1037D000020AD8B406D002014051070B020AD8A44D
:1037E0000FD002014051070B7CEC17F064C0F4F2DB
:1037F000F80E0201F4174051070BF4110001646F39
:10380000000167A30BD0020143AF08D08C928C94C7
:103810000001E9696451070B7CEC17F066C0F4F213
:10382000670E0201F4174251980BF4110001666F04
:1038300067C0F4F23F0E0201F4174351800BF411FC
:103840000001676F67AF02D0000E676F63C0F4F2CC
:10385000E90E0201F4173F51160BF4110001636FDA
:1038600063A902D0E70E63179D8805D00001B2510D
:10387000550AD8B482D70101CC2B0B0ECC19D8A491
:103880001200000E0201F86F000EF76FF85115E1FB
:103890001B0EF75DD8B011D03C0EF725D96E020E85
:1038A000F821DA6E2A0EF725E16E040EF821E26E99
:1038B000DFCFE7FFF74BF82BE9D7020EC8EC2AF071
:1038C000000E0101CC6F12008B928B948D9C8D9415
:1038D0008F908D988B96340E0101FF6FF10EE82EBC
:1038E000FED7FF2FFCD700D09492969C9494969488
:1038F000989096989292969694909496949A94987A
:103900009888969A89928D968B908B9A8B988D9A9F
:103910000AEC33F0000E0001A06F000E3B6E000EAB
:103920009F6F000E3A6E000E9E6F000E396E000EF5
:103930009D6F000E386E000E9C6F000E376E000EED
:103940009B6F000E9A6F000E996F000E356E000E81
:1039500001018B6F000E8A6F000E896F000E886F59
:10396000000E876F000E866F000E0001986F000E2C
:10397000BB6E000E0F014E6F000E496F000EBC6E45
:10398000000E4F6F000E4A6F8B86340E0101FF6FE1
:10399000F10EE82EFED7FF2FFCD700D08D8C8D8442
:1039A0008D883F0EBB16CF0EBB16BB50F00B0C091B
:1039B000BB6E3F0E9C169C989C969C949C929C80FF
:1039C0000F012D912D932D95BE80BE82BE94BE9683
:1039D000BE98BE9ABE9C3F0E4E17CF0E4E174E514C
:1039E000F00B0C094E6F3F0E1B171B991B971B9575
:1039F0001B931B812D972D992D9B5181518351959F
:103A000051975199519B519D3F0E4917CF0E491720
:103A10004951F00B0C09496F3F0E1A171A991A9762
:103A20001A951A931A813F0E2D174C814C834C9591
:103A30004C974C994C9B4C9D9E92780ECA6E9D82E1
:103A4000CA84FA0ECB6E9F82BA927B503F0B40091C
:103A50007B6E7B50CF0B10097B6E7B967B92B9827D
:103A60007B80D292BA907A0E6B6E9C0E6C6EB9907F
:103A70006B94D290F18EF1909388000E606E060EDA
:103A8000A96E1200000E0201EE6F000EEF6F000E25
:103A9000F06F000EF16F000EE96F000EE86F000E80
:103AA000E66F000EE76FC284C296C298C29AC28CBB
:103AB000010E0001A56FC280D1908D0E0F014A6FDB
:103AC000D00E0101FF6FC90EE82EFED7FF2FFCD7E5
:103AD00000D0C2822ED0010E0201EE27000EEF238D
:103AE000F023F1230001C051D8B411D0300EC35CD3
:103AF000080EC458D8A007D0C3280F0EC458D8B099
:103B000002D00201E72BC282000E0001C06F000E3E
:103B10000201EB6F000EEA6FEBBF06D0EB5109E13B
:103B2000020EEA5DD8B005D000F00201EA4BEB2BA3
:103B3000F3D70201F1BFCFD7F151F011EF1104E13A
:103B4000140EEE5DD8A0C7D7000EEE6F000EEF6F1B
:103B5000000EF06F000EF16F000E0F014A6F680E3D
:103B60000101FF6FE40EE82EFED7FF2FFCD700F017
:103B7000C2823AD0010E0201EE27000EEF23F0239D
:103B8000F1230001C051D8B41DD0700EC35C060EE5
:103B9000C458D8B00ED00201E84BE92BE9BF0ED0D3
:103BA000E95104E1030EE85DD8A008D0010EE66FEC
:103BB00005D0000E0201E96F000EE86FC282000E10
:103BC0000001C06F000E0201ED6F000EEC6FEDBF43
:103BD00006D0ED5109E1020EEC5DD8B005D000F041
:103BE0000201EC4BED2BF3D70201F1BFC3D7F1512A
:103BF000F01106E1100EEE5D270EEF59D8A0BAD7EE
:103C0000C292C290000E0001A56F010EA66FD18076
:103C10000400030E0201E76104D0010E0101E06F10
:103C200012000201E651D8A41200010E0001A46F97
:103C30001200000E0301E86F000EE96F000EEA6F3C
:103C4000000EEB6F000EE36F000EE46F000EE56FE9
:103C5000000EE66F000EEC6F000EE76F0001B8512A
:103C6000D8A4BAD0010EB86F040E0201E86F020E9C
:103C700003EC2BF0E8C2E3F3E9C2E4F3EAC2E5F3B4
:103C8000EBC2E6F3150E0101FF6F020ECEEC31F030
:103C90000301EC6FEC2B2CC0E8F32DC0E9F32EC030
:103CA000EAF32FC0EBF3E9EC31F00009D8A433D0EC
:103CB000E3C3F8F2E4C3F9F2E5C3FAF2E6C3FBF2B8
:103CC0000201F81FF91FFA1FFB1FF82B000EF92342
:103CD000FA23FB230301E8510201F825FC6F0301DD
:103CE000E9510201F921FD6F0301EA510201FA21B4
:103CF000FE6F0301EB510201FB21FF6FFF51FE112B
:103D000012E1B00EFC5D040EFD59D8B00CD0020ECD
:103D10000301EC6508D0010E0301E76F010E0001FD
:103D2000C86FE1EC23F0E3C3F8F2E4C3F9F2E5C3B2
:103D3000FAF2E6C3FBF20201F81FF91FFA1FFB1F9C
:103D4000F82B000EF923FA23FB230301E8510201AB
:103D5000F825FC6F0301E9510201F921FD6F030110
:103D6000EA510201FA21FE6F0301EB510201FB212E
:103D7000FF6FFF51FE110AE1B10EFC5D040EFD590B
:103D8000D8B004D0020E0301EC6511D0040E02017C
:103D9000EC6FE8C3EDF2E9C3EEF2EAC3EFF2EBC376
:103DA000F0F2020E8DEC29F0010E0301EC6FE751E9
:103DB000D8B402D0000EEC6F150E0201E86FECC310
:103DC000E9F2020EA6EC2FF0300E0201E86F010EB0
:103DD000E96F000EA6EC2FF00301E7511200000E70
:103DE0000201EC6F000EED6F000EEE6F000EEF6F34
:103DF000000E2C6E000E2D6E000E2E6E000E2F6E1D
:103E0000000E0101B96F000EB86F000EB76F000E03
:103E1000B66F000EBA6FBA9CD29CB98C0F01309568
:103E20000A0E306F000E326F7D0E316F000E0101F1
:103E30007C6F000E7D6F000E7E6F000E7F6F0F0196
:103E40003085300E0101FF6F030ECEEC31F0020120
:103E5000E86FE851EC27000EED23EE23EF23ECC2D0
:103E6000E9F2EDC2EAF2EEC2EBF2E86BE8C2ECF284
:103E7000E9C2EDF2EAC2EEF2EBC2EFF2310E01015D
:103E8000FF6F030ECEEC31F00201E86FE851EC2732
:103E9000000EED23EE23EF23ECC2E9F2EDC2EAF2CD
:103EA000EEC2EBF2E86BE8C2ECF2E9C2EDF2EAC274
:103EB000EEF2EBC2EFF2320E0101FF6F030ECEEC19
:103EC00031F00201E86FE851EC27000EED23EE23FC
:103ED000EF23ECC2E9F2EDC2EAF2EEC2EBF2E86BDC
:103EE000E8C2ECF2E9C2EDF2EAC2EEF2EBC2EFF2A6
:103EF000330E0101FF6F030ECEEC31F00201E86FCB
:103F0000E851EC27000EED23EE23EF23ECC22CF05A
:103F1000EDC22DF0EEC22EF0EFC22FF02FC068F0F0
:103F20002EC069F02DC06AF02CC06BF012000101A8
:103F3000FF6F10EC33F0020AD8B43DD084D0C40E29
:103F40000201E66F020EE76F550EE86F140EE96F7F
:103F5000000EEB6F220EEA6F81EC2FF0F7C18CF1AF
:103F6000F8C18DF11200C40E0201E66F020EE76F78
:103F7000110EE86F140EE96F000EEB6F220EEA6F60
:103F800081EC2FF0F3C18CF1F4C18DF11200C40E5D
:103F90000201E66F020EE76F330EE86F140EE96F51
:103FA000000EEB6F220EEA6F81EC2FF0F5C18CF161
:103FB000F6C18DF112000101FF51000AD8B4E7D714
:103FC000080AD8B4D0D7180AD8B4B9D7E0D7C40EE5
:103FD0000201E66F020EE76FBB0EE86F140EE96F89
:103FE000000EEB6F220EEA6F81EC2FF0FDC18CF119
:103FF000FEC18DF11200C40E0201E66F020EE76FE2
:10400000770EE86F140EE96F000EEB6F220EEA6F69
:1040100081EC2FF0F9C18CF1FAC18DF11200C40EC0
:104020000201E66F020EE76F990EE86F140EE96F5A
:10403000000EEB6F220EEA6F81EC2FF0FBC18CF1CA
:10404000FCC18DF112000101FF51000AD8B4E7D77D
:10405000080AD8B4D0D7180AD8B4B9D7E0D737EC03
:1040600031F00009D8B408D0C0EC31F00009D8A470
:1040700003D0AAEC2CF01200E2EC32F00009D8B424
:104080001ED0070E4318D8A41AD0C0EC31F0000996
:10409000D8A415D00001BF51D8A44AD04150D8B4FB
:1040A00047D0F096F090F098F092F09AF094000ECD
:1040B0000201E76F000EE66FCDEC26F039D0E2EC9E
:1040C00032F00009D8A404D0070E4318D8A430D089
:1040D0000001BD51D8B402D067812AD001EC32F082
:1040E0000009D8A418D0C0EC31F00009D8A413D02E
:1040F000000166AD02D0669D07D0E2EC32F04318B5
:10410000D8A402D00001668D00016451F80B431061
:10411000646F8D820DD0020E4318D8A409D0E2EC52
:1041200032F0020AD8A404D0E70E000163176387B7
:1041300037EC31F00009D8A405D000016451070B19
:104140007CEC17F00001BC51D8A402D0010E01D0C4
:10415000000EBC6FBB51D8A402D0010E01D0000EDE
:10416000BB6FBA51D8A402D0010E01D0000EBA6FB5
:10417000000E436E12000101FF6F67D0D1C29DF0A7
:10418000C8C29FF0DAC29AF0DEC288F1896BDFC242
:1041900086F1876B1200D2C29DF0C9C29FF0DBC2CC
:1041A0009AF0E0C288F1896BE1C286F1876B120058
:1041B000D3C29DF0CAC29FF0DCC29AF0E2C288F17D
:1041C000896BE3C286F1876B1200D4C29DF0CBC22B
:1041D0009FF0DDC29AF0000E896F000E886F000E0E
:1041E000876F000E866F1200D5C29DF0CCC29FF083
:1041F000000E00019A6FE4C288F10101896BE5C2EB
:1042000086F1876B1200000E00019D6F000E9F6FFC
:10421000000E9A6F000E0101896F000E886F000E6C
:10422000876F000E866F1200000E00019D6F000E5A
:104230009F6F000E9A6F000E0101896F000E886F4C
:10424000000E876F000E866F12000101FF51000AF9
:10425000D8B4D9D7010AD8B491D7030AD8B4120078
:10426000010AD8B498D7070AD8B4A2D7010AD8B49B
:10427000BBD7030AD8B4A9D7010AD8B41200D4D73F
:104280000001A951D8B409D0010E936F550E606F8B
:1042900046EC24F0000E0001A96FA851D8B40FD04D
:1042A000000E936F28C00CF129C00DF12AC00EF149
:1042B0002BC00FF17DEC1BF0000E0001A86F0CC1AC
:1042C000E3F30DC1E4F30301E31FE41FE34BE42B2D
:1042D0002850E3250201F96F29500301E42102016E
:1042E000FA6FFA5104E1FA0EF95DD8A03CD00CC186
:1042F000E3F30DC1E4F30EC1E5F30FC1E6F30301EF
:10430000E31FE41FE51FE61FE32B000EE423E52374
:10431000E6232850E325E76F2950E421E86F2A506F
:10432000E521E96F2B50E621EA6FEA51E911E81126
:1043300004E1FA0EE75DD8A016D000019351D8B47D
:1043400012D00101C52B030EC56504D0010E00017A
:10435000A76F120028C00CF129C00DF12AC00EF180
:104360002BC00FF1120000019351D8A41200000ECF
:104370000101C56F1200F40EF66E640EF76E000EAA
:10438000F86E01EEF3F010EE0CF00900F5CFEEFF41
:10439000E550E150FAE1320EF66E660EF76E000E51
:1043A000F86E0900F5CFE7F00900F5CFE8F0090055
:1043B000F5CFE9F0350EF66E660EF76E000EF86E6C
:1043C0000900F5CF44F00900F5CF45F00AEE00F002
:1043D000C80EEE6AE806FDE109EE00F0C80EEE6ACE
:1043E000E806FDE108EE00F0C80EEE6AE806FDE121
:1043F00007EE00F0C80EEE6AE806FDE106EE00F0FA
:10440000C80EEE6AE806FDE105EE00F0C80EEE6AA1
:10441000E806FDE104EE00F0480EEE6AE806FDE174
:1044200003EE00F0E30EEE6AE806FDE102EE00F0B6
:10443000E60EEE6AE806FDE101EE00F0F30EEE6A2C
:10444000E806FDE100EE60F06E0EEE6AE806FDE1C2
:1044500000EE28F01C0EEE6AE806FDE1469046925A
:10446000000EF86E0001A8EF2BF00001B751D8A4A0
:104470001200010EB76F000E0201F76F000EF66F0B
:104480000001C751D8B409D00201F783000EF36FC1
:10449000010EF26F12EC23F002D00201F79300013B
:1044A000C651D8B409D00201F789000EF36F010E8E
:1044B000F26F12EC23F002D00201F7990001C4510F
:1044C000D8B409D00201F787000EF36F010EF26F26
:1044D00012EC23F002D00201F7970001C551D8B4C5
:1044E00009D00201F781000EF36F010EF26F12EC9A
:1044F00023F002D00201F7910001C251D8B409D0D3
:104500000201F78B000EF36F030EF26F12EC23F033
:1045100002D00201F79B0001C351D8B409D00201B7
:10452000F785000EF36F030EF26F12EC23F00CD040
:104530000201F79509D0110EE86FF7C2E9F2000EFB
:10454000A6EC2FF00201F66F0201F651D8A412007A
:10455000F2D700C1E6F201C1E7F20201E61FE71F50
:10456000E64BE72B2850E625EE6F2950E721EF6F49
:1045700000C1E6F201C1E7F202C1E8F203C1E9F2CB
:10458000E61FE71FE81FE91FE62B000EE723E823DD
:10459000E9232850E625EA6F2950E721EB6F2A50DE
:1045A000E821EC6F2B50E921ED6FED51EC1106E1A4
:1045B000B00EEA5D040EEB59D8A00DD0B00EEE5D42
:1045C000040EEF59D8A007D00001E851D8A403D0B9
:1045D000010EE86F0CD00001E851D8B408D028C013
:1045E00000F129C001F12AC002F12BC003F1E8510A
:1045F000D8B41200B4AE0AD03D50D8A407D0BA92B5
:10460000B982900E7D6E010E3D6E1200B4BE120096
:104610003D50D8B41200BA92B982A80E7D6E000E39
:104620003D6E120037EC31F00009D8B41200010ED3
:104630000001986F48D0010EEFEC2FF0000E3A6E9B
:10464000000E386E000E3B6E000E366E000E00013E
:104650009B6F8D9889828D968B9A8B989F0E64178D
:10466000649F12008B928B948F9089828D96010E9D
:10467000EFEC2FF08B9A8B988D9A000EBC6E000E8B
:104680000F014F6F000E4A6F12008BEC2AF036ECD0
:1046900030F086EC32F0010EEFEC2FF012004EEC11
:1046A0002AF013EC30F086EC32F0010EEFEC2FF034
:1046B00012004EEC2AF013EC30F086EC32F0010ED2
:1046C000EFEC2FF01200F2C2F4F2F3C2F5F20201A5
:1046D000F551000AD8A4EDD7F451000AD8B4DFD7B9
:1046E000010AD8B4D2D7030AD8B4BCD7010AD8B4C7
:1046F000A2D7DFD7000E0201EF6FEDAF0AD0ED1F9A
:10470000EC1FEB1FEA6D000EEB23EC23ED23010EF3
:10471000EF6FE9AF0AD0E91FE81FE71FE66D000E53
:10472000E723E823E923010EEF1B000EF06F000ED4
:10473000F16F000EF26F000EF36FEA51EB11EC1106
:10474000ED11D8B42AD0010EEE6F06D0D890EA371A
:10475000EB37EC37ED37EE2BEDAFF8D7D890F037DD
:10476000F137F237F337EA51E65DEB51E759EC5197
:10477000E859ED51E959D8A009D0EA51E65FEB516B
:10478000E75BEC51E85BED51E95BF081D890ED33EC
:10479000EC33EB33EA33EE2FE1D7EF51D8B408D046
:1047A000F31FF21FF11FF06D000EF123F223F3232C
:1047B000F0C2E6F2F1C2E7F2F2C2E8F2F3C2E9F2C5
:1047C00012000001B651D8A41200010EB66F000EFF
:1047D0000201F76F000EF66F0001CC51D8B409D07A
:1047E0000201F781000EF36F000EF26F12EC23F05E
:1047F00002D00201F7910001CB51D8B409D00201D7
:10480000F783000EF36F000EF26F12EC23F002D06C
:104810000201F7930001CA51D8B409D00201F7850B
:10482000000EF36F000EF26F12EC23F002D00201C3
:10483000F7950001C951D8B409D00201F787000EDD
:10484000F36F000EF26F12EC23F002D00201F79723
:104850000001C851D8B409D00201F789000EF36FE6
:10486000000EF26F12EC23F00CD00201F79909D080
:10487000100EE86FF7C2E9F2000EA6EC2FF002016D
:10488000F66F0201F651D8A41200F2D7000E3F6E67
:10489000000E0001B16F000E406E000EAC6F550EA1
:1048A000B219D8B458EC2FF0000E0201EC6F000ED4
:1048B000EB6FEC5121E11CD0600EEB25D96E000EA0
:1048C000EC21DA6E000EEB25E16E030EEC21E26EB8
:1048D000DFCFE7FF600EEB25D96E000EEC21DA6E1C
:1048E000DF500001AC270201EB4BEC2BEC5104E153
:1048F0001A0EEB5DD8A0E0D7ACC07AF0ACC01AF3CA
:104900009D880101CB2B0B0ECB19D8A41200000EF1
:104910000201EA6F000EE96FEA5115E11B0EE95D35
:10492000D8B011D0000EE925D96E030EEA21DA6E57
:104930002A0EE925E16E040EEA21E26EDFCFE7FFE1
:10494000E94BEA2BE9D7010EC8EC2AF0000E010171
:10495000CB6F1200FACF07F0FBCF08F0E9CF09F0D8
:10496000EACF0AF0E1CF0BF0E2CF0CF0D9CF0DF097
:10497000DACF0EF0F3CF0FF0F4CF10F0F6CF11F046
:10498000F7CF12F0F8CF13F0F5CF14F046C015F0C2
:1049900047C016F048C017F049C018F09EBA9DAA4B
:1049A00002D0CBEC2DF09EB89DA802D02EEC2FF0BB
:1049B0009EB29DA20DD00001A551D8A408D03AC046
:1049C000BCFF38C04FFF36C04AFF010EA06F9E9259
:1049D00018C049F017C048F016C047F015C046F09F
:1049E00014C0F5FF13C0F8FF12C0F7FF11C0F6FFA7
:1049F00010C0F4FF0FC0F3FF0EC0DAFF0DC0D9FFE7
:104A00000CC0E2FF0BC0E1FF0AC0EAFF09C0E9FFEA
:104A100008C0FBFF07C0FAFF4692110042D0C284D3
:104A200004D0C284C29602D0C294C286C28803D087
:104A3000C284C286C298C29AC29C17D0B0C1E6F2A4
:104A4000B1C1E7F20201E751000AD8A4F1D7E6515B
:104A5000000AD8B4EDD7010AD8B4E6D7030AD8B40F
:104A6000E0D7010AD8B4DBD7E3D70101B04BB12BB3
:104A7000030EB015B06FB16B30D0C294C2960DD09A
:104A8000C284C296C298C29AC28C27D0C294C296DF
:104A9000C298C29A04D0C284C286C298C28AC29CFA
:104AA0001CD0C230E8321F0B000AD8B4F4D7030A76
:104AB000D8B4E3D7060AD8B4E0D7030AD8B4DDD710
:104AC000010AD8B4DAD70F0AD8B4DAD7030AD8B4AF
:104AD000B5D71A0AD8B4DAD7DED7C2A0C280C2824C
:104AE0001200000E0301E36F000EE46F000EE56F8D
:104AF000000EE66F000EE86F000EE76F000EE86F25
:104B0000000EE76F19D0D8900301E735D96EE8356C
:104B1000DA6ED890D936DA360201F451D926F55139
:104B2000DA22DE500301E327DE50E423DE50E523E2
:104B3000DD50E623E74BE82BE7510201FA6F030152
:104B4000E8510201FB6FFC6BFD6BF651FA5DF7510A
:104B5000FB59F851FC59FD51800AFE6FF951800A4A
:104B6000FE59D8A0D0D7E3C3E6F2E4C3E7F2E5C329
:104B7000E8F2E6C3E9F2F6C2EAF2F7C2EBF2F8C2F3
:104B8000ECF2F9C2EDF27AEC23F0E6C2F4F2E7C2FD
:104B9000F5F2E8C2F6F2E9C2F7F2120024EC32F0C4
:104BA0000FEC31F019EC19F012EC2CF00DEC2DF0AB
:104BB000A5EC32F03EEC2DF081EC31F062EC13F01C
:104BC00074EC15F082EC2EF064EC1CF0000E97EC07
:104BD0001FF086EC32F08C96000E0201FD6F000E85
:104BE000FC6FFD510FE11B0EFC5DD8B00BD0600EC9
:104BF000FC25D96E000EFD21DA6E000EDF6EFC4B37
:104C0000FD2BEFD7550E0001606F550EB26F010EF0
:104C10002EEC32F00DEC32F0EFEC1EF0DCEC31F06B
:104C200066EC27F0000E0201E76F070EE66FCDEC91
:104C300026F037EC31F00009D8B403D05DEC31F048
:104C400004D0CAEC32F01AEC27F0000E0001BE6F5F
:104C50001200030E3C18D8B402D0B9906B943050B7
:104C60003110D8A405D08B80000E316E010E23D0F8
:104C700030043110D8A40CD00001A251D8B408D00F
:104C80008B80000E316E020E306E000EA26F14D0BB
:104C9000020E30183110D8A405D08B90000E316E62
:104CA000030E09D0030E30183110D8A405D08B9014
:104CB000000E316E000E306E4450196E1A6A30507C
:104CC000191809E131501A18D8B48BB004D0000E6D
:104CD000316E000E0DD04450196E1A6A30501918FA
:104CE00008E131501A18D8A404D0000E316E010E1C
:104CF000306E30C044F0000165936581120095EC80
:104D000030F00201E96FE9A539D0E9A30DD072ECCA
:104D10002BF013EC30F086EC32F0B6EC32F0BAEC5B
:104D200032F08C968C981200E9A119D0AAEC32F0DE
:104D3000080AD8A405D0B6EC32F0B2EC32F004D0B8
:104D4000AEEC32F0BAEC32F03BEC2BF0DDEC2BF0B9
:104D500080EC32F08C868C980001668512003BEC6A
:104D60002BF0DDEC2BF086EC32F0B6EC32F0BAEC46
:104D700032F08C868C880001669512004EEC2AF089
:104D800013EC30F086EC32F0B6EC32F0BAEC32F0E4
:104D90008C968C980001669512002BD0F80E0001BD
:104DA00064171200F80E0001641764811200F80EF7
:104DB0000001641764831200F80E00016417030EEB
:104DC00064131200F80E0001641764851200F80ED7
:104DD00000016417050E64131200F80E0001641739
:104DE000060E64131200F80E00016417070E641318
:104DF0001200E6C2E8F2E7C2E9F20201E951000A54
:104E0000D8A4F1D7E851000AD8B4C8D7010AD8B459
:104E1000C9D7030AD8B4CBD7010AD8B4CDD7070A6B
:104E2000D8B4D0D7010AD8B4D2D7030AD8B4D5D7CA
:104E3000010AD9D73CD0040040EC21F0070E4318FA
:104E4000D8A416D00001BF51D8A412D04150D8B474
:104E50000FD0F096F090F098F092F09AF094000E47
:104E60000201E76F000EE66FCDEC26F0000E436EF8
:104E70006CEC32F0020AD8A40DD0200E0201E86FCB
:104E8000000EE96F020EA6EC2FF0C6EC32F0010E18
:104E90000001B56F6CEC32F0040AD8A405D0C6EC62
:104EA00032F0010E0001B56F000E0001BE6FF5EC8F
:104EB00031F00009D8B412006CEC32F00009D8A42B
:104EC00012000001B551D8A41200B5D7000E02019E
:104ED000F36F000EF26F12EC23F08B90FC0E0001CA
:104EE0006517B9906B94100E0101FF6F000ECEECA8
:104EF00031F00201F76F110E0101FF6F000ECEECD1
:104F000031F00201F86F650E0101FF6F020ECEEC69
:104F100031F00201F66F000EEC6FF651F8EC30F054
:104F20000201F7A51200C280C284C286C298C29A4A
:104F3000C29CC3CFAEF1C4CFAFF10101AFBF06D069
:104F4000060EAE5D040EAF59D8B004D0010E0001BC
:104F5000CA6F1200000E0101A16F000EA06F1200B7
:104F600037EC31F00009D8B42BD0010E0001986F56
:104F70005EEC32F00009D8A40AD057EC32F00009F8
:104F8000D8A405D065EC32F00009D8B407D0000EE3
:104F90000201F36F010EF26F12EC23F0BEEC32F05F
:104FA0000009D8A405D0C2EC32F00009D8B40BD067
:104FB000000E0201F36F030EF26F12EC23F003D028
:104FC000000E0001986F00019851D8A403D029EC7D
:104FD0002EF0120000019851D8B41200000E020108
:104FE000F36F000EF26F12EC23F01200000E0101BD
:104FF000936F000E926F000E0001CD6F000E020144
:10500000846F000E856F000E866F000E876F000E96
:10501000F26F000EF16F000EF26F000EF16F16D0FE
:105020001B0EEC6F030EED6FD890F135D96EF23593
:10503000DA6ED890D936DA36EC51D926ED51DA222B
:10504000DE6ADE6ADE6ADD6AF14BF22BF151EC6F4B
:10505000F251ED6FEE6BEF6BE851EC5DE951ED59FC
:10506000EA51EE59EF51800AF06FEB51800AF05986
:10507000D8B01200D5D7000E0101936F000E926FC9
:10508000000E0001CD6F000E0201846F000E856FCF
:10509000000E866F000E876F000E256E000E246EC8
:1050A000000E256E000E246E16D01B0E1F6E030E12
:1050B000206ED8902434D96E2534DA6ED890D93643
:1050C000DA361F50D9262050DA22DE6ADE6ADE6A1E
:1050D000DD6A244A252A24501F6E2550206E216A3D
:1050E000226A1B501F5C1C5020581D502158225012
:1050F000800A236E1E50800A2358D8B01200D5D7DC
:1051000095EC30F00201E96FE9A52FD0E9A30DD0AD
:1051100072EC2BF013EC30F086EC32F0B6EC32F09F
:10512000BAEC32F08C968C981200E9A10FD03BECCF
:105130002BF0DDEC2BF080EC32F0B6EC32F0B2EC80
:1051400032F08C868C980001668512003BEC2BF0C7
:10515000DDEC2BF086EC32F0B6EC32F0BAEC32F04B
:105160008C868C880001669512004EEC2AF013ECB8
:1051700030F086EC32F0B6EC32F0BAEC32F08C96CD
:105180008C9800016695120095EC30F00201E96FF1
:10519000E9A52FD0E9A30DD072EC2BF013EC30F081
:1051A00086EC32F0B6EC32F0BAEC32F08C968C9899
:1051B0001200E9A10FD03BEC2BF0DDEC2BF080ECE2
:1051C00032F0AEEC32F0B2EC32F08C868C9800010A
:1051D000668512003BEC2BF0DDEC2BF086EC32F018
:1051E000B6EC32F0BAEC32F08C868C880001669511
:1051F00012004EEC2AF013EC30F086EC32F0B6ECF4
:1052000032F0BAEC32F08C968C9800016695120060
:10521000000E316E000E306E1B0E196E030E1A6EEC
:10522000320E1B6E000E1C6E000E1D6E000E1E6EEA
:105230003BEC28F0000E0201846F000E856F000E1B
:10524000866F000E876FA0C244F1A1C245F1A2C2D1
:1052500046F1A3C247F198C238F199C239F19AC216
:105260003AF19BC23BF18CC234F18DC235F18EC252
:1052700036F18FC237F1A8C240F1A9C241F1AAC2EA
:1052800042F1ABC243F1B9906B948B80DE0E00010A
:105290006517658312000001E705D8A40CD0010E44
:1052A0000201E76FE2EC32F00009D8B402D004004A
:1052B000120004001200020E0001E719D8A429D040
:1052C000020E0201E76FE2EC32F00009D8B404D01C
:1052D0000001A751D8B41BD00400A0EC32F0CEECF2
:1052E00032F0180AD8B40ED00001A751D8A40AD0C1
:1052F000E2EC32F00009D8A4120037EC31F00009DA
:10530000D8B4120023EC31F015EC33F0FFD70400D1
:105310001200000E0201E76F12000201F56FEDC2EC
:10532000F1F2EEC2EDF2EFC2EEF2F0C2EFF20201E4
:10533000F06BEDC2F2F2EEC2EDF2EFC2EEF2F0C2AD
:10534000EFF2F06BEDC2F3F2EEC2EDF2EFC2EEF26D
:10535000F0C2EFF2F06BEDC2F4F2ECC2E8F2F1C28F
:10536000E9F2F551A6EC2FF00201EC29E86FF2C248
:10537000E9F2F551A6EC2FF00201EC51020FE86FB3
:10538000F3C2E9F2F551A6EC2FF00201EC51030F44
:10539000E86FF4C2E9F2F551A6EC2FF0120030D01C
:1053A0004BEC29F04FEC32F040EC21F0070E4318A3
:1053B000D8A423D061C0FBF20F0E0201FB17D8A4C2
:1053C00006D062C0FBF20F0EFB17D8B416D0000156
:1053D000BF51D8A412D04150D8B40FD0F096F0905D
:1053E000F098F092F09AF094000E0201E76F000E30
:1053F000E66FCDEC26F0000E436E000E0001BE6F8E
:10540000DEEC32F00009D8B4CBD7300E0201E86FE1
:10541000000EE96F000EA6EC2FF073EC32F01200D4
:1054200013EC33F00009D8B412002FC068F02EC07E
:1054300069F02DC06AF02CC06BF001EC33F000096C
:10544000D8B40BD0300E0201E86F68C0E9F2030E49
:10545000A6EC2FF0000E91EC32F004EC33F00009D2
:10546000D8B40BD0310E0201E86F69C0E9F2030E27
:10547000A6EC2FF0000E96EC32F007EC33F00009AA
:10548000D8B41200320E0201E86F6AC0E9F2030ECE
:10549000A6EC2FF0000E9BEC32F012003B04D8A4D7
:1054A0001BD03A500201C75DD8B00ED0392A39045A
:1054B0000101FF6F0201C5510101FF5DD8A012007B
:1054C0003A06000E396E1200000E3A6E000E3B6E68
:1054D0009F0E000164171200020E3B18D8A41200A0
:1054E0000201D051385CD8A00ED0372A3704010110
:1054F000FF6F0201CE510101FF5DD8A012003806F6
:10550000000E376E1200000E386E000E3B6E9F0EBE
:105510000001641712003B04D8A41BD03A500201CA
:10552000C75DD8B00ED0392A39040101FF6F0201DE
:10553000C6510101FF5DD8A012003A06000E396E77
:105540001200000E3A6E000E3B6E9F0E00016417B3
:105550001200020E3B18D8A4120038500201D05D90
:10556000D8B00ED0372A37040101FF6F0201CF51A6
:105570000101FF5DD8A012003806000E376E120040
:10558000000E386E000E3B6E9F0E00016417120075
:105590000201E66F000E0001966F000E0101DC6F44
:1055A000000E346E000E326E000E0201E86F000E27
:1055B000E76FE85115E11C0EE75DD8B011D02A0E57
:1055C000E725D96E040EE821DA6E1E0EE725E16E9E
:1055D000020EE821E26EDFCFE7FFE74BE82BE9D7C9
:1055E000E605D8A404D0CEC139F2CDC13AF2020EFC
:1055F000E619D8A404D040C439F241C43AF2E6C254
:105600003BF2A38812000201F46FE8C2FFF102012D
:10561000F451CEEC31F00201F06FE8290101FF6F87
:105620000201F451CEEC31F00201F16FE851020FAA
:105630000101FF6F0201F451CEEC31F00201F26F73
:10564000E851030F0101FF6F0201F451CEEC31F07C
:105650000201F36FF0C2ECF2F1C2EDF2F2C2EEF22F
:10566000F3C2EFF2ECC2E8F2EDC2E9F2EEC2EAF206
:10567000EFC2EBF21200020E3B18D8A403D04EEC9E
:105680002AF01200940E0F012F6F3B50D8A408D0BF
:10569000C7C23AF0010E3B6E0001649D648B12009C
:1056A00000019F513A5CD8B00DD09E2B9E0502019F
:1056B000E66FC451E65DD8A012003A2A000E000140
:1056C0009E6F12003A509F5DD8B01200392A3904FB
:1056D0000201E66FC551E65DD8A012003A06000E41
:1056E000396E12003B04D8A403D04EEC2AF012000D
:1056F000B40E0F012F6F3B50D8A408D0D0C238F0A1
:10570000020E3B6E0001649B648D120000019D51EE
:10571000385CD8B00DD09C2B9C050201E66FCD51B2
:10572000E65DD8A01200382A000E00019C6F12001E
:1057300038509D5DD8B01200372A37040201E66F59
:10574000CE51E65DD8A012003806000E376E12006A
:10575000CEEC25F010EC33F00009D8B424D04BEC9B
:1057600029F010EC2AF079EC30F0B0EC30F0B0EC2D
:1057700027F078EC2CF040EC21F0CAEC30F037EC5C
:1057800032F0DCEC2CF0A9EC22F0B2EC31F00001AC
:10579000A651D8A4E4D7E2EC32F00009D8B4DFD7A0
:1057A00042EC1DF0DCD7000E0201F36F000EF26F29
:1057B00012EC23F04BEC31F0FDD70F0136853B04A2
:1057C000D8A42DD000019B51D8A408D0D9C236F05E
:1057D000010E9B6F8F908D88648F12009A51365CFA
:1057E000D8B00DD0992B99050201E66FD651E65D30
:1057F000D8A01200362A000E0001996F1200365010
:105800009A5DD8B01200352A35040201E66FD751EF
:10581000E65DD8A012003606000E356E120013ECBD
:1058200030F01200949C948E9798979A8E888E9A56
:10583000000E0001A86F9D9A9D989F8A9F88080E70
:10584000656E670EAF6E000ED46ED00EAB6E640E3A
:10585000AC6E000EB16F000E406E1B0E3F6E000E60
:105860003E6E000EB06F000EAF6F9D8A000E0101FC
:105870008F6F000E8E6F9E90300ECD6E9D80CD800E
:105880009F90550E0001B26F12001D501E101F1088
:105890002010D8B424D0010E216E06D0D8901D3629
:1058A0001E361F362036212A20AEF8D71D50195C2F
:1058B0001E501A581F501B5820501C58D8A008D0F2
:1058C0001D50195E1E501A5A1F501B5A20501C5A48
:1058D000D89020321F321E321D32212EE7D719C038
:1058E00019F01AC01AF01BC01BF01CC01CF01200EB
:1058F0000001BE51D8A403D09851D8B41200C0EC16
:1059000031F00009D8B413D037EC31F00009D8A435
:105910000ED00001BE51D8B40AD06781340E020106
:10592000F46FF10EE82EFED7F42FFCD700D0000163
:10593000BE05D8B405D037EC31F00009D8A406D0A4
:10594000A2EC31F00009D8B42FEC20F0000E0001D9
:10595000BE6F120061C0FFF10F0E0101FF17D8A446
:1059600006D062C0FFF10F0EFF17D8B41200CE2B85
:10597000E2EC32F00009D8B41CD0070E4318D8A4CA
:1059800018D00001BF51D8A412004150D8B4120061
:10599000F096F090F098F092F09AF094000E0201D8
:1059A000E76F000EE66FCDEC26F0010E0001986F58
:1059B0001200E2EC32F0120001011051000828241C
:1059C000FF6F100EFF65120010C1E6F211C1E7F281
:1059D00012C1E8F213C1E9F20201E61FE71FE81F56
:1059E000E91FE62B000EE723E823E9232850E625EC
:1059F000EA6F2950E721EB6F2A50E821EC6F2B501A
:105A0000E921ED6FED51EC11EB1104E1110EEA5DAE
:105A1000D8A0120023EC31F01200988498928F8461
:105A20008F92000E0101CF6FA39AA398A59AA59813
:105A3000080E0F01206F220E1E6F000E1F6FD00E7A
:105A4000226F640E216F000E0101DC6F000E346EB8
:105A50001E0E0001966F000E336E000E0101DB6F0B
:105A6000000EDA6FA38A000E816F000E806F000EA9
:105A70000001976F550E0201576F120093829384B5
:105A80009386928C968E9288F18AF188F186F090B6
:105A9000F092F094F096F098F09AF09CF09EF192CB
:105AA0000F0139873989398B398D39953951FC0B7B
:105AB0000209396F960E3A6FD294B984BA94000EE7
:105AC000436E010E0001BF6F010EBD6F000EBC6F73
:105AD000000EBB6F000EBA6F12000F0122A302D09E
:105AE0002299228922A103D01E6A1E2A01D01E6A91
:105AF0000F011D519CEC2DF01E18D8B403D0010EDF
:105B00000001946F3350010D000EF324D96E020E84
:105B1000F420DA6E1DCFDFFF332A1E0E3318D8A40F
:105B200003D0010E0101CF6F1D0E336402D0000EB1
:105B3000336E0101DA2B12001B6E000E0001956F0F
:105B4000000E1D6E000E1C6E1DBE03D01D501CE10C
:105B500017D01CC019F0010E1A6E192A02D0D89065
:105B60001A36192EFCD71A501B140009D8B402D0CB
:105B70000001952B1C4A1D2A1DBEEBD71D5004E1C8
:105B8000080E1C5CD8A0E5D7000195A102D0010E3B
:105B90001200000E1200ABA202D0AB98AB88ABA0F3
:105BA00003D0066A062A01D0066AAE50FAEC2DF040
:105BB0000618D8B403D0010E0001AD6F3E50010DA0
:105BC0003C0EF324D96E020EF420DA6EAECFDFFF66
:105BD0003E2A1B0E3E18D8A403D0010E0001A86F68
:105BE0001A0E3E6404D0010E456E000E3E6E00019A
:105BF000AF2B1200036E000E0001AE6F000E056E9B
:105C0000000E046E05BE03D005501CE117D004C081
:105C100001F0010E026E012A02D0D8900236012E48
:105C2000FCD7025003140009D8B402D00001AE2BF7
:105C3000044A052A05BEEBD7055004E1080E045CB2
:105C4000D8A0E5D70001AEA102D0010E1200000ECF
:105C500012000001A005D8A4120012D080EC28F098
:105C60001200C4EC28F012007FEC26F01200AEEC1B
:105C70002EF01200CBEC2FF0120092EC31F012005B
:105C8000E2EC32F0000AD8B4F8D7010AD8B4E6D76B
:105C9000020AD8B4E9D7070AD8B4E3D7010AD8B4BE
:105CA000E9D7030AD8B4E3D7010AE7D7000E020107
:105CB000F56F000EF66F000EF76F000EF86FEDA196
:105CC00008D0F151F527F251F623F351F723F4519F
:105CD000F823D890F137F237F337F437D890F03310
:105CE000EF33EE33ED33ED51EE11EF11F011D8A497
:105CF000E6D7F5C2EDF2F6C2EEF2F7C2EFF2F8C265
:105D0000F0F21200030E0001916F010E906F7F0EF2
:105D10008F6F000E0201EA6F000EE96F0BD00001D9
:105D20009051020DF3CF90F0D8908F318F6F020118
:105D3000E94BEA2B000191510201E66FE76BE65156
:105D4000E95DEA51800AE86FE751800AE859D8A076
:105D5000E6D700018F518F258F6F120095EC30F040
:105D60000201E96FE9A516D0E9A305D072EC2BF08A
:105D700013EC30F004D03BEC2BF0DDEC2BF086EC98
:105D800032F0B6EC32F0BAEC32F08C968C9800011E
:105D9000669512004EEC2AF013EC30F086EC32F0EF
:105DA000B6EC32F0BAEC32F08C968C980001669525
:105DB00012001E0E0001966125D03450010D1E0EFA
:105DC000F324D96E020EF420DA6EDF509CEC2DF035
:105DD0001E6E0F0121511E18FE0B1E18216F34502C
:105DE000010D1E0EF324D96E020EF420DA6EDF5080
:105DF0001C6F342A1D0E346402D0000E346E000174
:105E0000962B1200A3981200000E0201EC6F000EF8
:105E1000EB6FE851E911D8B41CD0010EEA6F04D041
:105E2000D890E837E937EA2BE9AFFAD7D890EB37C3
:105E3000EC37E851E65DE951E759D8A005D0E851C3
:105E4000E65FE951E75BEB81D890E933E833EA2F6D
:105E5000EDD7EBC2E6F2ECC2E7F212001B0E3F6098
:105E600025D0000E456E4050010D000EF324D96E72
:105E7000030EF420DA6EDF50FAEC2DF0066EAC5013
:105E80000618FE0B0618AC6E4050010D000EF324F0
:105E9000D96E030EF420DA6EDF50AD6E402A1A0E72
:105EA000406402D0000E406E3F2A12009D981200FE
:105EB000D2EC32F080B804D00201E76BE72B02D0BD
:105EC0000201E76BE719D8A43FEC32F0C0EC31F0E7
:105ED0000201E76FD6EC32F00201E719D8A419EC01
:105EE00032F0DAEC32F080BC04D00201E76BE72B31
:105EF00002D00201E76BE719D8B4120047EC32F088
:105F00001200E8C2EFF2E9C2F0F2E6C2EDF2E7C237
:105F1000EEF212D0EFC2F6FFF0C2F7FF0800F5CFA5
:105F2000ECF20201EF4BF02BEDC2D9FFEEC2DAFF2B
:105F3000ECC2DFFFED4BEE2B0201EA07D8A0EB0726
:105F4000EA29E8E1EB29D8B41200E4D70201EB6FAB
:105F5000EBC263FFE8C262FFE9C261FF7F9E7F9CE4
:105F6000F29E7F84550E7E6EAA0E7E6E7F827FB279
:105F7000FED77F94F28EE8C2FFF10201EB51CEEC26
:105F800031F00201EA6FE951EA19D8A402D0010EFA
:105F90001200000E120095EC30F00201E96FE9A149
:105FA0000FD04EEC2AF013EC30F080EC32F0B6EC6F
:105FB00032F0BAEC32F08C868C98000166851200C3
:105FC0004EEC2AF013EC30F086EC32F0B6EC32F006
:105FD000BAEC32F08C868C880001669512000201C2
:105FE000F16F3C04D8A402D0030E3C6E020E3C18A4
:105FF000D8A402D0040E3C6E0201F151D8B406D0F0
:10600000000E01018D6F020E8C6F05D00201405110
:10601000180B97EC1FF0B9806B84000E01018B6F99
:10602000000E8A6F12000F01369500019B05D8A45F
:10603000120036500201D95DD8B00ED0352A350491
:106040000101FF6F0201D7510101FF5DD8A01200CD
:106050003606000E356E1200000E366E8D98000E5C
:1060600000019B6F649F8C9A8C9C12000F013695E7
:1060700000019B05D8A4120036500201D95DD8B0AA
:106080000ED0352A35040101FF6F0201D8510101FC
:10609000FF5DD8A012003606000E356E1200000E0D
:1060A000366E8D98000E00019B6F649F8C9A8C9CBD
:1060B00012000201E651E711D8B404D0E605E71159
:1060C000D8A404D0010E0101B46F1200020E020127
:1060D000E619E711D8B405D0030EE619E711D8A4E4
:1060E00004D0020E0101B46F1200000E0101B46F62
:1060F000120013EC33F00009D8B41200FEEC32F0B9
:106100000009D8B412000001B451D8A41200010E45
:10611000B46F200E0201E86F010EE96F020EA6ECCB
:106120002FF0000E8CEC32F01200000E0201E86F2E
:10613000000EE76F80B802D0E78101D0E791C0EC94
:1061400031F00009D8B403D00201E78502D0020182
:10615000E79580BC02D0E78301D0E793E7511200B6
:1061600079EC1AF095EC30F00201F26FF2A503D051
:106170000001668103D0000166916791BD51D8B4DA
:106180001200C0EC31F00009D8A41200000E00018A
:10619000BD6F12000001C105D8A405D00EEC25F09A
:1061A000000E0001C16FC005D8A4120037EC31F019
:1061B0000009D8A412006FEC0AF0000E0001C06FB5
:1061C00012000001B351D8A41200010EB36F110EDA
:1061D0000201E86F000EE96F000EA6EC2FF0100E22
:1061E0000201E86F000EE96F000EA6EC2FF012001E
:1061F0000201ED6FEDC274F00201EC51D8B412004F
:106200000101C751D8A41200010EC76F650E02012B
:10621000E86FEDC2E9F2020EA6EC2FF01200000EBC
:106220002EEC32F07F9E7F9C720ED36ED08EF1905A
:10623000939A939C939EF28EF28CF290F286000ECB
:106240000101E16F1200030E636E330E626E6BC0CC
:1062500061FF7F9E7F9CF29E7F84550E7E6EAA0E0C
:106260007E6E7F827FB2FED77F94F28E1200000E88
:106270000201E66F00016151D8A407D062C0FFF1AE
:106280003F0E0101FF17D8B403D0010E0201E66FE3
:106290000201E65112000001A951D8B405D046EC24
:1062A00024F0000E0001A96FA851D8B412007DECB3
:1062B0001BF0000E0001A86F1200010E0001986F84
:1062C0002FEC20F0CFEC29F06FEC31F0E1EC30F066
:1062D000000E0101E16F000E0001986F1200000E28
:1062E0000001746F0101C651D8A41200010EC66FDF
:1062F000650E0201E86F000EE96F020EA6EC2FF0AA
:10630000120095909592959495969598959A959C4E
:10631000959E8C808C928C948C968C988C9A8C9C6C
:106320008C9E1200899286EC32F0B6EC32F0BAEC18
:1063300032F04EEC2AF013EC30F08C968C98000181
:1063400066951200000E0201E66F67C0FFF13F0E76
:106350000101FF17D8B403D0010E0201E66F02015C
:10636000E651120037EC31F00009D8B41200000EEB
:106370003C6EFC0E000165178B90F296B9901200EE
:1063800084BE0AD037EC31F00009D8A405D0000152
:1063900067B302D0010E1200000E12000201E66F78
:1063A000E6C263FFFFC162FF7F9E7F9C7F8061CF5B
:1063B000E7F20201E7511200200E0101FF6F020E09
:1063C000CEEC31F00001A36FA3A112000DEC33F06D
:1063D0001200000E0101FF6F000162A903D0010E3F
:1063E0000101FF6F0101FF511200000E0101FF6F5B
:1063F000000163A103D0010E0101FF6F0101FF51F4
:106400001200000E0101FF6F000166AF03D0010E04
:106410000101FF6F0101FF511200000E0101FF6F2A
:1064200017EC33F0D0B612000400010E0101FF6F2B
:106430001200C0EC31F00009D8B403D0000166812D
:106440001200000166911200000E0101B56FB5C186
:10645000E6F20201E76B59EC30F012000101FF6F28
:106460000101FFB102D0D19001D0D180120037ECF0
:1064700031F00009D8B412004FEC32F0120080B8AD
:1064800003D000016685120000016695120080BCF1
:1064900003D00001668312000001669312008C9203
:1064A0008C848C968C888C9A8C8C8C9E120000012B
:1064B00061A302D0010E1200000E1200000161AFB4
:1064C00002D0010E1200000E1200000161AD02D0D8
:1064D000010E1200000E120000016351060B0101B3
:1064E000FF6FFF5112008C928C948C968C988C9A32
:1064F0008C9C120058025802580258025802580246
:10650000010E0001A16FF28665851200000E0001E8
:10651000A16F8D96659512000101FF6FFFC1B2F169
:1065200012000101FF6FFFC1B9F112000101FF6FFD
:10653000FFC1B8F112000101FF6FFFC1B7F11200F6
:10654000E70E0001661766871200969296908D926C
:106550008D80120000016451180B12008B8A00011B
:10656000658712008B880001658912008B9A0001F3
:10657000659712008B980001659912000001625125
:10658000020B120000016251010B1200F80E000113
:1065900063171200000E0001986F1200000166518F
:1065A000180B120000016651040B12000001665125
:1065B000010B120000016651020B12000001625132
:1065C000800B120000016451070B1200196E19C0F4
:1065D000B2F11200196E19C0B9F11200196E19C08A
:1065E000B8F11200196E19C0B7F112000001645120
:1065F000070B1200196E19C0B6F112000101B25159
:1066000012000101B95112000101B851120001013B
:10661000B75112000001658B120000016381120066
:106620000101B45112004550120084901200848080
:1066300012000201FFFF01FFFFFFFFFFFFFFFFFF4F
:10664000FFFFFFFFFFFFFFFFFFFFFFFFFFFFFFFF5A
:10665000FFFFFFFFFFFFFFFFFFFFFFFFFFFFFFFF4A
:10666000FFFFFFFFFFFFFFFFFFFFFFFFFFFFFFFF3A
:10667000FFFFFFFFFFFFFFFFFFFFFFFFFFFFFFFF2A
:10FBF000FFFFFFFFFFFFFFFFFFFFFFFFFFFFFDAA6C
:020000040020DA
:08000000FFFFFFFFFFFFFFFF00
:020000040030CA
:0E0000001408492A008191FF0FC00FE00F4045
:00000001FF
