:102000000200000000000000FFFFFF00FFFFFF00D4
:102010000012040000000000D217040000000000BD
:10202000D217040000000000D217040000000000D6
:10203000D217040000000000D217040000000000C6
:10204000D217040000000000D217040000000000B6
:10205000D217040000000000D217040000000000A6
:10206000D217040000000000D21704000000000096
:1020700000160400000000008C170400000000009F
:10208000D217040000000000D21704000000000076
:10209000FA16040000000000A4160400000000006E
:1020A000D217040000000000D21704000000000056
:1020B000D217040000000000D21704000000000046
:1020C000D217040000000000CE140400000000003D
:1020D000D217040000000000D21704000000000026
:1020E000D217040000000000D21704000000000016
:1020F0006A170400000000008615040000000000BC
:10210000FC14040000000000D217040000000000CE
:10211000D217040000000000D217040000000000E5
:10212000D217040000000000D217040000000000D5
:10213000D217040000000000D217040000000000C5
:10214000D217040000000000D217040000000000B5
:10215000D217040000000000D217040000000000A5
:10216000D217040000000000D21704000000000095
:10217000D217040000000000D21704000000000085
:102180002A1504000000000058150400000000009B
:10219000D2170400000000005417040000000000E3
:1021A000D217040000000000D21704000000000055
:1021B000D217040000000000D21704000000000045
:1021C000D217040000000000D21704000000000035
:1021D000D217040000000000D21704000000000025
:1021E000D217040000000000D21704000000000015
:1021F000D217040000000000D21704000000000005
:10220000D217040000000000D217040000000000F4
:10221000D217040000000000D217040000000000E4
:10222000D217040000000000401404000000000069
:10223000FFFFFF00FFFFFF00FFFFFF00FFFFFF00AA
:10224000FFFFFF00FFFFFF00FFFFFF00FFFFFF009A
:10225000FFFFFF00FFFFFF00FFFFFF00FFFFFF008A
:10226000FFFFFF00FFFFFF00FFFFFF00FFFFFF007A
:10227000FFFFFF00FFFFFF00FFFFFF00FFFFFF006A
:10228000FFFFFF00FFFFFF00FFFFFF00FFFFFF005A
:10229000FFFFFF00FFFFFF00FFFFFF00FFFFFF004A
:1022A000FFFFFF00FFFFFF00FFFFFF00FFFFFF003A
:1022B000FFFFFF00FFFFFF00FFFFFF00FFFFFF002A
:1022C000FFFFFF00FFFFFF00FFFFFF00FFFFFF001A
:1022D000FFFFFF00FFFFFF00FFFFFF00FFFFFF000A
:1022E000FFFFFF00FFFFFF00FFFFFF00FFFFFF00FA
:1022F000FFFFFF00FFFFFF00FFFFFF00FFFFFF00EA
:10230000FFFFFF00FFFFFF00FFFFFF00FFFFFF00D9
:10231000FFFFFF00FFFFFF00FFFFFF00FFFFFF00C9
:10232000FFFFFF00FFFFFF00FFFFFF00FFFFFF00B9
:10233000FFFFFF00FFFFFF00FFFFFF00FFFFFF00A9
:10234000FFFFFF00FFFFFF00FFFFFF00FFFFFF0099
:10235000FFFFFF00FFFFFF00FFFFFF00FFFFFF0089
:10236000FFFFFF00FFFFFF00FFFFFF00FFFFFF0079
:10237000FFFFFF00FFFFFF00FFFFFF00FFFFFF0069
:10238000FFFFFF00FFFFFF00FFFFFF00FFFFFF0059
:10239000FFFFFF00FFFFFF00FFFFFF00FFFFFF0049
:1023A000FFFFFF00FFFFFF00FFFFFF00FFFFFF0039
:1023B000FFFFFF00FFFFFF00FFFFFF00FFFFFF0029
:1023C000FFFFFF00FFFFFF00FFFFFF00FFFFFF0019
:1023D000FFFFFF00FFFFFF00FFFFFF00FFFFFF0009
:1023E000FFFFFF00FFFFFF00FFFFFF00FFFFFF00F9
:1023F000FFFFFF00FFFFFF00FFFFFF00FFFFFF00E9
:102400004F7422000EAF24000E018800000000006F
:10241000000020000000E000020032000001200067
:102420002002880014000700010307000000E000FC
:1024300003003A00801F280011002000020037002E
:102440000000200001002000810F70000100320018
:1024500014000700000020000000E000020032002D
:1024600000000200000000000EAD020001000000AC
:102470000040DA000000FE004440A900807D2400F6
:102480000000E000030032000020200090018800DE
:102490004440A800000006008A1F78008B1F7800C7
:1024A00000000600A1028800800478000000EB0014
:1024B0001F003700E284440054A0B4009905BA001C
:1024C000E284440054A0B4009906BA00E2844400B7
:1024D00054A0B4000006EB00476FDE00FD07B20019
:1024E000AE018800636CE10003003A00EAFF0700D8
:1024F0000000EB000E003700606CE10008003A00BD
:10250000004DEB000A05E800020039003420EC0021
:102510000AF0A0008B05E900F9FF3E000400370037
:102520006168E100010032000086EB000B0007004B
:1025300019C7BA001905BA000E04E00003003A00FA
:102540000A00E000DBFF3A0000000600FE07B200D0
:10255000AE0288008A047800F5FF37000CD0A30093
:10256000E20F4D001C00390089027800354DBA0099
:102570000A05E800020039003420EC000AF0A0004F
:102580008B05E9000F003200254DBA000A05E8006E
:10259000020039003420EC000AF0A0008B05E900AD
:1025A000080032000C00E0000600320015CDBA0031
:1025B0000A05E800020039003420EC000AF0A0000F
:1025C0008B05E9008984E80054A0B4000B00E0000A
:1025D000E2FF3A00000006009902BA00055D7800AB
:1025E0008B05E900F7FF3200C82ADE00055D7800A0
:1025F0008B05E900F3FF32000C00E000F1FF320030
:1026000019DDBA00EEFF37001A6E04000100000069
:102610009870040001000000A46F04000100000095
:10262000526F040001000000AE9904000100000098
:1026300090990400010000001A56040001000000F7
:102640002A550400010000004A5504000100000062
:102650003E54040001000000786004000100000006
:102660005A600400010000004A60040001000000FC
:102670005A8D0400010000003C8D040001000000A0
:10268000B29D040001000000949D040001000000C0
:102690005204040001000000821104000100000047
:1026A0001E06040001000000E430040001000000E8
:1026B0009211040001000000A211040001000000BA
:1026C0006A070400010000009C07040001000000EC
:1026D000C0070400010000003409040001000000EC
:1026E000620A040001000000840A040001000000E6
:1026F000A60A040001000000E20B04000100000033
:102700000024040001000000F20F0400010000009A
:10271000D838040001000000C03F040001000000A0
:10272000303F0400010000008E3F04000100000063
:102730005640040001000000F23F040001000000C8
:102740002440040001000000884004000100000053
:10275000BA40040001000000BE0F040001000000A8
:10276000900C040001000000680C0400010000004F
:10277000F00E040001000000CE0E04000100000075
:10278000500E0400010000002C0E040001000000A7
:102790000E0E040001000000F00D04000100000016
:1027A000D20D040001000000AE0D04000100000085
:1027B0006A100400010000009810040001000000ED
:1027C000EE44040001000000E635040001000000B2
:1027D000443D040001000000020D0400010000005F
:1027E0008EAA0400010000004EAF040001000000AA
:1027F0006E020400010000006402040001000000F9
:10280000FC010400010000000602040001000000B9
:102810001002040001000000F201040001000000A9
:1028200004FE040000000000661104000100000026
:102830008E4C040001000000744C040001000000F4
:102840005A4C040001000000404C0400010000004C
:10285000264C040001000000AC020400010000004E
:10286000000B040001000000520B040001000000F6
:10287000DEA2040001000000E8A204000100000044
:1028800000A0FE000A00FA009080A90050388000E5
:10289000700060000000E0003D00320096C8BF00FC
:1028A0000004E00038003200A04480009144800021
:1028B00072448000020F78001107980020079800EA
:1028C0009E009000310798001E0078000000E00094
:1028D0002B0032009E0090002E009000808040006F
:1028E00000102000808F500025003E003107A80016
:1028F0008139800000002400008060000000E000BA
:10290000FBFF3A000000EB0040079800170037007B
:102910003E0090000040780030E7B7003E00900095
:10292000000040001E0040009080FB00104090001E
:102930000080FB004800DD000080700090398800B6
:102940003E0090000000E8003007980081398000C8
:1029500000002400008060000000E000FBFF3A005F
:102960004E0090000000E80040079800AE00900084
:102970004E009000808F5000E5FF3E003107A90017
:102980008E28EF009668EF000A87A9000887A90043
:102990000080FA000080FE00004006003600F800CB
:1029A000809FBE00829FBE00849FBE00869FBE00A7
:1029B0000000FA0000C1B30012370200010000005D
:1029C0009680A90097A0A9009AA0A9009AC0A90082
:1029D0001821EF0021E1A8008680A9000080FA00FC
:1029E0004F03BE004F02BE004F01BE004F00BE00AD
:1029F0003600F900004006003600F800809FBE0057
:102A0000829FBE00849FBE00869FBE000000FA0029
:102A100000C2B30012370200010000009680A90036
:102A200097A0A9009AA0A9009AC0A9001821EF00B8
:102A300021E1A80087A0A9000080FA004F03BE0092
:102A40004F02BE004F01BE004F00BE003600F9002D
:102A5000004006003600F800809FBE00829FBE0046
:102A6000849FBE00869FBE000000FA0000C4B30031
:102A700012370200010000009680A90097A0A9006B
:102A80009AA0A9009AC0A9001821EF0021E1A8008E
:102A90008AA0A9000080FA004F03BE004F02BE00CA
:102AA0004F01BE004F00BE003600F9000040060096
:102AB0003600F800809FBE00829FBE00849FBE004B
:102AC000869FBE000000FA0000C3B3001237020068
:102AD000010000009680A90097A0A9009AA0A90073
:102AE0009AC0A9001821EF0021E1A8008AC0A9001E
:102AF0000080FA004F03BE004F02BE004F01BE002F
:102B00004F00BE003600F900004006003600F80015
:102B1000809FBE00829FBE00849FBE00869FBE0035
:102B20003200F8003400F80010002000A0018800F6
:102B300000202000900188000000FA000AC9BF00B0
:102B40008080FB008100E900CF08DE008140780032
:102B50000040E8000AE9B7000104E0000400320088
:102B600010C0B300B8360200010000001A003700A0
:102B70000AC9BF000004E0001700320070360200EE
:102B8000010000000004A2000004E0001200320076
:102B900020C9BF000004A2000004E0000C003200C5
:102BA0008680A90087A0A9008AA0A9008AC0A900E0
:102BB0009680A8008680A90097A0A80087A0A900F9
:102BC0009AA0A8008AA0A9009AC0A8008AC0A9005B
:102BD00021E1A9000A69EF008780A9000080FA00BE
:102BE0003400F9003200F9004F03BE004F02BE006E
:102BF0004F01BE004F00BE003600F9000040060045
:102C00003600F800809FBE00829FBE00849FBE00F9
:102C1000869FBE003200F8003400F800100020004B
:102C2000A001880000202000900188000000FA0028
:102C3000FE370200010000000004E0002200320024
:102C4000C190200091407800B2902000124178009D
:102C500010C0B30082CF5000010031000040EB00F3
:102C60008140E80081417800C2902000034978004B
:102C70000004E0001400320010C0B300D43602009B
:102C8000010000000040EB00F237020001000000EC
:102C90000040EB00D6370200010000000040EB00CE
:102CA000B8360200010000009680A8008680A900C6
:102CB00097A0A80087A0A9009AA0A8008AA0A900B0
:102CC0009AC0A8008AC0A9003238020001000000A2
:102CD0000004E00012003200B04880000000E8006C
:102CE000B0488800B0488000EE0F50000C0036005D
:102CF00060380200010000000004E000040032001F
:102D00000040EB00443802000100000003003700DF
:102D100010C0B30044380200010000001629EF0083
:102D200084E0A9000080FA003400F9003200F900C4
:102D30004F03BE004F02BE004F01BE004F00BE0059
:102D40003600F90000400600809FBE000000FA0037
:102D500001AF800000202000008060000000E00043
:102D6000020032009580A9001F0037008580A9006D
:102D700018003700F0AE8000104078000080FB00A3
:102D800020118800F0AE80000000E800F0AE88005E
:102D9000F1AE8000D05F2100808F500002003A0029
:102DA000205E2100F0AE880000AF80000080A1000E
:102DB00000AF8800F1AE8000E0AE8000808F500050
:102DC00004003A0000AF80000090A00000AF88002F
:102DD00005003700111180000020200000806000F5
:102DE0000000E000E3FF32000080FA004F00BE0068
:102DF00000400600809FBE000000FA001011800015
:102E0000680060000000E0001B00320010C0B3004A
:102E1000BEE8B70019003700C0AE80003111800055
:102E20008140780001487800C0AE80000000E800D2
:102E3000C0AE8800C1AE800080612100808F50004C
:102E400002003A00D05F2100C0AE880000AF8000D1
:102E50000010A10000AF8800C1AE8000D0AE80009D
:102E6000808F500005003A0000AF80000000A000F5
:102E700000AF88000500370000000000101180003E
:102E8000610060000000E000E3FF3A00F0FF27006F
:102E9000A00888001FE1A8008560A9000080FA0052
:102EA0004F00BE0000400600801F78000000FA00BE
:102EB00010118000620060000000E000010032009C
:102EC0002222A9008C20A9000080FA004F0078007F
:102ED00000400600801F78003200F8003400F8003F
:102EE00010002000A0018800002020009001880030
:102EF0000000FA00F0FF2700A00888001FE1A900E9
:102F00008760A9000080FA003400F9003200F9005F
:102F10004F007800004006003600F800809FBE0099
:102F2000829FBE00849FBE00869FBE003200F800D4
:102F30003400F80010002000A001880000202000CC
:102F4000900188000000FA00105080000000E000AE
:102F5000020032001050800000000100107A2100B1
:102F6000104078008040E800107A21000148780085
:102F7000007A210011C0B300014878008500A90043
:102F80000080FA003400F9003200F9004F03BE005F
:102F90004F02BE004F01BE004F00BE003600F900D8
:102FA000004006000040DA000000FE00889FBE00DE
:102FB0008004780010BD80000000E00004003A00AA
:102FC0000E0007000084EB000000E0000800350060
:102FD00018BD80000900E00005003200090044002F
:102FE000060007000000E00001003D000084EB0047
:102FF000080078004F04BE00000006008000780042
:103000000100E00003003A00407A210010BD880072
:10301000000005000080EB0042742200828F500007
:1030200002003E0011BD88000000EB000000060019
:103030000000050003F0A200889FBE008A9FBE002A
:103040008C1F7800FC000700030133006450E1008E
:103050004F0032006420E1005200320003826C0015
:1030600007003B000905D0000306D000820F540082
:103070000C065D0002003900020032008901780070
:10308000030678008582550004003D000003FD0022
:103090008103FD008502EA008B854200840F7200E7
:1030A00002003B0060001000E08018006011B800D2
:1030B0000005EB007A28E1000A00390006007800DC
:1030C000C75DDD00F707B200878075002D0037006F
:1030D000828171000A017800610560008180D10061
:1030E0000080D3008502E900F9FF3B0006044000A0
:1030F0008784480002003B0060041400E0841C0048
:103100000988A300070032008A8171008281710062
:10311000610164008904D1000884D3008B05E800B4
:10312000170037000978A30013003A000B00E000F5
:10313000130034008B05E9000804440089844C0026
:103140000A4474000978A3000D003A000B00E00067
:10315000070034008B05E9000804440089844C0012
:1031600001003A000B0020000978A300F7FF3200AD
:103170000001EB0002003700828171000A01780033
:10318000720007000CF0A70001F0A000BB003700A0
:103190006420E10002003A00838F6C00BB00330022
:1031A0000801BE000200BE00B4003700889FBE00C8
:1031B0008A9FBE008C1F78009F000700A600330086
:1031C00003866C006450E1002E0032006420E100B0
:1031D000330032006150E1002F0032006120E10035
:1031E0003100320085855500EB07B0000900200052
:1031F00008042000050037000804440089844C00BE
:103200000A0031000603430087834B00000153008E
:1032100081815B00F8FF33000203BE000800A000BC
:103220000804440089844C00F6FF3900C639DD00EB
:103230008301730001003200130020008904D100D3
:103240000884D3000998A300050032000800A700F5
:103250000300A0008904D1000884D3008B05E80096
:103260008904D1000884D3000001EB000281D20060
:103270003600070001F0A1000CF0A70001F0A0004B
:103280007E0037006420E100800032000801BE00AB
:103290000200BE00F7FF37006120E1007B00320032
:1032A0006000B800F3FF37000000200001F827009D
:1032B000F0FF37000001BE004A0007000470A700BD
:1032C00003F0A1006509B100160032000D003500C1
:1032D0006828E10006003500F0FF2F00F1FF27000D
:1032E0000300E00013003B0001002800000005007F
:1032F00000004000818048008502E900FCFF3A00A0
:1033000008003700F88F420002003C008000EB000C
:10331000000005008100D1000080D3008502E80094
:10332000FCFF3A000300E00002003B0060001000D8
:10333000E0801800000006004F89DE00820178005E
:103340009C0037006011B800AA00370081002000FF
:10335000618055000B003D000B00200061FE2F0036
:103360000100E1001D0034008281710061016400F0
:103370008904D1000884D3000000E800FAFF3A0075
:103380007100200061006400030070000200600012
:103390000900320061044400E0844C000988A50063
:1033A000050032008B05E8006808E10002003A00E1
:1033B0008904D1000884D300F20F20000258E100F4
:1033C00005003D00C75DDD00F907B200898075008A
:1033D00008007800000006000BF827008B0078003A
:1033E00000000500C70ADE00F107B200F50FB200C9
:1033F00008003200E1CF4200020032000170A0005C
:1034000024000500810F700001003200040805004F
:1034100044000500810F700002003A00140005000E
:103420008502E9000000400081C04800FCFF3B002D
:103430000170A000240005000004BE00E9FF0700A1
:103440000003BE000405BE000200BE00E5FF070049
:10345000844F7500000006000200BE006450E100C9
:10346000050036006420E100020036000968A30070
:1034700001003A000800BE000160A0004F0678007D
:103480004F05BE004F04BE0000000600F0FF2F00F5
:10349000F1FF2700F9FF3700889FBE008A9FBE001A
:1034A0008C1F7800E4FF0700EBFF330003866C00FD
:1034B0006450E100240032006420E1002700320063
:1034C0006150E100220032006120E1002100320061
:1034D0008B854200EB07B1000134B800003AB80018
:1034E0000804420089844A00013AB8000030B8005C
:1034F0008880400009014A000400330000004000B9
:1035000081804800020149008B05E900C909DD00FE
:10351000830170000100320013002000C814DE0097
:103520004814DD004709DE001200B200C808DE00C2
:103530000884700085FF070001F0A1000CF0A700CF
:1035400001F0A000CDFF37006120E100CFFF320085
:103550000801BE000200BE00F7FF37006150E10025
:10356000FCFF3A00C9FF37006022B80006022000C5
:103570000000D0008180D2000482D2008582D20077
:103580000000A0000202520083825A0003003100B2
:103590000202420083824A000000A1000603E90003
:1035A000F3FF3A0000000600EFFF07000400BE0032
:1035B00000000600881F7800030478000300E00084
:1035C00007003D0060001000E08018006001190055
:1035D000E081190002003B0001F02D0003003700DC
:1035E0000400070008F0A70001F0A0004F047800D5
:1035F00000000600889FBE008A9FBE000082700007
:103600000402710004827100260032000004BE0032
:103610000200BE006011B8006B0920009502200076
:103620000182CF000A0039000541B1000082CF00BD
:10363000070039000541B1000982CF0004003900BC
:103640000541B1000882CF00010039000541B100F9
:1036500005425200120032000A003B0082817100D4
:10366000610164008100D1000080D3008984D3000F
:103670000884D3008B05E8000442E800F7FF3A0015
:10368000070037000804440089844C00000048000B
:10369000818048008B05E9000442E900F9FF3A0007
:1036A0002AFF07004F05BE004F04BE0000000600C1
:1036B000889FBE008A9FBE008C9FBE00217821009B
:1036C00012BC80000200E0000B003A006481400060
:1036D00012BC880062BC8800A100980051BC880020
:1036E000214190000204A000A24098006141900096
:1036F0000204A000E2409800670440004244DE005B
:103700004244DD0054BC8000417A2100497422000B
:10371000818454002D002000110009008D04D80080
:10372000800678000886E8000C0646008001EB0061
:1037300002003700130020000B027800A440900024
:103740000108A300020032000A003700120A7800C4
:1037500014017800A24090000108A300FBFF320092
:1037600088004200810F5100020039000800E0008B
:1037700042003D00940578000B00A100848F5500A5
:10378000EDFF3E00E18F5100EAFF3A008D0F54003B
:1037900002003600890F5400140039006141B8005E
:1037A0006148B900B4FF2F0005002000000052005E
:1037B00081805A00800F5100818F5900020035002E
:1037C000640544000A003700407A21007A74220020
:1037D0000005550008054500110009000985D800BD
:1037E0000980B90000057800010037000C05780059
:1037F0000A007800EDFD0700E10F400005003A00E7
:10380000640544000A007800E8FD0700E10F40006D
:103810002B00320061BC80008008780061BC800011
:10382000E481400021419000830F500002003200EB
:103830000204A000010037000204A100A240980089
:10384000640555000A0540000A0878006ABC880033
:1038500021782100010D780062BC8000A240900018
:103860000104A00021419800A04090000104A100A3
:10387000214098008001EB00AFFF370051BC880069
:10388000810F5100070036001101BE0072BC880094
:1038900083BC8800940878000041EB0051BC800094
:1038A000A240980053BC8000030A7800A440900016
:1038B0000104A0002142980064004200010037008A
:1038C0000000EB004F06BE004F05BE004F04BE00D7
:1038D000000006000000E000080032006400500014
:1038E00051BC8000810F50000100310050BC8800A5
:1038F000A04090000104A1002140980000000600B3
:10390000889FBE008A9FBE000004BE000900E00040
:1039100007003A000000EB000800E000360032002B
:1039200008007800EBFF07000000EB0032003700D2
:103930000800E00003003A00090078005CFF07007F
:103940002D003700640054009005780068F8970057
:103950000008A3000200320008007800DDFF070025
:103960000900780052FF0700800478000000EB0097
:103970000900E00020003200888F54001B00320054
:1039800069BD97000905550042D5DE0088855500C0
:10399000C2DDDE000A0178008B0F55000100360001
:1039A0000B0178004211DD008800780009007800E2
:1039B00014000700888F54000E0031004255DD00CE
:1039C0000A854400880F55000A0036000804550097
:1039D00042C4DE004244DD000884440070BC800024
:1039E00081BC8000008CBE00020037000800780017
:1039F00001003700090078004F05BE004F04BE00EB
:103A0000000006008001780002003700B1597800FC
:103A10000201E9000200E000FCFF3A00000006009D
:103A20008001780002003700815978000201E90026
:103A30000200E000FCFF3A00000006000110000058
:103A40000000000000000000000000006300000013
:103A500010000000E706000000000000340800002D
:103A6000000000000800000000000000011000003D
:103A700000000000F0060000000000004F00000001
:103A800011000000100600000000000040070000C8
:103A9000000000000800000000000000011000000D
:103AA00000000000000D0000000000004E000000BB
:103AB00011000000A3040000000000003007000017
:103AC00000000000080000000000000001100000DD
:103AD00000000000B011000000000000CC00000059
:103AE00019000000380D000000000000F015000073
:103AF00000000000080000000000000001100000AD
:103B000000000000F01E0000000000008300000024
:103B1000150000002D09000000000000C00C00008E
:103B2000000000000800000000000000011000007C
:103B3000000000002028000000000000A700000096
:103B400019000000DB0A0000000000005012000015
:103B5000000000000800000000000000011000004C
:103B6000000000000033000000000000A40000007E
:103B700019000000E20B0000000000000812000025
:103B8000000000000800000000000000011000001C
:103B900000000000F03E0000000000009000000067
:103BA0001A0000002D0A000000000000A410000010
:103BB00000000000080000000000000001100000EC
:103BC0000000000020490000000000008C00000000
:103BD00018000000EA0A000000000000240F0000A6
:103BE00000000000080000000000000001100000BC
:103BF000000000001054000000000000D40000008D
:103C00001F000000BC0A000000000000B01B000004
:103C1000000000000800000000000000011000008B
:103C200000000000D05E000000000000CE00000098
:103C30001E000000E90A000000000000281A000031
:103C4000000000000800000000000000011000005B
:103C500000000000C06900000000000099000000A2
:103C600016000000B60A000000000000280F000047
:103C7000000000000800000000000000011000002B
:103C800000000000807400000000000095000000AB
:103C900016000000560A000000000000D00E0000D0
:103CA00000000000080000000000000001100000FB
:103CB00000000000E07E000000000000C0000000E6
:103CC00026000000890D000000000000841E000096
:103CD00000000000080000000000000001100000CB
:103CE00000000000708C0000000000009A0000003E
:103CF00028000000760E000000000000141A0000EA
:103D0000000000000800000000000000011000009A
:103D100000000000F09A0000000000002A000000EF
:103D200015000000F8040000000000007405000009
:103D3000000000000800000000000000011000006A
:103D400000000000F09F0000000000002E000000B6
:103D5000160000002C05000000000000F80500001F
:103D6000000000000800000000000000011000003A
:103D70000000000020A50000000000008A000000F4
:103D8000280000002B0D0000000000009417000028
:103D9000000000000800000000000000011000000A
:103DA0000000000050B2000000000000A20000006F
:103DB00027000000320E000000000000B01A0000D2
:103DC00000000000080000000000000001100000DA
:103DD0000000000090C0000000000000750000001E
:103DE00018000000FA07000000000000FC0C0000B2
:103DF00000000000080000000000000001100000AA
:103E00000000000090C800000000000072000000E8
:103E1000180000005508000000000000B40C00006D
:103E20000000000008000000000000000110000079
:103E300000000000F0D0000000000000770000004B
:103E400017000000F307000000000000B40C0000A1
:103E50000000000008000000000000000110000049
:103E600000000000F0D80000000000007C0000000E
:103E700028000000E10A00000000000064150000B6
:103E80000000000008000000000000000110000019
:103E900000000000E0E3000000000000300000002F
:103EA000100000005804000000000000040500009D
:103EB00000000000080000000000000001100000E9
:103EC0000000000040E80000000000005B0000006F
:103ED000580000006D090000000000004C210000A7
:103EE00000000000080000000000000001100000B9
:103EF00000000000B0F1000000000000A40000007D
:103F000015000000F70A000000000000780F000014
:103F10000000000008000000000000000110000088
:103F200000000000B0FC000000000000A60000003F
:103F300016000000260B00000000000048100000E2
:103F40000000000008000000000000000110000058
:103F500000000000E00700000100000099000000E0
:103F600015000000F50A000000000000900E00009F
:103F70000000000008000000000000000110000028
:103F800000000000E0120000010000009B000000A3
:103F900016000000310B000000000000540F00006C
:103FA00000000000080000000000000001100000F8
:103FB00000000000201E000001000000BF00000003
:103FC00014000000150D000000000000F0100000BB
:103FD00000000000080000000000000001100000C8
:103FE00000000000402B000001000000BF000000A6
:103FF00014000000250C000000000000F01000007C
:104000000000000008000000000000000110000097
:1040100000000000703700000100000050000000A8
:1040200016000000D706000000000000E4080000B1
:104030000000000008000000000000000110000067
:1040400000000000503E000001000000520000008F
:10405000150000000E07000000000000BC08000072
:104060000000000008000000000000000110000037
:104070000000000060450000010000005E0000003C
:1040800014000000EB060000000000005C090000C6
:104090000000000008000000000000000110000007
:1040A00000000000504C0000010000006200000011
:1040B000190000008A07000000000000940B0000B7
:1040C00000000000080000000000000001100000D7
:1040D00000000000E053000001000000610000004B
:1040E00017000000E507000000000000B80A00000B
:1040F00000000000080000000000000001100000A7
:1041000000000000D05B0000010000007C00000007
:10411000140000005408000000000000B40B000070
:104120000000000008000000000000000110000076
:104130000000000030640000010000007900000071
:10414000150000007F09000000000000F00B0000D7
:104150000000000008000000000000000110000046
:1041600000000000B06D0000010000007B000000B6
:1041700015000000A909000000000000180C000054
:104180000000000008000000000000000110000016
:1041900000000000607700000100000097000000B0
:1041A00014000000740A000000000000D00D0000A0
:1041B00000000000080000000000000001100000E6
:1041C00000000000E081000001000000600000002D
:1041D00014000000670700000000000084090000D0
:1041E00000000000080000000000000001100000B6
:1041F0000000000050890000010000006100000084
:1042000014000000180700000000000098090000DA
:104210000000000008000000000000000110000085
:10422000000000007090000001000000700000001D
:1042300014000000D607000000000000C40A0000BF
:104240000000000008000000000000000110000055
:10425000000000005098000001000000580000001D
:104260001900000019080000000000009C0A00006E
:104270000000000008000000000000000110000025
:104280000000000070A00000010000008400000099
:10429000110000004E08000000000000C80A0000E5
:1042A00000000000080000000000000001100000F5
:1042B00000000000C0A80000010000004C00000049
:1042C00014000000BC07000000000000F40700001C
:1042D00000000000080000000000000001100000C5
:1042E0000000000080B00000010000006B00000032
:1042F0001A0000004709000000000000E00C000068
:104300000000000008000000000000000110000094
:1043100000000000D0B90000010000002C000000E7
:10432000150000008804000000000000A005000047
:104330000000000008000000000000000110000064
:104340000000000060BE000001000000AD000000A1
:1043500027000000720C0000000000005C1C000040
:104360000000000008000000000000000110000034
:1043700000000000E0CA000001000000AD000000E5
:1043800027000000780E0000000000005C1C000008
:104390000000000008000000000000000110000004
:1043A0000000000060D9000001000000AD00000026
:1043B00027000000720E0000000000005C1C0000DE
:1043C00000000000080000000000000001100000D4
:1043D00000000000E0E7000001000000AE00000067
:1043E00028000000810E000000000000341D0000C5
:1043F00000000000080000000000000001100000A4
:104400000000000070F6000001000000C000000085
:1044100027000000450F000000000000441F0000BE
:104420000000000008000000000000000110000073
:1044300000000000C005000002000000A90000000C
:1044400028000000FB0B0000000000006C1C0000B6
:104450000000000008000000000000000110000043
:1044600000000000C011000002000000A9000000D0
:1044700027000000040E000000000000C01B000028
:104480000000000008000000000000000110000013
:1044900000000000D01F000002000000A900000082
:1044A00028000000180E0000000000006C1C000036
:1044B00000000000080000000000000001100000E3
:1044C00000000000F02D0000020000008C00000041
:1044D000140000009509000000000000F40C00002A
:1044E00000000000080000000000000001100000B3
:1044F000000000009037000002000000BB00000038
:1045000026000000500D000000000000C41D000047
:104510000000000008000000000000000110000082
:1045200000000000E044000002000000B0000000B5
:1045300027000000D20E000000000000D41C000084
:104540000000000008000000000000000110000052
:1045500000000000C053000002000000A4000000A2
:10456000100000008909000000000000440C000059
:104570000000000008000000000000000110000022
:1045800000000000505D000002000000B6000000C6
:1045900013000000F70A000000000000840F000074
:1045A00000000000080000000000000001100000F2
:1045B000000000005068000002000000AA00000097
:1045C00012000000400A000000000000F80D00008A
:1045D00000000000080000000000000001100000C2
:1045E000000000009072000002000000B200000015
:1045F00012000000760A000000000000880E000093
:104600000000000008000000000000000110000091
:1046100000000000107D000002000000800000008B
:10462000100000000608000000000000040A00005E
:104630000000000008000000000000000110000061
:104640000000000020850000020000007B00000048
:1046500015000000F708000000000000180C000022
:104660000000000008000000000000000110000031
:1046700000000000208E000002000000A5000000E5
:1046800019000000400B0000000000002012000094
:104690000000000008000000000000000110000001
:1046A00000000000609900000200000057000000B8
:1046B000140000000B07000000000000D0080000FC
:1046C00000000000080000000000000001100000D1
:1046D0000000000070A00000020000004500000083
:1046E000150000003306000000000000AC070000C9
:1046F00000000000080000000000000001100000A1
:1047000000000000B0A6000002000000450000000C
:10471000160000003506000000000000F007000051
:104720000000000008000000000000000110000070
:1047300000000000F0AC0000020000009200000049
:1047400019000000CE0A0000000000004410000024
:104750000000000008000000000000000110000040
:1047600000000000C0B70000020000006E00000062
:1047700029000000240A000000000000A01300002F
:104780000000000008000000000000000110000010
:1047900000000000F0C10000020000006F000000F7
:1047A00029000000340A000000000000C8130000C7
:1047B00000000000080000000000000001100000E0
:1047C0000000000030CC00000200000034000000B7
:1047D00011000000D5040000000000007805000072
:1047E00000000000080000000000000001100000B0
:1047F0000000000010D100000200000033000000A3
:1048000011000000AA030000000000006405000081
:10481000000000000800000000000000011000007F
:1048200000000000C0D40000020000007900000079
:10483000290000007D0C000000000000641500004D
:10484000000000000800000000000000011000004F
:104850000000000040E1000002000000D90000005C
:10486000150000002B0E000000000000D013000017
:10487000000000000800000000000000011000001F
:104880000000000070EF000002000000E3000000E4
:10489000140000003F0D000000000000C0130000E5
:1048A00000000000080000000000000001100000EF
:1048B00000000000B0FC000002000000B400000096
:1048C00015000000870B000000000000C810000069
:1048D00000000000080000000000000001100000BF
:1048E000000000004008000003000000E00000009D
:1048F000160000006F0D00000000000044150000CD
:10490000000000000800000000000000011000008E
:1049100000000000B015000003000000E0000000EF
:10492000140000003A0E0000000000008413000094
:10493000000000000800000000000000011000005E
:1049400000000000F023000003000000D30000007E
:1049500019000000210D0000000000009C1600005E
:10496000000000000800000000000000011000002E
:10497000000000002031000003000000CB00000018
:1049800010000000030C000000000000B40E000046
:1049900000000000080000000000000001100000FE
:1049A00000000000303D000003000000A0000000F7
:1049B00018000000FB0A00000000000004110000C5
:1049C00000000000080000000000000001100000CE
:1049D00000000000304800000300000093000000C9
:1049E000130000006A09000000000000EC0C000049
:1049F000000000000800000000000000011000009E
:104A000000000000A051000003000000A60000000C
:104A1000120000005C0A000000000000B00D000061
:104A2000000000000800000000000000011000006D
:104A300000000000005C000003000000AE00000069
:104A400046000000DD120000000000009831000068
:104A5000000000000800000000000000011000003D
:104A600000000000E06E0000030000007C00000079
:104A7000140000008408000000000000B40B0000D7
:104A8000000000000800000000000000011000000D
:104A9000000000007077000003000000A400000088
:104AA0001A000000E00B000000000000AC12000043
:104AB00000000000080000000000000001100000DD
:104AC000000000005083000003000000A700000069
:104AD00019000000B90B0000000000005012000097
:104AE00000000000080000000000000001100000AD
:104AF00000000000108F000003000000D400000040
:104B000014000000260E00000000000094120000B7
:104B1000000000000800000000000000011000007C
:104B200000000000409D000003000000590000004C
:104B3000190000002D07000000000000B40A00006A
:104B4000000000000800000000000000011000004C
:104B50000000000070A40000030000005B000000E3
:104B6000190000007A07000000000000E40A0000BD
:104B7000000000000800000000000000011000001C
:104B800000000000F0AB0000030000007100000016
:104B900014000000EF07000000000000D80A000029
:104BA00000000000080000000000000001100000EC
:104BB00000000000E0B300000300000073000000EC
:104BC00018000000BE08000000000000CC0C00002F
:104BD00000000000080000000000000001100000BC
:104BE00000000000A0BC00000300000075000000F1
:104BF00018000000FA08000000000000FC0C000093
:104C0000000000000800000000000000011000008B
:104C100000000000A0C50000030000008C000000A0
:104C200014000000800A000000000000F40C0000E6
:104C3000000000000800000000000000011000005B
:104C40000000000020D0000003000000A1000000D0
:104C50001A000000180B0000000000005C120000A9
:104C6000000000000800000000000000011000002B
:104C70000000000040DB000003000000A300000073
:104C800019000000CC0A000000000000EC11000038
:104C900000000000080000000000000001100000FB
:104CA0000000000010E6000003000000C600000045
:104CB00014000000600B0000000000007C110000E8
:104CC00000000000080000000000000001100000CB
:104CD0000000000070F1000003000000540000001C
:104CE0001A00000049070000000000008C0A0000C4
:104CF000000000000800000000000000011000009B
:104D000000000000C0F80000030000005600000092
:104D1000190000005807000000000000680A0000A9
:104D2000000000000800000000000000011000006A
:104D3000000000002000000004000000320000001D
:104D40001500000041050000000000001C060000E6
:104D5000000000000800000000000000011000003A
:104D60000000000070050000040000006100000069
:104D7000150000007907000000000000F80900009D
:104D8000000000000800000000000000011000000A
:104D900000000000F00C00000400000060000000B3
:104DA000150000000108000000000000E4090000F8
:104DB00000000000080000000000000001100000DA
:104DC0000000000000150000040000006700000063
:104DD0001A000000DB07000000000000780C000053
:104DE00000000000080000000000000001100000AA
:104DF00000000000E01C000004000000650000004E
:104E0000190000006C08000000000000E00B00002A
:104E10000000000008000000000000000110000079
:104E20000000000050250000040000005E000000AB
:104E3000190000007F07000000000000300B000098
:104E40000000000008000000000000000110000049
:104E500000000000D02C0000040000005D000000F5
:104E6000190000001008000000000000180B0000EE
:104E70000000000008000000000000000110000019
:104E800000000000E034000004000000B500000055
:104E900015000000AE0C000000000000DC10000057
:104EA00000000000080000000000000001100000E9
:104EB000000000009041000004000000B700000066
:104EC00016000000F80C000000000000BC110000FB
:104ED00000000000080000000000000001100000B9
:104EE00000000000904E000004000000DA00000006
:104EF00014000000F10D0000000000000C13000081
:104F00000000000008000000000000000110000088
:104F100000000000905C000004000000AE000000F3
:104F200015000000D10B0000000000004810000038
:104F30000000000008000000000000000110000058
:104F4000000000007068000004000000B0000000D5
:104F500016000000260C00000000000024110000D4
:104F60000000000008000000000000000110000028
:104F700000000000A074000004000000D500000044
:104F800014000000E810000000000000A81200005B
:104F900000000000080000000000000001100000F8
:104FA0000000000090850000040000009100000057
:104FB000140000003C0C000000000000580D000030
:104FC00000000000080000000000000001100000C8
:104FD00000000000D0910000040000005B00000011
:104FE00015000000700700000000000078090000B4
:104FF0000000000008000000000000000110000098
:105000000000000040990000040000002B00000098
:105010002A0000002B06000000000000100900001C
:105020000000000008000000000000000110000067
:1050300000000000709F0000040000002B00000032
:105040002A000000290600000000000010090000EE
:105050000000000008000000000000000110000037
:1050600000000000A0A500000400000051000000A6
:105070001400000024070000000000005808000091
:105080000000000008000000000000000110000007
:1050900000000000D0AC0000040000004800000048
:1050A000160000005A06000000000000340800004E
:1050B00000000000080000000000000001100000D7
:1050C0000000000030B300000400000048000000B1
:1050D00015000000E805000000000000EC070000DB
:1050E00000000000080000000000000001100000A7
:1050F0000000000020B9000004000000540000007F
:1051000014000000420600000000000094080000A7
:105110000000000008000000000000000110000076
:105120000000000070BF0000040000006B000000E1
:105130001800000081070000000000000C0C0000B7
:105140000000000008000000000000000110000046
:105150000000000000C70000040000006B00000019
:1051600018000000E1070000000000000C0C000027
:105170000000000008000000000000000110000016
:1051800000000000F0CE0000040000007F000000DE
:10519000140000001C08000000000000F00B0000DC
:1051A00000000000080000000000000001100000E6
:1051B0000000000010D7000004000000B70000004D
:1051C00014000000AD0B00000000000050100000B3
:1051D00000000000080000000000000001100000B6
:1051E00000000000C0E20000040000008D0000008C
:1051F00014000000F708000000000000080D000087
:105200000000000008000000000000000110000085
:1052100000000000C0EB00000400000034000000AB
:1052200011000000BA040000000000007805000032
:105230000000000008000000000000000110000055
:105240000000000080F000000400000034000000B6
:1052500011000000BA040000000000007805000002
:105260000000000008000000000000000110000025
:105270000000000040F500000400000017010000DD
:10528000140000003C10000000000000D0170000D7
:1052900000000000080000000000000001100000F5
:1052A000000000008005000005000000D2000000A2
:1052B000140000008B0D0000000000006C120000C4
:1052C00000000000080000000000000001100000C5
:1052D0000000000010130000050000003200000074
:1052E00012000000C004000000000000880500005B
:1052F0000000000008000000000000000110000095
:1053000000000000D017000005000000320000007F
:1053100012000000C004000000000000880500002A
:105320000000000008000000000000000110000064
:1053300000000000901C0000050000005400000068
:10534000140000002B06000000000000940800007C
:105350000000000008000000000000000110000034
:1053600000000000C022000005000000290100002C
:1053700014000000D91000000000000038190000DF
:105380000000000008000000000000000110000004
:1053900000000000A0330000050000003100000004
:1053A000140000004205000000000000D8050000C5
:1053B00000000000080000000000000001100000D4
:1053C00000000000F038000005000000350000007B
:1053D0001500000097050000000000005C060000BA
:1053E00000000000080000000000000001100000A4
:1053F00000000000903E000005000000AB0000002F
:1054000020000000A70E000000000000641700004C
:105410000000000008000000000000000110000073
:1054200000000000404D00000500000045000000A5
:1054300015000000FF05000000000000AC070000A0
:105440000000000008000000000000000110000043
:105450000000000040530000050000006C00000048
:10546000150000000908000000000000E00A00002C
:105470000000000008000000000000000110000013
:1054800000000000505B000005000000AE000000BE
:10549000190000004A0C000000000000001300008A
:1054A00000000000080000000000000001100000E3
:1054B00000000000A067000005000000B000000030
:1054C000190000002D0C0000000000003413000043
:1054D00000000000080000000000000001100000B3
:1054E00000000000D0730000050000009A000000DA
:1054F000150000005C0B000000000000A40E00007E
:105500000000000008000000000000000110000082
:1055100000000000307F0000050000009D0000003A
:1055200015000000CD0A000000000000E40E00009D
:105530000000000008000000000000000110000052
:1055400000000000008A0000050000002A000000A2
:105550001400000073040000000000004C0500006F
:105560000000000008000000000000000110000022
:1055700000000000808E0000050000002B000000ED
:10558000140000009404000000000000600500000A
:1055900000000000080000000000000001100000F2
:1055A0000000000020930000050000001F00000024
:1055B0001400000016040000000000007004000049
:1055C00000000000080000000000000001100000C2
:1055D00000000000409700000500000021000000CE
:1055E00014000000440400000000000098040000C3
:1055F0000000000008000000000000000110000092
:1056000000000000909B000005000000C4000000A6
:10561000450000005E14000000000000D8360000C5
:105620000000000008000000000000000110000061
:1056300000000000F0AF0000050000003000000096
:105640000F0000006004000000000000D40400000F
:105650000000000008000000000000000110000031
:105660000000000050B400000500000057000000DA
:1056700015000000120700000000000024090000CF
:105680000000000008000000000000000110000001
:105690000000000070BB0000050000005D0000007D
:1056A00016000000D707000000000000000A0000FC
:1056B00000000000080000000000000001100000D1
:1056C0000000000050C3000005000000B000000012
:1056D00010000000A20A000000000000040D0000FD
:1056E00000000000080000000000000001100000A1
:1056F0000000000000CE0000050000005100000086
:105700001100000082060000000000006407000095
:105710000000000008000000000000000110000070
:105720000000000090D400000500000051000000BF
:1057300011000000FC0400000000000064070000ED
:105740000000000008000000000000000110000040
:105750000000000090D9000005000000E2000000F9
:10576000190000009B0E000000000000141800004B
:105770000000000008000000000000000110000010
:105780000000000030E80000050000008D0000006F
:1057900018000000310A0000000000003C0F00006B
:1057A00000000000080000000000000001100000E0
:1057B0000000000070F20000050000009A000000E8
:1057C000190000008E0A0000000000000C1100000B
:1057D00000000000080000000000000001100000B0
:1057E0000000000000FD000005000000A000000017
:1057F000190000003D0B000000000000A411000093
:10580000000000000800000000000000011000007F
:1058100000000000400800000600000082000000B8
:1058200019000000D008000000000000B40E0000C5
:10583000000000000800000000000000011000004F
:1058400000000000101100000600000084000000AD
:10585000180000002709000000000000640E00008E
:10586000000000000800000000000000011000001F
:1058700000000000401A000006000000D4000000F4
:105880001F000000BC0A000000000000B01B000068
:1058900000000000080000000000000001100000EF
:1058A000000000000025000006000000CE000000FF
:1058B0001E000000E90A000000000000281A000095
:1058C00000000000080000000000000001100000BF
:1058D00000000000F02F000006000000990000000A
:1058E00016000000B60A000000000000280F0000AB
:1058F000000000000800000000000000011000008F
:1059000000000000B03A0000060000009500000012
:1059100016000000560A000000000000D00E000033
:10592000000000000800000000000000011000005E
:1059300000000000104500000600000032000000DA
:10594000150000004A050000000000001C060000D1
:10595000000000000800000000000000011000002E
:1059600000000000604A0000060000003200000055
:105970001500000090050000000000001C0600005B
:1059800000000000080000000000000001100000FE
:1059900000000000F04F0000060000004200000080
:1059A00013000000AD05000000000000E806000044
:1059B00000000000080000000000000001100000CE
:1059C00000000000A055000006000000C900000013
:1059D00016000000060D0000000000004813000043
:1059E000000000000800000000000000011000009E
:1059F00000000000B062000006000000C5000000CA
:105A000015000000C80D0000000000002C1200006E
:105A1000000000000800000000000000011000006D
:105A2000000000008070000006000000BC000000C4
:105A300016000000A00D0000000000002C12000065
:105A4000000000000800000000000000011000003D
:105A500000000000207E000006000000BA000000E8
:105A600015000000280E0000000000004411000096
:105A7000000000000800000000000000011000000D
:105A800000000000508C000006000000DD00000057
:105A900014000000980E00000000000048130000F1
:105AA00000000000080000000000000001100000DD
:105AB00000000000F09A000006000000DE00000078
:105AC00014000000890E0000000000005C130000BC
:105AD00000000000080000000000000001100000AD
:105AE0000000000080A90000060000004200000045
:105AF00016000000F105000000000000B0070000E3
:105B0000000000000800000000000000011000007C
:105B10000000000080AF000006000000420000000E
:105B20001500000064060000000000006C07000083
:105B3000000000000800000000000000011000004C
:105B400000000000F0B50000060000004E0000005C
:105B500018000000180700000000000054090000B1
:105B6000000000000800000000000000011000001C
:105B70000000000010BD000006000000DD00000075
:105B800016000000AE0D000000000000001500002F
:105B900000000000080000000000000001100000EC
:105BA00000000000C0CA000006000000E100000084
:105BB00016000000180F000000000000581500003B
:105BC00000000000080000000000000001100000BC
:105BD00000000000E0D900000600000006010000FF
:105BE00013000000C50F0000000000007415000045
:105BF000000000000800000000000000011000008C
:105C000000000000B0E90000060000006D00000088
:105C10001A0000005C09000000000000140D0000E4
:105C2000000000000800000000000000011000005B
:105C30000000000010F30000060000006B000000F0
:105C40001800000072090000000000000C0C0000A9
:105C5000000000000800000000000000011000002B
:105C60000000000090FC0000060000008000000022
:105C7000140000006A09000000000000040C00008D
:105C800000000000080000000000000001100000FB
:105C90000000000000060000070000006F00000088
:105CA000150000002A080000000000001C0B000086
:105CB00000000000080000000000000001100000CB
:105CC00000000000300E0000070000006D00000022
:105CD000140000007C08000000000000880A00009A
:105CE000000000000800000000000000011000009B
:105CF00000000000B0160000070000007F00000058
:105D0000140000007F09000000000000F00B0000FC
:105D1000000000000800000000000000011000006A
:105D20000000000030200000070000004F000000CD
:105D3000190000002007000000000000B809000062
:105D4000000000000800000000000000011000003A
:105D50000000000050270000070000009400000031
:105D600010000000F008000000000000440B0000DC
:105D7000000000000800000000000000011000000A
:105D80000000000040300000070000004F0000004D
:105D900014000000E80600000000000030080000C9
:105DA00000000000080000000000000001100000DA
:105DB000000000003037000007000000DB0000009A
:105DC0001A0000001410000000000000401800003D
:105DD00000000000080000000000000001100000AA
:105DE00000000000504700000700000070000000A5
:105DF00015000000BD08000000000000340B00008A
:105E00000000000008000000000000000110000079
:105E1000000000001050000007000000E500000036
:105E20001A0000005D0F000000000000441900008F
:105E30000000000008000000000000000110000049
:105E400000000000705F000007000000D5000000A7
:105E500011000000C60B0000000000002810000028
:105E60000000000008000000000000000110000019
:105E700000000000406B0000070000009B000000D5
:105E800010000000B609000000000000B40B000084
:105E900000000000080000000000000001100000E9
:105EA000000000000075000007000000B0000000C6
:105EB00013000000D20A000000000000140F0000D0
:105EC00000000000080000000000000001100000B9
:105ED00000000000E07F000007000000F800000064
:105EE00013000000640E0000000000006C140000AD
:105EF0000000000008000000000000000110000089
:105F000000000000508E0000070000008700000025
:105F1000100000008808000000000000740A000063
:105F20000000000008000000000000000110000058
:105F300000000000E096000007000000BB00000029
:105F400016000000E50D0000000000001412000023
:105F50000000000008000000000000000110000028
:105F600000000000D0A40000070000007F00000037
:105F700016000000BD09000000000000EC0C00004D
:105F800000000000080000000000000001100000F8
:105F90000000000090AE0000070000005600000066
:105FA00014000000E906000000000000BC0800002A
:105FB00000000000080000000000000001100000C8
:105FC0000000000080B50000070000007100000024
:105FD00011000000DB070000000000008409000041
:105FE0000000000008000000000000000110000098
:105FF0000000000060BD000007000000710000000C
:10600000110000000E0600000000000084090000DE
:106010000000000008000000000000000110000067
:106020000000000070C300000700000087000000AF
:10603000190000000A0A000000000000300F0000F4
:106040000000000008000000000000000110000037
:106050000000000080CD0000070000006F0000007D
:10606000290000002C0D000000000000C8130000F3
:106070000000000008000000000000000110000007
:1060800000000000B0DA0000070000006F00000010
:10609000290000003709000000000000C8130000BC
:1060A00000000000080000000000000001100000D7
:1060B00000000000F0E30000070000004C000000BA
:1060C000110000009D050000000000001007000006
:1060D00000000000080000000000000001100000A7
:1060E0000000000090E90000070000004C000000E4
:1060F0001100000043040000000000001007000031
:106100000000000008000000000000000110000076
:1061100000000000E0ED0000070000009D0000000E
:106120002A0000000812000000000000C41B00004C
:106130000000000008000000000000000110000046
:1061400000000000F0FF0000070000003401000024
:10615000150000001914000000000000481B00009A
:106160000000000008000000000000000110000016
:1061700000000000101400000800000034010000BE
:10618000140000001D12000000000000141A00009E
:1061900000000000080000000000000001100000E6
:1061A0000000000030260000080000000B01000085
:1061B00018000000EE100000000000000C1B0000A2
:1061C00000000000080000000000000001100000B6
:1061D000000000002037000008000000E40000007C
:1061E00032000000F6150000000000008C2E0000B8
:1061F0000000000008000000000000000110000086
:1062000000000000204D000008000000F200000027
:10621000180000002C0F000000000000B41800005F
:106220000000000008000000000000000110000055
:1062300000000000505C0000080000008200000028
:1062400015000000E008000000000000AC0C000099
:106250000000000008000000000000000110000025
:10626000000000003065000008000000E5000000AC
:10627000290000002B14000000000000B0260000E0
:1062800000000000080000000000000001100000F5
:10629000000000006079000008000000E400000039
:1062A000190000007A0F00000000000048180000EC
:1062B00000000000080000000000000001100000C5
:1062C00000000000E088000008000000A8000000B6
:1062D000100000004A0A000000000000840C0000CA
:1062E0000000000008000000000000000110000095
:1062F000000000003093000008000000B40000001F
:10630000130000004C0B000000000000600F0000B4
:106310000000000008000000000000000110000064
:1063200000000000809E0000080000000301000043
:10633000460000000D18000000000000D4480000D6
:106340000000000008000000000000000110000034
:106350000000000090B6000008000000710000007E
:1063600014000000A007000000000000D80A000090
:106370000000000008000000000000000110000004
:106380000000000030BE000008000000AC0000006B
:1063900019000000140C000000000000D0120000E2
:1063A00000000000080000000000000001100000D4
:1063B0000000000050CA000008000000A900000012
:1063C00019000000440D00000000000084120000CD
:1063D00000000000080000000000000001100000A4
:1063E00000000000A0D7000008000000D30000005B
:1063F00018000000090E000000000000CC1500008D
:106400000000000008000000000000000110000073
:1064100000000000B0E50000080000006700000078
:10642000160000005808000000000000DC0A000010
:106430000000000008000000000000000110000043
:106440000000000010EE00000800000067000000DF
:1064500016000000CD08000000000000DC0A00006B
:106460000000000008000000000000000110000013
:1064700000000000E0F600000800000088000000B6
:1064800014000000000A000000000000A40C00003E
:1064900000000000080000000000000001100000E3
:1064A00000000000E00000000900000053000000B0
:1064B000150000000D07000000000000D0080000DB
:1064C00000000000080000000000000001100000B3
:1064D00000000000F007000009000000520000006A
:1064E000150000008707000000000000BC08000045
:1064F0000000000008000000000000000110000083
:1065000000000000800F0000090000006100000092
:106510001400000048080000000000009809000076
:106520000000000008000000000000000110000052
:1065300000000000D017000009000000CB000000A0
:106540001A0000006E0D000000000000A016000000
:106550000000000008000000000000000110000022
:10656000000000004025000009000000C8000000F5
:1065700019000000BC0E0000000000008C15000097
:1065800000000000080000000000000001100000F2
:10659000000000000034000009000000F7000000C7
:1065A000170000000910000000000000341800006F
:1065B00000000000080000000000000001100000C2
:1065C000000000001044000009000000540000001A
:1065D0001A00000049070000000000008C0A0000BB
:1065E0000000000008000000000000000110000092
:1065F00000000000604B0000090000005600000091
:10660000190000005807000000000000680A0000A0
:106610000000000008000000000000000110000061
:1066200000000000C0520000090000009B000000B4
:1066300015000000410B000000000000B80E000033
:106640000000000008000000000000000110000031
:1066500000000000105E0000090000006100000062
:10666000150000007907000000000000F809000094
:106670000000000008000000000000000110000001
:1066800000000000906500000900000060000000AC
:10669000150000000108000000000000E4090000EF
:1066A00000000000080000000000000001100000D1
:1066B00000000000A06D000009000000670000005D
:1066C0001A000000DB07000000000000780C00004A
:1066D00000000000080000000000000001100000A1
:1066E0000000000080750000090000006500000047
:1066F000190000006C08000000000000E00B000022
:106700000000000008000000000000000110000070
:1067100000000000F07D0000090000005E000000A5
:10672000190000007F07000000000000300B00008F
:106730000000000008000000000000000110000040
:106740000000000070850000090000005D000000EE
:10675000190000001008000000000000180B0000E5
:106760000000000008000000000000000110000010
:1067700000000000808D000009000000870000007C
:10678000150000009309000000000000140D000037
:1067900000000000080000000000000001100000E0
:1067A00000000000209700000900000086000000A3
:1067B00015000000570A000000000000000D000056
:1067C00000000000080000000000000001100000B0
:1067D0000000000080A1000009000000A5000000EA
:1067E00018000000F60B0000000000007C11000003
:1067F0000000000008000000000000000110000080
:106800000000000080AD000009000000AA000000A8
:10681000160000008B0B000000000000A01000001C
:10682000000000000800000000000000011000004F
:106830000000000010B9000009000000A7000000DF
:10684000150000004E0C000000000000B40F000016
:10685000000000000800000000000000011000001F
:106860000000000060C5000009000000C00000003A
:1068700018000000560C0000000000000414000086
:1068800000000000080000000000000001100000EF
:1068900000000000C0D10000090000008E000000D0
:1068A00014000000100A0000000000001C0D000091
:1068B00000000000080000000000000001100000BF
:1068C00000000000D0DB0000090000005F000000B5
:1068D0001600000088070000000000002C0A0000DD
:1068E000000000000800000000000000011000008F
:1068F0000000000060E30000090000004700000005
:1069000013000000FF050000000000004807000021
:10691000000000000800000000000000011000005E
:106920000000000060E900000900000047000000CE
:1069300013000000BE040000000000004807000033
:10694000000000000800000000000000011000002E
:106950000000000020EE000009000000950000008B
:1069600014000000780A000000000000A80D0000DC
:1069700000000000080000000000000001100000FE
:1069800000000000A0F80000090000006100000005
:106990001A0000007708000000000000DC0B000077
:1069A00000000000080000000000000001100000CE
:1069B00000000000200100000A0000005F0000004D
:1069C00019000000BC08000000000000480B000097
:1069D000000000000800000000000000011000009E
:1069E00000000000E00900000A0000006D00000047
:1069F0001800000002090000000000003C0C00002C
:106A0000000000000800000000000000011000006D
:106A100000000000F01200000A000000DC0000008E
:106A20001A0000003E0F0000000000005C1800008B
:106A3000000000000800000000000000011000003D
:106A400000000000302200000A000000D800000012
:106A500019000000C50F0000000000001C17000016
:106A6000000000000800000000000000011000000D
:106A700000000000003200000A00000007010000D2
:106A800018000000DE10000000000000AC1A00003A
:106A900000000000080000000000000001100000DD
:106AA00000000000E04200000A000000C7000000F3
:106AB00015000000E50B000000000000541200006B
:106AC00000000000080000000000000001100000AD
:106AD00000000000D04E00000A000000CB000000C3
:106AE00015000000400F000000000000A812000088
:106AF000000000000800000000000000011000007D
:106B000000000000105E00000A00000049000000C4
:106B1000140000000A06000000000000B807000092
:106B2000000000000800000000000000011000004C
:106B300000000000206400000A000000490000007E
:106B400014000000B904000000000000B8070000B5
:106B5000000000000800000000000000011000001C
:106B600000000000E06800000A0000004001000092
:106B700015000000AF12000000000000441C0000DF
:106B800000000000080000000000000001100000EC
:106B900000000000907B00000A000000FA000000E6
:106BA00018000000170F000000000000741900001A
:106BB00000000000080000000000000001100000BC
:106BC00000000000B08A00000A000000560000002B
:106BD00015000000A70600000000000010090000DA
:106BE000000000000800000000000000011000008C
:106BF00000000000609100000A0000005600000044
:106C0000150000002E050000000000001009000023
:106C1000000000000800000000000000011000005B
:106C200000000000909600000A00000060000000D4
:106C300015000000AE07000000000000E40900009D
:106C4000000000000800000000000000011000002B
:106C500000000000409E00000A0000004601000005
:106C600045000000A420000000000000E0590000E2
:106C700000000000080000000000000001100000FB
:106C800000000000F0BE00000A0000003900000013
:106C900016000000B605000000000000E806000035
:106CA00000000000080000000000000001100000CB
:106CB00000000000B0C400000A000000390000001D
:106CC00016000000EB05000000000000E8060000D0
:106CD000000000000800000000000000011000009B
:106CE00000000000A0CA00000A000000DD00000053
:106CF000200000003013000000000000A41D000070
:106D0000000000000800000000000000011000006A
:106D100000000000D0DD00000A000000520000006A
:106D2000180000005207000000000000B409000035
:106D3000000000000800000000000000011000003A
:106D40000000000030E500000A00000077000000AD
:106D500015000000A809000000000000C40B00009E
:106D6000000000000800000000000000011000000A
:106D700000000000E0EE00000A000000D00000006B
:106D800019000000110E0000000000005416000061
:106D900000000000080000000000000001100000DA
:106DA0000000000000FD00000A000000CB00000011
:106DB00018000000C50E0000000000000C150000C7
:106DC00000000000080000000000000001100000AA
:106DD00000000000D00B00000B000000BB00000012
:106DE00019000000AD0C0000000000004414000079
:106DF000000000000800000000000000011000007A
:106E000000000000801800000B000000B800000027
:106E1000180000005D0D0000000000004413000099
:106E20000000000008000000000000000110000049
:106E300000000000E02500000B000000150000002D
:106E4000170000009D03000000000000E4030000A4
:106E50000000000008000000000000000110000019
:106E600000000000802900000B0000001500000059
:106E7000160000009A03000000000000D00300008C
:106E800000000000080000000000000001100000E9
:106E900000000000202D00000B0000002100000079
:106EA000150000005604000000000000B8040000B7
:106EB00000000000080000000000000001100000B9
:106EC00000000000803100000B0000001F000000E7
:106ED00014000000330400000000000070040000F3
:106EE0000000000008000000000000000110000089
:106EF00000000000C03500000B0000008E00000004
:106F00004B0000008A100000000000009C2B0000D5
:106F10000000000008000000000000000110000058
:106F200000000000504600000B0000002F00000091
:106F30000F0000005A04000000000000C40400001C
:106F40000000000008000000000000000110000028
:106F500000000000B04A00000B0000007D000000AF
:106F60000E000000D207000000000000D80800005A
:106F700000000000080000000000000001100000F8
:106F800000000000905200000B0000007E00000096
:106F90000E000000E907000000000000E808000003
:106FA00000000000080000000000000001100000C8
:106FB00000000000805A00000B0000006C00000080
:106FC000100000006707000000000000C408000077
:106FD0000000000008000000000000000110000098
:106FE00000000000F06100000B0000004300000002
:106FF000110000008B050000000000007406000076
:107000000000000008000000000000000110000067
:1070100000000000806700000B000000430000003B
:107020001100000060040000000000007406000071
:107030000000000008000000000000000110000037
:1070400000000000E06B00000B00000020010000C9
:1070500030000000DB1900000000000004380000D0
:107060000000000008000000000000000110000007
:1070700000000000C08500000B000000EE000000D2
:107080002800000033140000000000003427000036
:1070900000000000080000000000000001100000D7
:1070A00000000000009A00000B000000B00000008B
:1070B00019000000B80B00000000000034130000AD
:1070C00000000000080000000000000001100000A7
:1070D00000000000C0A500000B000000B40000008C
:1070E00018000000150C000000000000E412000071
:1070F0000000000008000000000000000110000077
:1071000000000000E0B100000B000000970000004C
:10711000240000004C0F0000000000004017000099
:107120000000000008000000000000000110000046
:107130000000000030C100000B0000009D000000B6
:1071400024000000281000000000000018180000B3
:107150000000000008000000000000000110000016
:107160000000000060D100000B000000D40000000F
:107170001F000000BC0A000000000000B01B00005F
:1071800000000000080000000000000001100000E6
:107190000000000020DC00000B000000CE0000001A
:1071A0001E000000E90A000000000000281A00008C
:1071B00000000000080000000000000001100000B6
:1071C0000000000010E700000B0000009900000024
:1071D00016000000B60A000000000000280F0000A2
:1071E0000000000008000000000000000110000086
:1071F00000000000D0F100000B000000950000002E
:1072000016000000560A000000000000D00E00002A
:107210000000000008000000000000000110000055
:107220000000000030FC00000B0000002C000000FB
:10723000150000001105000000000000A00500007E
:107240000000000008000000000000000110000025
:1072500000000000500100000C0000002B000000A6
:107260001500000027050000000000008805000050
:1072700000000000080000000000000001100000F5
:1072800000000000800600000C0000003600000036
:10729000100000007F0400000000000064050000F2
:1072A00000000000080000000000000001100000C5
:1072B00000000000000B00000C000000BD000000FA
:1072C0001A0000008A0C00000000000034150000C5
:1072D0000000000008000000000000000110000095
:1072E00000000000901700000C000000B900000032
:1072F000180000005C0D0000000000005C1300009E
:107300000000000008000000000000000110000064
:1073100000000000F02400000C00000071000000DC
:10732000160000002B08000000000000B80B000051
:107330000000000008000000000000000110000034
:1073400000000000202D00000C0000007000000074
:1073500015000000D908000000000000340B0000F8
:107360000000000008000000000000000110000004
:1073700000000000003600000C0000008D0000003E
:10738000130000003C09000000000000780C000021
:1073900000000000080000000000000001100000D4
:1073A00000000000403F00000C0000008C000000C6
:1073B000140000004D09000000000000F40C000063
:1073C00000000000080000000000000001100000A4
:1073D00000000000904800000C0000005300000076
:1073E00016000000F3060000000000002409000061
:1073F0000000000008000000000000000110000074
:1074000000000000904F00000C000000520000003F
:10741000150000006407000000000000BC08000028
:107420000000000008000000000000000110000043
:1074300000000000005700000C0000005E0000008B
:1074400016000000A407000000000000180A000059
:107450000000000008000000000000000110000013
:1074600000000000B05E00000C000000880000007A
:107470001A000000070A000000000000D40F0000FE
:1074800000000000080000000000000001100000E3
:1074900000000000C06800000C0000008700000031
:1074A000190000008B0A000000000000300F0000EF
:1074B00000000000080000000000000001100000B3
:1074C00000000000507300000C000000A30000004A
:1074D00018000000910B0000000000004C1100009B
:1074E0000000000008000000000000000110000083
:1074F00000000000F07E00000C00000041000000D1
:1075000016000000FA0500000000000098070000C7
:107510000000000008000000000000000110000052
:1075200000000000F08400000C000000400000009B
:10753000150000002B0600000000000044070000BA
:107540000000000008000000000000000110000022
:1075500000000000208B00000C000000550000001F
:1075600018000000FC06000000000000FC090000FC
:1075700000000000080000000000000001100000F2
:1075800000000000209200000C0000007E000000BF
:1075900015000000E208000000000000580C000088
:1075A00000000000080000000000000001100000C2
:1075B00000000000109B00000C0000007B00000099
:1075C000140000001A09000000000000A00B0000D9
:1075D0000000000008000000000000000110000092
:1075E0000000000030A400000C0000008B00000030
:1075F00014000000BE09000000000000E00C0000C4
:107600000000000008000000000000000110000061
:1076100000000000F0AD00000C000000420000007F
:10762000180000008E060000000000003408000072
:107630000000000008000000000000000110000031
:107640000000000080B400000C000000A100000059
:10765000100000005909000000000000140C000098
:107660000000000008000000000000000110000001
:1076700000000000E0BD00000C0000004C00000015
:10768000140000006C06000000000000F407000079
:1076900000000000080000000000000001100000D1
:1076A0000000000050C400000C000000D4000000E6
:1076B0001A000000C20F0000000000008C1700003C
:1076C00000000000080000000000000001100000A1
:1076D0000000000020D400000C0000002500000085
:1076E0001500000032040000000000000C0500003E
:1076F0000000000008000000000000000110000071
:107700000000000060D800000C000000B400000081
:1077100016000000CE0B0000000000007C110000ED
:107720000000000008000000000000000110000040
:107730000000000030E400000C000000C700000062
:1077400010000000000B000000000000740E00009C
:107750000000000008000000000000000110000010
:107760000000000030EF00000C000000E500000009
:1077700011000000500C0000000000003811000053
:1077800000000000080000000000000001100000E0
:107790000000000080FB00000C000000B3000000AF
:1077A00013000000BB0A0000000000004C0F0000A6
:1077B00000000000080000000000000001100000B0
:1077C00000000000400600000D000000DF00000087
:1077D00011000000CA0B000000000000D0100000E3
:1077E0000000000008000000000000000110000080
:1077F00000000000101200000D00000097000000C3
:10780000100000002E09000000000000740B0000B2
:10781000000000000800000000000000011000004F
:1078200000000000401B00000D000000B60000003A
:1078300015000000BE0C000000000000F010000069
:10784000000000000800000000000000011000001F
:1078500000000000002800000D0000000C010000E6
:10786000190000002B12000000000000301C000076
:1078700000000000080000000000000001100000EF
:1078800000000000303A00000D000000660000001B
:1078900013000000B307000000000000940900007E
:1078A00000000000080000000000000001100000BF
:1078B00000000000F04100000D0000007200000018
:1078C00011000000D1070000000000009409000032
:1078D000000000000800000000000000011000008F
:1078E00000000000D04900000D0000007200000000
:1078F00011000000080600000000000094090000CC
:10790000000000000800000000000000011000005E
:1079100000000000E04F00000D0000009900000092
:1079200019000000690B000000000000F4100000C6
:10793000000000000800000000000000011000002E
:1079400000000000505B00000D0000006F00000010
:1079500029000000DD0C000000000000C81300003A
:1079600000000000080000000000000001100000FE
:1079700000000000306800000D0000006D000000F5
:1079800028000000AE080000000000000C130000FA
:1079900000000000080000000000000001100000CE
:1079A00000000000E07000000D0000003600000044
:1079B000110000000705000000000000980500000D
:1079C000000000000800000000000000011000009E
:1079D00000000000F07500000D00000036000000FF
:1079E00011000000FC0300000000000098050000EA
:1079F000000000000800000000000000011000006E
:107A000000000000F07900000D000000C000000040
:107A1000270000000212000000000000441F0000C8
:107A2000000000000800000000000000011000003D
:107A300000000000008C00000D000000F2000000BB
:107A400018000000A70F000000000000B41800009C
:107A5000000000000800000000000000011000000D
:107A600000000000B09B00000D000000AD00000011
:107A70002B000000CB11000000000000101F0000D0
:107A800000000000080000000000000001100000DD
:107A90000000000080AD00000D0000002B01000080
:107AA0001800000058120000000000000C1E00002A
:107AB00000000000080000000000000001100000AD
:107AC00000000000E0BF00000D00000026010000E3
:107AD00019000000F910000000000000B81E0000AE
